{
  "_format": "hh3-artifact-1",
  "contractName": "MarketPlace",
  "sourceName": "contracts/MarketPlace.sol",
  "abi": [
    {
      "inputs": [
        {
          "internalType": "address",
          "name": "_initialOwner",
          "type": "address"
        },
        {
          "internalType": "address",
          "name": "_usdcToken",
          "type": "address"
        },
        {
          "internalType": "address",
          "name": "_feeCollector",
          "type": "address"
        },
        {
          "internalType": "uint256",
          "name": "_feeBps",
          "type": "uint256"
        }
      ],
      "stateMutability": "nonpayable",
      "type": "constructor"
    },
    {
      "inputs": [],
      "name": "InvalidShortString",
      "type": "error"
    },
    {
      "inputs": [
        {
          "internalType": "address",
          "name": "owner",
          "type": "address"
        }
      ],
      "name": "OwnableInvalidOwner",
      "type": "error"
    },
    {
      "inputs": [
        {
          "internalType": "address",
          "name": "account",
          "type": "address"
        }
      ],
      "name": "OwnableUnauthorizedAccount",
      "type": "error"
    },
    {
      "inputs": [],
      "name": "ReentrancyGuardReentrantCall",
      "type": "error"
    },
    {
      "inputs": [
        {
          "internalType": "string",
          "name": "str",
          "type": "string"
        }
      ],
      "name": "StringTooLong",
      "type": "error"
    },
    {
      "anonymous": false,
      "inputs": [
        {
          "indexed": false,
          "internalType": "bool",
          "name": "",
          "type": "bool"
        },
        {
          "indexed": false,
          "internalType": "bytes",
          "name": "",
          "type": "bytes"
        }
      ],
      "name": "CallResponseEvent",
      "type": "event"
    },
    {
      "anonymous": false,
      "inputs": [
        {
          "indexed": true,
          "internalType": "address",
          "name": "account",
          "type": "address"
        },
        {
          "indexed": true,
          "internalType": "address",
          "name": "token",
          "type": "address"
        },
        {
          "indexed": false,
          "internalType": "uint256",
          "name": "amount",
          "type": "uint256"
        }
      ],
      "name": "Deposited",
      "type": "event"
    },
    {
      "anonymous": false,
      "inputs": [],
      "name": "EIP712DomainChanged",
      "type": "event"
    },
    {
      "anonymous": false,
      "inputs": [
        {
          "indexed": true,
          "internalType": "address",
          "name": "maker",
          "type": "address"
        },
        {
          "indexed": false,
          "internalType": "uint64",
          "name": "nonce",
          "type": "uint64"
        }
      ],
      "name": "OrderCancelled",
      "type": "event"
    },
    {
      "anonymous": false,
      "inputs": [
        {
          "indexed": true,
          "internalType": "address",
          "name": "previousOwner",
          "type": "address"
        },
        {
          "indexed": true,
          "internalType": "address",
          "name": "newOwner",
          "type": "address"
        }
      ],
      "name": "OwnershipTransferred",
      "type": "event"
    },
    {
      "anonymous": false,
      "inputs": [
        {
          "indexed": true,
          "internalType": "address",
          "name": "buyer",
          "type": "address"
        },
        {
          "indexed": true,
          "internalType": "address",
          "name": "seller",
          "type": "address"
        },
        {
          "indexed": true,
          "internalType": "address",
          "name": "propertyToken",
          "type": "address"
        },
        {
          "indexed": false,
          "internalType": "uint256",
          "name": "filled",
          "type": "uint256"
        },
        {
          "indexed": false,
          "internalType": "uint256",
          "name": "pricePerShare",
          "type": "uint256"
        },
        {
          "indexed": false,
          "internalType": "uint256",
          "name": "totalNotional",
          "type": "uint256"
        },
        {
          "indexed": false,
          "internalType": "uint256",
          "name": "fee",
          "type": "uint256"
        }
      ],
      "name": "TradeExecuted",
      "type": "event"
    },
    {
      "anonymous": false,
      "inputs": [
        {
          "indexed": true,
          "internalType": "address",
          "name": "account",
          "type": "address"
        },
        {
          "indexed": true,
          "internalType": "address",
          "name": "token",
          "type": "address"
        },
        {
          "indexed": false,
          "internalType": "uint256",
          "name": "amount",
          "type": "uint256"
        }
      ],
      "name": "Withdrawn",
      "type": "event"
    },
    {
      "inputs": [],
      "name": "BUY_ORDER_TYPEHASH",
      "outputs": [
        {
          "internalType": "bytes32",
          "name": "",
          "type": "bytes32"
        }
      ],
      "stateMutability": "view",
      "type": "function"
    },
    {
      "inputs": [],
      "name": "HTS",
      "outputs": [
        {
          "internalType": "contract IHederaTokenService",
          "name": "",
          "type": "address"
        }
      ],
      "stateMutability": "view",
      "type": "function"
    },
    {
      "inputs": [],
      "name": "SELL_ORDER_TYPEHASH",
      "outputs": [
        {
          "internalType": "bytes32",
          "name": "",
          "type": "bytes32"
        }
      ],
      "stateMutability": "view",
      "type": "function"
    },
    {
      "inputs": [
        {
          "internalType": "uint64",
          "name": "nonce",
          "type": "uint64"
        }
      ],
      "name": "cancelOrder",
      "outputs": [],
      "stateMutability": "nonpayable",
      "type": "function"
    },
    {
      "inputs": [
        {
          "internalType": "address",
          "name": "",
          "type": "address"
        },
        {
          "internalType": "uint256",
          "name": "",
          "type": "uint256"
        }
      ],
      "name": "cancelled",
      "outputs": [
        {
          "internalType": "bool",
          "name": "",
          "type": "bool"
        }
      ],
      "stateMutability": "view",
      "type": "function"
    },
    {
      "inputs": [
        {
          "internalType": "address",
          "name": "token",
          "type": "address"
        },
        {
          "internalType": "uint256",
          "name": "amount",
          "type": "uint256"
        }
      ],
      "name": "depositToken",
      "outputs": [],
      "stateMutability": "nonpayable",
      "type": "function"
    },
    {
      "inputs": [],
      "name": "eip712Domain",
      "outputs": [
        {
          "internalType": "bytes1",
          "name": "fields",
          "type": "bytes1"
        },
        {
          "internalType": "string",
          "name": "name",
          "type": "string"
        },
        {
          "internalType": "string",
          "name": "version",
          "type": "string"
        },
        {
          "internalType": "uint256",
          "name": "chainId",
          "type": "uint256"
        },
        {
          "internalType": "address",
          "name": "verifyingContract",
          "type": "address"
        },
        {
          "internalType": "bytes32",
          "name": "salt",
          "type": "bytes32"
        },
        {
          "internalType": "uint256[]",
          "name": "extensions",
          "type": "uint256[]"
        }
      ],
      "stateMutability": "view",
      "type": "function"
    },
    {
      "inputs": [
        {
          "internalType": "address",
          "name": "",
          "type": "address"
        },
        {
          "internalType": "address",
          "name": "",
          "type": "address"
        }
      ],
      "name": "escrowBalances",
      "outputs": [
        {
          "internalType": "uint256",
          "name": "",
          "type": "uint256"
        }
      ],
      "stateMutability": "view",
      "type": "function"
    },
    {
      "inputs": [],
      "name": "feeBps",
      "outputs": [
        {
          "internalType": "uint256",
          "name": "",
          "type": "uint256"
        }
      ],
      "stateMutability": "view",
      "type": "function"
    },
    {
      "inputs": [],
      "name": "feeCollector",
      "outputs": [
        {
          "internalType": "address",
          "name": "",
          "type": "address"
        }
      ],
      "stateMutability": "view",
      "type": "function"
    },
    {
      "inputs": [
        {
          "internalType": "address",
          "name": "token",
          "type": "address"
        },
        {
          "internalType": "address",
          "name": "account",
          "type": "address"
        }
      ],
      "name": "getEscrowBalance",
      "outputs": [
        {
          "internalType": "uint256",
          "name": "",
          "type": "uint256"
        }
      ],
      "stateMutability": "view",
      "type": "function"
    },
    {
      "inputs": [],
      "name": "getFeeBps",
      "outputs": [
        {
          "internalType": "uint256",
          "name": "",
          "type": "uint256"
        }
      ],
      "stateMutability": "view",
      "type": "function"
    },
    {
      "inputs": [],
      "name": "getFeeCollector",
      "outputs": [
        {
          "internalType": "address",
          "name": "",
          "type": "address"
        }
      ],
      "stateMutability": "view",
      "type": "function"
    },
    {
      "inputs": [
        {
          "internalType": "address",
          "name": "maker",
          "type": "address"
        },
        {
          "internalType": "uint64",
          "name": "nonce",
          "type": "uint64"
        }
      ],
      "name": "getRemaining",
      "outputs": [
        {
          "internalType": "uint256",
          "name": "",
          "type": "uint256"
        }
      ],
      "stateMutability": "view",
      "type": "function"
    },
    {
      "inputs": [],
      "name": "getUSDC",
      "outputs": [
        {
          "internalType": "address",
          "name": "",
          "type": "address"
        }
      ],
      "stateMutability": "view",
      "type": "function"
    },
    {
      "inputs": [
        {
          "internalType": "uint64",
          "name": "nonce",
          "type": "uint64"
        },
        {
          "internalType": "address",
          "name": "",
          "type": "address"
        },
        {
          "internalType": "uint64",
          "name": "amount",
          "type": "uint64"
        }
      ],
      "name": "initBuyOrder",
      "outputs": [],
      "stateMutability": "nonpayable",
      "type": "function"
    },
    {
      "inputs": [
        {
          "internalType": "uint64",
          "name": "nonce",
          "type": "uint64"
        },
        {
          "internalType": "address",
          "name": "propertyToken",
          "type": "address"
        },
        {
          "internalType": "uint64",
          "name": "amount",
          "type": "uint64"
        }
      ],
      "name": "initSellOrder",
      "outputs": [],
      "stateMutability": "nonpayable",
      "type": "function"
    },
    {
      "inputs": [
        {
          "internalType": "address",
          "name": "maker",
          "type": "address"
        },
        {
          "internalType": "uint64",
          "name": "nonce",
          "type": "uint64"
        }
      ],
      "name": "isCancelled",
      "outputs": [
        {
          "internalType": "bool",
          "name": "",
          "type": "bool"
        }
      ],
      "stateMutability": "view",
      "type": "function"
    },
    {
      "inputs": [],
      "name": "owner",
      "outputs": [
        {
          "internalType": "address",
          "name": "",
          "type": "address"
        }
      ],
      "stateMutability": "view",
      "type": "function"
    },
    {
      "inputs": [
        {
          "internalType": "address",
          "name": "token",
          "type": "address"
        },
        {
          "internalType": "bytes",
          "name": "encodedFunctionSelector",
          "type": "bytes"
        }
      ],
      "name": "redirectForToken",
      "outputs": [
        {
          "internalType": "int256",
          "name": "responseCode",
          "type": "int256"
        },
        {
          "internalType": "bytes",
          "name": "response",
          "type": "bytes"
        }
      ],
      "stateMutability": "nonpayable",
      "type": "function"
    },
    {
      "inputs": [
        {
          "internalType": "address",
          "name": "",
          "type": "address"
        },
        {
          "internalType": "uint256",
          "name": "",
          "type": "uint256"
        }
      ],
      "name": "remaining",
      "outputs": [
        {
          "internalType": "uint256",
          "name": "",
          "type": "uint256"
        }
      ],
      "stateMutability": "view",
      "type": "function"
    },
    {
      "inputs": [],
      "name": "renounceOwnership",
      "outputs": [],
      "stateMutability": "nonpayable",
      "type": "function"
    },
    {
      "inputs": [
        {
          "internalType": "uint256",
          "name": "bps",
          "type": "uint256"
        }
      ],
      "name": "setFeeBps",
      "outputs": [],
      "stateMutability": "nonpayable",
      "type": "function"
    },
    {
      "inputs": [
        {
          "internalType": "address",
          "name": "fc",
          "type": "address"
        }
      ],
      "name": "setFeeCollector",
      "outputs": [],
      "stateMutability": "nonpayable",
      "type": "function"
    },
    {
      "inputs": [
        {
          "internalType": "address",
          "name": "token",
          "type": "address"
        }
      ],
      "name": "setUSDC",
      "outputs": [],
      "stateMutability": "nonpayable",
      "type": "function"
    },
    {
      "inputs": [
        {
          "components": [
            {
              "internalType": "address",
              "name": "maker",
              "type": "address"
            },
            {
              "internalType": "address",
              "name": "propertyToken",
              "type": "address"
            },
            {
              "internalType": "uint256",
              "name": "remainingAmount",
              "type": "uint256"
            },
            {
              "internalType": "uint256",
              "name": "pricePerShare",
              "type": "uint256"
            },
            {
              "internalType": "uint256",
              "name": "expiry",
              "type": "uint256"
            },
            {
              "internalType": "uint256",
              "name": "nonce",
              "type": "uint256"
            }
          ],
          "internalType": "struct MarketPlace.BuyOrder",
          "name": "buy",
          "type": "tuple"
        },
        {
          "internalType": "bytes",
          "name": "buySig",
          "type": "bytes"
        },
        {
          "components": [
            {
              "internalType": "address",
              "name": "maker",
              "type": "address"
            },
            {
              "internalType": "address",
              "name": "propertyToken",
              "type": "address"
            },
            {
              "internalType": "uint256",
              "name": "remainingAmount",
              "type": "uint256"
            },
            {
              "internalType": "uint256",
              "name": "pricePerShare",
              "type": "uint256"
            },
            {
              "internalType": "uint256",
              "name": "expiry",
              "type": "uint256"
            },
            {
              "internalType": "uint256",
              "name": "nonce",
              "type": "uint256"
            }
          ],
          "internalType": "struct MarketPlace.SellOrder",
          "name": "sell",
          "type": "tuple"
        },
        {
          "internalType": "bytes",
          "name": "sellSig",
          "type": "bytes"
        }
      ],
      "name": "settle",
      "outputs": [],
      "stateMutability": "nonpayable",
      "type": "function"
    },
    {
      "inputs": [
        {
          "internalType": "address",
          "name": "tokenId",
          "type": "address"
        }
      ],
      "name": "tokenAssociate",
      "outputs": [],
      "stateMutability": "nonpayable",
      "type": "function"
    },
    {
      "inputs": [
        {
          "internalType": "address",
          "name": "token",
          "type": "address"
        },
        {
          "internalType": "address",
          "name": "from",
          "type": "address"
        },
        {
          "internalType": "address",
          "name": "to",
          "type": "address"
        },
        {
          "internalType": "uint256",
          "name": "amount",
          "type": "uint256"
        }
      ],
      "name": "transferFrom",
      "outputs": [
        {
          "internalType": "int64",
          "name": "responseCode",
          "type": "int64"
        }
      ],
      "stateMutability": "nonpayable",
      "type": "function"
    },
    {
      "inputs": [
        {
          "internalType": "address",
          "name": "token",
          "type": "address"
        },
        {
          "internalType": "address",
          "name": "from",
          "type": "address"
        },
        {
          "internalType": "address",
          "name": "to",
          "type": "address"
        },
        {
          "internalType": "uint256",
          "name": "serialNumber",
          "type": "uint256"
        }
      ],
      "name": "transferFromNFT",
      "outputs": [
        {
          "internalType": "int64",
          "name": "responseCode",
          "type": "int64"
        }
      ],
      "stateMutability": "nonpayable",
      "type": "function"
    },
    {
      "inputs": [
        {
          "internalType": "address",
          "name": "newOwner",
          "type": "address"
        }
      ],
      "name": "transferOwnership",
      "outputs": [],
      "stateMutability": "nonpayable",
      "type": "function"
    },
    {
      "inputs": [],
      "name": "usdcToken",
      "outputs": [
        {
          "internalType": "address",
          "name": "",
          "type": "address"
        }
      ],
      "stateMutability": "view",
      "type": "function"
    },
    {
      "inputs": [
        {
          "internalType": "address",
          "name": "token",
          "type": "address"
        },
        {
          "internalType": "uint256",
          "name": "amount",
          "type": "uint256"
        }
      ],
      "name": "withdrawToken",
      "outputs": [],
      "stateMutability": "nonpayable",
      "type": "function"
    },
    {
      "stateMutability": "payable",
      "type": "receive"
    }
  ],
  "bytecode": "0x610160604052348015610010575f5ffd5b50604051614dc3380380614dc383398181016040528101906100329190610658565b836040518060400160405280601081526020017f41747269614d61726b6574506c616365000000000000000000000000000000008152506040518060400160405280600581526020017f312e302e300000000000000000000000000000000000000000000000000000008152506100b25f836103ef60201b90919060201c565b61012081815250506100ce6001826103ef60201b90919060201c565b6101408181525050818051906020012060e08181525050808051906020012061010081815250504660a0818152505061010b61043c60201b60201c565b608081815250503073ffffffffffffffffffffffffffffffffffffffff1660c08173ffffffffffffffffffffffffffffffffffffffff168152505050505f73ffffffffffffffffffffffffffffffffffffffff168173ffffffffffffffffffffffffffffffffffffffff16036101b8575f6040517f1e4fbdf70000000000000000000000000000000000000000000000000000000081526004016101af91906106cb565b60405180910390fd5b6101c78161049660201b60201c565b5060016003819055505f73ffffffffffffffffffffffffffffffffffffffff168473ffffffffffffffffffffffffffffffffffffffff160361023e576040517f08c379a00000000000000000000000000000000000000000000000000000000081526004016102359061073e565b60405180910390fd5b5f73ffffffffffffffffffffffffffffffffffffffff168373ffffffffffffffffffffffffffffffffffffffff16036102ac576040517f08c379a00000000000000000000000000000000000000000000000000000000081526004016102a3906107a6565b60405180910390fd5b5f73ffffffffffffffffffffffffffffffffffffffff168273ffffffffffffffffffffffffffffffffffffffff160361031a576040517f08c379a00000000000000000000000000000000000000000000000000000000081526004016103119061080e565b60405180910390fd5b61271081111561035f576040517f08c379a000000000000000000000000000000000000000000000000000000000815260040161035690610876565b60405180910390fd5b8260045f6101000a81548173ffffffffffffffffffffffffffffffffffffffff021916908373ffffffffffffffffffffffffffffffffffffffff1602179055508160055f6101000a81548173ffffffffffffffffffffffffffffffffffffffff021916908373ffffffffffffffffffffffffffffffffffffffff1602179055508060068190555050505050610d18565b5f602083511015610410576104098361055960201b60201c565b9050610436565b82610420836105be60201b60201c565b5f01908161042e9190610ac8565b5060ff5f1b90505b92915050565b5f7f8b73c3c69bb8fe3d512ecc4cf759cc79239f7b179b0ffacaa9a75d522b39400f60e05161010051463060405160200161047b959493929190610bbe565b60405160208183030381529060405280519060200120905090565b5f60025f9054906101000a900473ffffffffffffffffffffffffffffffffffffffff1690508160025f6101000a81548173ffffffffffffffffffffffffffffffffffffffff021916908373ffffffffffffffffffffffffffffffffffffffff1602179055508173ffffffffffffffffffffffffffffffffffffffff168173ffffffffffffffffffffffffffffffffffffffff167f8be0079c531659141344cd1fd0a4f28419497f9722a3daafe3b4186f6b6457e060405160405180910390a35050565b5f5f829050601f815111156105a557826040517f305a27a900000000000000000000000000000000000000000000000000000000815260040161059c9190610c65565b60405180910390fd5b8051816105b190610cb2565b5f1c175f1b915050919050565b5f819050919050565b5f5ffd5b5f73ffffffffffffffffffffffffffffffffffffffff82169050919050565b5f6105f4826105cb565b9050919050565b610604816105ea565b811461060e575f5ffd5b50565b5f8151905061061f816105fb565b92915050565b5f819050919050565b61063781610625565b8114610641575f5ffd5b50565b5f815190506106528161062e565b92915050565b5f5f5f5f608085870312156106705761066f6105c7565b5b5f61067d87828801610611565b945050602061068e87828801610611565b935050604061069f87828801610611565b92505060606106b087828801610644565b91505092959194509250565b6106c5816105ea565b82525050565b5f6020820190506106de5f8301846106bc565b92915050565b5f82825260208201905092915050565b7f496e76616c696420696e697469616c206f776e657200000000000000000000005f82015250565b5f6107286015836106e4565b9150610733826106f4565b602082019050919050565b5f6020820190508181035f8301526107558161071c565b9050919050565b7f496e76616c6964205553444320746f6b656e00000000000000000000000000005f82015250565b5f6107906012836106e4565b915061079b8261075c565b602082019050919050565b5f6020820190508181035f8301526107bd81610784565b9050919050565b7f496e76616c69642066656520636f6c6c6563746f7200000000000000000000005f82015250565b5f6107f86015836106e4565b9150610803826107c4565b602082019050919050565b5f6020820190508181035f830152610825816107ec565b9050919050565b7f46656520626173697320706f696e747320746f6f2068696768000000000000005f82015250565b5f6108606019836106e4565b915061086b8261082c565b602082019050919050565b5f6020820190508181035f83015261088d81610854565b9050919050565b5f81519050919050565b7f4e487b71000000000000000000000000000000000000000000000000000000005f52604160045260245ffd5b7f4e487b71000000000000000000000000000000000000000000000000000000005f52602260045260245ffd5b5f600282049050600182168061090f57607f821691505b602082108103610922576109216108cb565b5b50919050565b5f819050815f5260205f209050919050565b5f6020601f8301049050919050565b5f82821b905092915050565b5f600883026109847fffffffffffffffffffffffffffffffffffffffffffffffffffffffffffffffff82610949565b61098e8683610949565b95508019841693508086168417925050509392505050565b5f819050919050565b5f6109c96109c46109bf84610625565b6109a6565b610625565b9050919050565b5f819050919050565b6109e2836109af565b6109f66109ee826109d0565b848454610955565b825550505050565b5f5f905090565b610a0d6109fe565b610a188184846109d9565b505050565b5b81811015610a3b57610a305f82610a05565b600181019050610a1e565b5050565b601f821115610a8057610a5181610928565b610a5a8461093a565b81016020851015610a69578190505b610a7d610a758561093a565b830182610a1d565b50505b505050565b5f82821c905092915050565b5f610aa05f1984600802610a85565b1980831691505092915050565b5f610ab88383610a91565b9150826002028217905092915050565b610ad182610894565b67ffffffffffffffff811115610aea57610ae961089e565b5b610af482546108f8565b610aff828285610a3f565b5f60209050601f831160018114610b30575f8415610b1e578287015190505b610b288582610aad565b865550610b8f565b601f198416610b3e86610928565b5f5b82811015610b6557848901518255600182019150602085019450602081019050610b40565b86831015610b825784890151610b7e601f891682610a91565b8355505b6001600288020188555050505b505050505050565b5f819050919050565b610ba981610b97565b82525050565b610bb881610625565b82525050565b5f60a082019050610bd15f830188610ba0565b610bde6020830187610ba0565b610beb6040830186610ba0565b610bf86060830185610baf565b610c0560808301846106bc565b9695505050505050565b8281835e5f83830152505050565b5f601f19601f8301169050919050565b5f610c3782610894565b610c4181856106e4565b9350610c51818560208601610c0f565b610c5a81610c1d565b840191505092915050565b5f6020820190508181035f830152610c7d8184610c2d565b905092915050565b5f81519050919050565b5f819050602082019050919050565b5f610ca98251610b97565b80915050919050565b5f610cbc82610c85565b82610cc684610c8f565b9050610cd181610c9e565b92506020821015610d1157610d0c7fffffffffffffffffffffffffffffffffffffffffffffffffffffffffffffffff83602003600802610949565b831692505b5050919050565b60805160a05160c05160e051610100516101205161014051614069610d5a5f395f6129e701525f6129ac01525f50505f50505f50505f50505f50506140695ff3fe6080604052600436106101e6575f3560e01c806372c27b6211610101578063a42dce8011610094578063d595bee911610063578063d595bee9146106e6578063e1a977ec14610710578063f2fde38b1461074c578063f372111f14610774576101ed565b8063a42dce8014610630578063b3e089a214610658578063b874f69514610680578063c415b95c146106bc576101ed565b806394dd6833116100d057806394dd6833146105685780639b23d3d9146105a45780639e281a98146105e0578063a34d60b414610608576101ed565b806372c27b62146104aa57806376f819ac146104d257806384b0196e1461050e5780638da5cb5b1461053e576101ed565b80632c92809811610179578063523eb53711610148578063523eb537146103f3578063618dc65e1461041b57806368e1cbec14610458578063715018a614610494576101ed565b80632c9280981461034f578063338b5dea146103795780633631011a146103a15780634c2aa52b146103c9576101ed565b80631bc92162116101b55780631bc92162146102a95780631bf01e9b146102d357806324a9d853146102fd5780632747601414610327576101ed565b806311eac855146101f157806312fde4b71461021b57806315dacbea146102455780631a2a5e1514610281576101ed565b366101ed57005b5f5ffd5b3480156101fc575f5ffd5b506102056107b0565b6040516102129190612bcc565b60405180910390f35b348015610226575f5ffd5b5061022f6107d5565b60405161023c9190612bcc565b60405180910390f35b348015610250575f5ffd5b5061026b60048036038101906102669190612c53565b6107fd565b6040516102789190612cd2565b60405180910390f35b34801561028c575f5ffd5b506102a760048036038101906102a29190612ceb565b610915565b005b3480156102b4575f5ffd5b506102bd61096c565b6040516102ca9190612d71565b60405180910390f35b3480156102de575f5ffd5b506102e7610972565b6040516102f49190612bcc565b60405180910390f35b348015610308575f5ffd5b5061031161099a565b60405161031e9190612d99565b60405180910390f35b348015610332575f5ffd5b5061034d60048036038101906103489190612def565b6109a0565b005b34801561035a575f5ffd5b50610363610aee565b6040516103709190612d99565b60405180910390f35b348015610384575f5ffd5b5061039f600480360381019061039a9190612e3f565b610af7565b005b3480156103ac575f5ffd5b506103c760048036038101906103c29190612f1e565b610c96565b005b3480156103d4575f5ffd5b506103dd610cff565b6040516103ea9190612fdb565b60405180910390f35b3480156103fe575f5ffd5b5061041960048036038101906104149190612ff4565b610d23565b005b348015610426575f5ffd5b50610441600480360381019061043c9190613157565b610de2565b60405161044f929190613229565b60405180910390f35b348015610463575f5ffd5b5061047e60048036038101906104799190613257565b610f37565b60405161048b9190612d99565b60405180910390f35b34801561049f575f5ffd5b506104a8610f97565b005b3480156104b5575f5ffd5b506104d060048036038101906104cb9190613295565b610faa565b005b3480156104dd575f5ffd5b506104f860048036038101906104f391906132c0565b610fbc565b6040516105059190612d99565b60405180910390f35b348015610519575f5ffd5b50610522610fdc565b6040516105359796959493929190613441565b60405180910390f35b348015610549575f5ffd5b50610552611081565b60405161055f9190612bcc565b60405180910390f35b348015610573575f5ffd5b5061058e60048036038101906105899190613257565b6110a9565b60405161059b91906134dd565b60405180910390f35b3480156105af575f5ffd5b506105ca60048036038101906105c59190612c53565b611115565b6040516105d79190612cd2565b60405180910390f35b3480156105eb575f5ffd5b5061060660048036038101906106019190612e3f565b61122d565b005b348015610613575f5ffd5b5061062e60048036038101906106299190612def565b61148e565b005b34801561063b575f5ffd5b5061065660048036038101906106519190612ceb565b6116a1565b005b348015610663575f5ffd5b5061067e60048036038101906106799190612ceb565b6116ec565b005b34801561068b575f5ffd5b506106a660048036038101906106a19190612e3f565b611737565b6040516106b391906134dd565b60405180910390f35b3480156106c7575f5ffd5b506106d0611761565b6040516106dd9190612bcc565b60405180910390f35b3480156106f1575f5ffd5b506106fa611786565b6040516107079190612fdb565b60405180910390f35b34801561071b575f5ffd5b5061073660048036038101906107319190612e3f565b6117aa565b6040516107439190612d99565b60405180910390f35b348015610757575f5ffd5b50610772600480360381019061076d9190612ceb565b6117ca565b005b34801561077f575f5ffd5b5061079a600480360381019061079591906132c0565b61184e565b6040516107a79190612d99565b60405180910390f35b60045f9054906101000a900473ffffffffffffffffffffffffffffffffffffffff1681565b5f60055f9054906101000a900473ffffffffffffffffffffffffffffffffffffffff16905090565b5f5f5f61016773ffffffffffffffffffffffffffffffffffffffff166315dacbea60e01b8888888860405160240161083894939291906134f6565b604051602081830303815290604052907bffffffffffffffffffffffffffffffffffffffffffffffffffffffff19166020820180517bffffffffffffffffffffffffffffffffffffffffffffffffffffffff83818316178352505050506040516108a29190613573565b5f604051808303815f865af19150503d805f81146108db576040519150601f19603f3d011682016040523d82523d5f602084013e6108e0565b606091505b5091509150816108f1576015610906565b8080602001905181019061090591906135bf565b5b60030b92505050949350505050565b5f61092030836118d0565b9050601660030b8114610968576040517f08c379a000000000000000000000000000000000000000000000000000000000815260040161095f90613634565b60405180910390fd5b5050565b61016781565b5f60045f9054906101000a900473ffffffffffffffffffffffffffffffffffffffff16905090565b60065481565b5f8167ffffffffffffffff16116109ec576040517f08c379a00000000000000000000000000000000000000000000000000000000081526004016109e39061369c565b60405180910390fd5b5f60075f3373ffffffffffffffffffffffffffffffffffffffff1673ffffffffffffffffffffffffffffffffffffffff1681526020019081526020015f205f8567ffffffffffffffff1681526020019081526020015f205414610a84576040517f08c379a0000000000000000000000000000000000000000000000000000000008152600401610a7b90613704565b60405180910390fd5b8067ffffffffffffffff1660075f3373ffffffffffffffffffffffffffffffffffffffff1673ffffffffffffffffffffffffffffffffffffffff1681526020019081526020015f205f8567ffffffffffffffff1681526020019081526020015f2081905550505050565b5f600654905090565b610aff6119e2565b5f8111610b41576040517f08c379a0000000000000000000000000000000000000000000000000000000008152600401610b389061369c565b60405180910390fd5b5f610b4e83333085611a28565b9050601660030b8114610b96576040517f08c379a0000000000000000000000000000000000000000000000000000000008152600401610b8d9061376c565b60405180910390fd5b8160095f8573ffffffffffffffffffffffffffffffffffffffff1673ffffffffffffffffffffffffffffffffffffffff1681526020019081526020015f205f3373ffffffffffffffffffffffffffffffffffffffff1673ffffffffffffffffffffffffffffffffffffffff1681526020019081526020015f205f828254610c1d91906137b7565b925050819055508273ffffffffffffffffffffffffffffffffffffffff163373ffffffffffffffffffffffffffffffffffffffff167f8752a472e571a816aea92eec8dae9baf628e840f4929fbcc2d155e6233ff68a784604051610c819190612d99565b60405180910390a350610c92611b40565b5050565b610c9e6119e2565b610ca88684611b4a565b5f5f5f5f5f610cb78b89611da7565b94509450945094509450610ccd8b898786611f62565b610cdb8b8987868686612133565b610cea8b8987878787876125e4565b5050505050610cf7611b40565b505050505050565b7f7f53fd9f97ad93f90ce525d722bfa8cec43e7127f9edb84a84e9a79f4d582f3481565b600160085f3373ffffffffffffffffffffffffffffffffffffffff1673ffffffffffffffffffffffffffffffffffffffff1681526020019081526020015f205f8367ffffffffffffffff1681526020019081526020015f205f6101000a81548160ff0219169083151502179055503373ffffffffffffffffffffffffffffffffffffffff167f54562025d61ffa081c7c7e1b98890e1c4333bbdf640cc5c7e01552908ccfeaf982604051610dd791906137f9565b60405180910390a250565b5f60605f5f61016773ffffffffffffffffffffffffffffffffffffffff1663618dc65e60e01b8787604051602401610e1b929190613812565b604051602081830303815290604052907bffffffffffffffffffffffffffffffffffffffffffffffffffffffff19166020820180517bffffffffffffffffffffffffffffffffffffffffffffffffffffffff8381831617835250505050604051610e859190613573565b5f604051808303815f865af19150503d805f8114610ebe576040519150601f19603f3d011682016040523d82523d5f602084013e610ec3565b606091505b50915091507f4af4780e06fe8cb9df64b0794fa6f01399af979175bb988e35e0e57e594567bc8282604051610ef9929190613840565b60405180910390a181610f1c57601560405180602001604052805f815250610f20565b6016815b8160030b9150809450819550505050509250929050565b5f60075f8473ffffffffffffffffffffffffffffffffffffffff1673ffffffffffffffffffffffffffffffffffffffff1681526020019081526020015f205f8367ffffffffffffffff1681526020019081526020015f2054905092915050565b610f9f61285a565b610fa85f6128e1565b565b610fb261285a565b8060068190555050565b6009602052815f5260405f20602052805f5260405f205f91509150505481565b5f6060805f5f5f6060610fed6129a4565b610ff56129de565b46305f5f1b5f67ffffffffffffffff81111561101457611013613033565b5b6040519080825280602002602001820160405280156110425781602001602082028036833780820191505090505b507f0f00000000000000000000000000000000000000000000000000000000000000959493929190965096509650965096509650965090919293949596565b5f60025f9054906101000a900473ffffffffffffffffffffffffffffffffffffffff16905090565b5f60085f8473ffffffffffffffffffffffffffffffffffffffff1673ffffffffffffffffffffffffffffffffffffffff1681526020019081526020015f205f8367ffffffffffffffff1681526020019081526020015f205f9054906101000a900460ff16905092915050565b5f5f5f61016773ffffffffffffffffffffffffffffffffffffffff16639b23d3d960e01b8888888860405160240161115094939291906134f6565b604051602081830303815290604052907bffffffffffffffffffffffffffffffffffffffffffffffffffffffff19166020820180517bffffffffffffffffffffffffffffffffffffffffffffffffffffffff83818316178352505050506040516111ba9190613573565b5f604051808303815f865af19150503d805f81146111f3576040519150601f19603f3d011682016040523d82523d5f602084013e6111f8565b606091505b50915091508161120957601561121e565b8080602001905181019061121d91906135bf565b5b60030b92505050949350505050565b6112356119e2565b5f8111611277576040517f08c379a000000000000000000000000000000000000000000000000000000000815260040161126e9061369c565b60405180910390fd5b8060095f8473ffffffffffffffffffffffffffffffffffffffff1673ffffffffffffffffffffffffffffffffffffffff1681526020019081526020015f205f3373ffffffffffffffffffffffffffffffffffffffff1673ffffffffffffffffffffffffffffffffffffffff1681526020019081526020015f20541015611332576040517f08c379a0000000000000000000000000000000000000000000000000000000008152600401611329906138b8565b60405180910390fd5b8060095f8473ffffffffffffffffffffffffffffffffffffffff1673ffffffffffffffffffffffffffffffffffffffff1681526020019081526020015f205f3373ffffffffffffffffffffffffffffffffffffffff1673ffffffffffffffffffffffffffffffffffffffff1681526020019081526020015f205f8282546113b991906138d6565b925050819055505f6113cd83303385611a28565b905060168114806113dd57505f81145b61141c576040517f08c379a00000000000000000000000000000000000000000000000000000000081526004016114139061376c565b60405180910390fd5b8273ffffffffffffffffffffffffffffffffffffffff163373ffffffffffffffffffffffffffffffffffffffff167fd1c19fbcd4551a5edfb66d43d2e337c04837afda3482b42bdf569a8fccdae5fb846040516114799190612d99565b60405180910390a35061148a611b40565b5050565b5f8167ffffffffffffffff16116114da576040517f08c379a00000000000000000000000000000000000000000000000000000000081526004016114d19061369c565b60405180910390fd5b5f60075f3373ffffffffffffffffffffffffffffffffffffffff1673ffffffffffffffffffffffffffffffffffffffff1681526020019081526020015f205f8567ffffffffffffffff1681526020019081526020015f205414611572576040517f08c379a000000000000000000000000000000000000000000000000000000000815260040161156990613704565b60405180910390fd5b8067ffffffffffffffff1660095f8473ffffffffffffffffffffffffffffffffffffffff1673ffffffffffffffffffffffffffffffffffffffff1681526020019081526020015f205f3373ffffffffffffffffffffffffffffffffffffffff1673ffffffffffffffffffffffffffffffffffffffff1681526020019081526020015f20541015611637576040517f08c379a000000000000000000000000000000000000000000000000000000000815260040161162e90613979565b60405180910390fd5b8067ffffffffffffffff1660075f3373ffffffffffffffffffffffffffffffffffffffff1673ffffffffffffffffffffffffffffffffffffffff1681526020019081526020015f205f8567ffffffffffffffff1681526020019081526020015f2081905550505050565b6116a961285a565b8060055f6101000a81548173ffffffffffffffffffffffffffffffffffffffff021916908373ffffffffffffffffffffffffffffffffffffffff16021790555050565b6116f461285a565b8060045f6101000a81548173ffffffffffffffffffffffffffffffffffffffff021916908373ffffffffffffffffffffffffffffffffffffffff16021790555050565b6008602052815f5260405f20602052805f5260405f205f915091509054906101000a900460ff1681565b60055f9054906101000a900473ffffffffffffffffffffffffffffffffffffffff1681565b7f7db7299863e08eb07d3e4c1aad6eea546a141615f58076206ad77156d3c7bdbe81565b6007602052815f5260405f20602052805f5260405f205f91509150505481565b6117d261285a565b5f73ffffffffffffffffffffffffffffffffffffffff168173ffffffffffffffffffffffffffffffffffffffff1603611842575f6040517f1e4fbdf70000000000000000000000000000000000000000000000000000000081526004016118399190612bcc565b60405180910390fd5b61184b816128e1565b50565b5f60095f8473ffffffffffffffffffffffffffffffffffffffff1673ffffffffffffffffffffffffffffffffffffffff1681526020019081526020015f205f8373ffffffffffffffffffffffffffffffffffffffff1673ffffffffffffffffffffffffffffffffffffffff1681526020019081526020015f2054905092915050565b5f5f5f61016773ffffffffffffffffffffffffffffffffffffffff166349146bde60e01b8686604051602401611907929190613997565b604051602081830303815290604052907bffffffffffffffffffffffffffffffffffffffffffffffffffffffff19166020820180517bffffffffffffffffffffffffffffffffffffffffffffffffffffffff83818316178352505050506040516119719190613573565b5f604051808303815f865af19150503d805f81146119aa576040519150601f19603f3d011682016040523d82523d5f602084013e6119af565b606091505b5091509150816119c05760156119d5565b808060200190518101906119d491906135bf565b5b60030b9250505092915050565b600260035403611a1e576040517f3ee5aeb500000000000000000000000000000000000000000000000000000000815260040160405180910390fd5b6002600381905550565b5f5f5f61016773ffffffffffffffffffffffffffffffffffffffff1663eca3691760e01b88888888604051602401611a6394939291906139be565b604051602081830303815290604052907bffffffffffffffffffffffffffffffffffffffffffffffffffffffff19166020820180517bffffffffffffffffffffffffffffffffffffffffffffffffffffffff8381831617835250505050604051611acd9190613573565b5f604051808303815f865af19150503d805f8114611b06576040519150601f19603f3d011682016040523d82523d5f602084013e611b0b565b606091505b509150915081611b1c576015611b31565b80806020019051810190611b3091906135bf565b5b60030b92505050949350505050565b6001600381905550565b806020016020810190611b5d9190612ceb565b73ffffffffffffffffffffffffffffffffffffffff16826020016020810190611b869190612ceb565b73ffffffffffffffffffffffffffffffffffffffff1614611bdc576040517f08c379a0000000000000000000000000000000000000000000000000000000008152600401611bd390613a4b565b60405180910390fd5b806060013582606001351015611c27576040517f08c379a0000000000000000000000000000000000000000000000000000000008152600401611c1e90613ab3565b60405180910390fd5b81608001354211158015611c3f575080608001354211155b611c7e576040517f08c379a0000000000000000000000000000000000000000000000000000000008152600401611c7590613b1b565b60405180910390fd5b60085f835f016020810190611c939190612ceb565b73ffffffffffffffffffffffffffffffffffffffff1673ffffffffffffffffffffffffffffffffffffffff1681526020019081526020015f205f8360a0013581526020019081526020015f205f9054906101000a900460ff16158015611d64575060085f825f016020810190611d099190612ceb565b73ffffffffffffffffffffffffffffffffffffffff1673ffffffffffffffffffffffffffffffffffffffff1681526020019081526020015f205f8260a0013581526020019081526020015f205f9054906101000a900460ff16155b611da3576040517f08c379a0000000000000000000000000000000000000000000000000000000008152600401611d9a90613b83565b60405180910390fd5b5050565b5f5f5f5f5f5f60075f895f016020810190611dc29190612ceb565b73ffffffffffffffffffffffffffffffffffffffff1673ffffffffffffffffffffffffffffffffffffffff1681526020019081526020015f205f8960a0013581526020019081526020015f205490505f60075f895f016020810190611e279190612ceb565b73ffffffffffffffffffffffffffffffffffffffff1673ffffffffffffffffffffffffffffffffffffffff1681526020019081526020015f205f8960a0013581526020019081526020015f205490505f82118015611e8457505f81115b611ec3576040517f08c379a0000000000000000000000000000000000000000000000000000000008152600401611eba90613c11565b60405180910390fd5b808210611ed05780611ed2565b815b96505f8711611f16576040517f08c379a0000000000000000000000000000000000000000000000000000000008152600401611f0d90613c79565b60405180910390fd5b876060013595508587611f299190613c97565b945061271060065486611f3c9190613c97565b611f469190613d05565b93508385611f5491906138d6565b925050509295509295909350565b8060095f60045f9054906101000a900473ffffffffffffffffffffffffffffffffffffffff1673ffffffffffffffffffffffffffffffffffffffff1673ffffffffffffffffffffffffffffffffffffffff1681526020019081526020015f205f865f016020810190611fd49190612ceb565b73ffffffffffffffffffffffffffffffffffffffff1673ffffffffffffffffffffffffffffffffffffffff1681526020019081526020015f2054101561204f576040517f08c379a000000000000000000000000000000000000000000000000000000000815260040161204690613d7f565b60405180910390fd5b8160095f8660200160208101906120669190612ceb565b73ffffffffffffffffffffffffffffffffffffffff1673ffffffffffffffffffffffffffffffffffffffff1681526020019081526020015f205f855f0160208101906120b29190612ceb565b73ffffffffffffffffffffffffffffffffffffffff1673ffffffffffffffffffffffffffffffffffffffff1681526020019081526020015f2054101561212d576040517f08c379a000000000000000000000000000000000000000000000000000000000815260040161212490613e0d565b60405180910390fd5b50505050565b8360075f885f0160208101906121499190612ceb565b73ffffffffffffffffffffffffffffffffffffffff1673ffffffffffffffffffffffffffffffffffffffff1681526020019081526020015f205f8860a0013581526020019081526020015f205f8282546121a391906138d6565b925050819055508360075f875f0160208101906121c09190612ceb565b73ffffffffffffffffffffffffffffffffffffffff1673ffffffffffffffffffffffffffffffffffffffff1681526020019081526020015f205f8760a0013581526020019081526020015f205f82825461221a91906138d6565b925050819055508360095f8860200160208101906122389190612ceb565b73ffffffffffffffffffffffffffffffffffffffff1673ffffffffffffffffffffffffffffffffffffffff1681526020019081526020015f205f875f0160208101906122849190612ceb565b73ffffffffffffffffffffffffffffffffffffffff1673ffffffffffffffffffffffffffffffffffffffff1681526020019081526020015f205f8282546122cb91906138d6565b925050819055508360095f8860200160208101906122e99190612ceb565b73ffffffffffffffffffffffffffffffffffffffff1673ffffffffffffffffffffffffffffffffffffffff1681526020019081526020015f205f885f0160208101906123359190612ceb565b73ffffffffffffffffffffffffffffffffffffffff1673ffffffffffffffffffffffffffffffffffffffff1681526020019081526020015f205f82825461237c91906137b7565b925050819055508260095f60045f9054906101000a900473ffffffffffffffffffffffffffffffffffffffff1673ffffffffffffffffffffffffffffffffffffffff1673ffffffffffffffffffffffffffffffffffffffff1681526020019081526020015f205f885f0160208101906123f59190612ceb565b73ffffffffffffffffffffffffffffffffffffffff1673ffffffffffffffffffffffffffffffffffffffff1681526020019081526020015f205f82825461243c91906138d6565b925050819055508060095f60045f9054906101000a900473ffffffffffffffffffffffffffffffffffffffff1673ffffffffffffffffffffffffffffffffffffffff1673ffffffffffffffffffffffffffffffffffffffff1681526020019081526020015f205f875f0160208101906124b59190612ceb565b73ffffffffffffffffffffffffffffffffffffffff1673ffffffffffffffffffffffffffffffffffffffff1681526020019081526020015f205f8282546124fc91906137b7565b925050819055505f8211156125dc578160095f60045f9054906101000a900473ffffffffffffffffffffffffffffffffffffffff1673ffffffffffffffffffffffffffffffffffffffff1673ffffffffffffffffffffffffffffffffffffffff1681526020019081526020015f205f60055f9054906101000a900473ffffffffffffffffffffffffffffffffffffffff1673ffffffffffffffffffffffffffffffffffffffff1673ffffffffffffffffffffffffffffffffffffffff1681526020019081526020015f205f8282546125d491906137b7565b925050819055505b505050505050565b5f6126148860200160208101906125fb9190612ceb565b308a5f01602081019061260e9190612ceb565b89611a28565b9050601681148061262457505f81145b612663576040517f08c379a000000000000000000000000000000000000000000000000000000000815260040161265a90613e75565b60405180910390fd5b5f6126a260045f9054906101000a900473ffffffffffffffffffffffffffffffffffffffff16308a5f01602081019061269c9190612ceb565b86611a28565b905060168114806126b257505f81145b6126f1576040517f08c379a00000000000000000000000000000000000000000000000000000000081526004016126e890613edd565b60405180910390fd5b5f841115612799575f61274860045f9054906101000a900473ffffffffffffffffffffffffffffffffffffffff163060055f9054906101000a900473ffffffffffffffffffffffffffffffffffffffff1688611a28565b9050601681148061275857505f81145b612797576040517f08c379a000000000000000000000000000000000000000000000000000000000815260040161278e90613f45565b60405180910390fd5b505b8860200160208101906127ac9190612ceb565b73ffffffffffffffffffffffffffffffffffffffff16885f0160208101906127d49190612ceb565b73ffffffffffffffffffffffffffffffffffffffff168a5f0160208101906127fc9190612ceb565b73ffffffffffffffffffffffffffffffffffffffff167f714ced76bb176c3b89253dc61d57c4a58a2c2ff280cb04c6620cc520ae99295f8a8a8a8a6040516128479493929190613f93565b60405180910390a4505050505050505050565b612862612a19565b73ffffffffffffffffffffffffffffffffffffffff16612880611081565b73ffffffffffffffffffffffffffffffffffffffff16146128df576128a3612a19565b6040517f118cdaa70000000000000000000000000000000000000000000000000000000081526004016128d69190612bcc565b60405180910390fd5b565b5f60025f9054906101000a900473ffffffffffffffffffffffffffffffffffffffff1690508160025f6101000a81548173ffffffffffffffffffffffffffffffffffffffff021916908373ffffffffffffffffffffffffffffffffffffffff1602179055508173ffffffffffffffffffffffffffffffffffffffff168173ffffffffffffffffffffffffffffffffffffffff167f8be0079c531659141344cd1fd0a4f28419497f9722a3daafe3b4186f6b6457e060405160405180910390a35050565b60606129d95f7f0000000000000000000000000000000000000000000000000000000000000000612a2090919063ffffffff16565b905090565b6060612a1460017f0000000000000000000000000000000000000000000000000000000000000000612a2090919063ffffffff16565b905090565b5f33905090565b606060ff5f1b8314612a3c57612a3583612acd565b9050612ac7565b818054612a4890614003565b80601f0160208091040260200160405190810160405280929190818152602001828054612a7490614003565b8015612abf5780601f10612a9657610100808354040283529160200191612abf565b820191905f5260205f20905b815481529060010190602001808311612aa257829003601f168201915b505050505090505b92915050565b60605f612ad983612b3f565b90505f602067ffffffffffffffff811115612af757612af6613033565b5b6040519080825280601f01601f191660200182016040528015612b295781602001600182028036833780820191505090505b5090508181528360208201528092505050919050565b5f5f60ff835f1c169050601f811115612b84576040517fb3512b0c00000000000000000000000000000000000000000000000000000000815260040160405180910390fd5b80915050919050565b5f73ffffffffffffffffffffffffffffffffffffffff82169050919050565b5f612bb682612b8d565b9050919050565b612bc681612bac565b82525050565b5f602082019050612bdf5f830184612bbd565b92915050565b5f604051905090565b5f5ffd5b5f5ffd5b612bff81612bac565b8114612c09575f5ffd5b50565b5f81359050612c1a81612bf6565b92915050565b5f819050919050565b612c3281612c20565b8114612c3c575f5ffd5b50565b5f81359050612c4d81612c29565b92915050565b5f5f5f5f60808587031215612c6b57612c6a612bee565b5b5f612c7887828801612c0c565b9450506020612c8987828801612c0c565b9350506040612c9a87828801612c0c565b9250506060612cab87828801612c3f565b91505092959194509250565b5f8160070b9050919050565b612ccc81612cb7565b82525050565b5f602082019050612ce55f830184612cc3565b92915050565b5f60208284031215612d0057612cff612bee565b5b5f612d0d84828501612c0c565b91505092915050565b5f819050919050565b5f612d39612d34612d2f84612b8d565b612d16565b612b8d565b9050919050565b5f612d4a82612d1f565b9050919050565b5f612d5b82612d40565b9050919050565b612d6b81612d51565b82525050565b5f602082019050612d845f830184612d62565b92915050565b612d9381612c20565b82525050565b5f602082019050612dac5f830184612d8a565b92915050565b5f67ffffffffffffffff82169050919050565b612dce81612db2565b8114612dd8575f5ffd5b50565b5f81359050612de981612dc5565b92915050565b5f5f5f60608486031215612e0657612e05612bee565b5b5f612e1386828701612ddb565b9350506020612e2486828701612c0c565b9250506040612e3586828701612ddb565b9150509250925092565b5f5f60408385031215612e5557612e54612bee565b5b5f612e6285828601612c0c565b9250506020612e7385828601612c3f565b9150509250929050565b5f5ffd5b5f60c08284031215612e9657612e95612e7d565b5b81905092915050565b5f5ffd5b5f5ffd5b5f5ffd5b5f5f83601f840112612ec057612ebf612e9f565b5b8235905067ffffffffffffffff811115612edd57612edc612ea3565b5b602083019150836001820283011115612ef957612ef8612ea7565b5b9250929050565b5f60c08284031215612f1557612f14612e7d565b5b81905092915050565b5f5f5f5f5f5f6101c08789031215612f3957612f38612bee565b5b5f612f4689828a01612e81565b96505060c087013567ffffffffffffffff811115612f6757612f66612bf2565b5b612f7389828a01612eab565b955095505060e0612f8689828a01612f00565b9350506101a087013567ffffffffffffffff811115612fa857612fa7612bf2565b5b612fb489828a01612eab565b92509250509295509295509295565b5f819050919050565b612fd581612fc3565b82525050565b5f602082019050612fee5f830184612fcc565b92915050565b5f6020828403121561300957613008612bee565b5b5f61301684828501612ddb565b91505092915050565b5f5ffd5b5f601f19601f8301169050919050565b7f4e487b71000000000000000000000000000000000000000000000000000000005f52604160045260245ffd5b61306982613023565b810181811067ffffffffffffffff8211171561308857613087613033565b5b80604052505050565b5f61309a612be5565b90506130a68282613060565b919050565b5f67ffffffffffffffff8211156130c5576130c4613033565b5b6130ce82613023565b9050602081019050919050565b828183375f83830152505050565b5f6130fb6130f6846130ab565b613091565b9050828152602081018484840111156131175761311661301f565b5b6131228482856130db565b509392505050565b5f82601f83011261313e5761313d612e9f565b5b813561314e8482602086016130e9565b91505092915050565b5f5f6040838503121561316d5761316c612bee565b5b5f61317a85828601612c0c565b925050602083013567ffffffffffffffff81111561319b5761319a612bf2565b5b6131a78582860161312a565b9150509250929050565b5f819050919050565b6131c3816131b1565b82525050565b5f81519050919050565b5f82825260208201905092915050565b8281835e5f83830152505050565b5f6131fb826131c9565b61320581856131d3565b93506132158185602086016131e3565b61321e81613023565b840191505092915050565b5f60408201905061323c5f8301856131ba565b818103602083015261324e81846131f1565b90509392505050565b5f5f6040838503121561326d5761326c612bee565b5b5f61327a85828601612c0c565b925050602061328b85828601612ddb565b9150509250929050565b5f602082840312156132aa576132a9612bee565b5b5f6132b784828501612c3f565b91505092915050565b5f5f604083850312156132d6576132d5612bee565b5b5f6132e385828601612c0c565b92505060206132f485828601612c0c565b9150509250929050565b5f7fff0000000000000000000000000000000000000000000000000000000000000082169050919050565b613332816132fe565b82525050565b5f81519050919050565b5f82825260208201905092915050565b5f61335c82613338565b6133668185613342565b93506133768185602086016131e3565b61337f81613023565b840191505092915050565b5f81519050919050565b5f82825260208201905092915050565b5f819050602082019050919050565b6133bc81612c20565b82525050565b5f6133cd83836133b3565b60208301905092915050565b5f602082019050919050565b5f6133ef8261338a565b6133f98185613394565b9350613404836133a4565b805f5b8381101561343457815161341b88826133c2565b9750613426836133d9565b925050600181019050613407565b5085935050505092915050565b5f60e0820190506134545f83018a613329565b81810360208301526134668189613352565b9050818103604083015261347a8188613352565b90506134896060830187612d8a565b6134966080830186612bbd565b6134a360a0830185612fcc565b81810360c08301526134b581846133e5565b905098975050505050505050565b5f8115159050919050565b6134d7816134c3565b82525050565b5f6020820190506134f05f8301846134ce565b92915050565b5f6080820190506135095f830187612bbd565b6135166020830186612bbd565b6135236040830185612bbd565b6135306060830184612d8a565b95945050505050565b5f81905092915050565b5f61354d826131c9565b6135578185613539565b93506135678185602086016131e3565b80840191505092915050565b5f61357e8284613543565b915081905092915050565b5f8160030b9050919050565b61359e81613589565b81146135a8575f5ffd5b50565b5f815190506135b981613595565b92915050565b5f602082840312156135d4576135d3612bee565b5b5f6135e1848285016135ab565b91505092915050565b7f4173736f6369617465204661696c6564000000000000000000000000000000005f82015250565b5f61361e601083613342565b9150613629826135ea565b602082019050919050565b5f6020820190508181035f83015261364b81613612565b9050919050565b7f7a65726f20616d6f756e740000000000000000000000000000000000000000005f82015250565b5f613686600b83613342565b915061369182613652565b602082019050919050565b5f6020820190508181035f8301526136b38161367a565b9050919050565b7f616c726561647920696e697469616c697a6564000000000000000000000000005f82015250565b5f6136ee601383613342565b91506136f9826136ba565b602082019050919050565b5f6020820190508181035f83015261371b816136e2565b9050919050565b7f485453207472616e73666572206661696c6564000000000000000000000000005f82015250565b5f613756601383613342565b915061376182613722565b602082019050919050565b5f6020820190508181035f8301526137838161374a565b9050919050565b7f4e487b71000000000000000000000000000000000000000000000000000000005f52601160045260245ffd5b5f6137c182612c20565b91506137cc83612c20565b92508282019050808211156137e4576137e361378a565b5b92915050565b6137f381612db2565b82525050565b5f60208201905061380c5f8301846137ea565b92915050565b5f6040820190506138255f830185612bbd565b818103602083015261383781846131f1565b90509392505050565b5f6040820190506138535f8301856134ce565b818103602083015261386581846131f1565b90509392505050565b7f696e73756666696369656e7420657363726f772062616c616e636500000000005f82015250565b5f6138a2601b83613342565b91506138ad8261386e565b602082019050919050565b5f6020820190508181035f8301526138cf81613896565b9050919050565b5f6138e082612c20565b91506138eb83612c20565b92508282039050818111156139035761390261378a565b5b92915050565b7f696e73756666696369656e74206465706f73697465642070726f7065727479205f8201527f746f6b656e730000000000000000000000000000000000000000000000000000602082015250565b5f613963602683613342565b915061396e82613909565b604082019050919050565b5f6020820190508181035f83015261399081613957565b9050919050565b5f6040820190506139aa5f830185612bbd565b6139b76020830184612bbd565b9392505050565b5f6080820190506139d15f830187612bbd565b6139de6020830186612bbd565b6139eb6040830185612bbd565b6139f86060830184612cc3565b95945050505050565b7f70726f7065727479206d69736d617463680000000000000000000000000000005f82015250565b5f613a35601183613342565b9150613a4082613a01565b602082019050919050565b5f6020820190508181035f830152613a6281613a29565b9050919050565b7f7072696365206d69736d617463680000000000000000000000000000000000005f82015250565b5f613a9d600e83613342565b9150613aa882613a69565b602082019050919050565b5f6020820190508181035f830152613aca81613a91565b9050919050565b7f6f726465722065787069726564000000000000000000000000000000000000005f82015250565b5f613b05600d83613342565b9150613b1082613ad1565b602082019050919050565b5f6020820190508181035f830152613b3281613af9565b9050919050565b7f6f726465722063616e63656c6c656400000000000000000000000000000000005f82015250565b5f613b6d600f83613342565b9150613b7882613b39565b602082019050919050565b5f6020820190508181035f830152613b9a81613b61565b9050919050565b7f6f72646572206e6f7420696e697469616c697a6564206f7220616c72656164795f8201527f2066696c6c656400000000000000000000000000000000000000000000000000602082015250565b5f613bfb602783613342565b9150613c0682613ba1565b604082019050919050565b5f6020820190508181035f830152613c2881613bef565b9050919050565b7f6e6f7468696e6720746f2066696c6c00000000000000000000000000000000005f82015250565b5f613c63600f83613342565b9150613c6e82613c2f565b602082019050919050565b5f6020820190508181035f830152613c9081613c57565b9050919050565b5f613ca182612c20565b9150613cac83612c20565b9250828202613cba81612c20565b91508282048414831517613cd157613cd061378a565b5b5092915050565b7f4e487b71000000000000000000000000000000000000000000000000000000005f52601260045260245ffd5b5f613d0f82612c20565b9150613d1a83612c20565b925082613d2a57613d29613cd8565b5b828204905092915050565b7f627579657220696e73756666696369656e74205553444320657363726f7700005f82015250565b5f613d69601e83613342565b9150613d7482613d35565b602082019050919050565b5f6020820190508181035f830152613d9681613d5d565b9050919050565b7f73656c6c657220696e73756666696369656e742070726f7065727479206573635f8201527f726f770000000000000000000000000000000000000000000000000000000000602082015250565b5f613df7602383613342565b9150613e0282613d9d565b604082019050919050565b5f6020820190508181035f830152613e2481613deb565b9050919050565b7f70726f7065727479207472616e73666572206661696c656400000000000000005f82015250565b5f613e5f601883613342565b9150613e6a82613e2b565b602082019050919050565b5f6020820190508181035f830152613e8c81613e53565b9050919050565b7f55534443207472616e7366657220746f2073656c6c6572206661696c656400005f82015250565b5f613ec7601e83613342565b9150613ed282613e93565b602082019050919050565b5f6020820190508181035f830152613ef481613ebb565b9050919050565b7f666565207472616e73666572206661696c6564000000000000000000000000005f82015250565b5f613f2f601383613342565b9150613f3a82613efb565b602082019050919050565b5f6020820190508181035f830152613f5c81613f23565b9050919050565b5f613f7d613f78613f7384612db2565b612d16565b612c20565b9050919050565b613f8d81613f63565b82525050565b5f608082019050613fa65f830187612d8a565b613fb36020830186613f84565b613fc06040830185612d8a565b613fcd6060830184612d8a565b95945050505050565b7f4e487b71000000000000000000000000000000000000000000000000000000005f52602260045260245ffd5b5f600282049050600182168061401a57607f821691505b60208210810361402d5761402c613fd6565b5b5091905056fea26469706673582212203389e47f82bdcd48563d18c6c734078459076167fe638776aa00746a14d3248464736f6c634300081c0033",
  "linkReferences": {},
  "deployedLinkReferences": {},
  "immutableReferences": {
    "3780": [
      {
        "length": 32,
        "start": 10668
      }
    ],
    "3783": [
      {
        "length": 32,
        "start": 10727
      }
    ]
  },
  "inputSourceName": "project/contracts/MarketPlace.sol",
  "buildInfoId": "solc-0_8_28-cdd3cb030e597e2c29e91aa1c87bf67c34c11614"
}