{
  "_format": "hh3-artifact-1",
  "contractName": "MarketPlace",
  "sourceName": "contracts/MarketPlace.sol",
  "abi": [
    {
      "inputs": [
        {
          "internalType": "address",
          "name": "_initialOwner",
          "type": "address"
        },
        {
          "internalType": "address",
          "name": "_usdcToken",
          "type": "address"
        },
        {
          "internalType": "address",
          "name": "_feeCollector",
          "type": "address"
        },
        {
          "internalType": "uint256",
          "name": "_feeBps",
          "type": "uint256"
        }
      ],
      "stateMutability": "nonpayable",
      "type": "constructor"
    },
    {
      "inputs": [],
      "name": "ECDSAInvalidSignature",
      "type": "error"
    },
    {
      "inputs": [
        {
          "internalType": "uint256",
          "name": "length",
          "type": "uint256"
        }
      ],
      "name": "ECDSAInvalidSignatureLength",
      "type": "error"
    },
    {
      "inputs": [
        {
          "internalType": "bytes32",
          "name": "s",
          "type": "bytes32"
        }
      ],
      "name": "ECDSAInvalidSignatureS",
      "type": "error"
    },
    {
      "inputs": [],
      "name": "InvalidShortString",
      "type": "error"
    },
    {
      "inputs": [
        {
          "internalType": "address",
          "name": "owner",
          "type": "address"
        }
      ],
      "name": "OwnableInvalidOwner",
      "type": "error"
    },
    {
      "inputs": [
        {
          "internalType": "address",
          "name": "account",
          "type": "address"
        }
      ],
      "name": "OwnableUnauthorizedAccount",
      "type": "error"
    },
    {
      "inputs": [],
      "name": "ReentrancyGuardReentrantCall",
      "type": "error"
    },
    {
      "inputs": [
        {
          "internalType": "string",
          "name": "str",
          "type": "string"
        }
      ],
      "name": "StringTooLong",
      "type": "error"
    },
    {
      "anonymous": false,
      "inputs": [
        {
          "indexed": false,
          "internalType": "bool",
          "name": "",
          "type": "bool"
        },
        {
          "indexed": false,
          "internalType": "bytes",
          "name": "",
          "type": "bytes"
        }
      ],
      "name": "CallResponseEvent",
      "type": "event"
    },
    {
      "anonymous": false,
      "inputs": [
        {
          "indexed": true,
          "internalType": "address",
          "name": "account",
          "type": "address"
        },
        {
          "indexed": true,
          "internalType": "address",
          "name": "token",
          "type": "address"
        },
        {
          "indexed": false,
          "internalType": "uint256",
          "name": "amount",
          "type": "uint256"
        }
      ],
      "name": "Deposited",
      "type": "event"
    },
    {
      "anonymous": false,
      "inputs": [],
      "name": "EIP712DomainChanged",
      "type": "event"
    },
    {
      "anonymous": false,
      "inputs": [
        {
          "indexed": true,
          "internalType": "address",
          "name": "maker",
          "type": "address"
        },
        {
          "indexed": false,
          "internalType": "uint64",
          "name": "nonce",
          "type": "uint64"
        }
      ],
      "name": "OrderCancelled",
      "type": "event"
    },
    {
      "anonymous": false,
      "inputs": [
        {
          "indexed": true,
          "internalType": "address",
          "name": "previousOwner",
          "type": "address"
        },
        {
          "indexed": true,
          "internalType": "address",
          "name": "newOwner",
          "type": "address"
        }
      ],
      "name": "OwnershipTransferred",
      "type": "event"
    },
    {
      "anonymous": false,
      "inputs": [
        {
          "indexed": true,
          "internalType": "address",
          "name": "buyer",
          "type": "address"
        },
        {
          "indexed": true,
          "internalType": "address",
          "name": "seller",
          "type": "address"
        },
        {
          "indexed": true,
          "internalType": "address",
          "name": "propertyToken",
          "type": "address"
        },
        {
          "indexed": false,
          "internalType": "uint64",
          "name": "filled",
          "type": "uint64"
        },
        {
          "indexed": false,
          "internalType": "uint64",
          "name": "pricePerShare",
          "type": "uint64"
        },
        {
          "indexed": false,
          "internalType": "uint256",
          "name": "totalNotional",
          "type": "uint256"
        },
        {
          "indexed": false,
          "internalType": "uint256",
          "name": "fee",
          "type": "uint256"
        }
      ],
      "name": "TradeExecuted",
      "type": "event"
    },
    {
      "anonymous": false,
      "inputs": [
        {
          "indexed": true,
          "internalType": "address",
          "name": "account",
          "type": "address"
        },
        {
          "indexed": true,
          "internalType": "address",
          "name": "token",
          "type": "address"
        },
        {
          "indexed": false,
          "internalType": "uint256",
          "name": "amount",
          "type": "uint256"
        }
      ],
      "name": "Withdrawn",
      "type": "event"
    },
    {
      "inputs": [],
      "name": "BUY_ORDER_TYPEHASH",
      "outputs": [
        {
          "internalType": "bytes32",
          "name": "",
          "type": "bytes32"
        }
      ],
      "stateMutability": "view",
      "type": "function"
    },
    {
      "inputs": [],
      "name": "HTS",
      "outputs": [
        {
          "internalType": "contract IHederaTokenService",
          "name": "",
          "type": "address"
        }
      ],
      "stateMutability": "view",
      "type": "function"
    },
    {
      "inputs": [],
      "name": "SELL_ORDER_TYPEHASH",
      "outputs": [
        {
          "internalType": "bytes32",
          "name": "",
          "type": "bytes32"
        }
      ],
      "stateMutability": "view",
      "type": "function"
    },
    {
      "inputs": [
        {
          "internalType": "uint64",
          "name": "nonce",
          "type": "uint64"
        }
      ],
      "name": "cancelOrder",
      "outputs": [],
      "stateMutability": "nonpayable",
      "type": "function"
    },
    {
      "inputs": [
        {
          "internalType": "address",
          "name": "",
          "type": "address"
        },
        {
          "internalType": "uint64",
          "name": "",
          "type": "uint64"
        }
      ],
      "name": "cancelled",
      "outputs": [
        {
          "internalType": "bool",
          "name": "",
          "type": "bool"
        }
      ],
      "stateMutability": "view",
      "type": "function"
    },
    {
      "inputs": [
        {
          "internalType": "address",
          "name": "token",
          "type": "address"
        },
        {
          "internalType": "uint256",
          "name": "amount",
          "type": "uint256"
        }
      ],
      "name": "depositToken",
      "outputs": [],
      "stateMutability": "nonpayable",
      "type": "function"
    },
    {
      "inputs": [],
      "name": "eip712Domain",
      "outputs": [
        {
          "internalType": "bytes1",
          "name": "fields",
          "type": "bytes1"
        },
        {
          "internalType": "string",
          "name": "name",
          "type": "string"
        },
        {
          "internalType": "string",
          "name": "version",
          "type": "string"
        },
        {
          "internalType": "uint256",
          "name": "chainId",
          "type": "uint256"
        },
        {
          "internalType": "address",
          "name": "verifyingContract",
          "type": "address"
        },
        {
          "internalType": "bytes32",
          "name": "salt",
          "type": "bytes32"
        },
        {
          "internalType": "uint256[]",
          "name": "extensions",
          "type": "uint256[]"
        }
      ],
      "stateMutability": "view",
      "type": "function"
    },
    {
      "inputs": [
        {
          "internalType": "address",
          "name": "",
          "type": "address"
        },
        {
          "internalType": "address",
          "name": "",
          "type": "address"
        }
      ],
      "name": "escrowBalances",
      "outputs": [
        {
          "internalType": "uint256",
          "name": "",
          "type": "uint256"
        }
      ],
      "stateMutability": "view",
      "type": "function"
    },
    {
      "inputs": [],
      "name": "feeBps",
      "outputs": [
        {
          "internalType": "uint256",
          "name": "",
          "type": "uint256"
        }
      ],
      "stateMutability": "view",
      "type": "function"
    },
    {
      "inputs": [],
      "name": "feeCollector",
      "outputs": [
        {
          "internalType": "address",
          "name": "",
          "type": "address"
        }
      ],
      "stateMutability": "view",
      "type": "function"
    },
    {
      "inputs": [
        {
          "internalType": "uint64",
          "name": "nonce",
          "type": "uint64"
        },
        {
          "internalType": "address",
          "name": "",
          "type": "address"
        },
        {
          "internalType": "uint64",
          "name": "amount",
          "type": "uint64"
        }
      ],
      "name": "initBuyOrder",
      "outputs": [],
      "stateMutability": "nonpayable",
      "type": "function"
    },
    {
      "inputs": [
        {
          "internalType": "uint64",
          "name": "nonce",
          "type": "uint64"
        },
        {
          "internalType": "address",
          "name": "propertyToken",
          "type": "address"
        },
        {
          "internalType": "uint64",
          "name": "amount",
          "type": "uint64"
        }
      ],
      "name": "initSellOrder",
      "outputs": [],
      "stateMutability": "nonpayable",
      "type": "function"
    },
    {
      "inputs": [],
      "name": "owner",
      "outputs": [
        {
          "internalType": "address",
          "name": "",
          "type": "address"
        }
      ],
      "stateMutability": "view",
      "type": "function"
    },
    {
      "inputs": [
        {
          "internalType": "address",
          "name": "token",
          "type": "address"
        },
        {
          "internalType": "bytes",
          "name": "encodedFunctionSelector",
          "type": "bytes"
        }
      ],
      "name": "redirectForToken",
      "outputs": [
        {
          "internalType": "int256",
          "name": "responseCode",
          "type": "int256"
        },
        {
          "internalType": "bytes",
          "name": "response",
          "type": "bytes"
        }
      ],
      "stateMutability": "nonpayable",
      "type": "function"
    },
    {
      "inputs": [
        {
          "internalType": "address",
          "name": "",
          "type": "address"
        },
        {
          "internalType": "uint64",
          "name": "",
          "type": "uint64"
        }
      ],
      "name": "remaining",
      "outputs": [
        {
          "internalType": "uint64",
          "name": "",
          "type": "uint64"
        }
      ],
      "stateMutability": "view",
      "type": "function"
    },
    {
      "inputs": [],
      "name": "renounceOwnership",
      "outputs": [],
      "stateMutability": "nonpayable",
      "type": "function"
    },
    {
      "inputs": [
        {
          "internalType": "uint256",
          "name": "bps",
          "type": "uint256"
        }
      ],
      "name": "setFeeBps",
      "outputs": [],
      "stateMutability": "nonpayable",
      "type": "function"
    },
    {
      "inputs": [
        {
          "internalType": "address",
          "name": "fc",
          "type": "address"
        }
      ],
      "name": "setFeeCollector",
      "outputs": [],
      "stateMutability": "nonpayable",
      "type": "function"
    },
    {
      "inputs": [
        {
          "internalType": "address",
          "name": "token",
          "type": "address"
        }
      ],
      "name": "setUSDC",
      "outputs": [],
      "stateMutability": "nonpayable",
      "type": "function"
    },
    {
      "inputs": [
        {
          "components": [
            {
              "internalType": "address",
              "name": "maker",
              "type": "address"
            },
            {
              "internalType": "address",
              "name": "propertyToken",
              "type": "address"
            },
            {
              "internalType": "uint64",
              "name": "remainingAmount",
              "type": "uint64"
            },
            {
              "internalType": "uint64",
              "name": "pricePerShare",
              "type": "uint64"
            },
            {
              "internalType": "uint64",
              "name": "expiry",
              "type": "uint64"
            },
            {
              "internalType": "uint64",
              "name": "nonce",
              "type": "uint64"
            }
          ],
          "internalType": "struct MarketPlace.BuyOrder",
          "name": "buy",
          "type": "tuple"
        },
        {
          "internalType": "bytes",
          "name": "buySig",
          "type": "bytes"
        },
        {
          "components": [
            {
              "internalType": "address",
              "name": "maker",
              "type": "address"
            },
            {
              "internalType": "address",
              "name": "propertyToken",
              "type": "address"
            },
            {
              "internalType": "uint64",
              "name": "remainingAmount",
              "type": "uint64"
            },
            {
              "internalType": "uint64",
              "name": "pricePerShare",
              "type": "uint64"
            },
            {
              "internalType": "uint64",
              "name": "expiry",
              "type": "uint64"
            },
            {
              "internalType": "uint64",
              "name": "nonce",
              "type": "uint64"
            }
          ],
          "internalType": "struct MarketPlace.SellOrder",
          "name": "sell",
          "type": "tuple"
        },
        {
          "internalType": "bytes",
          "name": "sellSig",
          "type": "bytes"
        }
      ],
      "name": "settle",
      "outputs": [],
      "stateMutability": "nonpayable",
      "type": "function"
    },
    {
      "inputs": [
        {
          "internalType": "address",
          "name": "tokenId",
          "type": "address"
        }
      ],
      "name": "tokenAssociate",
      "outputs": [],
      "stateMutability": "nonpayable",
      "type": "function"
    },
    {
      "inputs": [
        {
          "internalType": "address",
          "name": "token",
          "type": "address"
        },
        {
          "internalType": "address",
          "name": "from",
          "type": "address"
        },
        {
          "internalType": "address",
          "name": "to",
          "type": "address"
        },
        {
          "internalType": "uint256",
          "name": "amount",
          "type": "uint256"
        }
      ],
      "name": "transferFrom",
      "outputs": [
        {
          "internalType": "int64",
          "name": "responseCode",
          "type": "int64"
        }
      ],
      "stateMutability": "nonpayable",
      "type": "function"
    },
    {
      "inputs": [
        {
          "internalType": "address",
          "name": "token",
          "type": "address"
        },
        {
          "internalType": "address",
          "name": "from",
          "type": "address"
        },
        {
          "internalType": "address",
          "name": "to",
          "type": "address"
        },
        {
          "internalType": "uint256",
          "name": "serialNumber",
          "type": "uint256"
        }
      ],
      "name": "transferFromNFT",
      "outputs": [
        {
          "internalType": "int64",
          "name": "responseCode",
          "type": "int64"
        }
      ],
      "stateMutability": "nonpayable",
      "type": "function"
    },
    {
      "inputs": [
        {
          "internalType": "address",
          "name": "newOwner",
          "type": "address"
        }
      ],
      "name": "transferOwnership",
      "outputs": [],
      "stateMutability": "nonpayable",
      "type": "function"
    },
    {
      "inputs": [],
      "name": "usdcToken",
      "outputs": [
        {
          "internalType": "address",
          "name": "",
          "type": "address"
        }
      ],
      "stateMutability": "view",
      "type": "function"
    },
    {
      "inputs": [
        {
          "internalType": "address",
          "name": "token",
          "type": "address"
        },
        {
          "internalType": "uint256",
          "name": "amount",
          "type": "uint256"
        }
      ],
      "name": "withdrawToken",
      "outputs": [],
      "stateMutability": "nonpayable",
      "type": "function"
    },
    {
      "stateMutability": "payable",
      "type": "receive"
    }
  ],
  "bytecode": "0x610160604052348015610010575f5ffd5b50604051615d10380380615d1083398181016040528101906100329190610658565b836040518060400160405280601081526020017f41747269614d61726b6574506c616365000000000000000000000000000000008152506040518060400160405280600581526020017f312e302e300000000000000000000000000000000000000000000000000000008152506100b25f836103ef60201b90919060201c565b61012081815250506100ce6001826103ef60201b90919060201c565b6101408181525050818051906020012060e08181525050808051906020012061010081815250504660a0818152505061010b61043c60201b60201c565b608081815250503073ffffffffffffffffffffffffffffffffffffffff1660c08173ffffffffffffffffffffffffffffffffffffffff168152505050505f73ffffffffffffffffffffffffffffffffffffffff168173ffffffffffffffffffffffffffffffffffffffff16036101b8575f6040517f1e4fbdf70000000000000000000000000000000000000000000000000000000081526004016101af91906106cb565b60405180910390fd5b6101c78161049660201b60201c565b5060016003819055505f73ffffffffffffffffffffffffffffffffffffffff168473ffffffffffffffffffffffffffffffffffffffff160361023e576040517f08c379a00000000000000000000000000000000000000000000000000000000081526004016102359061073e565b60405180910390fd5b5f73ffffffffffffffffffffffffffffffffffffffff168373ffffffffffffffffffffffffffffffffffffffff16036102ac576040517f08c379a00000000000000000000000000000000000000000000000000000000081526004016102a3906107a6565b60405180910390fd5b5f73ffffffffffffffffffffffffffffffffffffffff168273ffffffffffffffffffffffffffffffffffffffff160361031a576040517f08c379a00000000000000000000000000000000000000000000000000000000081526004016103119061080e565b60405180910390fd5b61271081111561035f576040517f08c379a000000000000000000000000000000000000000000000000000000000815260040161035690610876565b60405180910390fd5b8260045f6101000a81548173ffffffffffffffffffffffffffffffffffffffff021916908373ffffffffffffffffffffffffffffffffffffffff1602179055508160055f6101000a81548173ffffffffffffffffffffffffffffffffffffffff021916908373ffffffffffffffffffffffffffffffffffffffff1602179055508060068190555050505050610d18565b5f602083511015610410576104098361055960201b60201c565b9050610436565b82610420836105be60201b60201c565b5f01908161042e9190610ac8565b5060ff5f1b90505b92915050565b5f7f8b73c3c69bb8fe3d512ecc4cf759cc79239f7b179b0ffacaa9a75d522b39400f60e05161010051463060405160200161047b959493929190610bbe565b60405160208183030381529060405280519060200120905090565b5f60025f9054906101000a900473ffffffffffffffffffffffffffffffffffffffff1690508160025f6101000a81548173ffffffffffffffffffffffffffffffffffffffff021916908373ffffffffffffffffffffffffffffffffffffffff1602179055508173ffffffffffffffffffffffffffffffffffffffff168173ffffffffffffffffffffffffffffffffffffffff167f8be0079c531659141344cd1fd0a4f28419497f9722a3daafe3b4186f6b6457e060405160405180910390a35050565b5f5f829050601f815111156105a557826040517f305a27a900000000000000000000000000000000000000000000000000000000815260040161059c9190610c65565b60405180910390fd5b8051816105b190610cb2565b5f1c175f1b915050919050565b5f819050919050565b5f5ffd5b5f73ffffffffffffffffffffffffffffffffffffffff82169050919050565b5f6105f4826105cb565b9050919050565b610604816105ea565b811461060e575f5ffd5b50565b5f8151905061061f816105fb565b92915050565b5f819050919050565b61063781610625565b8114610641575f5ffd5b50565b5f815190506106528161062e565b92915050565b5f5f5f5f608085870312156106705761066f6105c7565b5b5f61067d87828801610611565b945050602061068e87828801610611565b935050604061069f87828801610611565b92505060606106b087828801610644565b91505092959194509250565b6106c5816105ea565b82525050565b5f6020820190506106de5f8301846106bc565b92915050565b5f82825260208201905092915050565b7f496e76616c696420696e697469616c206f776e657200000000000000000000005f82015250565b5f6107286015836106e4565b9150610733826106f4565b602082019050919050565b5f6020820190508181035f8301526107558161071c565b9050919050565b7f496e76616c6964205553444320746f6b656e00000000000000000000000000005f82015250565b5f6107906012836106e4565b915061079b8261075c565b602082019050919050565b5f6020820190508181035f8301526107bd81610784565b9050919050565b7f496e76616c69642066656520636f6c6c6563746f7200000000000000000000005f82015250565b5f6107f86015836106e4565b9150610803826107c4565b602082019050919050565b5f6020820190508181035f830152610825816107ec565b9050919050565b7f46656520626173697320706f696e747320746f6f2068696768000000000000005f82015250565b5f6108606019836106e4565b915061086b8261082c565b602082019050919050565b5f6020820190508181035f83015261088d81610854565b9050919050565b5f81519050919050565b7f4e487b71000000000000000000000000000000000000000000000000000000005f52604160045260245ffd5b7f4e487b71000000000000000000000000000000000000000000000000000000005f52602260045260245ffd5b5f600282049050600182168061090f57607f821691505b602082108103610922576109216108cb565b5b50919050565b5f819050815f5260205f209050919050565b5f6020601f8301049050919050565b5f82821b905092915050565b5f600883026109847fffffffffffffffffffffffffffffffffffffffffffffffffffffffffffffffff82610949565b61098e8683610949565b95508019841693508086168417925050509392505050565b5f819050919050565b5f6109c96109c46109bf84610625565b6109a6565b610625565b9050919050565b5f819050919050565b6109e2836109af565b6109f66109ee826109d0565b848454610955565b825550505050565b5f5f905090565b610a0d6109fe565b610a188184846109d9565b505050565b5b81811015610a3b57610a305f82610a05565b600181019050610a1e565b5050565b601f821115610a8057610a5181610928565b610a5a8461093a565b81016020851015610a69578190505b610a7d610a758561093a565b830182610a1d565b50505b505050565b5f82821c905092915050565b5f610aa05f1984600802610a85565b1980831691505092915050565b5f610ab88383610a91565b9150826002028217905092915050565b610ad182610894565b67ffffffffffffffff811115610aea57610ae961089e565b5b610af482546108f8565b610aff828285610a3f565b5f60209050601f831160018114610b30575f8415610b1e578287015190505b610b288582610aad565b865550610b8f565b601f198416610b3e86610928565b5f5b82811015610b6557848901518255600182019150602085019450602081019050610b40565b86831015610b825784890151610b7e601f891682610a91565b8355505b6001600288020188555050505b505050505050565b5f819050919050565b610ba981610b97565b82525050565b610bb881610625565b82525050565b5f60a082019050610bd15f830188610ba0565b610bde6020830187610ba0565b610beb6040830186610ba0565b610bf86060830185610baf565b610c0560808301846106bc565b9695505050505050565b8281835e5f83830152505050565b5f601f19601f8301169050919050565b5f610c3782610894565b610c4181856106e4565b9350610c51818560208601610c0f565b610c5a81610c1d565b840191505092915050565b5f6020820190508181035f830152610c7d8184610c2d565b905092915050565b5f81519050919050565b5f819050602082019050919050565b5f610ca98251610b97565b80915050919050565b5f610cbc82610c85565b82610cc684610c8f565b9050610cd181610c9e565b92506020821015610d1157610d0c7fffffffffffffffffffffffffffffffffffffffffffffffffffffffffffffffff83602003600802610949565b831692505b5050919050565b60805160a05160c05160e051610100516101205161014051614fa7610d695f395f611a2d01525f6119f201525f61344f01525f61342e01525f61316001525f6131b601525f6131df0152614fa75ff3fe608060405260043610610184575f3560e01c806376f819ac116100d0578063a42dce8011610089578063c415b95c11610063578063c415b95c14610564578063c855c0871461058e578063d595bee9146105ca578063f2fde38b146105f45761018b565b8063a42dce80146104ec578063b3e089a214610514578063b54b34751461053c5761018b565b806376f819ac146103ca57806384b0196e146104065780638da5cb5b146104365780639b23d3d9146104605780639e281a981461049c578063a34d60b4146104c45761018b565b8063338b5dea1161013d5780635b2b515f116101175780635b2b515f14610313578063618dc65e1461034f578063715018a61461038c57806372c27b62146103a25761018b565b8063338b5dea146102995780634c2aa52b146102c1578063523eb537146102eb5761018b565b806311eac8551461018f57806315dacbea146101b95780631a2a5e15146101f55780631bc921621461021d57806324a9d8531461024757806327476014146102715761018b565b3661018b57005b5f5ffd5b34801561019a575f5ffd5b506101a361061c565b6040516101b091906135c5565b60405180910390f35b3480156101c4575f5ffd5b506101df60048036038101906101da919061364c565b610641565b6040516101ec91906136cb565b60405180910390f35b348015610200575f5ffd5b5061021b600480360381019061021691906136e4565b610759565b005b348015610228575f5ffd5b506102316107b0565b60405161023e919061376a565b60405180910390f35b348015610252575f5ffd5b5061025b6107b6565b6040516102689190613792565b60405180910390f35b34801561027c575f5ffd5b50610297600480360381019061029291906137e8565b6107bc565b005b3480156102a4575f5ffd5b506102bf60048036038101906102ba9190613838565b610952565b005b3480156102cc575f5ffd5b506102d5610b69565b6040516102e2919061388e565b60405180910390f35b3480156102f6575f5ffd5b50610311600480360381019061030c91906138a7565b610b8d565b005b34801561031e575f5ffd5b50610339600480360381019061033491906138d2565b610c56565b604051610346919061391f565b60405180910390f35b34801561035a575f5ffd5b5061037560048036038101906103709190613a74565b610c87565b604051610383929190613b46565b60405180910390f35b348015610397575f5ffd5b506103a0610ddc565b005b3480156103ad575f5ffd5b506103c860048036038101906103c39190613b74565b610def565b005b3480156103d5575f5ffd5b506103f060048036038101906103eb9190613b9f565b610e01565b6040516103fd9190613792565b60405180910390f35b348015610411575f5ffd5b5061041a610e21565b60405161042d9796959493929190613d20565b60405180910390f35b348015610441575f5ffd5b5061044a610ec6565b60405161045791906135c5565b60405180910390f35b34801561046b575f5ffd5b506104866004803603810190610481919061364c565b610eee565b60405161049391906136cb565b60405180910390f35b3480156104a7575f5ffd5b506104c260048036038101906104bd9190613838565b611006565b005b3480156104cf575f5ffd5b506104ea60048036038101906104e591906137e8565b6112df565b005b3480156104f7575f5ffd5b50610512600480360381019061050d91906136e4565b61153a565b005b34801561051f575f5ffd5b5061053a600480360381019061053591906136e4565b611585565b005b348015610547575f5ffd5b50610562600480360381019061055d9190613e3f565b6115d0565b005b34801561056f575f5ffd5b50610578611647565b60405161058591906135c5565b60405180910390f35b348015610599575f5ffd5b506105b460048036038101906105af91906138d2565b61166c565b6040516105c19190613efe565b60405180910390f35b3480156105d5575f5ffd5b506105de611696565b6040516105eb919061388e565b60405180910390f35b3480156105ff575f5ffd5b5061061a600480360381019061061591906136e4565b6116ba565b005b60045f9054906101000a900473ffffffffffffffffffffffffffffffffffffffff1681565b5f5f5f61016773ffffffffffffffffffffffffffffffffffffffff166315dacbea60e01b8888888860405160240161067c9493929190613f17565b604051602081830303815290604052907bffffffffffffffffffffffffffffffffffffffffffffffffffffffff19166020820180517bffffffffffffffffffffffffffffffffffffffffffffffffffffffff83818316178352505050506040516106e69190613f94565b5f604051808303815f865af19150503d805f811461071f576040519150601f19603f3d011682016040523d82523d5f602084013e610724565b606091505b50915091508161073557601561074a565b808060200190518101906107499190613fe0565b5b60030b92505050949350505050565b5f610764308361173e565b9050601660030b81146107ac576040517f08c379a00000000000000000000000000000000000000000000000000000000081526004016107a390614055565b60405180910390fd5b5050565b61016781565b60065481565b5f8167ffffffffffffffff1611610808576040517f08c379a00000000000000000000000000000000000000000000000000000000081526004016107ff906140bd565b60405180910390fd5b5f60075f3373ffffffffffffffffffffffffffffffffffffffff1673ffffffffffffffffffffffffffffffffffffffff1681526020019081526020015f205f8567ffffffffffffffff1667ffffffffffffffff1681526020019081526020015f205f9054906101000a900467ffffffffffffffff1667ffffffffffffffff16146108c7576040517f08c379a00000000000000000000000000000000000000000000000000000000081526004016108be90614125565b60405180910390fd5b8060075f3373ffffffffffffffffffffffffffffffffffffffff1673ffffffffffffffffffffffffffffffffffffffff1681526020019081526020015f205f8567ffffffffffffffff1667ffffffffffffffff1681526020019081526020015f205f6101000a81548167ffffffffffffffff021916908367ffffffffffffffff160217905550505050565b61095a611850565b5f811161099c576040517f08c379a0000000000000000000000000000000000000000000000000000000008152600401610993906140bd565b60405180910390fd5b5f61016773ffffffffffffffffffffffffffffffffffffffff1663eca36917843330866040518563ffffffff1660e01b81526004016109de9493929190614143565b6020604051808303815f875af11580156109fa573d5f5f3e3d5ffd5b505050506040513d601f19601f82011682018060405250810190610a1e91906141b0565b60070b9050601660030b8114610a69576040517f08c379a0000000000000000000000000000000000000000000000000000000008152600401610a6090614225565b60405180910390fd5b8160095f8573ffffffffffffffffffffffffffffffffffffffff1673ffffffffffffffffffffffffffffffffffffffff1681526020019081526020015f205f3373ffffffffffffffffffffffffffffffffffffffff1673ffffffffffffffffffffffffffffffffffffffff1681526020019081526020015f205f828254610af09190614270565b925050819055508273ffffffffffffffffffffffffffffffffffffffff163373ffffffffffffffffffffffffffffffffffffffff167f8752a472e571a816aea92eec8dae9baf628e840f4929fbcc2d155e6233ff68a784604051610b549190613792565b60405180910390a350610b65611896565b5050565b7f7c8e0ebacd44590996856b3b99d8a13f47c7f9283d758f50585580152ae5debc81565b600160085f3373ffffffffffffffffffffffffffffffffffffffff1673ffffffffffffffffffffffffffffffffffffffff1681526020019081526020015f205f8367ffffffffffffffff1667ffffffffffffffff1681526020019081526020015f205f6101000a81548160ff0219169083151502179055503373ffffffffffffffffffffffffffffffffffffffff167f54562025d61ffa081c7c7e1b98890e1c4333bbdf640cc5c7e01552908ccfeaf982604051610c4b919061391f565b60405180910390a250565b6007602052815f5260405f20602052805f5260405f205f915091509054906101000a900467ffffffffffffffff1681565b5f60605f5f61016773ffffffffffffffffffffffffffffffffffffffff1663618dc65e60e01b8787604051602401610cc09291906142a3565b604051602081830303815290604052907bffffffffffffffffffffffffffffffffffffffffffffffffffffffff19166020820180517bffffffffffffffffffffffffffffffffffffffffffffffffffffffff8381831617835250505050604051610d2a9190613f94565b5f604051808303815f865af19150503d805f8114610d63576040519150601f19603f3d011682016040523d82523d5f602084013e610d68565b606091505b50915091507f4af4780e06fe8cb9df64b0794fa6f01399af979175bb988e35e0e57e594567bc8282604051610d9e9291906142d1565b60405180910390a181610dc157601560405180602001604052805f815250610dc5565b6016815b8160030b9150809450819550505050509250929050565b610de46118a0565b610ded5f611927565b565b610df76118a0565b8060068190555050565b6009602052815f5260405f20602052805f5260405f205f91509150505481565b5f6060805f5f5f6060610e326119ea565b610e3a611a24565b46305f5f1b5f67ffffffffffffffff811115610e5957610e58613950565b5b604051908082528060200260200182016040528015610e875781602001602082028036833780820191505090505b507f0f00000000000000000000000000000000000000000000000000000000000000959493929190965096509650965096509650965090919293949596565b5f60025f9054906101000a900473ffffffffffffffffffffffffffffffffffffffff16905090565b5f5f5f61016773ffffffffffffffffffffffffffffffffffffffff16639b23d3d960e01b88888888604051602401610f299493929190613f17565b604051602081830303815290604052907bffffffffffffffffffffffffffffffffffffffffffffffffffffffff19166020820180517bffffffffffffffffffffffffffffffffffffffffffffffffffffffff8381831617835250505050604051610f939190613f94565b5f604051808303815f865af19150503d805f8114610fcc576040519150601f19603f3d011682016040523d82523d5f602084013e610fd1565b606091505b509150915081610fe2576015610ff7565b80806020019051810190610ff69190613fe0565b5b60030b92505050949350505050565b61100e611850565b5f8111611050576040517f08c379a0000000000000000000000000000000000000000000000000000000008152600401611047906140bd565b60405180910390fd5b8060095f8473ffffffffffffffffffffffffffffffffffffffff1673ffffffffffffffffffffffffffffffffffffffff1681526020019081526020015f205f3373ffffffffffffffffffffffffffffffffffffffff1673ffffffffffffffffffffffffffffffffffffffff1681526020019081526020015f2054101561110b576040517f08c379a000000000000000000000000000000000000000000000000000000000815260040161110290614349565b60405180910390fd5b8060095f8473ffffffffffffffffffffffffffffffffffffffff1673ffffffffffffffffffffffffffffffffffffffff1681526020019081526020015f205f3373ffffffffffffffffffffffffffffffffffffffff1673ffffffffffffffffffffffffffffffffffffffff1681526020019081526020015f205f8282546111929190614367565b925050819055505f61016773ffffffffffffffffffffffffffffffffffffffff1663eca36917843033866040518563ffffffff1660e01b81526004016111db9493929190614143565b6020604051808303815f875af11580156111f7573d5f5f3e3d5ffd5b505050506040513d601f19601f8201168201806040525081019061121b91906141b0565b60070b9050601681148061122e57505f81145b61126d576040517f08c379a000000000000000000000000000000000000000000000000000000000815260040161126490614225565b60405180910390fd5b8273ffffffffffffffffffffffffffffffffffffffff163373ffffffffffffffffffffffffffffffffffffffff167fd1c19fbcd4551a5edfb66d43d2e337c04837afda3482b42bdf569a8fccdae5fb846040516112ca9190613792565b60405180910390a3506112db611896565b5050565b5f8167ffffffffffffffff161161132b576040517f08c379a0000000000000000000000000000000000000000000000000000000008152600401611322906140bd565b60405180910390fd5b5f60075f3373ffffffffffffffffffffffffffffffffffffffff1673ffffffffffffffffffffffffffffffffffffffff1681526020019081526020015f205f8567ffffffffffffffff1667ffffffffffffffff1681526020019081526020015f205f9054906101000a900467ffffffffffffffff1667ffffffffffffffff16146113ea576040517f08c379a00000000000000000000000000000000000000000000000000000000081526004016113e190614125565b60405180910390fd5b8067ffffffffffffffff1660095f8473ffffffffffffffffffffffffffffffffffffffff1673ffffffffffffffffffffffffffffffffffffffff1681526020019081526020015f205f3373ffffffffffffffffffffffffffffffffffffffff1673ffffffffffffffffffffffffffffffffffffffff1681526020019081526020015f205410156114af576040517f08c379a00000000000000000000000000000000000000000000000000000000081526004016114a69061440a565b60405180910390fd5b8060075f3373ffffffffffffffffffffffffffffffffffffffff1673ffffffffffffffffffffffffffffffffffffffff1681526020019081526020015f205f8567ffffffffffffffff1667ffffffffffffffff1681526020019081526020015f205f6101000a81548167ffffffffffffffff021916908367ffffffffffffffff160217905550505050565b6115426118a0565b8060055f6101000a81548173ffffffffffffffffffffffffffffffffffffffff021916908373ffffffffffffffffffffffffffffffffffffffff16021790555050565b61158d6118a0565b8060045f6101000a81548173ffffffffffffffffffffffffffffffffffffffff021916908373ffffffffffffffffffffffffffffffffffffffff16021790555050565b6115d8611850565b6115e28684611a5f565b6115f0868686868686611d60565b5f5f5f5f5f6115ff8b89611f38565b945094509450945094506116158b898786612379565b6116238b8987868686612554565b6116328b898787878787612ac1565b505050505061163f611896565b505050505050565b60055f9054906101000a900473ffffffffffffffffffffffffffffffffffffffff1681565b6008602052815f5260405f20602052805f5260405f205f915091509054906101000a900460ff1681565b7f633c1d4e2255ebdd52de1e651f9b6c0fc81a96b36bd3920e942219566c5f819581565b6116c26118a0565b5f73ffffffffffffffffffffffffffffffffffffffff168173ffffffffffffffffffffffffffffffffffffffff1603611732575f6040517f1e4fbdf700000000000000000000000000000000000000000000000000000000815260040161172991906135c5565b60405180910390fd5b61173b81611927565b50565b5f5f5f61016773ffffffffffffffffffffffffffffffffffffffff166349146bde60e01b8686604051602401611775929190614428565b604051602081830303815290604052907bffffffffffffffffffffffffffffffffffffffffffffffffffffffff19166020820180517bffffffffffffffffffffffffffffffffffffffffffffffffffffffff83818316178352505050506040516117df9190613f94565b5f604051808303815f865af19150503d805f8114611818576040519150601f19603f3d011682016040523d82523d5f602084013e61181d565b606091505b50915091508161182e576015611843565b808060200190518101906118429190613fe0565b5b60030b9250505092915050565b60026003540361188c576040517f3ee5aeb500000000000000000000000000000000000000000000000000000000815260040160405180910390fd5b6002600381905550565b6001600381905550565b6118a8612e9f565b73ffffffffffffffffffffffffffffffffffffffff166118c6610ec6565b73ffffffffffffffffffffffffffffffffffffffff1614611925576118e9612e9f565b6040517f118cdaa700000000000000000000000000000000000000000000000000000000815260040161191c91906135c5565b60405180910390fd5b565b5f60025f9054906101000a900473ffffffffffffffffffffffffffffffffffffffff1690508160025f6101000a81548173ffffffffffffffffffffffffffffffffffffffff021916908373ffffffffffffffffffffffffffffffffffffffff1602179055508173ffffffffffffffffffffffffffffffffffffffff168173ffffffffffffffffffffffffffffffffffffffff167f8be0079c531659141344cd1fd0a4f28419497f9722a3daafe3b4186f6b6457e060405160405180910390a35050565b6060611a1f5f7f0000000000000000000000000000000000000000000000000000000000000000612ea690919063ffffffff16565b905090565b6060611a5a60017f0000000000000000000000000000000000000000000000000000000000000000612ea690919063ffffffff16565b905090565b806020016020810190611a7291906136e4565b73ffffffffffffffffffffffffffffffffffffffff16826020016020810190611a9b91906136e4565b73ffffffffffffffffffffffffffffffffffffffff1614611af1576040517f08c379a0000000000000000000000000000000000000000000000000000000008152600401611ae890614499565b60405180910390fd5b806060016020810190611b0491906138a7565b67ffffffffffffffff16826060016020810190611b2191906138a7565b67ffffffffffffffff161015611b6c576040517f08c379a0000000000000000000000000000000000000000000000000000000008152600401611b6390614501565b60405180910390fd5b816080016020810190611b7f91906138a7565b67ffffffffffffffff164211158015611bb45750806080016020810190611ba691906138a7565b67ffffffffffffffff164211155b611bf3576040517f08c379a0000000000000000000000000000000000000000000000000000000008152600401611bea90614569565b60405180910390fd5b60085f835f016020810190611c0891906136e4565b73ffffffffffffffffffffffffffffffffffffffff1673ffffffffffffffffffffffffffffffffffffffff1681526020019081526020015f205f8360a0016020810190611c5591906138a7565b67ffffffffffffffff1667ffffffffffffffff1681526020019081526020015f205f9054906101000a900460ff16158015611d1d575060085f825f016020810190611ca091906136e4565b73ffffffffffffffffffffffffffffffffffffffff1673ffffffffffffffffffffffffffffffffffffffff1681526020019081526020015f205f8260a0016020810190611ced91906138a7565b67ffffffffffffffff1667ffffffffffffffff1681526020019081526020015f205f9054906101000a900460ff16155b611d5c576040517f08c379a0000000000000000000000000000000000000000000000000000000008152600401611d53906145d1565b60405180910390fd5b5050565b5f611d7a87803603810190611d759190614690565b612f53565b90505f611d9685803603810190611d919190614758565b612fcd565b9050875f016020810190611daa91906136e4565b73ffffffffffffffffffffffffffffffffffffffff16611e0d8389898080601f0160208091040260200160405190810160405280939291908181526020018383808284375f81840152601f19601f82011690508083019250505050505050613047565b73ffffffffffffffffffffffffffffffffffffffff1614611e63576040517f08c379a0000000000000000000000000000000000000000000000000000000008152600401611e5a906147cd565b60405180910390fd5b845f016020810190611e7591906136e4565b73ffffffffffffffffffffffffffffffffffffffff16611ed88286868080601f0160208091040260200160405190810160405280939291908181526020018383808284375f81840152601f19601f82011690508083019250505050505050613047565b73ffffffffffffffffffffffffffffffffffffffff1614611f2e576040517f08c379a0000000000000000000000000000000000000000000000000000000008152600401611f2590614835565b60405180910390fd5b5050505050505050565b5f5f5f5f5f5f60075f895f016020810190611f5391906136e4565b73ffffffffffffffffffffffffffffffffffffffff1673ffffffffffffffffffffffffffffffffffffffff1681526020019081526020015f205f8960a0016020810190611fa091906138a7565b67ffffffffffffffff1667ffffffffffffffff1681526020019081526020015f205f9054906101000a900467ffffffffffffffff1690505f60075f895f016020810190611fed91906136e4565b73ffffffffffffffffffffffffffffffffffffffff1673ffffffffffffffffffffffffffffffffffffffff1681526020019081526020015f205f8960a001602081019061203a91906138a7565b67ffffffffffffffff1667ffffffffffffffff1681526020019081526020015f205f9054906101000a900467ffffffffffffffff1690505f8267ffffffffffffffff1611801561209357505f8167ffffffffffffffff16115b6120d2576040517f08c379a00000000000000000000000000000000000000000000000000000000081526004016120c9906148c3565b60405180910390fd5b8067ffffffffffffffff168267ffffffffffffffff16106120f357806120f5565b815b96505f8767ffffffffffffffff1611612143576040517f08c379a000000000000000000000000000000000000000000000000000000000815260040161213a9061492b565b60405180910390fd5b5f61016773ffffffffffffffffffffffffffffffffffffffff1663f2c31ff48b602001602081019061217591906136e4565b8c5f01602081019061218791906136e4565b6040518363ffffffff1660e01b81526004016121a4929190614428565b60408051808303815f875af11580156121bf573d5f5f3e3d5ffd5b505050506040513d601f19601f820116820180604052508101906121e39190614973565b91505080612226576040517f08c379a000000000000000000000000000000000000000000000000000000000815260040161221d906149fb565b60405180910390fd5b5f61016773ffffffffffffffffffffffffffffffffffffffff1663f2c31ff48b602001602081019061225891906136e4565b8c5f01602081019061226a91906136e4565b6040518363ffffffff1660e01b8152600401612287929190614428565b60408051808303815f875af11580156122a2573d5f5f3e3d5ffd5b505050506040513d601f19601f820116820180604052508101906122c69190614973565b91505080612309576040517f08c379a000000000000000000000000000000000000000000000000000000000815260040161230090614a63565b60405180910390fd5b89606001602081019061231c91906138a7565b67ffffffffffffffff169750878967ffffffffffffffff1661233e9190614a81565b9650612710600654886123519190614a81565b61235b9190614aef565b955085876123699190614367565b9450505050509295509295909350565b8060095f60045f9054906101000a900473ffffffffffffffffffffffffffffffffffffffff1673ffffffffffffffffffffffffffffffffffffffff1673ffffffffffffffffffffffffffffffffffffffff1681526020019081526020015f205f865f0160208101906123eb91906136e4565b73ffffffffffffffffffffffffffffffffffffffff1673ffffffffffffffffffffffffffffffffffffffff1681526020019081526020015f20541015612466576040517f08c379a000000000000000000000000000000000000000000000000000000000815260040161245d90614b69565b60405180910390fd5b8167ffffffffffffffff1660095f86602001602081019061248791906136e4565b73ffffffffffffffffffffffffffffffffffffffff1673ffffffffffffffffffffffffffffffffffffffff1681526020019081526020015f205f855f0160208101906124d391906136e4565b73ffffffffffffffffffffffffffffffffffffffff1673ffffffffffffffffffffffffffffffffffffffff1681526020019081526020015f2054101561254e576040517f08c379a000000000000000000000000000000000000000000000000000000000815260040161254590614bf7565b60405180910390fd5b50505050565b8360075f885f01602081019061256a91906136e4565b73ffffffffffffffffffffffffffffffffffffffff1673ffffffffffffffffffffffffffffffffffffffff1681526020019081526020015f205f8860a00160208101906125b791906138a7565b67ffffffffffffffff1667ffffffffffffffff1681526020019081526020015f205f8282829054906101000a900467ffffffffffffffff166125f99190614c15565b92506101000a81548167ffffffffffffffff021916908367ffffffffffffffff1602179055508360075f875f01602081019061263591906136e4565b73ffffffffffffffffffffffffffffffffffffffff1673ffffffffffffffffffffffffffffffffffffffff1681526020019081526020015f205f8760a001602081019061268291906138a7565b67ffffffffffffffff1667ffffffffffffffff1681526020019081526020015f205f8282829054906101000a900467ffffffffffffffff166126c49190614c15565b92506101000a81548167ffffffffffffffff021916908367ffffffffffffffff1602179055508367ffffffffffffffff1660095f88602001602081019061270b91906136e4565b73ffffffffffffffffffffffffffffffffffffffff1673ffffffffffffffffffffffffffffffffffffffff1681526020019081526020015f205f875f01602081019061275791906136e4565b73ffffffffffffffffffffffffffffffffffffffff1673ffffffffffffffffffffffffffffffffffffffff1681526020019081526020015f205f82825461279e9190614367565b925050819055508367ffffffffffffffff1660095f8860200160208101906127c691906136e4565b73ffffffffffffffffffffffffffffffffffffffff1673ffffffffffffffffffffffffffffffffffffffff1681526020019081526020015f205f885f01602081019061281291906136e4565b73ffffffffffffffffffffffffffffffffffffffff1673ffffffffffffffffffffffffffffffffffffffff1681526020019081526020015f205f8282546128599190614270565b925050819055508260095f60045f9054906101000a900473ffffffffffffffffffffffffffffffffffffffff1673ffffffffffffffffffffffffffffffffffffffff1673ffffffffffffffffffffffffffffffffffffffff1681526020019081526020015f205f885f0160208101906128d291906136e4565b73ffffffffffffffffffffffffffffffffffffffff1673ffffffffffffffffffffffffffffffffffffffff1681526020019081526020015f205f8282546129199190614367565b925050819055508060095f60045f9054906101000a900473ffffffffffffffffffffffffffffffffffffffff1673ffffffffffffffffffffffffffffffffffffffff1673ffffffffffffffffffffffffffffffffffffffff1681526020019081526020015f205f875f01602081019061299291906136e4565b73ffffffffffffffffffffffffffffffffffffffff1673ffffffffffffffffffffffffffffffffffffffff1681526020019081526020015f205f8282546129d99190614270565b925050819055505f821115612ab9578160095f60045f9054906101000a900473ffffffffffffffffffffffffffffffffffffffff1673ffffffffffffffffffffffffffffffffffffffff1673ffffffffffffffffffffffffffffffffffffffff1681526020019081526020015f205f60055f9054906101000a900473ffffffffffffffffffffffffffffffffffffffff1673ffffffffffffffffffffffffffffffffffffffff1673ffffffffffffffffffffffffffffffffffffffff1681526020019081526020015f205f828254612ab19190614270565b925050819055505b505050505050565b5f61016773ffffffffffffffffffffffffffffffffffffffff1663eca36917896020016020810190612af391906136e4565b308b5f016020810190612b0691906136e4565b8a6040518563ffffffff1660e01b8152600401612b269493929190614143565b6020604051808303815f875af1158015612b42573d5f5f3e3d5ffd5b505050506040513d601f19601f82011682018060405250810190612b6691906141b0565b60070b90506016811480612b7957505f81145b612bb8576040517f08c379a0000000000000000000000000000000000000000000000000000000008152600401612baf90614c9a565b60405180910390fd5b5f61016773ffffffffffffffffffffffffffffffffffffffff1663eca3691760045f9054906101000a900473ffffffffffffffffffffffffffffffffffffffff16308b5f016020810190612c0c91906136e4565b876040518563ffffffff1660e01b8152600401612c2c9493929190614143565b6020604051808303815f875af1158015612c48573d5f5f3e3d5ffd5b505050506040513d601f19601f82011682018060405250810190612c6c91906141b0565b60070b90506016811480612c7f57505f81145b612cbe576040517f08c379a0000000000000000000000000000000000000000000000000000000008152600401612cb590614d02565b60405180910390fd5b5f841115612dde575f61016773ffffffffffffffffffffffffffffffffffffffff1663eca3691760045f9054906101000a900473ffffffffffffffffffffffffffffffffffffffff163060055f9054906101000a900473ffffffffffffffffffffffffffffffffffffffff16896040518563ffffffff1660e01b8152600401612d4a9493929190614143565b6020604051808303815f875af1158015612d66573d5f5f3e3d5ffd5b505050506040513d601f19601f82011682018060405250810190612d8a91906141b0565b60070b90506016811480612d9d57505f81145b612ddc576040517f08c379a0000000000000000000000000000000000000000000000000000000008152600401612dd390614d6a565b60405180910390fd5b505b886020016020810190612df191906136e4565b73ffffffffffffffffffffffffffffffffffffffff16885f016020810190612e1991906136e4565b73ffffffffffffffffffffffffffffffffffffffff168a5f016020810190612e4191906136e4565b73ffffffffffffffffffffffffffffffffffffffff167fcff8dafdaf57fa17bf3f7f9afcda9c57abad86b9bf3a23f053299b317381c0918a8a8a8a604051612e8c9493929190614d88565b60405180910390a4505050505050505050565b5f33905090565b606060ff5f1b8314612ec257612ebb8361305a565b9050612f4d565b818054612ece90614df8565b80601f0160208091040260200160405190810160405280929190818152602001828054612efa90614df8565b8015612f455780601f10612f1c57610100808354040283529160200191612f45565b820191905f5260205f20905b815481529060010190602001808311612f2857829003601f168201915b505050505090505b92915050565b5f612fc67f7c8e0ebacd44590996856b3b99d8a13f47c7f9283d758f50585580152ae5debc835f015184602001518560400151866060015187608001518860a00151604051602001612fab9796959493929190614e28565b604051602081830303815290604052805190602001206130cc565b9050919050565b5f6130407f633c1d4e2255ebdd52de1e651f9b6c0fc81a96b36bd3920e942219566c5f8195835f015184602001518560400151866060015187608001518860a001516040516020016130259796959493929190614e28565b604051602081830303815290604052805190602001206130cc565b9050919050565b5f61305283836130e5565b905092915050565b60605f6130668361310f565b90505f602067ffffffffffffffff81111561308457613083613950565b5b6040519080825280601f01601f1916602001820160405280156130b65781602001600182028036833780820191505090505b5090508181528360208201528092505050919050565b5f6130de6130d861315d565b83613213565b9050919050565b5f5f5f5f6130f38686613253565b92509250925061310382826132a8565b82935050505092915050565b5f5f60ff835f1c169050601f811115613154576040517fb3512b0c00000000000000000000000000000000000000000000000000000000815260040160405180910390fd5b80915050919050565b5f7f000000000000000000000000000000000000000000000000000000000000000073ffffffffffffffffffffffffffffffffffffffff163073ffffffffffffffffffffffffffffffffffffffff161480156131d857507f000000000000000000000000000000000000000000000000000000000000000046145b15613205577f00000000000000000000000000000000000000000000000000000000000000009050613210565b61320d61340a565b90505b90565b5f6040517f190100000000000000000000000000000000000000000000000000000000000081528360028201528260228201526042812091505092915050565b5f5f5f6041845103613293575f5f5f602087015192506040870151915060608701515f1a90506132858882858561349f565b9550955095505050506132a1565b5f600285515f1b9250925092505b9250925092565b5f60038111156132bb576132ba614e95565b5b8260038111156132ce576132cd614e95565b5b031561340657600160038111156132e8576132e7614e95565b5b8260038111156132fb576132fa614e95565b5b03613332576040517ff645eedf00000000000000000000000000000000000000000000000000000000815260040160405180910390fd5b6002600381111561334657613345614e95565b5b82600381111561335957613358614e95565b5b0361339d57805f1c6040517ffce698f70000000000000000000000000000000000000000000000000000000081526004016133949190613792565b60405180910390fd5b6003808111156133b0576133af614e95565b5b8260038111156133c3576133c2614e95565b5b0361340557806040517fd78bce0c0000000000000000000000000000000000000000000000000000000081526004016133fc919061388e565b60405180910390fd5b5b5050565b5f7f8b73c3c69bb8fe3d512ecc4cf759cc79239f7b179b0ffacaa9a75d522b39400f7f00000000000000000000000000000000000000000000000000000000000000007f00000000000000000000000000000000000000000000000000000000000000004630604051602001613484959493929190614ec2565b60405160208183030381529060405280519060200120905090565b5f5f5f7f7fffffffffffffffffffffffffffffff5d576e7357a4501ddfe92f46681b20a0845f1c11156134db575f60038592509250925061357c565b5f6001888888886040515f81526020016040526040516134fe9493929190614f2e565b6020604051602081039080840390855afa15801561351e573d5f5f3e3d5ffd5b5050506020604051035190505f73ffffffffffffffffffffffffffffffffffffffff168173ffffffffffffffffffffffffffffffffffffffff160361356f575f60015f5f1b9350935093505061357c565b805f5f5f1b935093509350505b9450945094915050565b5f73ffffffffffffffffffffffffffffffffffffffff82169050919050565b5f6135af82613586565b9050919050565b6135bf816135a5565b82525050565b5f6020820190506135d85f8301846135b6565b92915050565b5f604051905090565b5f5ffd5b5f5ffd5b6135f8816135a5565b8114613602575f5ffd5b50565b5f81359050613613816135ef565b92915050565b5f819050919050565b61362b81613619565b8114613635575f5ffd5b50565b5f8135905061364681613622565b92915050565b5f5f5f5f60808587031215613664576136636135e7565b5b5f61367187828801613605565b945050602061368287828801613605565b935050604061369387828801613605565b92505060606136a487828801613638565b91505092959194509250565b5f8160070b9050919050565b6136c5816136b0565b82525050565b5f6020820190506136de5f8301846136bc565b92915050565b5f602082840312156136f9576136f86135e7565b5b5f61370684828501613605565b91505092915050565b5f819050919050565b5f61373261372d61372884613586565b61370f565b613586565b9050919050565b5f61374382613718565b9050919050565b5f61375482613739565b9050919050565b6137648161374a565b82525050565b5f60208201905061377d5f83018461375b565b92915050565b61378c81613619565b82525050565b5f6020820190506137a55f830184613783565b92915050565b5f67ffffffffffffffff82169050919050565b6137c7816137ab565b81146137d1575f5ffd5b50565b5f813590506137e2816137be565b92915050565b5f5f5f606084860312156137ff576137fe6135e7565b5b5f61380c868287016137d4565b935050602061381d86828701613605565b925050604061382e868287016137d4565b9150509250925092565b5f5f6040838503121561384e5761384d6135e7565b5b5f61385b85828601613605565b925050602061386c85828601613638565b9150509250929050565b5f819050919050565b61388881613876565b82525050565b5f6020820190506138a15f83018461387f565b92915050565b5f602082840312156138bc576138bb6135e7565b5b5f6138c9848285016137d4565b91505092915050565b5f5f604083850312156138e8576138e76135e7565b5b5f6138f585828601613605565b9250506020613906858286016137d4565b9150509250929050565b613919816137ab565b82525050565b5f6020820190506139325f830184613910565b92915050565b5f5ffd5b5f5ffd5b5f601f19601f8301169050919050565b7f4e487b71000000000000000000000000000000000000000000000000000000005f52604160045260245ffd5b61398682613940565b810181811067ffffffffffffffff821117156139a5576139a4613950565b5b80604052505050565b5f6139b76135de565b90506139c3828261397d565b919050565b5f67ffffffffffffffff8211156139e2576139e1613950565b5b6139eb82613940565b9050602081019050919050565b828183375f83830152505050565b5f613a18613a13846139c8565b6139ae565b905082815260208101848484011115613a3457613a3361393c565b5b613a3f8482856139f8565b509392505050565b5f82601f830112613a5b57613a5a613938565b5b8135613a6b848260208601613a06565b91505092915050565b5f5f60408385031215613a8a57613a896135e7565b5b5f613a9785828601613605565b925050602083013567ffffffffffffffff811115613ab857613ab76135eb565b5b613ac485828601613a47565b9150509250929050565b5f819050919050565b613ae081613ace565b82525050565b5f81519050919050565b5f82825260208201905092915050565b8281835e5f83830152505050565b5f613b1882613ae6565b613b228185613af0565b9350613b32818560208601613b00565b613b3b81613940565b840191505092915050565b5f604082019050613b595f830185613ad7565b8181036020830152613b6b8184613b0e565b90509392505050565b5f60208284031215613b8957613b886135e7565b5b5f613b9684828501613638565b91505092915050565b5f5f60408385031215613bb557613bb46135e7565b5b5f613bc285828601613605565b9250506020613bd385828601613605565b9150509250929050565b5f7fff0000000000000000000000000000000000000000000000000000000000000082169050919050565b613c1181613bdd565b82525050565b5f81519050919050565b5f82825260208201905092915050565b5f613c3b82613c17565b613c458185613c21565b9350613c55818560208601613b00565b613c5e81613940565b840191505092915050565b5f81519050919050565b5f82825260208201905092915050565b5f819050602082019050919050565b613c9b81613619565b82525050565b5f613cac8383613c92565b60208301905092915050565b5f602082019050919050565b5f613cce82613c69565b613cd88185613c73565b9350613ce383613c83565b805f5b83811015613d13578151613cfa8882613ca1565b9750613d0583613cb8565b925050600181019050613ce6565b5085935050505092915050565b5f60e082019050613d335f83018a613c08565b8181036020830152613d458189613c31565b90508181036040830152613d598188613c31565b9050613d686060830187613783565b613d7560808301866135b6565b613d8260a083018561387f565b81810360c0830152613d948184613cc4565b905098975050505050505050565b5f5ffd5b5f60c08284031215613dbb57613dba613da2565b5b81905092915050565b5f5ffd5b5f5ffd5b5f5f83601f840112613de157613de0613938565b5b8235905067ffffffffffffffff811115613dfe57613dfd613dc4565b5b602083019150836001820283011115613e1a57613e19613dc8565b5b9250929050565b5f60c08284031215613e3657613e35613da2565b5b81905092915050565b5f5f5f5f5f5f6101c08789031215613e5a57613e596135e7565b5b5f613e6789828a01613da6565b96505060c087013567ffffffffffffffff811115613e8857613e876135eb565b5b613e9489828a01613dcc565b955095505060e0613ea789828a01613e21565b9350506101a087013567ffffffffffffffff811115613ec957613ec86135eb565b5b613ed589828a01613dcc565b92509250509295509295509295565b5f8115159050919050565b613ef881613ee4565b82525050565b5f602082019050613f115f830184613eef565b92915050565b5f608082019050613f2a5f8301876135b6565b613f3760208301866135b6565b613f4460408301856135b6565b613f516060830184613783565b95945050505050565b5f81905092915050565b5f613f6e82613ae6565b613f788185613f5a565b9350613f88818560208601613b00565b80840191505092915050565b5f613f9f8284613f64565b915081905092915050565b5f8160030b9050919050565b613fbf81613faa565b8114613fc9575f5ffd5b50565b5f81519050613fda81613fb6565b92915050565b5f60208284031215613ff557613ff46135e7565b5b5f61400284828501613fcc565b91505092915050565b7f4173736f6369617465204661696c6564000000000000000000000000000000005f82015250565b5f61403f601083613c21565b915061404a8261400b565b602082019050919050565b5f6020820190508181035f83015261406c81614033565b9050919050565b7f7a65726f20616d6f756e740000000000000000000000000000000000000000005f82015250565b5f6140a7600b83613c21565b91506140b282614073565b602082019050919050565b5f6020820190508181035f8301526140d48161409b565b9050919050565b7f616c726561647920696e697469616c697a6564000000000000000000000000005f82015250565b5f61410f601383613c21565b915061411a826140db565b602082019050919050565b5f6020820190508181035f83015261413c81614103565b9050919050565b5f6080820190506141565f8301876135b6565b61416360208301866135b6565b61417060408301856135b6565b61417d60608301846136bc565b95945050505050565b61418f816136b0565b8114614199575f5ffd5b50565b5f815190506141aa81614186565b92915050565b5f602082840312156141c5576141c46135e7565b5b5f6141d28482850161419c565b91505092915050565b7f485453207472616e73666572206661696c6564000000000000000000000000005f82015250565b5f61420f601383613c21565b915061421a826141db565b602082019050919050565b5f6020820190508181035f83015261423c81614203565b9050919050565b7f4e487b71000000000000000000000000000000000000000000000000000000005f52601160045260245ffd5b5f61427a82613619565b915061428583613619565b925082820190508082111561429d5761429c614243565b5b92915050565b5f6040820190506142b65f8301856135b6565b81810360208301526142c88184613b0e565b90509392505050565b5f6040820190506142e45f830185613eef565b81810360208301526142f68184613b0e565b90509392505050565b7f696e73756666696369656e7420657363726f772062616c616e636500000000005f82015250565b5f614333601b83613c21565b915061433e826142ff565b602082019050919050565b5f6020820190508181035f83015261436081614327565b9050919050565b5f61437182613619565b915061437c83613619565b925082820390508181111561439457614393614243565b5b92915050565b7f696e73756666696369656e74206465706f73697465642070726f7065727479205f8201527f746f6b656e730000000000000000000000000000000000000000000000000000602082015250565b5f6143f4602683613c21565b91506143ff8261439a565b604082019050919050565b5f6020820190508181035f830152614421816143e8565b9050919050565b5f60408201905061443b5f8301856135b6565b61444860208301846135b6565b9392505050565b7f70726f7065727479206d69736d617463680000000000000000000000000000005f82015250565b5f614483601183613c21565b915061448e8261444f565b602082019050919050565b5f6020820190508181035f8301526144b081614477565b9050919050565b7f7072696365206d69736d617463680000000000000000000000000000000000005f82015250565b5f6144eb600e83613c21565b91506144f6826144b7565b602082019050919050565b5f6020820190508181035f830152614518816144df565b9050919050565b7f6f726465722065787069726564000000000000000000000000000000000000005f82015250565b5f614553600d83613c21565b915061455e8261451f565b602082019050919050565b5f6020820190508181035f83015261458081614547565b9050919050565b7f6f726465722063616e63656c6c656400000000000000000000000000000000005f82015250565b5f6145bb600f83613c21565b91506145c682614587565b602082019050919050565b5f6020820190508181035f8301526145e8816145af565b9050919050565b5f5ffd5b5f60c08284031215614608576146076145ef565b5b61461260c06139ae565b90505f61462184828501613605565b5f83015250602061463484828501613605565b6020830152506040614648848285016137d4565b604083015250606061465c848285016137d4565b6060830152506080614670848285016137d4565b60808301525060a0614684848285016137d4565b60a08301525092915050565b5f60c082840312156146a5576146a46135e7565b5b5f6146b2848285016145f3565b91505092915050565b5f60c082840312156146d0576146cf6145ef565b5b6146da60c06139ae565b90505f6146e984828501613605565b5f8301525060206146fc84828501613605565b6020830152506040614710848285016137d4565b6040830152506060614724848285016137d4565b6060830152506080614738848285016137d4565b60808301525060a061474c848285016137d4565b60a08301525092915050565b5f60c0828403121561476d5761476c6135e7565b5b5f61477a848285016146bb565b91505092915050565b7f696e76616c6964206275792073696700000000000000000000000000000000005f82015250565b5f6147b7600f83613c21565b91506147c282614783565b602082019050919050565b5f6020820190508181035f8301526147e4816147ab565b9050919050565b7f696e76616c69642073656c6c20736967000000000000000000000000000000005f82015250565b5f61481f601083613c21565b915061482a826147eb565b602082019050919050565b5f6020820190508181035f83015261484c81614813565b9050919050565b7f6f72646572206e6f7420696e697469616c697a6564206f7220616c72656164795f8201527f2066696c6c656400000000000000000000000000000000000000000000000000602082015250565b5f6148ad602783613c21565b91506148b882614853565b604082019050919050565b5f6020820190508181035f8301526148da816148a1565b9050919050565b7f6e6f7468696e6720746f2066696c6c00000000000000000000000000000000005f82015250565b5f614915600f83613c21565b9150614920826148e1565b602082019050919050565b5f6020820190508181035f83015261494281614909565b9050919050565b61495281613ee4565b811461495c575f5ffd5b50565b5f8151905061496d81614949565b92915050565b5f5f60408385031215614989576149886135e7565b5b5f6149968582860161419c565b92505060206149a78582860161495f565b9150509250929050565b7f6275796572206e6f74206b7963000000000000000000000000000000000000005f82015250565b5f6149e5600d83613c21565b91506149f0826149b1565b602082019050919050565b5f6020820190508181035f830152614a12816149d9565b9050919050565b7f73656c6c6572206e6f74206b79630000000000000000000000000000000000005f82015250565b5f614a4d600e83613c21565b9150614a5882614a19565b602082019050919050565b5f6020820190508181035f830152614a7a81614a41565b9050919050565b5f614a8b82613619565b9150614a9683613619565b9250828202614aa481613619565b91508282048414831517614abb57614aba614243565b5b5092915050565b7f4e487b71000000000000000000000000000000000000000000000000000000005f52601260045260245ffd5b5f614af982613619565b9150614b0483613619565b925082614b1457614b13614ac2565b5b828204905092915050565b7f627579657220696e73756666696369656e74205553444320657363726f7700005f82015250565b5f614b53601e83613c21565b9150614b5e82614b1f565b602082019050919050565b5f6020820190508181035f830152614b8081614b47565b9050919050565b7f73656c6c657220696e73756666696369656e742070726f7065727479206573635f8201527f726f770000000000000000000000000000000000000000000000000000000000602082015250565b5f614be1602383613c21565b9150614bec82614b87565b604082019050919050565b5f6020820190508181035f830152614c0e81614bd5565b9050919050565b5f614c1f826137ab565b9150614c2a836137ab565b9250828203905067ffffffffffffffff811115614c4a57614c49614243565b5b92915050565b7f70726f7065727479207472616e73666572206661696c656400000000000000005f82015250565b5f614c84601883613c21565b9150614c8f82614c50565b602082019050919050565b5f6020820190508181035f830152614cb181614c78565b9050919050565b7f55534443207472616e7366657220746f2073656c6c6572206661696c656400005f82015250565b5f614cec601e83613c21565b9150614cf782614cb8565b602082019050919050565b5f6020820190508181035f830152614d1981614ce0565b9050919050565b7f666565207472616e73666572206661696c6564000000000000000000000000005f82015250565b5f614d54601383613c21565b9150614d5f82614d20565b602082019050919050565b5f6020820190508181035f830152614d8181614d48565b9050919050565b5f608082019050614d9b5f830187613910565b614da86020830186613910565b614db56040830185613783565b614dc26060830184613783565b95945050505050565b7f4e487b71000000000000000000000000000000000000000000000000000000005f52602260045260245ffd5b5f6002820490506001821680614e0f57607f821691505b602082108103614e2257614e21614dcb565b5b50919050565b5f60e082019050614e3b5f83018a61387f565b614e4860208301896135b6565b614e5560408301886135b6565b614e626060830187613910565b614e6f6080830186613910565b614e7c60a0830185613910565b614e8960c0830184613910565b98975050505050505050565b7f4e487b71000000000000000000000000000000000000000000000000000000005f52602160045260245ffd5b5f60a082019050614ed55f83018861387f565b614ee2602083018761387f565b614eef604083018661387f565b614efc6060830185613783565b614f0960808301846135b6565b9695505050505050565b5f60ff82169050919050565b614f2881614f13565b82525050565b5f608082019050614f415f83018761387f565b614f4e6020830186614f1f565b614f5b604083018561387f565b614f68606083018461387f565b9594505050505056fea264697066735822122024ce7fcb812820ab7c365d0fc8e958c0db735114cf900e75ff5ec379f9138b5164736f6c634300081c0033",
  "linkReferences": {},
  "deployedLinkReferences": {},
  "immutableReferences": {
    "3769": [
      {
        "length": 32,
        "start": 12767
      }
    ],
    "3771": [
      {
        "length": 32,
        "start": 12726
      }
    ],
    "3773": [
      {
        "length": 32,
        "start": 12640
      }
    ],
    "3775": [
      {
        "length": 32,
        "start": 13358
      }
    ],
    "3777": [
      {
        "length": 32,
        "start": 13391
      }
    ],
    "3780": [
      {
        "length": 32,
        "start": 6642
      }
    ],
    "3783": [
      {
        "length": 32,
        "start": 6701
      }
    ]
  },
  "inputSourceName": "project/contracts/MarketPlace.sol",
  "buildInfoId": "solc-0_8_28-ade53196bb69bba243d8fd6089a40e06272bd383"
}