{
  "_format": "hh3-artifact-1",
  "contractName": "RealEstateManager",
  "sourceName": "contracts/RealEstateManager.sol",
  "abi": [
    {
      "inputs": [],
      "stateMutability": "nonpayable",
      "type": "constructor"
    },
    {
      "inputs": [
        {
          "internalType": "address",
          "name": "sender",
          "type": "address"
        },
        {
          "internalType": "uint256",
          "name": "balance",
          "type": "uint256"
        },
        {
          "internalType": "uint256",
          "name": "needed",
          "type": "uint256"
        },
        {
          "internalType": "uint256",
          "name": "tokenId",
          "type": "uint256"
        }
      ],
      "name": "ERC1155InsufficientBalance",
      "type": "error"
    },
    {
      "inputs": [
        {
          "internalType": "address",
          "name": "approver",
          "type": "address"
        }
      ],
      "name": "ERC1155InvalidApprover",
      "type": "error"
    },
    {
      "inputs": [
        {
          "internalType": "uint256",
          "name": "idsLength",
          "type": "uint256"
        },
        {
          "internalType": "uint256",
          "name": "valuesLength",
          "type": "uint256"
        }
      ],
      "name": "ERC1155InvalidArrayLength",
      "type": "error"
    },
    {
      "inputs": [
        {
          "internalType": "address",
          "name": "operator",
          "type": "address"
        }
      ],
      "name": "ERC1155InvalidOperator",
      "type": "error"
    },
    {
      "inputs": [
        {
          "internalType": "address",
          "name": "receiver",
          "type": "address"
        }
      ],
      "name": "ERC1155InvalidReceiver",
      "type": "error"
    },
    {
      "inputs": [
        {
          "internalType": "address",
          "name": "sender",
          "type": "address"
        }
      ],
      "name": "ERC1155InvalidSender",
      "type": "error"
    },
    {
      "inputs": [
        {
          "internalType": "address",
          "name": "operator",
          "type": "address"
        },
        {
          "internalType": "address",
          "name": "owner",
          "type": "address"
        }
      ],
      "name": "ERC1155MissingApprovalForAll",
      "type": "error"
    },
    {
      "inputs": [
        {
          "internalType": "string",
          "name": "reason",
          "type": "string"
        }
      ],
      "name": "InvalidInput",
      "type": "error"
    },
    {
      "inputs": [
        {
          "internalType": "string",
          "name": "propertyId",
          "type": "string"
        }
      ],
      "name": "PropertyAlreadyExists",
      "type": "error"
    },
    {
      "inputs": [
        {
          "internalType": "address",
          "name": "caller",
          "type": "address"
        }
      ],
      "name": "Unauthorized",
      "type": "error"
    },
    {
      "anonymous": false,
      "inputs": [
        {
          "indexed": true,
          "internalType": "address",
          "name": "account",
          "type": "address"
        },
        {
          "indexed": true,
          "internalType": "address",
          "name": "operator",
          "type": "address"
        },
        {
          "indexed": false,
          "internalType": "bool",
          "name": "approved",
          "type": "bool"
        }
      ],
      "name": "ApprovalForAll",
      "type": "event"
    },
    {
      "anonymous": false,
      "inputs": [
        {
          "indexed": true,
          "internalType": "string",
          "name": "propertyID",
          "type": "string"
        },
        {
          "indexed": false,
          "internalType": "uint256",
          "name": "numMintedTokens",
          "type": "uint256"
        },
        {
          "indexed": false,
          "internalType": "uint256",
          "name": "tokenID",
          "type": "uint256"
        }
      ],
      "name": "PropertyRegistered",
      "type": "event"
    },
    {
      "anonymous": false,
      "inputs": [
        {
          "indexed": true,
          "internalType": "address",
          "name": "operator",
          "type": "address"
        },
        {
          "indexed": true,
          "internalType": "address",
          "name": "from",
          "type": "address"
        },
        {
          "indexed": true,
          "internalType": "address",
          "name": "to",
          "type": "address"
        },
        {
          "indexed": false,
          "internalType": "uint256[]",
          "name": "ids",
          "type": "uint256[]"
        },
        {
          "indexed": false,
          "internalType": "uint256[]",
          "name": "values",
          "type": "uint256[]"
        }
      ],
      "name": "TransferBatch",
      "type": "event"
    },
    {
      "anonymous": false,
      "inputs": [
        {
          "indexed": true,
          "internalType": "address",
          "name": "operator",
          "type": "address"
        },
        {
          "indexed": true,
          "internalType": "address",
          "name": "from",
          "type": "address"
        },
        {
          "indexed": true,
          "internalType": "address",
          "name": "to",
          "type": "address"
        },
        {
          "indexed": false,
          "internalType": "uint256",
          "name": "id",
          "type": "uint256"
        },
        {
          "indexed": false,
          "internalType": "uint256",
          "name": "value",
          "type": "uint256"
        }
      ],
      "name": "TransferSingle",
      "type": "event"
    },
    {
      "anonymous": false,
      "inputs": [
        {
          "indexed": false,
          "internalType": "string",
          "name": "value",
          "type": "string"
        },
        {
          "indexed": true,
          "internalType": "uint256",
          "name": "id",
          "type": "uint256"
        }
      ],
      "name": "URI",
      "type": "event"
    },
    {
      "inputs": [
        {
          "internalType": "address",
          "name": "account",
          "type": "address"
        },
        {
          "internalType": "uint256",
          "name": "id",
          "type": "uint256"
        }
      ],
      "name": "balanceOf",
      "outputs": [
        {
          "internalType": "uint256",
          "name": "",
          "type": "uint256"
        }
      ],
      "stateMutability": "view",
      "type": "function"
    },
    {
      "inputs": [
        {
          "internalType": "address[]",
          "name": "accounts",
          "type": "address[]"
        },
        {
          "internalType": "uint256[]",
          "name": "ids",
          "type": "uint256[]"
        }
      ],
      "name": "balanceOfBatch",
      "outputs": [
        {
          "internalType": "uint256[]",
          "name": "",
          "type": "uint256[]"
        }
      ],
      "stateMutability": "view",
      "type": "function"
    },
    {
      "inputs": [
        {
          "internalType": "address",
          "name": "account",
          "type": "address"
        },
        {
          "internalType": "address",
          "name": "operator",
          "type": "address"
        }
      ],
      "name": "isApprovedForAll",
      "outputs": [
        {
          "internalType": "bool",
          "name": "",
          "type": "bool"
        }
      ],
      "stateMutability": "view",
      "type": "function"
    },
    {
      "inputs": [
        {
          "internalType": "string",
          "name": "",
          "type": "string"
        }
      ],
      "name": "properties",
      "outputs": [
        {
          "internalType": "string",
          "name": "id",
          "type": "string"
        },
        {
          "internalType": "string",
          "name": "name",
          "type": "string"
        },
        {
          "internalType": "uint256",
          "name": "numTokens",
          "type": "uint256"
        },
        {
          "internalType": "address",
          "name": "agentAddress",
          "type": "address"
        },
        {
          "internalType": "uint256",
          "name": "timeCreated",
          "type": "uint256"
        },
        {
          "internalType": "string",
          "name": "propertyAddress",
          "type": "string"
        },
        {
          "internalType": "uint256",
          "name": "tokenID",
          "type": "uint256"
        },
        {
          "internalType": "uint8",
          "name": "serviceFee",
          "type": "uint8"
        },
        {
          "internalType": "string",
          "name": "tokenSymbol",
          "type": "string"
        }
      ],
      "stateMutability": "view",
      "type": "function"
    },
    {
      "inputs": [
        {
          "internalType": "string",
          "name": "id",
          "type": "string"
        },
        {
          "internalType": "string",
          "name": "tokenSymbol",
          "type": "string"
        },
        {
          "internalType": "string",
          "name": "name",
          "type": "string"
        },
        {
          "internalType": "uint256",
          "name": "numTokens",
          "type": "uint256"
        },
        {
          "internalType": "address",
          "name": "agentAddress",
          "type": "address"
        },
        {
          "internalType": "uint256",
          "name": "timeCreated",
          "type": "uint256"
        },
        {
          "internalType": "string",
          "name": "propertyAddress",
          "type": "string"
        },
        {
          "internalType": "uint8",
          "name": "serviceFee",
          "type": "uint8"
        }
      ],
      "name": "registerProperty",
      "outputs": [
        {
          "internalType": "uint256",
          "name": "",
          "type": "uint256"
        }
      ],
      "stateMutability": "nonpayable",
      "type": "function"
    },
    {
      "inputs": [
        {
          "internalType": "address",
          "name": "from",
          "type": "address"
        },
        {
          "internalType": "address",
          "name": "to",
          "type": "address"
        },
        {
          "internalType": "uint256[]",
          "name": "ids",
          "type": "uint256[]"
        },
        {
          "internalType": "uint256[]",
          "name": "values",
          "type": "uint256[]"
        },
        {
          "internalType": "bytes",
          "name": "data",
          "type": "bytes"
        }
      ],
      "name": "safeBatchTransferFrom",
      "outputs": [],
      "stateMutability": "nonpayable",
      "type": "function"
    },
    {
      "inputs": [
        {
          "internalType": "address",
          "name": "from",
          "type": "address"
        },
        {
          "internalType": "address",
          "name": "to",
          "type": "address"
        },
        {
          "internalType": "uint256",
          "name": "id",
          "type": "uint256"
        },
        {
          "internalType": "uint256",
          "name": "value",
          "type": "uint256"
        },
        {
          "internalType": "bytes",
          "name": "data",
          "type": "bytes"
        }
      ],
      "name": "safeTransferFrom",
      "outputs": [],
      "stateMutability": "nonpayable",
      "type": "function"
    },
    {
      "inputs": [
        {
          "internalType": "address",
          "name": "operator",
          "type": "address"
        },
        {
          "internalType": "bool",
          "name": "approved",
          "type": "bool"
        }
      ],
      "name": "setApprovalForAll",
      "outputs": [],
      "stateMutability": "nonpayable",
      "type": "function"
    },
    {
      "inputs": [
        {
          "internalType": "bytes4",
          "name": "interfaceId",
          "type": "bytes4"
        }
      ],
      "name": "supportsInterface",
      "outputs": [
        {
          "internalType": "bool",
          "name": "",
          "type": "bool"
        }
      ],
      "stateMutability": "view",
      "type": "function"
    },
    {
      "inputs": [
        {
          "internalType": "uint256",
          "name": "",
          "type": "uint256"
        }
      ],
      "name": "uri",
      "outputs": [
        {
          "internalType": "string",
          "name": "",
          "type": "string"
        }
      ],
      "stateMutability": "view",
      "type": "function"
    }
  ],
  "bytecode": "0x60a060405234801561000f575f5ffd5b5060405180602001604052805f81525061002e8161006f60201b60201c565b503373ffffffffffffffffffffffffffffffffffffffff1660808173ffffffffffffffffffffffffffffffffffffffff16815250505f60038190555061038e565b806002908161007e91906102bf565b5050565b5f81519050919050565b7f4e487b71000000000000000000000000000000000000000000000000000000005f52604160045260245ffd5b7f4e487b71000000000000000000000000000000000000000000000000000000005f52602260045260245ffd5b5f60028204905060018216806100fd57607f821691505b6020821081036101105761010f6100b9565b5b50919050565b5f819050815f5260205f209050919050565b5f6020601f8301049050919050565b5f82821b905092915050565b5f600883026101727fffffffffffffffffffffffffffffffffffffffffffffffffffffffffffffffff82610137565b61017c8683610137565b95508019841693508086168417925050509392505050565b5f819050919050565b5f819050919050565b5f6101c06101bb6101b684610194565b61019d565b610194565b9050919050565b5f819050919050565b6101d9836101a6565b6101ed6101e5826101c7565b848454610143565b825550505050565b5f5f905090565b6102046101f5565b61020f8184846101d0565b505050565b5b81811015610232576102275f826101fc565b600181019050610215565b5050565b601f8211156102775761024881610116565b61025184610128565b81016020851015610260578190505b61027461026c85610128565b830182610214565b50505b505050565b5f82821c905092915050565b5f6102975f198460080261027c565b1980831691505092915050565b5f6102af8383610288565b9150826002028217905092915050565b6102c882610082565b67ffffffffffffffff8111156102e1576102e061008c565b5b6102eb82546100e6565b6102f6828285610236565b5f60209050601f831160018114610327575f8415610315578287015190505b61031f85826102a4565b865550610386565b601f19841661033586610116565b5f5b8281101561035c57848901518255600182019150602085019450602081019050610337565b868310156103795784890151610375601f891682610288565b8355505b6001600288020188555050505b505050505050565b608051612dd06103ad5f395f81816105c701526107390152612dd05ff3fe608060405234801561000f575f5ffd5b506004361061009b575f3560e01c8063707c299f11610064578063707c299f1461017b5780639be8f2a6146101ab578063a22cb465146101e3578063e985e9c5146101ff578063f242432a1461022f5761009b565b8062fdd58e1461009f57806301ffc9a7146100cf5780630e89341c146100ff5780632eb2c2d61461012f5780634e1273f41461014b575b5f5ffd5b6100b960048036038101906100b49190611b16565b61024b565b6040516100c69190611b63565b60405180910390f35b6100e960048036038101906100e49190611bd1565b6102a0565b6040516100f69190611c16565b60405180910390f35b61011960048036038101906101149190611c2f565b610381565b6040516101269190611cca565b60405180910390f35b61014960048036038101906101449190611eda565b610413565b005b61016560048036038101906101609190612065565b6104ba565b6040516101729190612192565b60405180910390f35b610195600480360381019061019091906122df565b6105c4565b6040516101a29190611b63565b60405180910390f35b6101c560048036038101906101c0919061240c565b610a2d565b6040516101da99989796959493929190612471565b60405180910390f35b6101fd60048036038101906101f89190612542565b610cd2565b005b61021960048036038101906102149190612580565b610ce8565b6040516102269190611c16565b60405180910390f35b610249600480360381019061024491906125be565b610d76565b005b5f5f5f8381526020019081526020015f205f8473ffffffffffffffffffffffffffffffffffffffff1673ffffffffffffffffffffffffffffffffffffffff1681526020019081526020015f2054905092915050565b5f7fd9b67a26000000000000000000000000000000000000000000000000000000007bffffffffffffffffffffffffffffffffffffffffffffffffffffffff1916827bffffffffffffffffffffffffffffffffffffffffffffffffffffffff1916148061036a57507f0e89341c000000000000000000000000000000000000000000000000000000007bffffffffffffffffffffffffffffffffffffffffffffffffffffffff1916827bffffffffffffffffffffffffffffffffffffffffffffffffffffffff1916145b8061037a575061037982610e1d565b5b9050919050565b6060600280546103909061267e565b80601f01602080910402602001604051908101604052809291908181526020018280546103bc9061267e565b80156104075780601f106103de57610100808354040283529160200191610407565b820191905f5260205f20905b8154815290600101906020018083116103ea57829003601f168201915b50505050509050919050565b5f61041c610e86565b90508073ffffffffffffffffffffffffffffffffffffffff168673ffffffffffffffffffffffffffffffffffffffff1614158015610461575061045f8682610ce8565b155b156104a55780866040517fe237d92200000000000000000000000000000000000000000000000000000000815260040161049c9291906126ae565b60405180910390fd5b6104b28686868686610e8d565b505050505050565b6060815183511461050657815183516040517f5b0599910000000000000000000000000000000000000000000000000000000081526004016104fd9291906126d5565b60405180910390fd5b5f835167ffffffffffffffff81111561052257610521611cee565b5b6040519080825280602002602001820160405280156105505781602001602082028036833780820191505090505b5090505f5f90505b84518110156105b95761058f6105778287610f8190919063ffffffff16565b61058a8387610f9490919063ffffffff16565b61024b565b8282815181106105a2576105a16126fc565b5b602002602001018181525050806001019050610558565b508091505092915050565b5f7f000000000000000000000000000000000000000000000000000000000000000073ffffffffffffffffffffffffffffffffffffffff163373ffffffffffffffffffffffffffffffffffffffff161461065557336040517f8e4a23d600000000000000000000000000000000000000000000000000000000815260040161064c9190612729565b60405180910390fd5b5f8c8c9050148061066657505f8a51145b8061067357505f89899050145b8061068057505f84849050145b156106c0576040517fd647364f0000000000000000000000000000000000000000000000000000000081526004016106b7906127d8565b60405180910390fd5b5f60048d8d6040516106d3929190612824565b90815260200160405180910390205f0180546106ee9061267e565b905014610734578b8b6040517fd57dda9200000000000000000000000000000000000000000000000000000000815260040161072b929190612868565b60405180910390fd5b6107707f00000000000000000000000000000000000000000000000000000000000000006003548960405180602001604052805f815250610fa7565b5f6040518061012001604052808e8e8080601f0160208091040260200160405190810160405280939291908181526020018383808284375f81840152601f19601f8201169050808301925050505050505081526020018b8b8080601f0160208091040260200160405190810160405280939291908181526020018383808284375f81840152601f19601f8201169050808301925050505050505081526020018981526020018873ffffffffffffffffffffffffffffffffffffffff16815260200187815260200186868080601f0160208091040260200160405190810160405280939291908181526020018383808284375f81840152601f19601f82011690508083019250505050505050815260200160035481526020018460ff1681526020018c81525090508060048e8e6040516108aa929190612824565b90815260200160405180910390205f820151815f0190816108cb9190612a2a565b5060208201518160010190816108e19190612a2a565b50604082015181600201556060820151816003015f6101000a81548173ffffffffffffffffffffffffffffffffffffffff021916908373ffffffffffffffffffffffffffffffffffffffff1602179055506080820151816004015560a08201518160050190816109519190612a2a565b5060c0820151816006015560e0820151816007015f6101000a81548160ff021916908360ff1602179055506101008201518160080190816109929190612a2a565b5090505060035f8154809291906109a890612b26565b91905055508c8c6040516109bd929190612824565b60405180910390207fa3ccc98c2348e3cae81bfd4149d687991b4b417d968227b38f473b084aa678158960016003546109f69190612b6d565b604051610a049291906126d5565b60405180910390a26001600354610a1b9190612b6d565b9150509b9a5050505050505050505050565b6004818051602081018201805184825260208301602085012081835280955050505050505f91509050805f018054610a649061267e565b80601f0160208091040260200160405190810160405280929190818152602001828054610a909061267e565b8015610adb5780601f10610ab257610100808354040283529160200191610adb565b820191905f5260205f20905b815481529060010190602001808311610abe57829003601f168201915b505050505090806001018054610af09061267e565b80601f0160208091040260200160405190810160405280929190818152602001828054610b1c9061267e565b8015610b675780601f10610b3e57610100808354040283529160200191610b67565b820191905f5260205f20905b815481529060010190602001808311610b4a57829003601f168201915b505050505090806002015490806003015f9054906101000a900473ffffffffffffffffffffffffffffffffffffffff1690806004015490806005018054610bad9061267e565b80601f0160208091040260200160405190810160405280929190818152602001828054610bd99061267e565b8015610c245780601f10610bfb57610100808354040283529160200191610c24565b820191905f5260205f20905b815481529060010190602001808311610c0757829003601f168201915b505050505090806006015490806007015f9054906101000a900460ff1690806008018054610c519061267e565b80601f0160208091040260200160405190810160405280929190818152602001828054610c7d9061267e565b8015610cc85780601f10610c9f57610100808354040283529160200191610cc8565b820191905f5260205f20905b815481529060010190602001808311610cab57829003601f168201915b5050505050905089565b610ce4610cdd610e86565b838361103c565b5050565b5f60015f8473ffffffffffffffffffffffffffffffffffffffff1673ffffffffffffffffffffffffffffffffffffffff1681526020019081526020015f205f8373ffffffffffffffffffffffffffffffffffffffff1673ffffffffffffffffffffffffffffffffffffffff1681526020019081526020015f205f9054906101000a900460ff16905092915050565b5f610d7f610e86565b90508073ffffffffffffffffffffffffffffffffffffffff168673ffffffffffffffffffffffffffffffffffffffff1614158015610dc45750610dc28682610ce8565b155b15610e085780866040517fe237d922000000000000000000000000000000000000000000000000000000008152600401610dff9291906126ae565b60405180910390fd5b610e1586868686866111a5565b505050505050565b5f7f01ffc9a7000000000000000000000000000000000000000000000000000000007bffffffffffffffffffffffffffffffffffffffffffffffffffffffff1916827bffffffffffffffffffffffffffffffffffffffffffffffffffffffff1916149050919050565b5f33905090565b5f73ffffffffffffffffffffffffffffffffffffffff168473ffffffffffffffffffffffffffffffffffffffff1603610efd575f6040517f57f447ce000000000000000000000000000000000000000000000000000000008152600401610ef49190612729565b60405180910390fd5b5f73ffffffffffffffffffffffffffffffffffffffff168573ffffffffffffffffffffffffffffffffffffffff1603610f6d575f6040517f01a83514000000000000000000000000000000000000000000000000000000008152600401610f649190612729565b60405180910390fd5b610f7a85858585856112ab565b5050505050565b5f60208202602084010151905092915050565b5f60208202602084010151905092915050565b5f73ffffffffffffffffffffffffffffffffffffffff168473ffffffffffffffffffffffffffffffffffffffff1603611017575f6040517f57f447ce00000000000000000000000000000000000000000000000000000000815260040161100e9190612729565b60405180910390fd5b5f5f6110238585611357565b915091506110345f878484876112ab565b505050505050565b5f73ffffffffffffffffffffffffffffffffffffffff168273ffffffffffffffffffffffffffffffffffffffff16036110ac575f6040517fced3e1000000000000000000000000000000000000000000000000000000000081526004016110a39190612729565b60405180910390fd5b8060015f8573ffffffffffffffffffffffffffffffffffffffff1673ffffffffffffffffffffffffffffffffffffffff1681526020019081526020015f205f8473ffffffffffffffffffffffffffffffffffffffff1673ffffffffffffffffffffffffffffffffffffffff1681526020019081526020015f205f6101000a81548160ff0219169083151502179055508173ffffffffffffffffffffffffffffffffffffffff168373ffffffffffffffffffffffffffffffffffffffff167f17307eab39ab6107e8899845ad3d59bd9653f200f220920489ca2b5937696c31836040516111989190611c16565b60405180910390a3505050565b5f73ffffffffffffffffffffffffffffffffffffffff168473ffffffffffffffffffffffffffffffffffffffff1603611215575f6040517f57f447ce00000000000000000000000000000000000000000000000000000000815260040161120c9190612729565b60405180910390fd5b5f73ffffffffffffffffffffffffffffffffffffffff168573ffffffffffffffffffffffffffffffffffffffff1603611285575f6040517f01a8351400000000000000000000000000000000000000000000000000000000815260040161127c9190612729565b60405180910390fd5b5f5f6112918585611357565b915091506112a287878484876112ab565b50505050505050565b6112b785858585611387565b5f73ffffffffffffffffffffffffffffffffffffffff168473ffffffffffffffffffffffffffffffffffffffff1614611350575f6112f3610e86565b9050600184510361133f575f6113125f86610f9490919063ffffffff16565b90505f6113285f86610f9490919063ffffffff16565b905061133883898985858961171a565b505061134e565b61134d8187878787876118c9565b5b505b5050505050565b60608060405191506001825283602083015260408201905060018152826020820152604081016040529250929050565b80518251146113d157815181516040517f5b0599910000000000000000000000000000000000000000000000000000000081526004016113c89291906126d5565b60405180910390fd5b5f6113da610e86565b90505f5f90505b83518110156115d9575f6113fe8286610f9490919063ffffffff16565b90505f6114148386610f9490919063ffffffff16565b90505f73ffffffffffffffffffffffffffffffffffffffff168873ffffffffffffffffffffffffffffffffffffffff1614611537575f5f5f8481526020019081526020015f205f8a73ffffffffffffffffffffffffffffffffffffffff1673ffffffffffffffffffffffffffffffffffffffff1681526020019081526020015f20549050818110156114e357888183856040517f03dee4c50000000000000000000000000000000000000000000000000000000081526004016114da9493929190612ba0565b60405180910390fd5b8181035f5f8581526020019081526020015f205f8b73ffffffffffffffffffffffffffffffffffffffff1673ffffffffffffffffffffffffffffffffffffffff1681526020019081526020015f2081905550505b5f73ffffffffffffffffffffffffffffffffffffffff168773ffffffffffffffffffffffffffffffffffffffff16146115cc57805f5f8481526020019081526020015f205f8973ffffffffffffffffffffffffffffffffffffffff1673ffffffffffffffffffffffffffffffffffffffff1681526020019081526020015f205f8282546115c49190612be3565b925050819055505b50508060010190506113e1565b506001835103611694575f6115f75f85610f9490919063ffffffff16565b90505f61160d5f85610f9490919063ffffffff16565b90508573ffffffffffffffffffffffffffffffffffffffff168773ffffffffffffffffffffffffffffffffffffffff168473ffffffffffffffffffffffffffffffffffffffff167fc3d58168c5ae7397731d063d5bbf3d657854427343f4c083240f7aacaa2d0f6285856040516116859291906126d5565b60405180910390a45050611713565b8373ffffffffffffffffffffffffffffffffffffffff168573ffffffffffffffffffffffffffffffffffffffff168273ffffffffffffffffffffffffffffffffffffffff167f4a39dc06d4c0dbc64b70af90fd698a233a518aa5d07e595d983b8c0526c8f7fb868660405161170a929190612c16565b60405180910390a45b5050505050565b5f8473ffffffffffffffffffffffffffffffffffffffff163b11156118c1578373ffffffffffffffffffffffffffffffffffffffff1663f23a6e6187878686866040518663ffffffff1660e01b815260040161177a959493929190612c9d565b6020604051808303815f875af19250505080156117b557506040513d601f19601f820116820180604052508101906117b29190612d09565b60015b611836573d805f81146117e3576040519150601f19603f3d011682016040523d82523d5f602084013e6117e8565b606091505b505f81510361182e57846040517f57f447ce0000000000000000000000000000000000000000000000000000000081526004016118259190612729565b60405180910390fd5b805160208201fd5b63f23a6e6160e01b7bffffffffffffffffffffffffffffffffffffffffffffffffffffffff1916817bffffffffffffffffffffffffffffffffffffffffffffffffffffffff1916146118bf57846040517f57f447ce0000000000000000000000000000000000000000000000000000000081526004016118b69190612729565b60405180910390fd5b505b505050505050565b5f8473ffffffffffffffffffffffffffffffffffffffff163b1115611a70578373ffffffffffffffffffffffffffffffffffffffff1663bc197c8187878686866040518663ffffffff1660e01b8152600401611929959493929190612d34565b6020604051808303815f875af192505050801561196457506040513d601f19601f820116820180604052508101906119619190612d09565b60015b6119e5573d805f8114611992576040519150601f19603f3d011682016040523d82523d5f602084013e611997565b606091505b505f8151036119dd57846040517f57f447ce0000000000000000000000000000000000000000000000000000000081526004016119d49190612729565b60405180910390fd5b805160208201fd5b63bc197c8160e01b7bffffffffffffffffffffffffffffffffffffffffffffffffffffffff1916817bffffffffffffffffffffffffffffffffffffffffffffffffffffffff191614611a6e57846040517f57f447ce000000000000000000000000000000000000000000000000000000008152600401611a659190612729565b60405180910390fd5b505b505050505050565b5f604051905090565b5f5ffd5b5f5ffd5b5f73ffffffffffffffffffffffffffffffffffffffff82169050919050565b5f611ab282611a89565b9050919050565b611ac281611aa8565b8114611acc575f5ffd5b50565b5f81359050611add81611ab9565b92915050565b5f819050919050565b611af581611ae3565b8114611aff575f5ffd5b50565b5f81359050611b1081611aec565b92915050565b5f5f60408385031215611b2c57611b2b611a81565b5b5f611b3985828601611acf565b9250506020611b4a85828601611b02565b9150509250929050565b611b5d81611ae3565b82525050565b5f602082019050611b765f830184611b54565b92915050565b5f7fffffffff0000000000000000000000000000000000000000000000000000000082169050919050565b611bb081611b7c565b8114611bba575f5ffd5b50565b5f81359050611bcb81611ba7565b92915050565b5f60208284031215611be657611be5611a81565b5b5f611bf384828501611bbd565b91505092915050565b5f8115159050919050565b611c1081611bfc565b82525050565b5f602082019050611c295f830184611c07565b92915050565b5f60208284031215611c4457611c43611a81565b5b5f611c5184828501611b02565b91505092915050565b5f81519050919050565b5f82825260208201905092915050565b8281835e5f83830152505050565b5f601f19601f8301169050919050565b5f611c9c82611c5a565b611ca68185611c64565b9350611cb6818560208601611c74565b611cbf81611c82565b840191505092915050565b5f6020820190508181035f830152611ce28184611c92565b905092915050565b5f5ffd5b7f4e487b71000000000000000000000000000000000000000000000000000000005f52604160045260245ffd5b611d2482611c82565b810181811067ffffffffffffffff82111715611d4357611d42611cee565b5b80604052505050565b5f611d55611a78565b9050611d618282611d1b565b919050565b5f67ffffffffffffffff821115611d8057611d7f611cee565b5b602082029050602081019050919050565b5f5ffd5b5f611da7611da284611d66565b611d4c565b90508083825260208201905060208402830185811115611dca57611dc9611d91565b5b835b81811015611df35780611ddf8882611b02565b845260208401935050602081019050611dcc565b5050509392505050565b5f82601f830112611e1157611e10611cea565b5b8135611e21848260208601611d95565b91505092915050565b5f5ffd5b5f67ffffffffffffffff821115611e4857611e47611cee565b5b611e5182611c82565b9050602081019050919050565b828183375f83830152505050565b5f611e7e611e7984611e2e565b611d4c565b905082815260208101848484011115611e9a57611e99611e2a565b5b611ea5848285611e5e565b509392505050565b5f82601f830112611ec157611ec0611cea565b5b8135611ed1848260208601611e6c565b91505092915050565b5f5f5f5f5f60a08688031215611ef357611ef2611a81565b5b5f611f0088828901611acf565b9550506020611f1188828901611acf565b945050604086013567ffffffffffffffff811115611f3257611f31611a85565b5b611f3e88828901611dfd565b935050606086013567ffffffffffffffff811115611f5f57611f5e611a85565b5b611f6b88828901611dfd565b925050608086013567ffffffffffffffff811115611f8c57611f8b611a85565b5b611f9888828901611ead565b9150509295509295909350565b5f67ffffffffffffffff821115611fbf57611fbe611cee565b5b602082029050602081019050919050565b5f611fe2611fdd84611fa5565b611d4c565b9050808382526020820190506020840283018581111561200557612004611d91565b5b835b8181101561202e578061201a8882611acf565b845260208401935050602081019050612007565b5050509392505050565b5f82601f83011261204c5761204b611cea565b5b813561205c848260208601611fd0565b91505092915050565b5f5f6040838503121561207b5761207a611a81565b5b5f83013567ffffffffffffffff81111561209857612097611a85565b5b6120a485828601612038565b925050602083013567ffffffffffffffff8111156120c5576120c4611a85565b5b6120d185828601611dfd565b9150509250929050565b5f81519050919050565b5f82825260208201905092915050565b5f819050602082019050919050565b61210d81611ae3565b82525050565b5f61211e8383612104565b60208301905092915050565b5f602082019050919050565b5f612140826120db565b61214a81856120e5565b9350612155836120f5565b805f5b8381101561218557815161216c8882612113565b97506121778361212a565b925050600181019050612158565b5085935050505092915050565b5f6020820190508181035f8301526121aa8184612136565b905092915050565b5f5ffd5b5f5f83601f8401126121cb576121ca611cea565b5b8235905067ffffffffffffffff8111156121e8576121e76121b2565b5b60208301915083600182028301111561220457612203611d91565b5b9250929050565b5f67ffffffffffffffff82111561222557612224611cee565b5b61222e82611c82565b9050602081019050919050565b5f61224d6122488461220b565b611d4c565b90508281526020810184848401111561226957612268611e2a565b5b612274848285611e5e565b509392505050565b5f82601f8301126122905761228f611cea565b5b81356122a084826020860161223b565b91505092915050565b5f60ff82169050919050565b6122be816122a9565b81146122c8575f5ffd5b50565b5f813590506122d9816122b5565b92915050565b5f5f5f5f5f5f5f5f5f5f5f6101008c8e0312156122ff576122fe611a81565b5b5f8c013567ffffffffffffffff81111561231c5761231b611a85565b5b6123288e828f016121b6565b9b509b505060208c013567ffffffffffffffff81111561234b5761234a611a85565b5b6123578e828f0161227c565b99505060408c013567ffffffffffffffff81111561237857612377611a85565b5b6123848e828f016121b6565b985098505060606123978e828f01611b02565b96505060806123a88e828f01611acf565b95505060a06123b98e828f01611b02565b94505060c08c013567ffffffffffffffff8111156123da576123d9611a85565b5b6123e68e828f016121b6565b935093505060e06123f98e828f016122cb565b9150509295989b509295989b9093969950565b5f6020828403121561242157612420611a81565b5b5f82013567ffffffffffffffff81111561243e5761243d611a85565b5b61244a8482850161227c565b91505092915050565b61245c81611aa8565b82525050565b61246b816122a9565b82525050565b5f610120820190508181035f83015261248a818c611c92565b9050818103602083015261249e818b611c92565b90506124ad604083018a611b54565b6124ba6060830189612453565b6124c76080830188611b54565b81810360a08301526124d98187611c92565b90506124e860c0830186611b54565b6124f560e0830185612462565b8181036101008301526125088184611c92565b90509a9950505050505050505050565b61252181611bfc565b811461252b575f5ffd5b50565b5f8135905061253c81612518565b92915050565b5f5f6040838503121561255857612557611a81565b5b5f61256585828601611acf565b92505060206125768582860161252e565b9150509250929050565b5f5f6040838503121561259657612595611a81565b5b5f6125a385828601611acf565b92505060206125b485828601611acf565b9150509250929050565b5f5f5f5f5f60a086880312156125d7576125d6611a81565b5b5f6125e488828901611acf565b95505060206125f588828901611acf565b945050604061260688828901611b02565b935050606061261788828901611b02565b925050608086013567ffffffffffffffff81111561263857612637611a85565b5b61264488828901611ead565b9150509295509295909350565b7f4e487b71000000000000000000000000000000000000000000000000000000005f52602260045260245ffd5b5f600282049050600182168061269557607f821691505b6020821081036126a8576126a7612651565b5b50919050565b5f6040820190506126c15f830185612453565b6126ce6020830184612453565b9392505050565b5f6040820190506126e85f830185611b54565b6126f56020830184611b54565b9392505050565b7f4e487b71000000000000000000000000000000000000000000000000000000005f52603260045260245ffd5b5f60208201905061273c5f830184612453565b92915050565b7f50726f70657274792069642c20746f6b656e2073796d626f6c2c206e616d65205f8201527f616e642070726f706572747920616464726573732063616e6e6f74206265206560208201527f6d70747900000000000000000000000000000000000000000000000000000000604082015250565b5f6127c2604483611c64565b91506127cd82612742565b606082019050919050565b5f6020820190508181035f8301526127ef816127b6565b9050919050565b5f81905092915050565b5f61280b83856127f6565b9350612818838584611e5e565b82840190509392505050565b5f612830828486612800565b91508190509392505050565b5f6128478385611c64565b9350612854838584611e5e565b61285d83611c82565b840190509392505050565b5f6020820190508181035f83015261288181848661283c565b90509392505050565b5f819050815f5260205f209050919050565b5f6020601f8301049050919050565b5f82821b905092915050565b5f600883026128e67fffffffffffffffffffffffffffffffffffffffffffffffffffffffffffffffff826128ab565b6128f086836128ab565b95508019841693508086168417925050509392505050565b5f819050919050565b5f61292b61292661292184611ae3565b612908565b611ae3565b9050919050565b5f819050919050565b61294483612911565b61295861295082612932565b8484546128b7565b825550505050565b5f5f905090565b61296f612960565b61297a81848461293b565b505050565b5b8181101561299d576129925f82612967565b600181019050612980565b5050565b601f8211156129e2576129b38161288a565b6129bc8461289c565b810160208510156129cb578190505b6129df6129d78561289c565b83018261297f565b50505b505050565b5f82821c905092915050565b5f612a025f19846008026129e7565b1980831691505092915050565b5f612a1a83836129f3565b9150826002028217905092915050565b612a3382611c5a565b67ffffffffffffffff811115612a4c57612a4b611cee565b5b612a56825461267e565b612a618282856129a1565b5f60209050601f831160018114612a92575f8415612a80578287015190505b612a8a8582612a0f565b865550612af1565b601f198416612aa08661288a565b5f5b82811015612ac757848901518255600182019150602085019450602081019050612aa2565b86831015612ae45784890151612ae0601f8916826129f3565b8355505b6001600288020188555050505b505050505050565b7f4e487b71000000000000000000000000000000000000000000000000000000005f52601160045260245ffd5b5f612b3082611ae3565b91507fffffffffffffffffffffffffffffffffffffffffffffffffffffffffffffffff8203612b6257612b61612af9565b5b600182019050919050565b5f612b7782611ae3565b9150612b8283611ae3565b9250828203905081811115612b9a57612b99612af9565b5b92915050565b5f608082019050612bb35f830187612453565b612bc06020830186611b54565b612bcd6040830185611b54565b612bda6060830184611b54565b95945050505050565b5f612bed82611ae3565b9150612bf883611ae3565b9250828201905080821115612c1057612c0f612af9565b5b92915050565b5f6040820190508181035f830152612c2e8185612136565b90508181036020830152612c428184612136565b90509392505050565b5f81519050919050565b5f82825260208201905092915050565b5f612c6f82612c4b565b612c798185612c55565b9350612c89818560208601611c74565b612c9281611c82565b840191505092915050565b5f60a082019050612cb05f830188612453565b612cbd6020830187612453565b612cca6040830186611b54565b612cd76060830185611b54565b8181036080830152612ce98184612c65565b90509695505050505050565b5f81519050612d0381611ba7565b92915050565b5f60208284031215612d1e57612d1d611a81565b5b5f612d2b84828501612cf5565b91505092915050565b5f60a082019050612d475f830188612453565b612d546020830187612453565b8181036040830152612d668186612136565b90508181036060830152612d7a8185612136565b90508181036080830152612d8e8184612c65565b9050969550505050505056fea26469706673582212202cd4b495c07028db59220b829ad81513f90e4dfdbc6b951bd5c14cf052070d4964736f6c634300081c0033",
  "linkReferences": {},
  "deployedLinkReferences": {},
  "immutableReferences": {
    "6259": [
      {
        "length": 32,
        "start": 1479
      },
      {
        "length": 32,
        "start": 1849
      }
    ]
  },
  "inputSourceName": "project/contracts/RealEstateManager.sol",
  "buildInfoId": "solc-0_8_28-388c2546fef203fe937bf2695a6cd2dd6f3b235d"
}