{
  "_format": "hh3-artifact-1",
  "contractName": "RealEstateManager",
  "sourceName": "contracts/RealEstateManager.sol",
  "abi": [
    {
      "inputs": [],
      "stateMutability": "nonpayable",
      "type": "constructor"
    },
    {
      "inputs": [
        {
          "internalType": "address",
          "name": "sender",
          "type": "address"
        },
        {
          "internalType": "uint256",
          "name": "balance",
          "type": "uint256"
        },
        {
          "internalType": "uint256",
          "name": "needed",
          "type": "uint256"
        },
        {
          "internalType": "uint256",
          "name": "tokenId",
          "type": "uint256"
        }
      ],
      "name": "ERC1155InsufficientBalance",
      "type": "error"
    },
    {
      "inputs": [
        {
          "internalType": "address",
          "name": "approver",
          "type": "address"
        }
      ],
      "name": "ERC1155InvalidApprover",
      "type": "error"
    },
    {
      "inputs": [
        {
          "internalType": "uint256",
          "name": "idsLength",
          "type": "uint256"
        },
        {
          "internalType": "uint256",
          "name": "valuesLength",
          "type": "uint256"
        }
      ],
      "name": "ERC1155InvalidArrayLength",
      "type": "error"
    },
    {
      "inputs": [
        {
          "internalType": "address",
          "name": "operator",
          "type": "address"
        }
      ],
      "name": "ERC1155InvalidOperator",
      "type": "error"
    },
    {
      "inputs": [
        {
          "internalType": "address",
          "name": "receiver",
          "type": "address"
        }
      ],
      "name": "ERC1155InvalidReceiver",
      "type": "error"
    },
    {
      "inputs": [
        {
          "internalType": "address",
          "name": "sender",
          "type": "address"
        }
      ],
      "name": "ERC1155InvalidSender",
      "type": "error"
    },
    {
      "inputs": [
        {
          "internalType": "address",
          "name": "operator",
          "type": "address"
        },
        {
          "internalType": "address",
          "name": "owner",
          "type": "address"
        }
      ],
      "name": "ERC1155MissingApprovalForAll",
      "type": "error"
    },
    {
      "inputs": [
        {
          "internalType": "string",
          "name": "reason",
          "type": "string"
        }
      ],
      "name": "InvalidInput",
      "type": "error"
    },
    {
      "inputs": [
        {
          "internalType": "string",
          "name": "propertyId",
          "type": "string"
        }
      ],
      "name": "PropertyAlreadyExists",
      "type": "error"
    },
    {
      "inputs": [
        {
          "internalType": "address",
          "name": "caller",
          "type": "address"
        }
      ],
      "name": "Unauthorized",
      "type": "error"
    },
    {
      "anonymous": false,
      "inputs": [
        {
          "indexed": true,
          "internalType": "address",
          "name": "account",
          "type": "address"
        },
        {
          "indexed": true,
          "internalType": "address",
          "name": "operator",
          "type": "address"
        },
        {
          "indexed": false,
          "internalType": "bool",
          "name": "approved",
          "type": "bool"
        }
      ],
      "name": "ApprovalForAll",
      "type": "event"
    },
    {
      "anonymous": false,
      "inputs": [
        {
          "indexed": true,
          "internalType": "address",
          "name": "operator",
          "type": "address"
        },
        {
          "indexed": true,
          "internalType": "address",
          "name": "from",
          "type": "address"
        },
        {
          "indexed": true,
          "internalType": "address",
          "name": "to",
          "type": "address"
        },
        {
          "indexed": false,
          "internalType": "uint256[]",
          "name": "ids",
          "type": "uint256[]"
        },
        {
          "indexed": false,
          "internalType": "uint256[]",
          "name": "values",
          "type": "uint256[]"
        }
      ],
      "name": "TransferBatch",
      "type": "event"
    },
    {
      "anonymous": false,
      "inputs": [
        {
          "indexed": true,
          "internalType": "address",
          "name": "operator",
          "type": "address"
        },
        {
          "indexed": true,
          "internalType": "address",
          "name": "from",
          "type": "address"
        },
        {
          "indexed": true,
          "internalType": "address",
          "name": "to",
          "type": "address"
        },
        {
          "indexed": false,
          "internalType": "uint256",
          "name": "id",
          "type": "uint256"
        },
        {
          "indexed": false,
          "internalType": "uint256",
          "name": "value",
          "type": "uint256"
        }
      ],
      "name": "TransferSingle",
      "type": "event"
    },
    {
      "anonymous": false,
      "inputs": [
        {
          "indexed": false,
          "internalType": "string",
          "name": "value",
          "type": "string"
        },
        {
          "indexed": true,
          "internalType": "uint256",
          "name": "id",
          "type": "uint256"
        }
      ],
      "name": "URI",
      "type": "event"
    },
    {
      "inputs": [
        {
          "internalType": "address",
          "name": "account",
          "type": "address"
        },
        {
          "internalType": "uint256",
          "name": "id",
          "type": "uint256"
        }
      ],
      "name": "balanceOf",
      "outputs": [
        {
          "internalType": "uint256",
          "name": "",
          "type": "uint256"
        }
      ],
      "stateMutability": "view",
      "type": "function"
    },
    {
      "inputs": [
        {
          "internalType": "address[]",
          "name": "accounts",
          "type": "address[]"
        },
        {
          "internalType": "uint256[]",
          "name": "ids",
          "type": "uint256[]"
        }
      ],
      "name": "balanceOfBatch",
      "outputs": [
        {
          "internalType": "uint256[]",
          "name": "",
          "type": "uint256[]"
        }
      ],
      "stateMutability": "view",
      "type": "function"
    },
    {
      "inputs": [
        {
          "internalType": "address",
          "name": "account",
          "type": "address"
        },
        {
          "internalType": "address",
          "name": "operator",
          "type": "address"
        }
      ],
      "name": "isApprovedForAll",
      "outputs": [
        {
          "internalType": "bool",
          "name": "",
          "type": "bool"
        }
      ],
      "stateMutability": "view",
      "type": "function"
    },
    {
      "inputs": [
        {
          "internalType": "string",
          "name": "",
          "type": "string"
        }
      ],
      "name": "properties",
      "outputs": [
        {
          "internalType": "string",
          "name": "id",
          "type": "string"
        },
        {
          "internalType": "string",
          "name": "name",
          "type": "string"
        },
        {
          "internalType": "uint256",
          "name": "numTokens",
          "type": "uint256"
        },
        {
          "internalType": "address",
          "name": "agentAddress",
          "type": "address"
        },
        {
          "internalType": "uint256",
          "name": "timeCreated",
          "type": "uint256"
        },
        {
          "internalType": "string",
          "name": "propertyAddress",
          "type": "string"
        },
        {
          "internalType": "uint256",
          "name": "tokenID",
          "type": "uint256"
        },
        {
          "internalType": "uint8",
          "name": "serviceFee",
          "type": "uint8"
        },
        {
          "internalType": "string",
          "name": "tokenSymbol",
          "type": "string"
        }
      ],
      "stateMutability": "view",
      "type": "function"
    },
    {
      "inputs": [
        {
          "internalType": "string",
          "name": "id",
          "type": "string"
        },
        {
          "internalType": "string",
          "name": "tokenSymbol",
          "type": "string"
        },
        {
          "internalType": "string",
          "name": "name",
          "type": "string"
        },
        {
          "internalType": "uint256",
          "name": "numTokens",
          "type": "uint256"
        },
        {
          "internalType": "address",
          "name": "agentAddress",
          "type": "address"
        },
        {
          "internalType": "uint256",
          "name": "timeCreated",
          "type": "uint256"
        },
        {
          "internalType": "string",
          "name": "propertyAddress",
          "type": "string"
        },
        {
          "internalType": "uint8",
          "name": "serviceFee",
          "type": "uint8"
        }
      ],
      "name": "registerProperty",
      "outputs": [
        {
          "internalType": "uint256",
          "name": "",
          "type": "uint256"
        }
      ],
      "stateMutability": "nonpayable",
      "type": "function"
    },
    {
      "inputs": [
        {
          "internalType": "address",
          "name": "from",
          "type": "address"
        },
        {
          "internalType": "address",
          "name": "to",
          "type": "address"
        },
        {
          "internalType": "uint256[]",
          "name": "ids",
          "type": "uint256[]"
        },
        {
          "internalType": "uint256[]",
          "name": "values",
          "type": "uint256[]"
        },
        {
          "internalType": "bytes",
          "name": "data",
          "type": "bytes"
        }
      ],
      "name": "safeBatchTransferFrom",
      "outputs": [],
      "stateMutability": "nonpayable",
      "type": "function"
    },
    {
      "inputs": [
        {
          "internalType": "address",
          "name": "from",
          "type": "address"
        },
        {
          "internalType": "address",
          "name": "to",
          "type": "address"
        },
        {
          "internalType": "uint256",
          "name": "id",
          "type": "uint256"
        },
        {
          "internalType": "uint256",
          "name": "value",
          "type": "uint256"
        },
        {
          "internalType": "bytes",
          "name": "data",
          "type": "bytes"
        }
      ],
      "name": "safeTransferFrom",
      "outputs": [],
      "stateMutability": "nonpayable",
      "type": "function"
    },
    {
      "inputs": [
        {
          "internalType": "address",
          "name": "operator",
          "type": "address"
        },
        {
          "internalType": "bool",
          "name": "approved",
          "type": "bool"
        }
      ],
      "name": "setApprovalForAll",
      "outputs": [],
      "stateMutability": "nonpayable",
      "type": "function"
    },
    {
      "inputs": [
        {
          "internalType": "bytes4",
          "name": "interfaceId",
          "type": "bytes4"
        }
      ],
      "name": "supportsInterface",
      "outputs": [
        {
          "internalType": "bool",
          "name": "",
          "type": "bool"
        }
      ],
      "stateMutability": "view",
      "type": "function"
    },
    {
      "inputs": [
        {
          "internalType": "uint256",
          "name": "",
          "type": "uint256"
        }
      ],
      "name": "uri",
      "outputs": [
        {
          "internalType": "string",
          "name": "",
          "type": "string"
        }
      ],
      "stateMutability": "view",
      "type": "function"
    }
  ],
  "bytecode": "0x60a060405234801561000f575f5ffd5b5060408051602081019091525f815261002781610035565b50336080525f600355610197565b600261004182826100dd565b5050565b634e487b7160e01b5f52604160045260245ffd5b600181811c9082168061006d57607f821691505b60208210810361008b57634e487b7160e01b5f52602260045260245ffd5b50919050565b601f8211156100d857805f5260205f20601f840160051c810160208510156100b65750805b601f840160051c820191505b818110156100d5575f81556001016100c2565b50505b505050565b81516001600160401b038111156100f6576100f6610045565b61010a816101048454610059565b84610091565b6020601f82116001811461013c575f83156101255750848201515b5f19600385901b1c1916600184901b1784556100d5565b5f84815260208120601f198516915b8281101561016b578785015182556020948501946001909201910161014b565b508482101561018857868401515f19600387901b60f8161c191681555b50505050600190811b01905550565b608051611a696101b65f395f81816103fa015261052f0152611a695ff3fe608060405234801561000f575f5ffd5b506004361061009a575f3560e01c8063707c299f11610063578063707c299f1461013c5780639be8f2a61461014f578063a22cb46514610177578063e985e9c51461018a578063f242432a1461019d575f5ffd5b8062fdd58e1461009e57806301ffc9a7146100c45780630e89341c146100e75780632eb2c2d6146101075780634e1273f41461011c575b5f5ffd5b6100b16100ac3660046110ec565b6101b0565b6040519081526020015b60405180910390f35b6100d76100d236600461112c565b6101d7565b60405190151581526020016100bb565b6100fa6100f536600461114e565b610226565b6040516100bb9190611193565b61011a6101153660046112e6565b6102b8565b005b61012f61012a366004611392565b610324565b6040516100bb919061148d565b6100b161014a3660046114f3565b6103ee565b61016261015d3660046115eb565b61076c565b6040516100bb99989796959493929190611624565b61011a6101853660046116af565b6109ec565b6100d76101983660046116e8565b6109fb565b61011a6101ab366004611719565b610a28565b5f818152602081815260408083206001600160a01b03861684529091529020545b92915050565b5f6001600160e01b03198216636cdb3d1360e11b148061020757506001600160e01b031982166303a24d0760e21b145b806101d157506301ffc9a760e01b6001600160e01b03198316146101d1565b6060600280546102359061176c565b80601f01602080910402602001604051908101604052809291908181526020018280546102619061176c565b80156102ac5780601f10610283576101008083540402835291602001916102ac565b820191905f5260205f20905b81548152906001019060200180831161028f57829003601f168201915b50505050509050919050565b336001600160a01b03861681148015906102d957506102d786826109fb565b155b1561030f5760405163711bec9160e11b81526001600160a01b038083166004830152871660248201526044015b60405180910390fd5b61031c8686868686610a87565b505050505050565b606081518351146103555781518351604051635b05999160e01b815260048101929092526024820152604401610306565b5f83516001600160401b0381111561036f5761036f6111a5565b604051908082528060200260200182016040528015610398578160200160208202803683370190505b5090505f5b84518110156103e6576020808202860101516103c1906020808402870101516101b0565b8282815181106103d3576103d36117a4565b602090810291909101015260010161039d565b509392505050565b5f336001600160a01b037f0000000000000000000000000000000000000000000000000000000000000000161461043a5760405163472511eb60e11b8152336004820152602401610306565b8a158061044657508951155b8061044f575087155b80610458575082155b156104da5760405163d647364f60e01b8152602060048201526044602482018190527f50726f70657274792069642c20746f6b656e2073796d626f6c2c206e616d6520908201527f616e642070726f706572747920616464726573732063616e6e6f7420626520656064820152636d70747960e01b608482015260a401610306565b60048c8c6040516104ec9291906117b8565b90815260405190819003602001902080546105069061176c565b15905061052a578b8b604051636abeed4960e11b81526004016103069291906117c7565b6105667f00000000000000000000000000000000000000000000000000000000000000006003548960405180602001604052805f815250610aec565b5f6040518061012001604052808e8e8080601f0160208091040260200160405190810160405280939291908181526020018383808284375f92019190915250505090825250604080516020601f8e018190048102820181019092528c815291810191908d908d90819084018382808284375f9201919091525050509082525060208082018b90526001600160a01b038a16604080840191909152606083018a90528051601f89018390048302810183019091528781526080909201919088908890819084018382808284375f81840152601f19601f82011690508083019250505050505050815260200160035481526020018460ff1681526020018c81525090508060048e8e60405161067a9291906117b8565b90815260405190819003602001902081518190610697908261183e565b50602082015160018201906106ac908261183e565b506040820151600282015560608201516003820180546001600160a01b0319166001600160a01b039092169190911790556080820151600482015560a082015160058201906106fb908261183e565b5060c0820151600682015560e082015160078201805460ff191660ff9092169190911790556101008201516008820190610735908261183e565b50506003805491505f6107478361190c565b9190505550600160035461075b9190611924565b9d9c50505050505050505050505050565b80516020818301810180516004825292820191909301209152805481906107929061176c565b80601f01602080910402602001604051908101604052809291908181526020018280546107be9061176c565b80156108095780601f106107e057610100808354040283529160200191610809565b820191905f5260205f20905b8154815290600101906020018083116107ec57829003601f168201915b50505050509080600101805461081e9061176c565b80601f016020809104026020016040519081016040528092919081815260200182805461084a9061176c565b80156108955780601f1061086c57610100808354040283529160200191610895565b820191905f5260205f20905b81548152906001019060200180831161087857829003601f168201915b505050600284015460038501546004860154600587018054969793966001600160a01b039093169550909350906108cb9061176c565b80601f01602080910402602001604051908101604052809291908181526020018280546108f79061176c565b80156109425780601f1061091957610100808354040283529160200191610942565b820191905f5260205f20905b81548152906001019060200180831161092557829003601f168201915b50505050600683015460078401546008850180549495929460ff90921693509061096b9061176c565b80601f01602080910402602001604051908101604052809291908181526020018280546109979061176c565b80156109e25780601f106109b9576101008083540402835291602001916109e2565b820191905f5260205f20905b8154815290600101906020018083116109c557829003601f168201915b5050505050905089565b6109f7338383610b47565b5050565b6001600160a01b039182165f90815260016020908152604080832093909416825291909152205460ff1690565b336001600160a01b0386168114801590610a495750610a4786826109fb565b155b15610a7a5760405163711bec9160e11b81526001600160a01b03808316600483015287166024820152604401610306565b61031c8686868686610bdb565b6001600160a01b038416610ab057604051632bfa23e760e11b81525f6004820152602401610306565b6001600160a01b038516610ad857604051626a0d4560e21b81525f6004820152602401610306565b610ae58585858585610c67565b5050505050565b6001600160a01b038416610b1557604051632bfa23e760e11b81525f6004820152602401610306565b6040805160018082526020820186905281830190815260608201859052608082019092529061031c5f87848487610c67565b6001600160a01b038216610b6f5760405162ced3e160e81b81525f6004820152602401610306565b6001600160a01b038381165f81815260016020908152604080832094871680845294825291829020805460ff191686151590811790915591519182527f17307eab39ab6107e8899845ad3d59bd9653f200f220920489ca2b5937696c31910160405180910390a3505050565b6001600160a01b038416610c0457604051632bfa23e760e11b81525f6004820152602401610306565b6001600160a01b038516610c2c57604051626a0d4560e21b81525f6004820152602401610306565b60408051600180825260208201869052818301908152606082018590526080820190925290610c5e8787848487610c67565b50505050505050565b610c7385858585610cba565b6001600160a01b03841615610ae55782513390600103610cac5760208481015190840151610ca5838989858589610ec9565b505061031c565b61031c818787878787610fea565b8051825114610ce95781518151604051635b05999160e01b815260048101929092526024820152604401610306565b335f5b8351811015610deb576020818102858101820151908501909101516001600160a01b03881615610d9d575f828152602081815260408083206001600160a01b038c16845290915290205481811015610d77576040516303dee4c560e01b81526001600160a01b038a166004820152602481018290526044810183905260648101849052608401610306565b5f838152602081815260408083206001600160a01b038d16845290915290209082900390555b6001600160a01b03871615610de1575f828152602081815260408083206001600160a01b038b16845290915281208054839290610ddb908490611937565b90915550505b5050600101610cec565b508251600103610e6b5760208301515f906020840151909150856001600160a01b0316876001600160a01b0316846001600160a01b03167fc3d58168c5ae7397731d063d5bbf3d657854427343f4c083240f7aacaa2d0f628585604051610e5c929190918252602082015260400190565b60405180910390a45050610ae5565b836001600160a01b0316856001600160a01b0316826001600160a01b03167f4a39dc06d4c0dbc64b70af90fd698a233a518aa5d07e595d983b8c0526c8f7fb8686604051610eba92919061194a565b60405180910390a45050505050565b6001600160a01b0384163b1561031c5760405163f23a6e6160e01b81526001600160a01b0385169063f23a6e6190610f0d9089908990889088908890600401611977565b6020604051808303815f875af1925050508015610f47575060408051601f3d908101601f19168201909252610f44918101906119bb565b60015b610fae573d808015610f74576040519150601f19603f3d011682016040523d82523d5f602084013e610f79565b606091505b5080515f03610fa657604051632bfa23e760e11b81526001600160a01b0386166004820152602401610306565b805160208201fd5b6001600160e01b0319811663f23a6e6160e01b14610c5e57604051632bfa23e760e11b81526001600160a01b0386166004820152602401610306565b6001600160a01b0384163b1561031c5760405163bc197c8160e01b81526001600160a01b0385169063bc197c819061102e90899089908890889088906004016119d6565b6020604051808303815f875af1925050508015611068575060408051601f3d908101601f19168201909252611065918101906119bb565b60015b611095573d808015610f74576040519150601f19603f3d011682016040523d82523d5f602084013e610f79565b6001600160e01b0319811663bc197c8160e01b14610c5e57604051632bfa23e760e11b81526001600160a01b0386166004820152602401610306565b80356001600160a01b03811681146110e7575f5ffd5b919050565b5f5f604083850312156110fd575f5ffd5b611106836110d1565b946020939093013593505050565b6001600160e01b031981168114611129575f5ffd5b50565b5f6020828403121561113c575f5ffd5b813561114781611114565b9392505050565b5f6020828403121561115e575f5ffd5b5035919050565b5f81518084528060208401602086015e5f602082860101526020601f19601f83011685010191505092915050565b602081525f6111476020830184611165565b634e487b7160e01b5f52604160045260245ffd5b604051601f8201601f191681016001600160401b03811182821017156111e1576111e16111a5565b604052919050565b5f6001600160401b03821115611201576112016111a5565b5060051b60200190565b5f82601f83011261121a575f5ffd5b813561122d611228826111e9565b6111b9565b8082825260208201915060208360051b86010192508583111561124e575f5ffd5b602085015b8381101561126b578035835260209283019201611253565b5095945050505050565b5f82601f830112611284575f5ffd5b8135602083015f5f6001600160401b038411156112a3576112a36111a5565b50601f8301601f19166020016112b8816111b9565b9150508281528583830111156112cc575f5ffd5b828260208301375f92810160200192909252509392505050565b5f5f5f5f5f60a086880312156112fa575f5ffd5b611303866110d1565b9450611311602087016110d1565b935060408601356001600160401b0381111561132b575f5ffd5b6113378882890161120b565b93505060608601356001600160401b03811115611352575f5ffd5b61135e8882890161120b565b92505060808601356001600160401b03811115611379575f5ffd5b61138588828901611275565b9150509295509295909350565b5f5f604083850312156113a3575f5ffd5b82356001600160401b038111156113b8575f5ffd5b8301601f810185136113c8575f5ffd5b80356113d6611228826111e9565b8082825260208201915060208360051b8501019250878311156113f7575f5ffd5b6020840193505b828410156114205761140f846110d1565b8252602093840193909101906113fe565b945050505060208301356001600160401b0381111561143d575f5ffd5b6114498582860161120b565b9150509250929050565b5f8151808452602084019350602083015f5b82811015611483578151865260209586019590910190600101611465565b5093949350505050565b602081525f6111476020830184611453565b5f5f83601f8401126114af575f5ffd5b5081356001600160401b038111156114c5575f5ffd5b6020830191508360208285010111156114dc575f5ffd5b9250929050565b803560ff811681146110e7575f5ffd5b5f5f5f5f5f5f5f5f5f5f5f6101008c8e03121561150e575f5ffd5b8b356001600160401b03811115611523575f5ffd5b61152f8e828f0161149f565b909c509a505060208c01356001600160401b0381111561154d575f5ffd5b6115598e828f01611275565b99505060408c01356001600160401b03811115611574575f5ffd5b6115808e828f0161149f565b90995097505060608c0135955061159960808d016110d1565b945060a08c0135935060c08c01356001600160401b038111156115ba575f5ffd5b6115c68e828f0161149f565b90945092506115d9905060e08d016114e3565b90509295989b509295989b9093969950565b5f602082840312156115fb575f5ffd5b81356001600160401b03811115611610575f5ffd5b61161c84828501611275565b949350505050565b61012081525f61163861012083018c611165565b828103602084015261164a818c611165565b604084018b90526001600160a01b038a1660608501526080840189905283810360a0850152905061167b8188611165565b90508560c084015260ff851660e084015282810361010084015261169f8185611165565b9c9b505050505050505050505050565b5f5f604083850312156116c0575f5ffd5b6116c9836110d1565b9150602083013580151581146116dd575f5ffd5b809150509250929050565b5f5f604083850312156116f9575f5ffd5b611702836110d1565b9150611710602084016110d1565b90509250929050565b5f5f5f5f5f60a0868803121561172d575f5ffd5b611736866110d1565b9450611744602087016110d1565b9350604086013592506060860135915060808601356001600160401b03811115611379575f5ffd5b600181811c9082168061178057607f821691505b60208210810361179e57634e487b7160e01b5f52602260045260245ffd5b50919050565b634e487b7160e01b5f52603260045260245ffd5b818382375f9101908152919050565b60208152816020820152818360408301375f818301604090810191909152601f909201601f19160101919050565b601f82111561183957805f5260205f20601f840160051c8101602085101561181a5750805b601f840160051c820191505b81811015610ae5575f8155600101611826565b505050565b81516001600160401b03811115611857576118576111a5565b61186b81611865845461176c565b846117f5565b6020601f82116001811461189d575f83156118865750848201515b5f19600385901b1c1916600184901b178455610ae5565b5f84815260208120601f198516915b828110156118cc57878501518255602094850194600190920191016118ac565b50848210156118e957868401515f19600387901b60f8161c191681555b50505050600190811b01905550565b634e487b7160e01b5f52601160045260245ffd5b5f6001820161191d5761191d6118f8565b5060010190565b818103818111156101d1576101d16118f8565b808201808211156101d1576101d16118f8565b604081525f61195c6040830185611453565b828103602084015261196e8185611453565b95945050505050565b6001600160a01b03868116825285166020820152604081018490526060810183905260a0608082018190525f906119b090830184611165565b979650505050505050565b5f602082840312156119cb575f5ffd5b815161114781611114565b6001600160a01b0386811682528516602082015260a0604082018190525f90611a0190830186611453565b8281036060840152611a138186611453565b90508281036080840152611a278185611165565b9897505050505050505056fea264697066735822122086b3c68c6d8c9df4aebe60cc0bbbddd71273715f740783f3f925db0e4847300164736f6c634300081c0033",
  "linkReferences": {},
  "deployedLinkReferences": {},
  "immutableReferences": {
    "6259": [
      {
        "length": 32,
        "start": 1018
      },
      {
        "length": 32,
        "start": 1327
      }
    ]
  },
  "inputSourceName": "project/contracts/RealEstateManager.sol",
  "buildInfoId": "solc-0_8_28-7862da7fccf77f3cbd467449518d2d04b00f9316"
}