{
    "_format": "hh3-artifact-1",
    "contractName": "MarketPlace",
    "sourceName": "contracts/MarketPlace.sol",
    "abi": [
        {
            "inputs": [
                {
                    "internalType": "address",
                    "name": "_initialOwner",
                    "type": "address"
                },
                {
                    "internalType": "address",
                    "name": "_usdcToken",
                    "type": "address"
                },
                {
                    "internalType": "address",
                    "name": "_feeCollector",
                    "type": "address"
                },
                {
                    "internalType": "uint256",
                    "name": "_feeBps",
                    "type": "uint256"
                }
            ],
            "stateMutability": "nonpayable",
            "type": "constructor"
        },
        {
            "inputs": [],
            "name": "ECDSAInvalidSignature",
            "type": "error"
        },
        {
            "inputs": [
                {
                    "internalType": "uint256",
                    "name": "length",
                    "type": "uint256"
                }
            ],
            "name": "ECDSAInvalidSignatureLength",
            "type": "error"
        },
        {
            "inputs": [
                {
                    "internalType": "bytes32",
                    "name": "s",
                    "type": "bytes32"
                }
            ],
            "name": "ECDSAInvalidSignatureS",
            "type": "error"
        },
        {
            "inputs": [],
            "name": "InvalidShortString",
            "type": "error"
        },
        {
            "inputs": [
                {
                    "internalType": "address",
                    "name": "owner",
                    "type": "address"
                }
            ],
            "name": "OwnableInvalidOwner",
            "type": "error"
        },
        {
            "inputs": [
                {
                    "internalType": "address",
                    "name": "account",
                    "type": "address"
                }
            ],
            "name": "OwnableUnauthorizedAccount",
            "type": "error"
        },
        {
            "inputs": [],
            "name": "ReentrancyGuardReentrantCall",
            "type": "error"
        },
        {
            "inputs": [
                {
                    "internalType": "string",
                    "name": "str",
                    "type": "string"
                }
            ],
            "name": "StringTooLong",
            "type": "error"
        },
        {
            "anonymous": false,
            "inputs": [
                {
                    "indexed": true,
                    "internalType": "address",
                    "name": "account",
                    "type": "address"
                },
                {
                    "indexed": true,
                    "internalType": "address",
                    "name": "token",
                    "type": "address"
                },
                {
                    "indexed": false,
                    "internalType": "uint256",
                    "name": "amount",
                    "type": "uint256"
                }
            ],
            "name": "Deposited",
            "type": "event"
        },
        {
            "anonymous": false,
            "inputs": [],
            "name": "EIP712DomainChanged",
            "type": "event"
        },
        {
            "anonymous": false,
            "inputs": [
                {
                    "indexed": true,
                    "internalType": "address",
                    "name": "maker",
                    "type": "address"
                },
                {
                    "indexed": false,
                    "internalType": "uint64",
                    "name": "nonce",
                    "type": "uint64"
                }
            ],
            "name": "OrderCancelled",
            "type": "event"
        },
        {
            "anonymous": false,
            "inputs": [
                {
                    "indexed": true,
                    "internalType": "address",
                    "name": "previousOwner",
                    "type": "address"
                },
                {
                    "indexed": true,
                    "internalType": "address",
                    "name": "newOwner",
                    "type": "address"
                }
            ],
            "name": "OwnershipTransferred",
            "type": "event"
        },
        {
            "anonymous": false,
            "inputs": [
                {
                    "indexed": true,
                    "internalType": "address",
                    "name": "buyer",
                    "type": "address"
                },
                {
                    "indexed": true,
                    "internalType": "address",
                    "name": "seller",
                    "type": "address"
                },
                {
                    "indexed": true,
                    "internalType": "address",
                    "name": "propertyToken",
                    "type": "address"
                },
                {
                    "indexed": false,
                    "internalType": "uint64",
                    "name": "filled",
                    "type": "uint64"
                },
                {
                    "indexed": false,
                    "internalType": "uint64",
                    "name": "pricePerShare",
                    "type": "uint64"
                },
                {
                    "indexed": false,
                    "internalType": "uint256",
                    "name": "totalNotional",
                    "type": "uint256"
                },
                {
                    "indexed": false,
                    "internalType": "uint256",
                    "name": "fee",
                    "type": "uint256"
                }
            ],
            "name": "TradeExecuted",
            "type": "event"
        },
        {
            "anonymous": false,
            "inputs": [
                {
                    "indexed": true,
                    "internalType": "address",
                    "name": "account",
                    "type": "address"
                },
                {
                    "indexed": true,
                    "internalType": "address",
                    "name": "token",
                    "type": "address"
                },
                {
                    "indexed": false,
                    "internalType": "uint256",
                    "name": "amount",
                    "type": "uint256"
                }
            ],
            "name": "Withdrawn",
            "type": "event"
        },
        {
            "inputs": [],
            "name": "BUY_ORDER_TYPEHASH",
            "outputs": [
                {
                    "internalType": "bytes32",
                    "name": "",
                    "type": "bytes32"
                }
            ],
            "stateMutability": "view",
            "type": "function"
        },
        {
            "inputs": [],
            "name": "HTS",
            "outputs": [
                {
                    "internalType": "contract IHederaTokenService",
                    "name": "",
                    "type": "address"
                }
            ],
            "stateMutability": "view",
            "type": "function"
        },
        {
            "inputs": [],
            "name": "SELL_ORDER_TYPEHASH",
            "outputs": [
                {
                    "internalType": "bytes32",
                    "name": "",
                    "type": "bytes32"
                }
            ],
            "stateMutability": "view",
            "type": "function"
        },
        {
            "inputs": [
                {
                    "internalType": "uint64",
                    "name": "nonce",
                    "type": "uint64"
                }
            ],
            "name": "cancelOrder",
            "outputs": [],
            "stateMutability": "nonpayable",
            "type": "function"
        },
        {
            "inputs": [
                {
                    "internalType": "address",
                    "name": "",
                    "type": "address"
                },
                {
                    "internalType": "uint64",
                    "name": "",
                    "type": "uint64"
                }
            ],
            "name": "cancelled",
            "outputs": [
                {
                    "internalType": "bool",
                    "name": "",
                    "type": "bool"
                }
            ],
            "stateMutability": "view",
            "type": "function"
        },
        {
            "inputs": [
                {
                    "internalType": "address",
                    "name": "token",
                    "type": "address"
                },
                {
                    "internalType": "uint256",
                    "name": "amount",
                    "type": "uint256"
                }
            ],
            "name": "depositToken",
            "outputs": [],
            "stateMutability": "nonpayable",
            "type": "function"
        },
        {
            "inputs": [],
            "name": "eip712Domain",
            "outputs": [
                {
                    "internalType": "bytes1",
                    "name": "fields",
                    "type": "bytes1"
                },
                {
                    "internalType": "string",
                    "name": "name",
                    "type": "string"
                },
                {
                    "internalType": "string",
                    "name": "version",
                    "type": "string"
                },
                {
                    "internalType": "uint256",
                    "name": "chainId",
                    "type": "uint256"
                },
                {
                    "internalType": "address",
                    "name": "verifyingContract",
                    "type": "address"
                },
                {
                    "internalType": "bytes32",
                    "name": "salt",
                    "type": "bytes32"
                },
                {
                    "internalType": "uint256[]",
                    "name": "extensions",
                    "type": "uint256[]"
                }
            ],
            "stateMutability": "view",
            "type": "function"
        },
        {
            "inputs": [
                {
                    "internalType": "address",
                    "name": "",
                    "type": "address"
                },
                {
                    "internalType": "address",
                    "name": "",
                    "type": "address"
                }
            ],
            "name": "escrowBalances",
            "outputs": [
                {
                    "internalType": "uint256",
                    "name": "",
                    "type": "uint256"
                }
            ],
            "stateMutability": "view",
            "type": "function"
        },
        {
            "inputs": [],
            "name": "feeBps",
            "outputs": [
                {
                    "internalType": "uint256",
                    "name": "",
                    "type": "uint256"
                }
            ],
            "stateMutability": "view",
            "type": "function"
        },
        {
            "inputs": [],
            "name": "feeCollector",
            "outputs": [
                {
                    "internalType": "address",
                    "name": "",
                    "type": "address"
                }
            ],
            "stateMutability": "view",
            "type": "function"
        },
        {
            "inputs": [
                {
                    "internalType": "uint64",
                    "name": "nonce",
                    "type": "uint64"
                },
                {
                    "internalType": "address",
                    "name": "",
                    "type": "address"
                },
                {
                    "internalType": "uint64",
                    "name": "amount",
                    "type": "uint64"
                }
            ],
            "name": "initBuyOrder",
            "outputs": [],
            "stateMutability": "nonpayable",
            "type": "function"
        },
        {
            "inputs": [
                {
                    "internalType": "uint64",
                    "name": "nonce",
                    "type": "uint64"
                },
                {
                    "internalType": "address",
                    "name": "propertyToken",
                    "type": "address"
                },
                {
                    "internalType": "uint64",
                    "name": "amount",
                    "type": "uint64"
                }
            ],
            "name": "initSellOrder",
            "outputs": [],
            "stateMutability": "nonpayable",
            "type": "function"
        },
        {
            "inputs": [],
            "name": "owner",
            "outputs": [
                {
                    "internalType": "address",
                    "name": "",
                    "type": "address"
                }
            ],
            "stateMutability": "view",
            "type": "function"
        },
        {
            "inputs": [
                {
                    "internalType": "address",
                    "name": "",
                    "type": "address"
                },
                {
                    "internalType": "uint64",
                    "name": "",
                    "type": "uint64"
                }
            ],
            "name": "remaining",
            "outputs": [
                {
                    "internalType": "uint64",
                    "name": "",
                    "type": "uint64"
                }
            ],
            "stateMutability": "view",
            "type": "function"
        },
        {
            "inputs": [],
            "name": "renounceOwnership",
            "outputs": [],
            "stateMutability": "nonpayable",
            "type": "function"
        },
        {
            "inputs": [
                {
                    "internalType": "uint256",
                    "name": "bps",
                    "type": "uint256"
                }
            ],
            "name": "setFeeBps",
            "outputs": [],
            "stateMutability": "nonpayable",
            "type": "function"
        },
        {
            "inputs": [
                {
                    "internalType": "address",
                    "name": "fc",
                    "type": "address"
                }
            ],
            "name": "setFeeCollector",
            "outputs": [],
            "stateMutability": "nonpayable",
            "type": "function"
        },
        {
            "inputs": [
                {
                    "internalType": "address",
                    "name": "token",
                    "type": "address"
                }
            ],
            "name": "setUSDC",
            "outputs": [],
            "stateMutability": "nonpayable",
            "type": "function"
        },
        {
            "inputs": [
                {
                    "components": [
                        {
                            "internalType": "address",
                            "name": "maker",
                            "type": "address"
                        },
                        {
                            "internalType": "address",
                            "name": "propertyToken",
                            "type": "address"
                        },
                        {
                            "internalType": "uint64",
                            "name": "remainingAmount",
                            "type": "uint64"
                        },
                        {
                            "internalType": "uint64",
                            "name": "pricePerShare",
                            "type": "uint64"
                        },
                        {
                            "internalType": "uint64",
                            "name": "expiry",
                            "type": "uint64"
                        },
                        {
                            "internalType": "uint64",
                            "name": "nonce",
                            "type": "uint64"
                        }
                    ],
                    "internalType": "struct MarketPlace.BuyOrder",
                    "name": "buy",
                    "type": "tuple"
                },
                {
                    "internalType": "bytes",
                    "name": "buySig",
                    "type": "bytes"
                },
                {
                    "components": [
                        {
                            "internalType": "address",
                            "name": "maker",
                            "type": "address"
                        },
                        {
                            "internalType": "address",
                            "name": "propertyToken",
                            "type": "address"
                        },
                        {
                            "internalType": "uint64",
                            "name": "remainingAmount",
                            "type": "uint64"
                        },
                        {
                            "internalType": "uint64",
                            "name": "pricePerShare",
                            "type": "uint64"
                        },
                        {
                            "internalType": "uint64",
                            "name": "expiry",
                            "type": "uint64"
                        },
                        {
                            "internalType": "uint64",
                            "name": "nonce",
                            "type": "uint64"
                        }
                    ],
                    "internalType": "struct MarketPlace.SellOrder",
                    "name": "sell",
                    "type": "tuple"
                },
                {
                    "internalType": "bytes",
                    "name": "sellSig",
                    "type": "bytes"
                }
            ],
            "name": "settle",
            "outputs": [],
            "stateMutability": "nonpayable",
            "type": "function"
        },
        {
            "inputs": [
                {
                    "internalType": "address",
                    "name": "newOwner",
                    "type": "address"
                }
            ],
            "name": "transferOwnership",
            "outputs": [],
            "stateMutability": "nonpayable",
            "type": "function"
        },
        {
            "inputs": [],
            "name": "usdcToken",
            "outputs": [
                {
                    "internalType": "address",
                    "name": "",
                    "type": "address"
                }
            ],
            "stateMutability": "view",
            "type": "function"
        },
        {
            "inputs": [
                {
                    "internalType": "address",
                    "name": "token",
                    "type": "address"
                },
                {
                    "internalType": "uint256",
                    "name": "amount",
                    "type": "uint256"
                }
            ],
            "name": "withdrawToken",
            "outputs": [],
            "stateMutability": "nonpayable",
            "type": "function"
        }
    ],
    "bytecode": "0x610160604052348015610010575f5ffd5b5060405161522238038061522283398181016040528101906100329190610658565b836040518060400160405280601081526020017f41747269614d61726b6574506c616365000000000000000000000000000000008152506040518060400160405280600581526020017f312e302e300000000000000000000000000000000000000000000000000000008152506100b25f836103ef60201b90919060201c565b61012081815250506100ce6001826103ef60201b90919060201c565b6101408181525050818051906020012060e08181525050808051906020012061010081815250504660a0818152505061010b61043c60201b60201c565b608081815250503073ffffffffffffffffffffffffffffffffffffffff1660c08173ffffffffffffffffffffffffffffffffffffffff168152505050505f73ffffffffffffffffffffffffffffffffffffffff168173ffffffffffffffffffffffffffffffffffffffff16036101b8575f6040517f1e4fbdf70000000000000000000000000000000000000000000000000000000081526004016101af91906106cb565b60405180910390fd5b6101c78161049660201b60201c565b5060016003819055505f73ffffffffffffffffffffffffffffffffffffffff168473ffffffffffffffffffffffffffffffffffffffff160361023e576040517f08c379a00000000000000000000000000000000000000000000000000000000081526004016102359061073e565b60405180910390fd5b5f73ffffffffffffffffffffffffffffffffffffffff168373ffffffffffffffffffffffffffffffffffffffff16036102ac576040517f08c379a00000000000000000000000000000000000000000000000000000000081526004016102a3906107a6565b60405180910390fd5b5f73ffffffffffffffffffffffffffffffffffffffff168273ffffffffffffffffffffffffffffffffffffffff160361031a576040517f08c379a00000000000000000000000000000000000000000000000000000000081526004016103119061080e565b60405180910390fd5b61271081111561035f576040517f08c379a000000000000000000000000000000000000000000000000000000000815260040161035690610876565b60405180910390fd5b8260045f6101000a81548173ffffffffffffffffffffffffffffffffffffffff021916908373ffffffffffffffffffffffffffffffffffffffff1602179055508160055f6101000a81548173ffffffffffffffffffffffffffffffffffffffff021916908373ffffffffffffffffffffffffffffffffffffffff1602179055508060068190555050505050610d18565b5f602083511015610410576104098361055960201b60201c565b9050610436565b82610420836105be60201b60201c565b5f01908161042e9190610ac8565b5060ff5f1b90505b92915050565b5f7f8b73c3c69bb8fe3d512ecc4cf759cc79239f7b179b0ffacaa9a75d522b39400f60e05161010051463060405160200161047b959493929190610bbe565b60405160208183030381529060405280519060200120905090565b5f60025f9054906101000a900473ffffffffffffffffffffffffffffffffffffffff1690508160025f6101000a81548173ffffffffffffffffffffffffffffffffffffffff021916908373ffffffffffffffffffffffffffffffffffffffff1602179055508173ffffffffffffffffffffffffffffffffffffffff168173ffffffffffffffffffffffffffffffffffffffff167f8be0079c531659141344cd1fd0a4f28419497f9722a3daafe3b4186f6b6457e060405160405180910390a35050565b5f5f829050601f815111156105a557826040517f305a27a900000000000000000000000000000000000000000000000000000000815260040161059c9190610c65565b60405180910390fd5b8051816105b190610cb2565b5f1c175f1b915050919050565b5f819050919050565b5f5ffd5b5f73ffffffffffffffffffffffffffffffffffffffff82169050919050565b5f6105f4826105cb565b9050919050565b610604816105ea565b811461060e575f5ffd5b50565b5f8151905061061f816105fb565b92915050565b5f819050919050565b61063781610625565b8114610641575f5ffd5b50565b5f815190506106528161062e565b92915050565b5f5f5f5f608085870312156106705761066f6105c7565b5b5f61067d87828801610611565b945050602061068e87828801610611565b935050604061069f87828801610611565b92505060606106b087828801610644565b91505092959194509250565b6106c5816105ea565b82525050565b5f6020820190506106de5f8301846106bc565b92915050565b5f82825260208201905092915050565b7f496e76616c696420696e697469616c206f776e657200000000000000000000005f82015250565b5f6107286015836106e4565b9150610733826106f4565b602082019050919050565b5f6020820190508181035f8301526107558161071c565b9050919050565b7f496e76616c6964205553444320746f6b656e00000000000000000000000000005f82015250565b5f6107906012836106e4565b915061079b8261075c565b602082019050919050565b5f6020820190508181035f8301526107bd81610784565b9050919050565b7f496e76616c69642066656520636f6c6c6563746f7200000000000000000000005f82015250565b5f6107f86015836106e4565b9150610803826107c4565b602082019050919050565b5f6020820190508181035f830152610825816107ec565b9050919050565b7f46656520626173697320706f696e747320746f6f2068696768000000000000005f82015250565b5f6108606019836106e4565b915061086b8261082c565b602082019050919050565b5f6020820190508181035f83015261088d81610854565b9050919050565b5f81519050919050565b7f4e487b71000000000000000000000000000000000000000000000000000000005f52604160045260245ffd5b7f4e487b71000000000000000000000000000000000000000000000000000000005f52602260045260245ffd5b5f600282049050600182168061090f57607f821691505b602082108103610922576109216108cb565b5b50919050565b5f819050815f5260205f209050919050565b5f6020601f8301049050919050565b5f82821b905092915050565b5f600883026109847fffffffffffffffffffffffffffffffffffffffffffffffffffffffffffffffff82610949565b61098e8683610949565b95508019841693508086168417925050509392505050565b5f819050919050565b5f6109c96109c46109bf84610625565b6109a6565b610625565b9050919050565b5f819050919050565b6109e2836109af565b6109f66109ee826109d0565b848454610955565b825550505050565b5f5f905090565b610a0d6109fe565b610a188184846109d9565b505050565b5b81811015610a3b57610a305f82610a05565b600181019050610a1e565b5050565b601f821115610a8057610a5181610928565b610a5a8461093a565b81016020851015610a69578190505b610a7d610a758561093a565b830182610a1d565b50505b505050565b5f82821c905092915050565b5f610aa05f1984600802610a85565b1980831691505092915050565b5f610ab88383610a91565b9150826002028217905092915050565b610ad182610894565b67ffffffffffffffff811115610aea57610ae961089e565b5b610af482546108f8565b610aff828285610a3f565b5f60209050601f831160018114610b30575f8415610b1e578287015190505b610b288582610aad565b865550610b8f565b601f198416610b3e86610928565b5f5b82811015610b6557848901518255600182019150602085019450602081019050610b40565b86831015610b825784890151610b7e601f891682610a91565b8355505b6001600288020188555050505b505050505050565b5f819050919050565b610ba981610b97565b82525050565b610bb881610625565b82525050565b5f60a082019050610bd15f830188610ba0565b610bde6020830187610ba0565b610beb6040830186610ba0565b610bf86060830185610baf565b610c0560808301846106bc565b9695505050505050565b8281835e5f83830152505050565b5f601f19601f8301169050919050565b5f610c3782610894565b610c4181856106e4565b9350610c51818560208601610c0f565b610c5a81610c1d565b840191505092915050565b5f6020820190508181035f830152610c7d8184610c2d565b905092915050565b5f81519050919050565b5f819050602082019050919050565b5f610ca98251610b97565b80915050919050565b5f610cbc82610c85565b82610cc684610c8f565b9050610cd181610c9e565b92506020821015610d1157610d0c7fffffffffffffffffffffffffffffffffffffffffffffffffffffffffffffffff83602003600802610949565b831692505b5050919050565b60805160a05160c05160e0516101005161012051610140516144b9610d695f395f61131601525f6112db01525f612d3801525f612d1701525f612a4901525f612a9f01525f612ac801526144b95ff3fe608060405234801561000f575f5ffd5b5060043610610140575f3560e01c806384b0196e116100b6578063b3e089a21161007a578063b3e089a21461032c578063b54b347514610348578063c415b95c14610364578063c855c08714610382578063d595bee9146103b2578063f2fde38b146103d057610140565b806384b0196e146102965780638da5cb5b146102ba5780639e281a98146102d8578063a34d60b4146102f4578063a42dce801461031057610140565b80634c2aa52b116101085780634c2aa52b146101d6578063523eb537146101f45780635b2b515f14610210578063715018a61461024057806372c27b621461024a57806376f819ac1461026657610140565b806311eac855146101445780631bc921621461016257806324a9d85314610180578063274760141461019e578063338b5dea146101ba575b5f5ffd5b61014c6103ec565b6040516101599190612eae565b60405180910390f35b61016a610411565b6040516101779190612f22565b60405180910390f35b610188610417565b6040516101959190612f53565b60405180910390f35b6101b860048036038101906101b39190612fe4565b61041d565b005b6101d460048036038101906101cf919061305e565b6105b3565b005b6101de6107d1565b6040516101eb91906130b4565b60405180910390f35b61020e600480360381019061020991906130cd565b6107f5565b005b61022a600480360381019061022591906130f8565b6108be565b6040516102379190613145565b60405180910390f35b6102486108ef565b005b610264600480360381019061025f919061315e565b610902565b005b610280600480360381019061027b9190613189565b610914565b60405161028d9190612f53565b60405180910390f35b61029e610934565b6040516102b19796959493929190613328565b60405180910390f35b6102c26109d9565b6040516102cf9190612eae565b60405180910390f35b6102f260048036038101906102ed919061305e565b610a01565b005b61030e60048036038101906103099190612fe4565b610cda565b005b61032a600480360381019061032591906133aa565b610f35565b005b610346600480360381019061034191906133aa565b610f80565b005b610362600480360381019061035d9190613476565b610fcb565b005b61036c611042565b6040516103799190612eae565b60405180910390f35b61039c600480360381019061039791906130f8565b611067565b6040516103a99190613535565b60405180910390f35b6103ba611091565b6040516103c791906130b4565b60405180910390f35b6103ea60048036038101906103e591906133aa565b6110b5565b005b60045f9054906101000a900473ffffffffffffffffffffffffffffffffffffffff1681565b61016781565b60065481565b5f8167ffffffffffffffff1611610469576040517f08c379a000000000000000000000000000000000000000000000000000000000815260040161046090613598565b60405180910390fd5b5f60075f3373ffffffffffffffffffffffffffffffffffffffff1673ffffffffffffffffffffffffffffffffffffffff1681526020019081526020015f205f8567ffffffffffffffff1667ffffffffffffffff1681526020019081526020015f205f9054906101000a900467ffffffffffffffff1667ffffffffffffffff1614610528576040517f08c379a000000000000000000000000000000000000000000000000000000000815260040161051f90613600565b60405180910390fd5b8060075f3373ffffffffffffffffffffffffffffffffffffffff1673ffffffffffffffffffffffffffffffffffffffff1681526020019081526020015f205f8567ffffffffffffffff1667ffffffffffffffff1681526020019081526020015f205f6101000a81548167ffffffffffffffff021916908367ffffffffffffffff160217905550505050565b6105bb611139565b5f81116105fd576040517f08c379a00000000000000000000000000000000000000000000000000000000081526004016105f490613598565b60405180910390fd5b5f61016773ffffffffffffffffffffffffffffffffffffffff1663eca36917843330866040518563ffffffff1660e01b815260040161063f9493929190613639565b6020604051808303815f875af115801561065b573d5f5f3e3d5ffd5b505050506040513d601f19601f8201168201806040525081019061067f91906136a6565b60070b9050601681148061069257505f81145b6106d1576040517f08c379a00000000000000000000000000000000000000000000000000000000081526004016106c89061371b565b60405180910390fd5b8160095f8573ffffffffffffffffffffffffffffffffffffffff1673ffffffffffffffffffffffffffffffffffffffff1681526020019081526020015f205f3373ffffffffffffffffffffffffffffffffffffffff1673ffffffffffffffffffffffffffffffffffffffff1681526020019081526020015f205f8282546107589190613766565b925050819055508273ffffffffffffffffffffffffffffffffffffffff163373ffffffffffffffffffffffffffffffffffffffff167f8752a472e571a816aea92eec8dae9baf628e840f4929fbcc2d155e6233ff68a7846040516107bc9190612f53565b60405180910390a3506107cd61117f565b5050565b7f7c8e0ebacd44590996856b3b99d8a13f47c7f9283d758f50585580152ae5debc81565b600160085f3373ffffffffffffffffffffffffffffffffffffffff1673ffffffffffffffffffffffffffffffffffffffff1681526020019081526020015f205f8367ffffffffffffffff1667ffffffffffffffff1681526020019081526020015f205f6101000a81548160ff0219169083151502179055503373ffffffffffffffffffffffffffffffffffffffff167f54562025d61ffa081c7c7e1b98890e1c4333bbdf640cc5c7e01552908ccfeaf9826040516108b39190613145565b60405180910390a250565b6007602052815f5260405f20602052805f5260405f205f915091509054906101000a900467ffffffffffffffff1681565b6108f7611189565b6109005f611210565b565b61090a611189565b8060068190555050565b6009602052815f5260405f20602052805f5260405f205f91509150505481565b5f6060805f5f5f60606109456112d3565b61094d61130d565b46305f5f1b5f67ffffffffffffffff81111561096c5761096b613799565b5b60405190808252806020026020018201604052801561099a5781602001602082028036833780820191505090505b507f0f00000000000000000000000000000000000000000000000000000000000000959493929190965096509650965096509650965090919293949596565b5f60025f9054906101000a900473ffffffffffffffffffffffffffffffffffffffff16905090565b610a09611139565b5f8111610a4b576040517f08c379a0000000000000000000000000000000000000000000000000000000008152600401610a4290613598565b60405180910390fd5b8060095f8473ffffffffffffffffffffffffffffffffffffffff1673ffffffffffffffffffffffffffffffffffffffff1681526020019081526020015f205f3373ffffffffffffffffffffffffffffffffffffffff1673ffffffffffffffffffffffffffffffffffffffff1681526020019081526020015f20541015610b06576040517f08c379a0000000000000000000000000000000000000000000000000000000008152600401610afd90613810565b60405180910390fd5b8060095f8473ffffffffffffffffffffffffffffffffffffffff1673ffffffffffffffffffffffffffffffffffffffff1681526020019081526020015f205f3373ffffffffffffffffffffffffffffffffffffffff1673ffffffffffffffffffffffffffffffffffffffff1681526020019081526020015f205f828254610b8d919061382e565b925050819055505f61016773ffffffffffffffffffffffffffffffffffffffff1663eca36917843033866040518563ffffffff1660e01b8152600401610bd69493929190613639565b6020604051808303815f875af1158015610bf2573d5f5f3e3d5ffd5b505050506040513d601f19601f82011682018060405250810190610c1691906136a6565b60070b90506016811480610c2957505f81145b610c68576040517f08c379a0000000000000000000000000000000000000000000000000000000008152600401610c5f9061371b565b60405180910390fd5b8273ffffffffffffffffffffffffffffffffffffffff163373ffffffffffffffffffffffffffffffffffffffff167fd1c19fbcd4551a5edfb66d43d2e337c04837afda3482b42bdf569a8fccdae5fb84604051610cc59190612f53565b60405180910390a350610cd661117f565b5050565b5f8167ffffffffffffffff1611610d26576040517f08c379a0000000000000000000000000000000000000000000000000000000008152600401610d1d90613598565b60405180910390fd5b5f60075f3373ffffffffffffffffffffffffffffffffffffffff1673ffffffffffffffffffffffffffffffffffffffff1681526020019081526020015f205f8567ffffffffffffffff1667ffffffffffffffff1681526020019081526020015f205f9054906101000a900467ffffffffffffffff1667ffffffffffffffff1614610de5576040517f08c379a0000000000000000000000000000000000000000000000000000000008152600401610ddc90613600565b60405180910390fd5b8067ffffffffffffffff1660095f8473ffffffffffffffffffffffffffffffffffffffff1673ffffffffffffffffffffffffffffffffffffffff1681526020019081526020015f205f3373ffffffffffffffffffffffffffffffffffffffff1673ffffffffffffffffffffffffffffffffffffffff1681526020019081526020015f20541015610eaa576040517f08c379a0000000000000000000000000000000000000000000000000000000008152600401610ea1906138d1565b60405180910390fd5b8060075f3373ffffffffffffffffffffffffffffffffffffffff1673ffffffffffffffffffffffffffffffffffffffff1681526020019081526020015f205f8567ffffffffffffffff1667ffffffffffffffff1681526020019081526020015f205f6101000a81548167ffffffffffffffff021916908367ffffffffffffffff160217905550505050565b610f3d611189565b8060055f6101000a81548173ffffffffffffffffffffffffffffffffffffffff021916908373ffffffffffffffffffffffffffffffffffffffff16021790555050565b610f88611189565b8060045f6101000a81548173ffffffffffffffffffffffffffffffffffffffff021916908373ffffffffffffffffffffffffffffffffffffffff16021790555050565b610fd3611139565b610fdd8684611348565b610feb868686868686611649565b5f5f5f5f5f610ffa8b89611821565b945094509450945094506110108b898786611c62565b61101e8b8987868686611e3d565b61102d8b8987878787876123aa565b505050505061103a61117f565b505050505050565b60055f9054906101000a900473ffffffffffffffffffffffffffffffffffffffff1681565b6008602052815f5260405f20602052805f5260405f205f915091509054906101000a900460ff1681565b7f633c1d4e2255ebdd52de1e651f9b6c0fc81a96b36bd3920e942219566c5f819581565b6110bd611189565b5f73ffffffffffffffffffffffffffffffffffffffff168173ffffffffffffffffffffffffffffffffffffffff160361112d575f6040517f1e4fbdf70000000000000000000000000000000000000000000000000000000081526004016111249190612eae565b60405180910390fd5b61113681611210565b50565b600260035403611175576040517f3ee5aeb500000000000000000000000000000000000000000000000000000000815260040160405180910390fd5b6002600381905550565b6001600381905550565b611191612788565b73ffffffffffffffffffffffffffffffffffffffff166111af6109d9565b73ffffffffffffffffffffffffffffffffffffffff161461120e576111d2612788565b6040517f118cdaa70000000000000000000000000000000000000000000000000000000081526004016112059190612eae565b60405180910390fd5b565b5f60025f9054906101000a900473ffffffffffffffffffffffffffffffffffffffff1690508160025f6101000a81548173ffffffffffffffffffffffffffffffffffffffff021916908373ffffffffffffffffffffffffffffffffffffffff1602179055508173ffffffffffffffffffffffffffffffffffffffff168173ffffffffffffffffffffffffffffffffffffffff167f8be0079c531659141344cd1fd0a4f28419497f9722a3daafe3b4186f6b6457e060405160405180910390a35050565b60606113085f7f000000000000000000000000000000000000000000000000000000000000000061278f90919063ffffffff16565b905090565b606061134360017f000000000000000000000000000000000000000000000000000000000000000061278f90919063ffffffff16565b905090565b80602001602081019061135b91906133aa565b73ffffffffffffffffffffffffffffffffffffffff1682602001602081019061138491906133aa565b73ffffffffffffffffffffffffffffffffffffffff16146113da576040517f08c379a00000000000000000000000000000000000000000000000000000000081526004016113d190613939565b60405180910390fd5b8060600160208101906113ed91906130cd565b67ffffffffffffffff1682606001602081019061140a91906130cd565b67ffffffffffffffff161015611455576040517f08c379a000000000000000000000000000000000000000000000000000000000815260040161144c906139a1565b60405180910390fd5b81608001602081019061146891906130cd565b67ffffffffffffffff16421115801561149d575080608001602081019061148f91906130cd565b67ffffffffffffffff164211155b6114dc576040517f08c379a00000000000000000000000000000000000000000000000000000000081526004016114d390613a09565b60405180910390fd5b60085f835f0160208101906114f191906133aa565b73ffffffffffffffffffffffffffffffffffffffff1673ffffffffffffffffffffffffffffffffffffffff1681526020019081526020015f205f8360a001602081019061153e91906130cd565b67ffffffffffffffff1667ffffffffffffffff1681526020019081526020015f205f9054906101000a900460ff16158015611606575060085f825f01602081019061158991906133aa565b73ffffffffffffffffffffffffffffffffffffffff1673ffffffffffffffffffffffffffffffffffffffff1681526020019081526020015f205f8260a00160208101906115d691906130cd565b67ffffffffffffffff1667ffffffffffffffff1681526020019081526020015f205f9054906101000a900460ff16155b611645576040517f08c379a000000000000000000000000000000000000000000000000000000000815260040161163c90613a71565b60405180910390fd5b5050565b5f6116638780360381019061165e9190613b7b565b61283c565b90505f61167f8580360381019061167a9190613c43565b6128b6565b9050875f01602081019061169391906133aa565b73ffffffffffffffffffffffffffffffffffffffff166116f68389898080601f0160208091040260200160405190810160405280939291908181526020018383808284375f81840152601f19601f82011690508083019250505050505050612930565b73ffffffffffffffffffffffffffffffffffffffff161461174c576040517f08c379a000000000000000000000000000000000000000000000000000000000815260040161174390613cb8565b60405180910390fd5b845f01602081019061175e91906133aa565b73ffffffffffffffffffffffffffffffffffffffff166117c18286868080601f0160208091040260200160405190810160405280939291908181526020018383808284375f81840152601f19601f82011690508083019250505050505050612930565b73ffffffffffffffffffffffffffffffffffffffff1614611817576040517f08c379a000000000000000000000000000000000000000000000000000000000815260040161180e90613d20565b60405180910390fd5b5050505050505050565b5f5f5f5f5f5f60075f895f01602081019061183c91906133aa565b73ffffffffffffffffffffffffffffffffffffffff1673ffffffffffffffffffffffffffffffffffffffff1681526020019081526020015f205f8960a001602081019061188991906130cd565b67ffffffffffffffff1667ffffffffffffffff1681526020019081526020015f205f9054906101000a900467ffffffffffffffff1690505f60075f895f0160208101906118d691906133aa565b73ffffffffffffffffffffffffffffffffffffffff1673ffffffffffffffffffffffffffffffffffffffff1681526020019081526020015f205f8960a001602081019061192391906130cd565b67ffffffffffffffff1667ffffffffffffffff1681526020019081526020015f205f9054906101000a900467ffffffffffffffff1690505f8267ffffffffffffffff1611801561197c57505f8167ffffffffffffffff16115b6119bb576040517f08c379a00000000000000000000000000000000000000000000000000000000081526004016119b290613dae565b60405180910390fd5b8067ffffffffffffffff168267ffffffffffffffff16106119dc57806119de565b815b96505f8767ffffffffffffffff1611611a2c576040517f08c379a0000000000000000000000000000000000000000000000000000000008152600401611a2390613e16565b60405180910390fd5b5f61016773ffffffffffffffffffffffffffffffffffffffff1663f2c31ff48b6020016020810190611a5e91906133aa565b8c5f016020810190611a7091906133aa565b6040518363ffffffff1660e01b8152600401611a8d929190613e34565b60408051808303815f875af1158015611aa8573d5f5f3e3d5ffd5b505050506040513d601f19601f82011682018060405250810190611acc9190613e85565b91505080611b0f576040517f08c379a0000000000000000000000000000000000000000000000000000000008152600401611b0690613f0d565b60405180910390fd5b5f61016773ffffffffffffffffffffffffffffffffffffffff1663f2c31ff48b6020016020810190611b4191906133aa565b8c5f016020810190611b5391906133aa565b6040518363ffffffff1660e01b8152600401611b70929190613e34565b60408051808303815f875af1158015611b8b573d5f5f3e3d5ffd5b505050506040513d601f19601f82011682018060405250810190611baf9190613e85565b91505080611bf2576040517f08c379a0000000000000000000000000000000000000000000000000000000008152600401611be990613f75565b60405180910390fd5b896060016020810190611c0591906130cd565b67ffffffffffffffff169750878967ffffffffffffffff16611c279190613f93565b965061271060065488611c3a9190613f93565b611c449190614001565b95508587611c52919061382e565b9450505050509295509295909350565b8060095f60045f9054906101000a900473ffffffffffffffffffffffffffffffffffffffff1673ffffffffffffffffffffffffffffffffffffffff1673ffffffffffffffffffffffffffffffffffffffff1681526020019081526020015f205f865f016020810190611cd491906133aa565b73ffffffffffffffffffffffffffffffffffffffff1673ffffffffffffffffffffffffffffffffffffffff1681526020019081526020015f20541015611d4f576040517f08c379a0000000000000000000000000000000000000000000000000000000008152600401611d469061407b565b60405180910390fd5b8167ffffffffffffffff1660095f866020016020810190611d7091906133aa565b73ffffffffffffffffffffffffffffffffffffffff1673ffffffffffffffffffffffffffffffffffffffff1681526020019081526020015f205f855f016020810190611dbc91906133aa565b73ffffffffffffffffffffffffffffffffffffffff1673ffffffffffffffffffffffffffffffffffffffff1681526020019081526020015f20541015611e37576040517f08c379a0000000000000000000000000000000000000000000000000000000008152600401611e2e90614109565b60405180910390fd5b50505050565b8360075f885f016020810190611e5391906133aa565b73ffffffffffffffffffffffffffffffffffffffff1673ffffffffffffffffffffffffffffffffffffffff1681526020019081526020015f205f8860a0016020810190611ea091906130cd565b67ffffffffffffffff1667ffffffffffffffff1681526020019081526020015f205f8282829054906101000a900467ffffffffffffffff16611ee29190614127565b92506101000a81548167ffffffffffffffff021916908367ffffffffffffffff1602179055508360075f875f016020810190611f1e91906133aa565b73ffffffffffffffffffffffffffffffffffffffff1673ffffffffffffffffffffffffffffffffffffffff1681526020019081526020015f205f8760a0016020810190611f6b91906130cd565b67ffffffffffffffff1667ffffffffffffffff1681526020019081526020015f205f8282829054906101000a900467ffffffffffffffff16611fad9190614127565b92506101000a81548167ffffffffffffffff021916908367ffffffffffffffff1602179055508367ffffffffffffffff1660095f886020016020810190611ff491906133aa565b73ffffffffffffffffffffffffffffffffffffffff1673ffffffffffffffffffffffffffffffffffffffff1681526020019081526020015f205f875f01602081019061204091906133aa565b73ffffffffffffffffffffffffffffffffffffffff1673ffffffffffffffffffffffffffffffffffffffff1681526020019081526020015f205f828254612087919061382e565b925050819055508367ffffffffffffffff1660095f8860200160208101906120af91906133aa565b73ffffffffffffffffffffffffffffffffffffffff1673ffffffffffffffffffffffffffffffffffffffff1681526020019081526020015f205f885f0160208101906120fb91906133aa565b73ffffffffffffffffffffffffffffffffffffffff1673ffffffffffffffffffffffffffffffffffffffff1681526020019081526020015f205f8282546121429190613766565b925050819055508260095f60045f9054906101000a900473ffffffffffffffffffffffffffffffffffffffff1673ffffffffffffffffffffffffffffffffffffffff1673ffffffffffffffffffffffffffffffffffffffff1681526020019081526020015f205f885f0160208101906121bb91906133aa565b73ffffffffffffffffffffffffffffffffffffffff1673ffffffffffffffffffffffffffffffffffffffff1681526020019081526020015f205f828254612202919061382e565b925050819055508060095f60045f9054906101000a900473ffffffffffffffffffffffffffffffffffffffff1673ffffffffffffffffffffffffffffffffffffffff1673ffffffffffffffffffffffffffffffffffffffff1681526020019081526020015f205f875f01602081019061227b91906133aa565b73ffffffffffffffffffffffffffffffffffffffff1673ffffffffffffffffffffffffffffffffffffffff1681526020019081526020015f205f8282546122c29190613766565b925050819055505f8211156123a2578160095f60045f9054906101000a900473ffffffffffffffffffffffffffffffffffffffff1673ffffffffffffffffffffffffffffffffffffffff1673ffffffffffffffffffffffffffffffffffffffff1681526020019081526020015f205f60055f9054906101000a900473ffffffffffffffffffffffffffffffffffffffff1673ffffffffffffffffffffffffffffffffffffffff1673ffffffffffffffffffffffffffffffffffffffff1681526020019081526020015f205f82825461239a9190613766565b925050819055505b505050505050565b5f61016773ffffffffffffffffffffffffffffffffffffffff1663eca369178960200160208101906123dc91906133aa565b308b5f0160208101906123ef91906133aa565b8a6040518563ffffffff1660e01b815260040161240f9493929190613639565b6020604051808303815f875af115801561242b573d5f5f3e3d5ffd5b505050506040513d601f19601f8201168201806040525081019061244f91906136a6565b60070b9050601681148061246257505f81145b6124a1576040517f08c379a0000000000000000000000000000000000000000000000000000000008152600401612498906141ac565b60405180910390fd5b5f61016773ffffffffffffffffffffffffffffffffffffffff1663eca3691760045f9054906101000a900473ffffffffffffffffffffffffffffffffffffffff16308b5f0160208101906124f591906133aa565b876040518563ffffffff1660e01b81526004016125159493929190613639565b6020604051808303815f875af1158015612531573d5f5f3e3d5ffd5b505050506040513d601f19601f8201168201806040525081019061255591906136a6565b60070b9050601681148061256857505f81145b6125a7576040517f08c379a000000000000000000000000000000000000000000000000000000000815260040161259e90614214565b60405180910390fd5b5f8411156126c7575f61016773ffffffffffffffffffffffffffffffffffffffff1663eca3691760045f9054906101000a900473ffffffffffffffffffffffffffffffffffffffff163060055f9054906101000a900473ffffffffffffffffffffffffffffffffffffffff16896040518563ffffffff1660e01b81526004016126339493929190613639565b6020604051808303815f875af115801561264f573d5f5f3e3d5ffd5b505050506040513d601f19601f8201168201806040525081019061267391906136a6565b60070b9050601681148061268657505f81145b6126c5576040517f08c379a00000000000000000000000000000000000000000000000000000000081526004016126bc9061427c565b60405180910390fd5b505b8860200160208101906126da91906133aa565b73ffffffffffffffffffffffffffffffffffffffff16885f01602081019061270291906133aa565b73ffffffffffffffffffffffffffffffffffffffff168a5f01602081019061272a91906133aa565b73ffffffffffffffffffffffffffffffffffffffff167fcff8dafdaf57fa17bf3f7f9afcda9c57abad86b9bf3a23f053299b317381c0918a8a8a8a604051612775949392919061429a565b60405180910390a4505050505050505050565b5f33905090565b606060ff5f1b83146127ab576127a483612943565b9050612836565b8180546127b79061430a565b80601f01602080910402602001604051908101604052809291908181526020018280546127e39061430a565b801561282e5780601f106128055761010080835404028352916020019161282e565b820191905f5260205f20905b81548152906001019060200180831161281157829003601f168201915b505050505090505b92915050565b5f6128af7f7c8e0ebacd44590996856b3b99d8a13f47c7f9283d758f50585580152ae5debc835f015184602001518560400151866060015187608001518860a00151604051602001612894979695949392919061433a565b604051602081830303815290604052805190602001206129b5565b9050919050565b5f6129297f633c1d4e2255ebdd52de1e651f9b6c0fc81a96b36bd3920e942219566c5f8195835f015184602001518560400151866060015187608001518860a0015160405160200161290e979695949392919061433a565b604051602081830303815290604052805190602001206129b5565b9050919050565b5f61293b83836129ce565b905092915050565b60605f61294f836129f8565b90505f602067ffffffffffffffff81111561296d5761296c613799565b5b6040519080825280601f01601f19166020018201604052801561299f5781602001600182028036833780820191505090505b5090508181528360208201528092505050919050565b5f6129c76129c1612a46565b83612afc565b9050919050565b5f5f5f5f6129dc8686612b3c565b9250925092506129ec8282612b91565b82935050505092915050565b5f5f60ff835f1c169050601f811115612a3d576040517fb3512b0c00000000000000000000000000000000000000000000000000000000815260040160405180910390fd5b80915050919050565b5f7f000000000000000000000000000000000000000000000000000000000000000073ffffffffffffffffffffffffffffffffffffffff163073ffffffffffffffffffffffffffffffffffffffff16148015612ac157507f000000000000000000000000000000000000000000000000000000000000000046145b15612aee577f00000000000000000000000000000000000000000000000000000000000000009050612af9565b612af6612cf3565b90505b90565b5f6040517f190100000000000000000000000000000000000000000000000000000000000081528360028201528260228201526042812091505092915050565b5f5f5f6041845103612b7c575f5f5f602087015192506040870151915060608701515f1a9050612b6e88828585612d88565b955095509550505050612b8a565b5f600285515f1b9250925092505b9250925092565b5f6003811115612ba457612ba36143a7565b5b826003811115612bb757612bb66143a7565b5b0315612cef5760016003811115612bd157612bd06143a7565b5b826003811115612be457612be36143a7565b5b03612c1b576040517ff645eedf00000000000000000000000000000000000000000000000000000000815260040160405180910390fd5b60026003811115612c2f57612c2e6143a7565b5b826003811115612c4257612c416143a7565b5b03612c8657805f1c6040517ffce698f7000000000000000000000000000000000000000000000000000000008152600401612c7d9190612f53565b60405180910390fd5b600380811115612c9957612c986143a7565b5b826003811115612cac57612cab6143a7565b5b03612cee57806040517fd78bce0c000000000000000000000000000000000000000000000000000000008152600401612ce591906130b4565b60405180910390fd5b5b5050565b5f7f8b73c3c69bb8fe3d512ecc4cf759cc79239f7b179b0ffacaa9a75d522b39400f7f00000000000000000000000000000000000000000000000000000000000000007f00000000000000000000000000000000000000000000000000000000000000004630604051602001612d6d9594939291906143d4565b60405160208183030381529060405280519060200120905090565b5f5f5f7f7fffffffffffffffffffffffffffffff5d576e7357a4501ddfe92f46681b20a0845f1c1115612dc4575f600385925092509250612e65565b5f6001888888886040515f8152602001604052604051612de79493929190614440565b6020604051602081039080840390855afa158015612e07573d5f5f3e3d5ffd5b5050506020604051035190505f73ffffffffffffffffffffffffffffffffffffffff168173ffffffffffffffffffffffffffffffffffffffff1603612e58575f60015f5f1b93509350935050612e65565b805f5f5f1b935093509350505b9450945094915050565b5f73ffffffffffffffffffffffffffffffffffffffff82169050919050565b5f612e9882612e6f565b9050919050565b612ea881612e8e565b82525050565b5f602082019050612ec15f830184612e9f565b92915050565b5f819050919050565b5f612eea612ee5612ee084612e6f565b612ec7565b612e6f565b9050919050565b5f612efb82612ed0565b9050919050565b5f612f0c82612ef1565b9050919050565b612f1c81612f02565b82525050565b5f602082019050612f355f830184612f13565b92915050565b5f819050919050565b612f4d81612f3b565b82525050565b5f602082019050612f665f830184612f44565b92915050565b5f604051905090565b5f5ffd5b5f5ffd5b5f67ffffffffffffffff82169050919050565b612f9981612f7d565b8114612fa3575f5ffd5b50565b5f81359050612fb481612f90565b92915050565b612fc381612e8e565b8114612fcd575f5ffd5b50565b5f81359050612fde81612fba565b92915050565b5f5f5f60608486031215612ffb57612ffa612f75565b5b5f61300886828701612fa6565b935050602061301986828701612fd0565b925050604061302a86828701612fa6565b9150509250925092565b61303d81612f3b565b8114613047575f5ffd5b50565b5f8135905061305881613034565b92915050565b5f5f6040838503121561307457613073612f75565b5b5f61308185828601612fd0565b92505060206130928582860161304a565b9150509250929050565b5f819050919050565b6130ae8161309c565b82525050565b5f6020820190506130c75f8301846130a5565b92915050565b5f602082840312156130e2576130e1612f75565b5b5f6130ef84828501612fa6565b91505092915050565b5f5f6040838503121561310e5761310d612f75565b5b5f61311b85828601612fd0565b925050602061312c85828601612fa6565b9150509250929050565b61313f81612f7d565b82525050565b5f6020820190506131585f830184613136565b92915050565b5f6020828403121561317357613172612f75565b5b5f6131808482850161304a565b91505092915050565b5f5f6040838503121561319f5761319e612f75565b5b5f6131ac85828601612fd0565b92505060206131bd85828601612fd0565b9150509250929050565b5f7fff0000000000000000000000000000000000000000000000000000000000000082169050919050565b6131fb816131c7565b82525050565b5f81519050919050565b5f82825260208201905092915050565b8281835e5f83830152505050565b5f601f19601f8301169050919050565b5f61324382613201565b61324d818561320b565b935061325d81856020860161321b565b61326681613229565b840191505092915050565b5f81519050919050565b5f82825260208201905092915050565b5f819050602082019050919050565b6132a381612f3b565b82525050565b5f6132b4838361329a565b60208301905092915050565b5f602082019050919050565b5f6132d682613271565b6132e0818561327b565b93506132eb8361328b565b805f5b8381101561331b57815161330288826132a9565b975061330d836132c0565b9250506001810190506132ee565b5085935050505092915050565b5f60e08201905061333b5f83018a6131f2565b818103602083015261334d8189613239565b905081810360408301526133618188613239565b90506133706060830187612f44565b61337d6080830186612e9f565b61338a60a08301856130a5565b81810360c083015261339c81846132cc565b905098975050505050505050565b5f602082840312156133bf576133be612f75565b5b5f6133cc84828501612fd0565b91505092915050565b5f5ffd5b5f60c082840312156133ee576133ed6133d5565b5b81905092915050565b5f5ffd5b5f5ffd5b5f5ffd5b5f5f83601f840112613418576134176133f7565b5b8235905067ffffffffffffffff811115613435576134346133fb565b5b602083019150836001820283011115613451576134506133ff565b5b9250929050565b5f60c0828403121561346d5761346c6133d5565b5b81905092915050565b5f5f5f5f5f5f6101c0878903121561349157613490612f75565b5b5f61349e89828a016133d9565b96505060c087013567ffffffffffffffff8111156134bf576134be612f79565b5b6134cb89828a01613403565b955095505060e06134de89828a01613458565b9350506101a087013567ffffffffffffffff811115613500576134ff612f79565b5b61350c89828a01613403565b92509250509295509295509295565b5f8115159050919050565b61352f8161351b565b82525050565b5f6020820190506135485f830184613526565b92915050565b7f7a65726f20616d6f756e740000000000000000000000000000000000000000005f82015250565b5f613582600b8361320b565b915061358d8261354e565b602082019050919050565b5f6020820190508181035f8301526135af81613576565b9050919050565b7f616c726561647920696e697469616c697a6564000000000000000000000000005f82015250565b5f6135ea60138361320b565b91506135f5826135b6565b602082019050919050565b5f6020820190508181035f830152613617816135de565b9050919050565b5f8160070b9050919050565b6136338161361e565b82525050565b5f60808201905061364c5f830187612e9f565b6136596020830186612e9f565b6136666040830185612e9f565b613673606083018461362a565b95945050505050565b6136858161361e565b811461368f575f5ffd5b50565b5f815190506136a08161367c565b92915050565b5f602082840312156136bb576136ba612f75565b5b5f6136c884828501613692565b91505092915050565b7f485453207472616e73666572206661696c6564000000000000000000000000005f82015250565b5f61370560138361320b565b9150613710826136d1565b602082019050919050565b5f6020820190508181035f830152613732816136f9565b9050919050565b7f4e487b71000000000000000000000000000000000000000000000000000000005f52601160045260245ffd5b5f61377082612f3b565b915061377b83612f3b565b925082820190508082111561379357613792613739565b5b92915050565b7f4e487b71000000000000000000000000000000000000000000000000000000005f52604160045260245ffd5b7f696e73756666696369656e7420657363726f772062616c616e636500000000005f82015250565b5f6137fa601b8361320b565b9150613805826137c6565b602082019050919050565b5f6020820190508181035f830152613827816137ee565b9050919050565b5f61383882612f3b565b915061384383612f3b565b925082820390508181111561385b5761385a613739565b5b92915050565b7f696e73756666696369656e74206465706f73697465642070726f7065727479205f8201527f746f6b656e730000000000000000000000000000000000000000000000000000602082015250565b5f6138bb60268361320b565b91506138c682613861565b604082019050919050565b5f6020820190508181035f8301526138e8816138af565b9050919050565b7f70726f7065727479206d69736d617463680000000000000000000000000000005f82015250565b5f61392360118361320b565b915061392e826138ef565b602082019050919050565b5f6020820190508181035f83015261395081613917565b9050919050565b7f7072696365206d69736d617463680000000000000000000000000000000000005f82015250565b5f61398b600e8361320b565b915061399682613957565b602082019050919050565b5f6020820190508181035f8301526139b88161397f565b9050919050565b7f6f726465722065787069726564000000000000000000000000000000000000005f82015250565b5f6139f3600d8361320b565b91506139fe826139bf565b602082019050919050565b5f6020820190508181035f830152613a20816139e7565b9050919050565b7f6f726465722063616e63656c6c656400000000000000000000000000000000005f82015250565b5f613a5b600f8361320b565b9150613a6682613a27565b602082019050919050565b5f6020820190508181035f830152613a8881613a4f565b9050919050565b5f5ffd5b613a9c82613229565b810181811067ffffffffffffffff82111715613abb57613aba613799565b5b80604052505050565b5f613acd612f6c565b9050613ad98282613a93565b919050565b5f60c08284031215613af357613af2613a8f565b5b613afd60c0613ac4565b90505f613b0c84828501612fd0565b5f830152506020613b1f84828501612fd0565b6020830152506040613b3384828501612fa6565b6040830152506060613b4784828501612fa6565b6060830152506080613b5b84828501612fa6565b60808301525060a0613b6f84828501612fa6565b60a08301525092915050565b5f60c08284031215613b9057613b8f612f75565b5b5f613b9d84828501613ade565b91505092915050565b5f60c08284031215613bbb57613bba613a8f565b5b613bc560c0613ac4565b90505f613bd484828501612fd0565b5f830152506020613be784828501612fd0565b6020830152506040613bfb84828501612fa6565b6040830152506060613c0f84828501612fa6565b6060830152506080613c2384828501612fa6565b60808301525060a0613c3784828501612fa6565b60a08301525092915050565b5f60c08284031215613c5857613c57612f75565b5b5f613c6584828501613ba6565b91505092915050565b7f696e76616c6964206275792073696700000000000000000000000000000000005f82015250565b5f613ca2600f8361320b565b9150613cad82613c6e565b602082019050919050565b5f6020820190508181035f830152613ccf81613c96565b9050919050565b7f696e76616c69642073656c6c20736967000000000000000000000000000000005f82015250565b5f613d0a60108361320b565b9150613d1582613cd6565b602082019050919050565b5f6020820190508181035f830152613d3781613cfe565b9050919050565b7f6f72646572206e6f7420696e697469616c697a6564206f7220616c72656164795f8201527f2066696c6c656400000000000000000000000000000000000000000000000000602082015250565b5f613d9860278361320b565b9150613da382613d3e565b604082019050919050565b5f6020820190508181035f830152613dc581613d8c565b9050919050565b7f6e6f7468696e6720746f2066696c6c00000000000000000000000000000000005f82015250565b5f613e00600f8361320b565b9150613e0b82613dcc565b602082019050919050565b5f6020820190508181035f830152613e2d81613df4565b9050919050565b5f604082019050613e475f830185612e9f565b613e546020830184612e9f565b9392505050565b613e648161351b565b8114613e6e575f5ffd5b50565b5f81519050613e7f81613e5b565b92915050565b5f5f60408385031215613e9b57613e9a612f75565b5b5f613ea885828601613692565b9250506020613eb985828601613e71565b9150509250929050565b7f6275796572206e6f74206b7963000000000000000000000000000000000000005f82015250565b5f613ef7600d8361320b565b9150613f0282613ec3565b602082019050919050565b5f6020820190508181035f830152613f2481613eeb565b9050919050565b7f73656c6c6572206e6f74206b79630000000000000000000000000000000000005f82015250565b5f613f5f600e8361320b565b9150613f6a82613f2b565b602082019050919050565b5f6020820190508181035f830152613f8c81613f53565b9050919050565b5f613f9d82612f3b565b9150613fa883612f3b565b9250828202613fb681612f3b565b91508282048414831517613fcd57613fcc613739565b5b5092915050565b7f4e487b71000000000000000000000000000000000000000000000000000000005f52601260045260245ffd5b5f61400b82612f3b565b915061401683612f3b565b92508261402657614025613fd4565b5b828204905092915050565b7f627579657220696e73756666696369656e74205553444320657363726f7700005f82015250565b5f614065601e8361320b565b915061407082614031565b602082019050919050565b5f6020820190508181035f83015261409281614059565b9050919050565b7f73656c6c657220696e73756666696369656e742070726f7065727479206573635f8201527f726f770000000000000000000000000000000000000000000000000000000000602082015250565b5f6140f360238361320b565b91506140fe82614099565b604082019050919050565b5f6020820190508181035f830152614120816140e7565b9050919050565b5f61413182612f7d565b915061413c83612f7d565b9250828203905067ffffffffffffffff81111561415c5761415b613739565b5b92915050565b7f70726f7065727479207472616e73666572206661696c656400000000000000005f82015250565b5f61419660188361320b565b91506141a182614162565b602082019050919050565b5f6020820190508181035f8301526141c38161418a565b9050919050565b7f55534443207472616e7366657220746f2073656c6c6572206661696c656400005f82015250565b5f6141fe601e8361320b565b9150614209826141ca565b602082019050919050565b5f6020820190508181035f83015261422b816141f2565b9050919050565b7f666565207472616e73666572206661696c6564000000000000000000000000005f82015250565b5f61426660138361320b565b915061427182614232565b602082019050919050565b5f6020820190508181035f8301526142938161425a565b9050919050565b5f6080820190506142ad5f830187613136565b6142ba6020830186613136565b6142c76040830185612f44565b6142d46060830184612f44565b95945050505050565b7f4e487b71000000000000000000000000000000000000000000000000000000005f52602260045260245ffd5b5f600282049050600182168061432157607f821691505b602082108103614334576143336142dd565b5b50919050565b5f60e08201905061434d5f83018a6130a5565b61435a6020830189612e9f565b6143676040830188612e9f565b6143746060830187613136565b6143816080830186613136565b61438e60a0830185613136565b61439b60c0830184613136565b98975050505050505050565b7f4e487b71000000000000000000000000000000000000000000000000000000005f52602160045260245ffd5b5f60a0820190506143e75f8301886130a5565b6143f460208301876130a5565b61440160408301866130a5565b61440e6060830185612f44565b61441b6080830184612e9f565b9695505050505050565b5f60ff82169050919050565b61443a81614425565b82525050565b5f6080820190506144535f8301876130a5565b6144606020830186614431565b61446d60408301856130a5565b61447a60608301846130a5565b9594505050505056fea264697066735822122006580fa6aa4e4a50815584ca838aa599bd14c56899a8545f7573698582421af564736f6c634300081c0033",
    "linkReferences": {},
    "deployedLinkReferences": {},
    "immutableReferences": {
        "6378": [
            {
                "length": 32,
                "start": 10952
            }
        ],
        "6380": [
            {
                "length": 32,
                "start": 10911
            }
        ],
        "6382": [
            {
                "length": 32,
                "start": 10825
            }
        ],
        "6384": [
            {
                "length": 32,
                "start": 11543
            }
        ],
        "6386": [
            {
                "length": 32,
                "start": 11576
            }
        ],
        "6389": [
            {
                "length": 32,
                "start": 4827
            }
        ],
        "6392": [
            {
                "length": 32,
                "start": 4886
            }
        ]
    },
    "inputSourceName": "project/contracts/MarketPlace.sol",
    "buildInfoId": "solc-0_8_28-adbeb6f0c46953a2cf18d359b1c43fe25c63c9e7"
}