{
  "_format": "hh3-artifact-1",
  "contractName": "MarketPlace",
  "sourceName": "contracts/MarketPlace.sol",
  "abi": [
    {
      "inputs": [
        {
          "internalType": "address",
          "name": "_initialOwner",
          "type": "address"
        },
        {
          "internalType": "address",
          "name": "_usdcToken",
          "type": "address"
        },
        {
          "internalType": "address",
          "name": "_feeCollector",
          "type": "address"
        },
        {
          "internalType": "uint256",
          "name": "_feeBps",
          "type": "uint256"
        }
      ],
      "stateMutability": "nonpayable",
      "type": "constructor"
    },
    {
      "inputs": [],
      "name": "ECDSAInvalidSignature",
      "type": "error"
    },
    {
      "inputs": [
        {
          "internalType": "uint256",
          "name": "length",
          "type": "uint256"
        }
      ],
      "name": "ECDSAInvalidSignatureLength",
      "type": "error"
    },
    {
      "inputs": [
        {
          "internalType": "bytes32",
          "name": "s",
          "type": "bytes32"
        }
      ],
      "name": "ECDSAInvalidSignatureS",
      "type": "error"
    },
    {
      "inputs": [],
      "name": "InvalidShortString",
      "type": "error"
    },
    {
      "inputs": [
        {
          "internalType": "address",
          "name": "owner",
          "type": "address"
        }
      ],
      "name": "OwnableInvalidOwner",
      "type": "error"
    },
    {
      "inputs": [
        {
          "internalType": "address",
          "name": "account",
          "type": "address"
        }
      ],
      "name": "OwnableUnauthorizedAccount",
      "type": "error"
    },
    {
      "inputs": [],
      "name": "ReentrancyGuardReentrantCall",
      "type": "error"
    },
    {
      "inputs": [
        {
          "internalType": "string",
          "name": "str",
          "type": "string"
        }
      ],
      "name": "StringTooLong",
      "type": "error"
    },
    {
      "anonymous": false,
      "inputs": [
        {
          "indexed": false,
          "internalType": "bool",
          "name": "",
          "type": "bool"
        },
        {
          "indexed": false,
          "internalType": "bytes",
          "name": "",
          "type": "bytes"
        }
      ],
      "name": "CallResponseEvent",
      "type": "event"
    },
    {
      "anonymous": false,
      "inputs": [
        {
          "indexed": true,
          "internalType": "address",
          "name": "account",
          "type": "address"
        },
        {
          "indexed": true,
          "internalType": "address",
          "name": "token",
          "type": "address"
        },
        {
          "indexed": false,
          "internalType": "uint256",
          "name": "amount",
          "type": "uint256"
        }
      ],
      "name": "Deposited",
      "type": "event"
    },
    {
      "anonymous": false,
      "inputs": [],
      "name": "EIP712DomainChanged",
      "type": "event"
    },
    {
      "anonymous": false,
      "inputs": [
        {
          "indexed": true,
          "internalType": "address",
          "name": "maker",
          "type": "address"
        },
        {
          "indexed": false,
          "internalType": "uint64",
          "name": "nonce",
          "type": "uint64"
        }
      ],
      "name": "OrderCancelled",
      "type": "event"
    },
    {
      "anonymous": false,
      "inputs": [
        {
          "indexed": true,
          "internalType": "address",
          "name": "previousOwner",
          "type": "address"
        },
        {
          "indexed": true,
          "internalType": "address",
          "name": "newOwner",
          "type": "address"
        }
      ],
      "name": "OwnershipTransferred",
      "type": "event"
    },
    {
      "anonymous": false,
      "inputs": [
        {
          "indexed": true,
          "internalType": "address",
          "name": "buyer",
          "type": "address"
        },
        {
          "indexed": true,
          "internalType": "address",
          "name": "seller",
          "type": "address"
        },
        {
          "indexed": true,
          "internalType": "address",
          "name": "propertyToken",
          "type": "address"
        },
        {
          "indexed": false,
          "internalType": "uint64",
          "name": "filled",
          "type": "uint64"
        },
        {
          "indexed": false,
          "internalType": "uint64",
          "name": "pricePerShare",
          "type": "uint64"
        },
        {
          "indexed": false,
          "internalType": "uint256",
          "name": "totalNotional",
          "type": "uint256"
        },
        {
          "indexed": false,
          "internalType": "uint256",
          "name": "fee",
          "type": "uint256"
        }
      ],
      "name": "TradeExecuted",
      "type": "event"
    },
    {
      "anonymous": false,
      "inputs": [
        {
          "indexed": true,
          "internalType": "address",
          "name": "account",
          "type": "address"
        },
        {
          "indexed": true,
          "internalType": "address",
          "name": "token",
          "type": "address"
        },
        {
          "indexed": false,
          "internalType": "uint256",
          "name": "amount",
          "type": "uint256"
        }
      ],
      "name": "Withdrawn",
      "type": "event"
    },
    {
      "inputs": [],
      "name": "BUY_ORDER_TYPEHASH",
      "outputs": [
        {
          "internalType": "bytes32",
          "name": "",
          "type": "bytes32"
        }
      ],
      "stateMutability": "view",
      "type": "function"
    },
    {
      "inputs": [],
      "name": "HTS",
      "outputs": [
        {
          "internalType": "contract IHederaTokenService",
          "name": "",
          "type": "address"
        }
      ],
      "stateMutability": "view",
      "type": "function"
    },
    {
      "inputs": [],
      "name": "SELL_ORDER_TYPEHASH",
      "outputs": [
        {
          "internalType": "bytes32",
          "name": "",
          "type": "bytes32"
        }
      ],
      "stateMutability": "view",
      "type": "function"
    },
    {
      "inputs": [
        {
          "internalType": "uint64",
          "name": "nonce",
          "type": "uint64"
        }
      ],
      "name": "cancelOrder",
      "outputs": [],
      "stateMutability": "nonpayable",
      "type": "function"
    },
    {
      "inputs": [
        {
          "internalType": "address",
          "name": "",
          "type": "address"
        },
        {
          "internalType": "uint64",
          "name": "",
          "type": "uint64"
        }
      ],
      "name": "cancelled",
      "outputs": [
        {
          "internalType": "bool",
          "name": "",
          "type": "bool"
        }
      ],
      "stateMutability": "view",
      "type": "function"
    },
    {
      "inputs": [
        {
          "internalType": "address",
          "name": "token",
          "type": "address"
        },
        {
          "internalType": "uint256",
          "name": "amount",
          "type": "uint256"
        }
      ],
      "name": "depositToken",
      "outputs": [],
      "stateMutability": "nonpayable",
      "type": "function"
    },
    {
      "inputs": [],
      "name": "eip712Domain",
      "outputs": [
        {
          "internalType": "bytes1",
          "name": "fields",
          "type": "bytes1"
        },
        {
          "internalType": "string",
          "name": "name",
          "type": "string"
        },
        {
          "internalType": "string",
          "name": "version",
          "type": "string"
        },
        {
          "internalType": "uint256",
          "name": "chainId",
          "type": "uint256"
        },
        {
          "internalType": "address",
          "name": "verifyingContract",
          "type": "address"
        },
        {
          "internalType": "bytes32",
          "name": "salt",
          "type": "bytes32"
        },
        {
          "internalType": "uint256[]",
          "name": "extensions",
          "type": "uint256[]"
        }
      ],
      "stateMutability": "view",
      "type": "function"
    },
    {
      "inputs": [
        {
          "internalType": "address",
          "name": "",
          "type": "address"
        },
        {
          "internalType": "address",
          "name": "",
          "type": "address"
        }
      ],
      "name": "escrowBalances",
      "outputs": [
        {
          "internalType": "uint256",
          "name": "",
          "type": "uint256"
        }
      ],
      "stateMutability": "view",
      "type": "function"
    },
    {
      "inputs": [],
      "name": "feeBps",
      "outputs": [
        {
          "internalType": "uint256",
          "name": "",
          "type": "uint256"
        }
      ],
      "stateMutability": "view",
      "type": "function"
    },
    {
      "inputs": [],
      "name": "feeCollector",
      "outputs": [
        {
          "internalType": "address",
          "name": "",
          "type": "address"
        }
      ],
      "stateMutability": "view",
      "type": "function"
    },
    {
      "inputs": [
        {
          "internalType": "address",
          "name": "token",
          "type": "address"
        },
        {
          "internalType": "address",
          "name": "account",
          "type": "address"
        }
      ],
      "name": "getEscrowBalance",
      "outputs": [
        {
          "internalType": "uint256",
          "name": "",
          "type": "uint256"
        }
      ],
      "stateMutability": "view",
      "type": "function"
    },
    {
      "inputs": [],
      "name": "getFeeBps",
      "outputs": [
        {
          "internalType": "uint256",
          "name": "",
          "type": "uint256"
        }
      ],
      "stateMutability": "view",
      "type": "function"
    },
    {
      "inputs": [],
      "name": "getFeeCollector",
      "outputs": [
        {
          "internalType": "address",
          "name": "",
          "type": "address"
        }
      ],
      "stateMutability": "view",
      "type": "function"
    },
    {
      "inputs": [
        {
          "internalType": "address",
          "name": "maker",
          "type": "address"
        },
        {
          "internalType": "uint64",
          "name": "nonce",
          "type": "uint64"
        }
      ],
      "name": "getRemaining",
      "outputs": [
        {
          "internalType": "uint64",
          "name": "",
          "type": "uint64"
        }
      ],
      "stateMutability": "view",
      "type": "function"
    },
    {
      "inputs": [],
      "name": "getUSDC",
      "outputs": [
        {
          "internalType": "address",
          "name": "",
          "type": "address"
        }
      ],
      "stateMutability": "view",
      "type": "function"
    },
    {
      "inputs": [
        {
          "internalType": "uint64",
          "name": "nonce",
          "type": "uint64"
        },
        {
          "internalType": "address",
          "name": "",
          "type": "address"
        },
        {
          "internalType": "uint64",
          "name": "amount",
          "type": "uint64"
        }
      ],
      "name": "initBuyOrder",
      "outputs": [],
      "stateMutability": "nonpayable",
      "type": "function"
    },
    {
      "inputs": [
        {
          "internalType": "uint64",
          "name": "nonce",
          "type": "uint64"
        },
        {
          "internalType": "address",
          "name": "propertyToken",
          "type": "address"
        },
        {
          "internalType": "uint64",
          "name": "amount",
          "type": "uint64"
        }
      ],
      "name": "initSellOrder",
      "outputs": [],
      "stateMutability": "nonpayable",
      "type": "function"
    },
    {
      "inputs": [
        {
          "internalType": "address",
          "name": "maker",
          "type": "address"
        },
        {
          "internalType": "uint64",
          "name": "nonce",
          "type": "uint64"
        }
      ],
      "name": "isCancelled",
      "outputs": [
        {
          "internalType": "bool",
          "name": "",
          "type": "bool"
        }
      ],
      "stateMutability": "view",
      "type": "function"
    },
    {
      "inputs": [],
      "name": "owner",
      "outputs": [
        {
          "internalType": "address",
          "name": "",
          "type": "address"
        }
      ],
      "stateMutability": "view",
      "type": "function"
    },
    {
      "inputs": [
        {
          "internalType": "address",
          "name": "token",
          "type": "address"
        },
        {
          "internalType": "bytes",
          "name": "encodedFunctionSelector",
          "type": "bytes"
        }
      ],
      "name": "redirectForToken",
      "outputs": [
        {
          "internalType": "int256",
          "name": "responseCode",
          "type": "int256"
        },
        {
          "internalType": "bytes",
          "name": "response",
          "type": "bytes"
        }
      ],
      "stateMutability": "nonpayable",
      "type": "function"
    },
    {
      "inputs": [
        {
          "internalType": "address",
          "name": "",
          "type": "address"
        },
        {
          "internalType": "uint64",
          "name": "",
          "type": "uint64"
        }
      ],
      "name": "remaining",
      "outputs": [
        {
          "internalType": "uint64",
          "name": "",
          "type": "uint64"
        }
      ],
      "stateMutability": "view",
      "type": "function"
    },
    {
      "inputs": [],
      "name": "renounceOwnership",
      "outputs": [],
      "stateMutability": "nonpayable",
      "type": "function"
    },
    {
      "inputs": [
        {
          "internalType": "uint256",
          "name": "bps",
          "type": "uint256"
        }
      ],
      "name": "setFeeBps",
      "outputs": [],
      "stateMutability": "nonpayable",
      "type": "function"
    },
    {
      "inputs": [
        {
          "internalType": "address",
          "name": "fc",
          "type": "address"
        }
      ],
      "name": "setFeeCollector",
      "outputs": [],
      "stateMutability": "nonpayable",
      "type": "function"
    },
    {
      "inputs": [
        {
          "internalType": "address",
          "name": "token",
          "type": "address"
        }
      ],
      "name": "setUSDC",
      "outputs": [],
      "stateMutability": "nonpayable",
      "type": "function"
    },
    {
      "inputs": [
        {
          "components": [
            {
              "internalType": "address",
              "name": "maker",
              "type": "address"
            },
            {
              "internalType": "address",
              "name": "propertyToken",
              "type": "address"
            },
            {
              "internalType": "uint64",
              "name": "remainingAmount",
              "type": "uint64"
            },
            {
              "internalType": "uint64",
              "name": "pricePerShare",
              "type": "uint64"
            },
            {
              "internalType": "uint64",
              "name": "expiry",
              "type": "uint64"
            },
            {
              "internalType": "uint64",
              "name": "nonce",
              "type": "uint64"
            }
          ],
          "internalType": "struct MarketPlace.BuyOrder",
          "name": "buy",
          "type": "tuple"
        },
        {
          "internalType": "bytes",
          "name": "buySig",
          "type": "bytes"
        },
        {
          "components": [
            {
              "internalType": "address",
              "name": "maker",
              "type": "address"
            },
            {
              "internalType": "address",
              "name": "propertyToken",
              "type": "address"
            },
            {
              "internalType": "uint64",
              "name": "remainingAmount",
              "type": "uint64"
            },
            {
              "internalType": "uint64",
              "name": "pricePerShare",
              "type": "uint64"
            },
            {
              "internalType": "uint64",
              "name": "expiry",
              "type": "uint64"
            },
            {
              "internalType": "uint64",
              "name": "nonce",
              "type": "uint64"
            }
          ],
          "internalType": "struct MarketPlace.SellOrder",
          "name": "sell",
          "type": "tuple"
        },
        {
          "internalType": "bytes",
          "name": "sellSig",
          "type": "bytes"
        }
      ],
      "name": "settle",
      "outputs": [],
      "stateMutability": "nonpayable",
      "type": "function"
    },
    {
      "inputs": [
        {
          "internalType": "address",
          "name": "tokenId",
          "type": "address"
        }
      ],
      "name": "tokenAssociate",
      "outputs": [],
      "stateMutability": "nonpayable",
      "type": "function"
    },
    {
      "inputs": [
        {
          "internalType": "address",
          "name": "token",
          "type": "address"
        },
        {
          "internalType": "address",
          "name": "from",
          "type": "address"
        },
        {
          "internalType": "address",
          "name": "to",
          "type": "address"
        },
        {
          "internalType": "uint256",
          "name": "amount",
          "type": "uint256"
        }
      ],
      "name": "transferFrom",
      "outputs": [
        {
          "internalType": "int64",
          "name": "responseCode",
          "type": "int64"
        }
      ],
      "stateMutability": "nonpayable",
      "type": "function"
    },
    {
      "inputs": [
        {
          "internalType": "address",
          "name": "token",
          "type": "address"
        },
        {
          "internalType": "address",
          "name": "from",
          "type": "address"
        },
        {
          "internalType": "address",
          "name": "to",
          "type": "address"
        },
        {
          "internalType": "uint256",
          "name": "serialNumber",
          "type": "uint256"
        }
      ],
      "name": "transferFromNFT",
      "outputs": [
        {
          "internalType": "int64",
          "name": "responseCode",
          "type": "int64"
        }
      ],
      "stateMutability": "nonpayable",
      "type": "function"
    },
    {
      "inputs": [
        {
          "internalType": "address",
          "name": "newOwner",
          "type": "address"
        }
      ],
      "name": "transferOwnership",
      "outputs": [],
      "stateMutability": "nonpayable",
      "type": "function"
    },
    {
      "inputs": [],
      "name": "usdcToken",
      "outputs": [
        {
          "internalType": "address",
          "name": "",
          "type": "address"
        }
      ],
      "stateMutability": "view",
      "type": "function"
    },
    {
      "inputs": [
        {
          "internalType": "address",
          "name": "token",
          "type": "address"
        },
        {
          "internalType": "uint256",
          "name": "amount",
          "type": "uint256"
        }
      ],
      "name": "withdrawToken",
      "outputs": [],
      "stateMutability": "nonpayable",
      "type": "function"
    },
    {
      "stateMutability": "payable",
      "type": "receive"
    }
  ],
  "bytecode": "0x610160604052348015610010575f5ffd5b5060405161611238038061611283398181016040528101906100329190610658565b836040518060400160405280601081526020017f41747269614d61726b6574506c616365000000000000000000000000000000008152506040518060400160405280600581526020017f312e302e300000000000000000000000000000000000000000000000000000008152506100b25f836103ef60201b90919060201c565b61012081815250506100ce6001826103ef60201b90919060201c565b6101408181525050818051906020012060e08181525050808051906020012061010081815250504660a0818152505061010b61043c60201b60201c565b608081815250503073ffffffffffffffffffffffffffffffffffffffff1660c08173ffffffffffffffffffffffffffffffffffffffff168152505050505f73ffffffffffffffffffffffffffffffffffffffff168173ffffffffffffffffffffffffffffffffffffffff16036101b8575f6040517f1e4fbdf70000000000000000000000000000000000000000000000000000000081526004016101af91906106cb565b60405180910390fd5b6101c78161049660201b60201c565b5060016003819055505f73ffffffffffffffffffffffffffffffffffffffff168473ffffffffffffffffffffffffffffffffffffffff160361023e576040517f08c379a00000000000000000000000000000000000000000000000000000000081526004016102359061073e565b60405180910390fd5b5f73ffffffffffffffffffffffffffffffffffffffff168373ffffffffffffffffffffffffffffffffffffffff16036102ac576040517f08c379a00000000000000000000000000000000000000000000000000000000081526004016102a3906107a6565b60405180910390fd5b5f73ffffffffffffffffffffffffffffffffffffffff168273ffffffffffffffffffffffffffffffffffffffff160361031a576040517f08c379a00000000000000000000000000000000000000000000000000000000081526004016103119061080e565b60405180910390fd5b61271081111561035f576040517f08c379a000000000000000000000000000000000000000000000000000000000815260040161035690610876565b60405180910390fd5b8260045f6101000a81548173ffffffffffffffffffffffffffffffffffffffff021916908373ffffffffffffffffffffffffffffffffffffffff1602179055508160055f6101000a81548173ffffffffffffffffffffffffffffffffffffffff021916908373ffffffffffffffffffffffffffffffffffffffff1602179055508060068190555050505050610d18565b5f602083511015610410576104098361055960201b60201c565b9050610436565b82610420836105be60201b60201c565b5f01908161042e9190610ac8565b5060ff5f1b90505b92915050565b5f7f8b73c3c69bb8fe3d512ecc4cf759cc79239f7b179b0ffacaa9a75d522b39400f60e05161010051463060405160200161047b959493929190610bbe565b60405160208183030381529060405280519060200120905090565b5f60025f9054906101000a900473ffffffffffffffffffffffffffffffffffffffff1690508160025f6101000a81548173ffffffffffffffffffffffffffffffffffffffff021916908373ffffffffffffffffffffffffffffffffffffffff1602179055508173ffffffffffffffffffffffffffffffffffffffff168173ffffffffffffffffffffffffffffffffffffffff167f8be0079c531659141344cd1fd0a4f28419497f9722a3daafe3b4186f6b6457e060405160405180910390a35050565b5f5f829050601f815111156105a557826040517f305a27a900000000000000000000000000000000000000000000000000000000815260040161059c9190610c65565b60405180910390fd5b8051816105b190610cb2565b5f1c175f1b915050919050565b5f819050919050565b5f5ffd5b5f73ffffffffffffffffffffffffffffffffffffffff82169050919050565b5f6105f4826105cb565b9050919050565b610604816105ea565b811461060e575f5ffd5b50565b5f8151905061061f816105fb565b92915050565b5f819050919050565b61063781610625565b8114610641575f5ffd5b50565b5f815190506106528161062e565b92915050565b5f5f5f5f608085870312156106705761066f6105c7565b5b5f61067d87828801610611565b945050602061068e87828801610611565b935050604061069f87828801610611565b92505060606106b087828801610644565b91505092959194509250565b6106c5816105ea565b82525050565b5f6020820190506106de5f8301846106bc565b92915050565b5f82825260208201905092915050565b7f496e76616c696420696e697469616c206f776e657200000000000000000000005f82015250565b5f6107286015836106e4565b9150610733826106f4565b602082019050919050565b5f6020820190508181035f8301526107558161071c565b9050919050565b7f496e76616c6964205553444320746f6b656e00000000000000000000000000005f82015250565b5f6107906012836106e4565b915061079b8261075c565b602082019050919050565b5f6020820190508181035f8301526107bd81610784565b9050919050565b7f496e76616c69642066656520636f6c6c6563746f7200000000000000000000005f82015250565b5f6107f86015836106e4565b9150610803826107c4565b602082019050919050565b5f6020820190508181035f830152610825816107ec565b9050919050565b7f46656520626173697320706f696e747320746f6f2068696768000000000000005f82015250565b5f6108606019836106e4565b915061086b8261082c565b602082019050919050565b5f6020820190508181035f83015261088d81610854565b9050919050565b5f81519050919050565b7f4e487b71000000000000000000000000000000000000000000000000000000005f52604160045260245ffd5b7f4e487b71000000000000000000000000000000000000000000000000000000005f52602260045260245ffd5b5f600282049050600182168061090f57607f821691505b602082108103610922576109216108cb565b5b50919050565b5f819050815f5260205f209050919050565b5f6020601f8301049050919050565b5f82821b905092915050565b5f600883026109847fffffffffffffffffffffffffffffffffffffffffffffffffffffffffffffffff82610949565b61098e8683610949565b95508019841693508086168417925050509392505050565b5f819050919050565b5f6109c96109c46109bf84610625565b6109a6565b610625565b9050919050565b5f819050919050565b6109e2836109af565b6109f66109ee826109d0565b848454610955565b825550505050565b5f5f905090565b610a0d6109fe565b610a188184846109d9565b505050565b5b81811015610a3b57610a305f82610a05565b600181019050610a1e565b5050565b601f821115610a8057610a5181610928565b610a5a8461093a565b81016020851015610a69578190505b610a7d610a758561093a565b830182610a1d565b50505b505050565b5f82821c905092915050565b5f610aa05f1984600802610a85565b1980831691505092915050565b5f610ab88383610a91565b9150826002028217905092915050565b610ad182610894565b67ffffffffffffffff811115610aea57610ae961089e565b5b610af482546108f8565b610aff828285610a3f565b5f60209050601f831160018114610b30575f8415610b1e578287015190505b610b288582610aad565b865550610b8f565b601f198416610b3e86610928565b5f5b82811015610b6557848901518255600182019150602085019450602081019050610b40565b86831015610b825784890151610b7e601f891682610a91565b8355505b6001600288020188555050505b505050505050565b5f819050919050565b610ba981610b97565b82525050565b610bb881610625565b82525050565b5f60a082019050610bd15f830188610ba0565b610bde6020830187610ba0565b610beb6040830186610ba0565b610bf86060830185610baf565b610c0560808301846106bc565b9695505050505050565b8281835e5f83830152505050565b5f601f19601f8301169050919050565b5f610c3782610894565b610c4181856106e4565b9350610c51818560208601610c0f565b610c5a81610c1d565b840191505092915050565b5f6020820190508181035f830152610c7d8184610c2d565b905092915050565b5f81519050919050565b5f819050602082019050919050565b5f610ca98251610b97565b80915050919050565b5f610cbc82610c85565b82610cc684610c8f565b9050610cd181610c9e565b92506020821015610d1157610d0c7fffffffffffffffffffffffffffffffffffffffffffffffffffffffffffffffff83602003600802610949565b831692505b5050919050565b60805160a05160c05160e0516101005161012051610140516153a9610d695f395f611e2f01525f611df401525f61385101525f61383001525f61356201525f6135b801525f6135e101526153a95ff3fe6080604052600436106101e6575f3560e01c806372c27b6211610101578063a42dce8011610094578063c855c08711610063578063c855c087146106e6578063d595bee914610722578063f2fde38b1461074c578063f372111f14610774576101ed565b8063a42dce8014610644578063b3e089a21461066c578063b54b347514610694578063c415b95c146106bc576101ed565b806394dd6833116100d057806394dd68331461057c5780639b23d3d9146105b85780639e281a98146105f4578063a34d60b41461061c576101ed565b806372c27b62146104be57806376f819ac146104e657806384b0196e146105225780638da5cb5b14610552576101ed565b80632c928098116101795780635b2b515f116101485780635b2b515f146103f3578063618dc65e1461042f57806368e1cbec1461046c578063715018a6146104a8576101ed565b80632c9280981461034f578063338b5dea146103795780634c2aa52b146103a1578063523eb537146103cb576101ed565b80631bc92162116101b55780631bc92162146102a95780631bf01e9b146102d357806324a9d853146102fd5780632747601414610327576101ed565b806311eac855146101f157806312fde4b71461021b57806315dacbea146102455780631a2a5e1514610281576101ed565b366101ed57005b5f5ffd5b3480156101fc575f5ffd5b506102056107b0565b60405161021291906139c7565b60405180910390f35b348015610226575f5ffd5b5061022f6107d5565b60405161023c91906139c7565b60405180910390f35b348015610250575f5ffd5b5061026b60048036038101906102669190613a4e565b6107fd565b6040516102789190613acd565b60405180910390f35b34801561028c575f5ffd5b506102a760048036038101906102a29190613ae6565b610915565b005b3480156102b4575f5ffd5b506102bd61096c565b6040516102ca9190613b6c565b60405180910390f35b3480156102de575f5ffd5b506102e7610972565b6040516102f491906139c7565b60405180910390f35b348015610308575f5ffd5b5061031161099a565b60405161031e9190613b94565b60405180910390f35b348015610332575f5ffd5b5061034d60048036038101906103489190613bea565b6109a0565b005b34801561035a575f5ffd5b50610363610b36565b6040516103709190613b94565b60405180910390f35b348015610384575f5ffd5b5061039f600480360381019061039a9190613c3a565b610b3f565b005b3480156103ac575f5ffd5b506103b5610cde565b6040516103c29190613c90565b60405180910390f35b3480156103d6575f5ffd5b506103f160048036038101906103ec9190613ca9565b610d02565b005b3480156103fe575f5ffd5b5061041960048036038101906104149190613cd4565b610dcb565b6040516104269190613d21565b60405180910390f35b34801561043a575f5ffd5b5061045560048036038101906104509190613e76565b610dfc565b604051610463929190613f48565b60405180910390f35b348015610477575f5ffd5b50610492600480360381019061048d9190613cd4565b610f51565b60405161049f9190613d21565b60405180910390f35b3480156104b3575f5ffd5b506104bc610fce565b005b3480156104c9575f5ffd5b506104e460048036038101906104df9190613f76565b610fe1565b005b3480156104f1575f5ffd5b5061050c60048036038101906105079190613fa1565b610ff3565b6040516105199190613b94565b60405180910390f35b34801561052d575f5ffd5b50610536611013565b6040516105499796959493929190614122565b60405180910390f35b34801561055d575f5ffd5b506105666110b8565b60405161057391906139c7565b60405180910390f35b348015610587575f5ffd5b506105a2600480360381019061059d9190613cd4565b6110e0565b6040516105af91906141be565b60405180910390f35b3480156105c3575f5ffd5b506105de60048036038101906105d99190613a4e565b611156565b6040516105eb9190613acd565b60405180910390f35b3480156105ff575f5ffd5b5061061a60048036038101906106159190613c3a565b61126e565b005b348015610627575f5ffd5b50610642600480360381019061063d9190613bea565b611547565b005b34801561064f575f5ffd5b5061066a60048036038101906106659190613ae6565b6117a2565b005b348015610677575f5ffd5b50610692600480360381019061068d9190613ae6565b6117ed565b005b34801561069f575f5ffd5b506106ba60048036038101906106b59190614274565b611838565b005b3480156106c7575f5ffd5b506106d06118af565b6040516106dd91906139c7565b60405180910390f35b3480156106f1575f5ffd5b5061070c60048036038101906107079190613cd4565b6118d4565b60405161071991906141be565b60405180910390f35b34801561072d575f5ffd5b506107366118fe565b6040516107439190613c90565b60405180910390f35b348015610757575f5ffd5b50610772600480360381019061076d9190613ae6565b611922565b005b34801561077f575f5ffd5b5061079a60048036038101906107959190613fa1565b6119a6565b6040516107a79190613b94565b60405180910390f35b60045f9054906101000a900473ffffffffffffffffffffffffffffffffffffffff1681565b5f60055f9054906101000a900473ffffffffffffffffffffffffffffffffffffffff16905090565b5f5f5f61016773ffffffffffffffffffffffffffffffffffffffff166315dacbea60e01b888888886040516024016108389493929190614319565b604051602081830303815290604052907bffffffffffffffffffffffffffffffffffffffffffffffffffffffff19166020820180517bffffffffffffffffffffffffffffffffffffffffffffffffffffffff83818316178352505050506040516108a29190614396565b5f604051808303815f865af19150503d805f81146108db576040519150601f19603f3d011682016040523d82523d5f602084013e6108e0565b606091505b5091509150816108f1576015610906565b8080602001905181019061090591906143e2565b5b60030b92505050949350505050565b5f6109203083611a28565b9050601660030b8114610968576040517f08c379a000000000000000000000000000000000000000000000000000000000815260040161095f90614457565b60405180910390fd5b5050565b61016781565b5f60045f9054906101000a900473ffffffffffffffffffffffffffffffffffffffff16905090565b60065481565b5f8167ffffffffffffffff16116109ec576040517f08c379a00000000000000000000000000000000000000000000000000000000081526004016109e3906144bf565b60405180910390fd5b5f60075f3373ffffffffffffffffffffffffffffffffffffffff1673ffffffffffffffffffffffffffffffffffffffff1681526020019081526020015f205f8567ffffffffffffffff1667ffffffffffffffff1681526020019081526020015f205f9054906101000a900467ffffffffffffffff1667ffffffffffffffff1614610aab576040517f08c379a0000000000000000000000000000000000000000000000000000000008152600401610aa290614527565b60405180910390fd5b8060075f3373ffffffffffffffffffffffffffffffffffffffff1673ffffffffffffffffffffffffffffffffffffffff1681526020019081526020015f205f8567ffffffffffffffff1667ffffffffffffffff1681526020019081526020015f205f6101000a81548167ffffffffffffffff021916908367ffffffffffffffff160217905550505050565b5f600654905090565b610b47611b3a565b5f8111610b89576040517f08c379a0000000000000000000000000000000000000000000000000000000008152600401610b80906144bf565b60405180910390fd5b5f610b9683333085611b80565b9050601660030b8114610bde576040517f08c379a0000000000000000000000000000000000000000000000000000000008152600401610bd59061458f565b60405180910390fd5b8160095f8573ffffffffffffffffffffffffffffffffffffffff1673ffffffffffffffffffffffffffffffffffffffff1681526020019081526020015f205f3373ffffffffffffffffffffffffffffffffffffffff1673ffffffffffffffffffffffffffffffffffffffff1681526020019081526020015f205f828254610c6591906145da565b925050819055508273ffffffffffffffffffffffffffffffffffffffff163373ffffffffffffffffffffffffffffffffffffffff167f8752a472e571a816aea92eec8dae9baf628e840f4929fbcc2d155e6233ff68a784604051610cc99190613b94565b60405180910390a350610cda611c98565b5050565b7f7c8e0ebacd44590996856b3b99d8a13f47c7f9283d758f50585580152ae5debc81565b600160085f3373ffffffffffffffffffffffffffffffffffffffff1673ffffffffffffffffffffffffffffffffffffffff1681526020019081526020015f205f8367ffffffffffffffff1667ffffffffffffffff1681526020019081526020015f205f6101000a81548160ff0219169083151502179055503373ffffffffffffffffffffffffffffffffffffffff167f54562025d61ffa081c7c7e1b98890e1c4333bbdf640cc5c7e01552908ccfeaf982604051610dc09190613d21565b60405180910390a250565b6007602052815f5260405f20602052805f5260405f205f915091509054906101000a900467ffffffffffffffff1681565b5f60605f5f61016773ffffffffffffffffffffffffffffffffffffffff1663618dc65e60e01b8787604051602401610e3592919061460d565b604051602081830303815290604052907bffffffffffffffffffffffffffffffffffffffffffffffffffffffff19166020820180517bffffffffffffffffffffffffffffffffffffffffffffffffffffffff8381831617835250505050604051610e9f9190614396565b5f604051808303815f865af19150503d805f8114610ed8576040519150601f19603f3d011682016040523d82523d5f602084013e610edd565b606091505b50915091507f4af4780e06fe8cb9df64b0794fa6f01399af979175bb988e35e0e57e594567bc8282604051610f1392919061463b565b60405180910390a181610f3657601560405180602001604052805f815250610f3a565b6016815b8160030b9150809450819550505050509250929050565b5f60075f8473ffffffffffffffffffffffffffffffffffffffff1673ffffffffffffffffffffffffffffffffffffffff1681526020019081526020015f205f8367ffffffffffffffff1667ffffffffffffffff1681526020019081526020015f205f9054906101000a900467ffffffffffffffff16905092915050565b610fd6611ca2565b610fdf5f611d29565b565b610fe9611ca2565b8060068190555050565b6009602052815f5260405f20602052805f5260405f205f91509150505481565b5f6060805f5f5f6060611024611dec565b61102c611e26565b46305f5f1b5f67ffffffffffffffff81111561104b5761104a613d52565b5b6040519080825280602002602001820160405280156110795781602001602082028036833780820191505090505b507f0f00000000000000000000000000000000000000000000000000000000000000959493929190965096509650965096509650965090919293949596565b5f60025f9054906101000a900473ffffffffffffffffffffffffffffffffffffffff16905090565b5f60085f8473ffffffffffffffffffffffffffffffffffffffff1673ffffffffffffffffffffffffffffffffffffffff1681526020019081526020015f205f8367ffffffffffffffff1667ffffffffffffffff1681526020019081526020015f205f9054906101000a900460ff16905092915050565b5f5f5f61016773ffffffffffffffffffffffffffffffffffffffff16639b23d3d960e01b888888886040516024016111919493929190614319565b604051602081830303815290604052907bffffffffffffffffffffffffffffffffffffffffffffffffffffffff19166020820180517bffffffffffffffffffffffffffffffffffffffffffffffffffffffff83818316178352505050506040516111fb9190614396565b5f604051808303815f865af19150503d805f8114611234576040519150601f19603f3d011682016040523d82523d5f602084013e611239565b606091505b50915091508161124a57601561125f565b8080602001905181019061125e91906143e2565b5b60030b92505050949350505050565b611276611b3a565b5f81116112b8576040517f08c379a00000000000000000000000000000000000000000000000000000000081526004016112af906144bf565b60405180910390fd5b8060095f8473ffffffffffffffffffffffffffffffffffffffff1673ffffffffffffffffffffffffffffffffffffffff1681526020019081526020015f205f3373ffffffffffffffffffffffffffffffffffffffff1673ffffffffffffffffffffffffffffffffffffffff1681526020019081526020015f20541015611373576040517f08c379a000000000000000000000000000000000000000000000000000000000815260040161136a906146b3565b60405180910390fd5b8060095f8473ffffffffffffffffffffffffffffffffffffffff1673ffffffffffffffffffffffffffffffffffffffff1681526020019081526020015f205f3373ffffffffffffffffffffffffffffffffffffffff1673ffffffffffffffffffffffffffffffffffffffff1681526020019081526020015f205f8282546113fa91906146d1565b925050819055505f61016773ffffffffffffffffffffffffffffffffffffffff1663eca36917843033866040518563ffffffff1660e01b81526004016114439493929190614704565b6020604051808303815f875af115801561145f573d5f5f3e3d5ffd5b505050506040513d601f19601f820116820180604052508101906114839190614771565b60070b9050601681148061149657505f81145b6114d5576040517f08c379a00000000000000000000000000000000000000000000000000000000081526004016114cc9061458f565b60405180910390fd5b8273ffffffffffffffffffffffffffffffffffffffff163373ffffffffffffffffffffffffffffffffffffffff167fd1c19fbcd4551a5edfb66d43d2e337c04837afda3482b42bdf569a8fccdae5fb846040516115329190613b94565b60405180910390a350611543611c98565b5050565b5f8167ffffffffffffffff1611611593576040517f08c379a000000000000000000000000000000000000000000000000000000000815260040161158a906144bf565b60405180910390fd5b5f60075f3373ffffffffffffffffffffffffffffffffffffffff1673ffffffffffffffffffffffffffffffffffffffff1681526020019081526020015f205f8567ffffffffffffffff1667ffffffffffffffff1681526020019081526020015f205f9054906101000a900467ffffffffffffffff1667ffffffffffffffff1614611652576040517f08c379a000000000000000000000000000000000000000000000000000000000815260040161164990614527565b60405180910390fd5b8067ffffffffffffffff1660095f8473ffffffffffffffffffffffffffffffffffffffff1673ffffffffffffffffffffffffffffffffffffffff1681526020019081526020015f205f3373ffffffffffffffffffffffffffffffffffffffff1673ffffffffffffffffffffffffffffffffffffffff1681526020019081526020015f20541015611717576040517f08c379a000000000000000000000000000000000000000000000000000000000815260040161170e9061480c565b60405180910390fd5b8060075f3373ffffffffffffffffffffffffffffffffffffffff1673ffffffffffffffffffffffffffffffffffffffff1681526020019081526020015f205f8567ffffffffffffffff1667ffffffffffffffff1681526020019081526020015f205f6101000a81548167ffffffffffffffff021916908367ffffffffffffffff160217905550505050565b6117aa611ca2565b8060055f6101000a81548173ffffffffffffffffffffffffffffffffffffffff021916908373ffffffffffffffffffffffffffffffffffffffff16021790555050565b6117f5611ca2565b8060045f6101000a81548173ffffffffffffffffffffffffffffffffffffffff021916908373ffffffffffffffffffffffffffffffffffffffff16021790555050565b611840611b3a565b61184a8684611e61565b611858868686868686612162565b5f5f5f5f5f6118678b8961233a565b9450945094509450945061187d8b89878661277b565b61188b8b8987868686612956565b61189a8b898787878787612ec3565b50505050506118a7611c98565b505050505050565b60055f9054906101000a900473ffffffffffffffffffffffffffffffffffffffff1681565b6008602052815f5260405f20602052805f5260405f205f915091509054906101000a900460ff1681565b7f633c1d4e2255ebdd52de1e651f9b6c0fc81a96b36bd3920e942219566c5f819581565b61192a611ca2565b5f73ffffffffffffffffffffffffffffffffffffffff168173ffffffffffffffffffffffffffffffffffffffff160361199a575f6040517f1e4fbdf700000000000000000000000000000000000000000000000000000000815260040161199191906139c7565b60405180910390fd5b6119a381611d29565b50565b5f60095f8473ffffffffffffffffffffffffffffffffffffffff1673ffffffffffffffffffffffffffffffffffffffff1681526020019081526020015f205f8373ffffffffffffffffffffffffffffffffffffffff1673ffffffffffffffffffffffffffffffffffffffff1681526020019081526020015f2054905092915050565b5f5f5f61016773ffffffffffffffffffffffffffffffffffffffff166349146bde60e01b8686604051602401611a5f92919061482a565b604051602081830303815290604052907bffffffffffffffffffffffffffffffffffffffffffffffffffffffff19166020820180517bffffffffffffffffffffffffffffffffffffffffffffffffffffffff8381831617835250505050604051611ac99190614396565b5f604051808303815f865af19150503d805f8114611b02576040519150601f19603f3d011682016040523d82523d5f602084013e611b07565b606091505b509150915081611b18576015611b2d565b80806020019051810190611b2c91906143e2565b5b60030b9250505092915050565b600260035403611b76576040517f3ee5aeb500000000000000000000000000000000000000000000000000000000815260040160405180910390fd5b6002600381905550565b5f5f5f61016773ffffffffffffffffffffffffffffffffffffffff1663eca3691760e01b88888888604051602401611bbb9493929190614704565b604051602081830303815290604052907bffffffffffffffffffffffffffffffffffffffffffffffffffffffff19166020820180517bffffffffffffffffffffffffffffffffffffffffffffffffffffffff8381831617835250505050604051611c259190614396565b5f604051808303815f865af19150503d805f8114611c5e576040519150601f19603f3d011682016040523d82523d5f602084013e611c63565b606091505b509150915081611c74576015611c89565b80806020019051810190611c8891906143e2565b5b60030b92505050949350505050565b6001600381905550565b611caa6132a1565b73ffffffffffffffffffffffffffffffffffffffff16611cc86110b8565b73ffffffffffffffffffffffffffffffffffffffff1614611d2757611ceb6132a1565b6040517f118cdaa7000000000000000000000000000000000000000000000000000000008152600401611d1e91906139c7565b60405180910390fd5b565b5f60025f9054906101000a900473ffffffffffffffffffffffffffffffffffffffff1690508160025f6101000a81548173ffffffffffffffffffffffffffffffffffffffff021916908373ffffffffffffffffffffffffffffffffffffffff1602179055508173ffffffffffffffffffffffffffffffffffffffff168173ffffffffffffffffffffffffffffffffffffffff167f8be0079c531659141344cd1fd0a4f28419497f9722a3daafe3b4186f6b6457e060405160405180910390a35050565b6060611e215f7f00000000000000000000000000000000000000000000000000000000000000006132a890919063ffffffff16565b905090565b6060611e5c60017f00000000000000000000000000000000000000000000000000000000000000006132a890919063ffffffff16565b905090565b806020016020810190611e749190613ae6565b73ffffffffffffffffffffffffffffffffffffffff16826020016020810190611e9d9190613ae6565b73ffffffffffffffffffffffffffffffffffffffff1614611ef3576040517f08c379a0000000000000000000000000000000000000000000000000000000008152600401611eea9061489b565b60405180910390fd5b806060016020810190611f069190613ca9565b67ffffffffffffffff16826060016020810190611f239190613ca9565b67ffffffffffffffff161015611f6e576040517f08c379a0000000000000000000000000000000000000000000000000000000008152600401611f6590614903565b60405180910390fd5b816080016020810190611f819190613ca9565b67ffffffffffffffff164211158015611fb65750806080016020810190611fa89190613ca9565b67ffffffffffffffff164211155b611ff5576040517f08c379a0000000000000000000000000000000000000000000000000000000008152600401611fec9061496b565b60405180910390fd5b60085f835f01602081019061200a9190613ae6565b73ffffffffffffffffffffffffffffffffffffffff1673ffffffffffffffffffffffffffffffffffffffff1681526020019081526020015f205f8360a00160208101906120579190613ca9565b67ffffffffffffffff1667ffffffffffffffff1681526020019081526020015f205f9054906101000a900460ff1615801561211f575060085f825f0160208101906120a29190613ae6565b73ffffffffffffffffffffffffffffffffffffffff1673ffffffffffffffffffffffffffffffffffffffff1681526020019081526020015f205f8260a00160208101906120ef9190613ca9565b67ffffffffffffffff1667ffffffffffffffff1681526020019081526020015f205f9054906101000a900460ff16155b61215e576040517f08c379a0000000000000000000000000000000000000000000000000000000008152600401612155906149d3565b60405180910390fd5b5050565b5f61217c878036038101906121779190614a92565b613355565b90505f612198858036038101906121939190614b5a565b6133cf565b9050875f0160208101906121ac9190613ae6565b73ffffffffffffffffffffffffffffffffffffffff1661220f8389898080601f0160208091040260200160405190810160405280939291908181526020018383808284375f81840152601f19601f82011690508083019250505050505050613449565b73ffffffffffffffffffffffffffffffffffffffff1614612265576040517f08c379a000000000000000000000000000000000000000000000000000000000815260040161225c90614bcf565b60405180910390fd5b845f0160208101906122779190613ae6565b73ffffffffffffffffffffffffffffffffffffffff166122da8286868080601f0160208091040260200160405190810160405280939291908181526020018383808284375f81840152601f19601f82011690508083019250505050505050613449565b73ffffffffffffffffffffffffffffffffffffffff1614612330576040517f08c379a000000000000000000000000000000000000000000000000000000000815260040161232790614c37565b60405180910390fd5b5050505050505050565b5f5f5f5f5f5f60075f895f0160208101906123559190613ae6565b73ffffffffffffffffffffffffffffffffffffffff1673ffffffffffffffffffffffffffffffffffffffff1681526020019081526020015f205f8960a00160208101906123a29190613ca9565b67ffffffffffffffff1667ffffffffffffffff1681526020019081526020015f205f9054906101000a900467ffffffffffffffff1690505f60075f895f0160208101906123ef9190613ae6565b73ffffffffffffffffffffffffffffffffffffffff1673ffffffffffffffffffffffffffffffffffffffff1681526020019081526020015f205f8960a001602081019061243c9190613ca9565b67ffffffffffffffff1667ffffffffffffffff1681526020019081526020015f205f9054906101000a900467ffffffffffffffff1690505f8267ffffffffffffffff1611801561249557505f8167ffffffffffffffff16115b6124d4576040517f08c379a00000000000000000000000000000000000000000000000000000000081526004016124cb90614cc5565b60405180910390fd5b8067ffffffffffffffff168267ffffffffffffffff16106124f557806124f7565b815b96505f8767ffffffffffffffff1611612545576040517f08c379a000000000000000000000000000000000000000000000000000000000815260040161253c90614d2d565b60405180910390fd5b5f61016773ffffffffffffffffffffffffffffffffffffffff1663f2c31ff48b60200160208101906125779190613ae6565b8c5f0160208101906125899190613ae6565b6040518363ffffffff1660e01b81526004016125a692919061482a565b60408051808303815f875af11580156125c1573d5f5f3e3d5ffd5b505050506040513d601f19601f820116820180604052508101906125e59190614d75565b91505080612628576040517f08c379a000000000000000000000000000000000000000000000000000000000815260040161261f90614dfd565b60405180910390fd5b5f61016773ffffffffffffffffffffffffffffffffffffffff1663f2c31ff48b602001602081019061265a9190613ae6565b8c5f01602081019061266c9190613ae6565b6040518363ffffffff1660e01b815260040161268992919061482a565b60408051808303815f875af11580156126a4573d5f5f3e3d5ffd5b505050506040513d601f19601f820116820180604052508101906126c89190614d75565b9150508061270b576040517f08c379a000000000000000000000000000000000000000000000000000000000815260040161270290614e65565b60405180910390fd5b89606001602081019061271e9190613ca9565b67ffffffffffffffff169750878967ffffffffffffffff166127409190614e83565b9650612710600654886127539190614e83565b61275d9190614ef1565b9550858761276b91906146d1565b9450505050509295509295909350565b8060095f60045f9054906101000a900473ffffffffffffffffffffffffffffffffffffffff1673ffffffffffffffffffffffffffffffffffffffff1673ffffffffffffffffffffffffffffffffffffffff1681526020019081526020015f205f865f0160208101906127ed9190613ae6565b73ffffffffffffffffffffffffffffffffffffffff1673ffffffffffffffffffffffffffffffffffffffff1681526020019081526020015f20541015612868576040517f08c379a000000000000000000000000000000000000000000000000000000000815260040161285f90614f6b565b60405180910390fd5b8167ffffffffffffffff1660095f8660200160208101906128899190613ae6565b73ffffffffffffffffffffffffffffffffffffffff1673ffffffffffffffffffffffffffffffffffffffff1681526020019081526020015f205f855f0160208101906128d59190613ae6565b73ffffffffffffffffffffffffffffffffffffffff1673ffffffffffffffffffffffffffffffffffffffff1681526020019081526020015f20541015612950576040517f08c379a000000000000000000000000000000000000000000000000000000000815260040161294790614ff9565b60405180910390fd5b50505050565b8360075f885f01602081019061296c9190613ae6565b73ffffffffffffffffffffffffffffffffffffffff1673ffffffffffffffffffffffffffffffffffffffff1681526020019081526020015f205f8860a00160208101906129b99190613ca9565b67ffffffffffffffff1667ffffffffffffffff1681526020019081526020015f205f8282829054906101000a900467ffffffffffffffff166129fb9190615017565b92506101000a81548167ffffffffffffffff021916908367ffffffffffffffff1602179055508360075f875f016020810190612a379190613ae6565b73ffffffffffffffffffffffffffffffffffffffff1673ffffffffffffffffffffffffffffffffffffffff1681526020019081526020015f205f8760a0016020810190612a849190613ca9565b67ffffffffffffffff1667ffffffffffffffff1681526020019081526020015f205f8282829054906101000a900467ffffffffffffffff16612ac69190615017565b92506101000a81548167ffffffffffffffff021916908367ffffffffffffffff1602179055508367ffffffffffffffff1660095f886020016020810190612b0d9190613ae6565b73ffffffffffffffffffffffffffffffffffffffff1673ffffffffffffffffffffffffffffffffffffffff1681526020019081526020015f205f875f016020810190612b599190613ae6565b73ffffffffffffffffffffffffffffffffffffffff1673ffffffffffffffffffffffffffffffffffffffff1681526020019081526020015f205f828254612ba091906146d1565b925050819055508367ffffffffffffffff1660095f886020016020810190612bc89190613ae6565b73ffffffffffffffffffffffffffffffffffffffff1673ffffffffffffffffffffffffffffffffffffffff1681526020019081526020015f205f885f016020810190612c149190613ae6565b73ffffffffffffffffffffffffffffffffffffffff1673ffffffffffffffffffffffffffffffffffffffff1681526020019081526020015f205f828254612c5b91906145da565b925050819055508260095f60045f9054906101000a900473ffffffffffffffffffffffffffffffffffffffff1673ffffffffffffffffffffffffffffffffffffffff1673ffffffffffffffffffffffffffffffffffffffff1681526020019081526020015f205f885f016020810190612cd49190613ae6565b73ffffffffffffffffffffffffffffffffffffffff1673ffffffffffffffffffffffffffffffffffffffff1681526020019081526020015f205f828254612d1b91906146d1565b925050819055508060095f60045f9054906101000a900473ffffffffffffffffffffffffffffffffffffffff1673ffffffffffffffffffffffffffffffffffffffff1673ffffffffffffffffffffffffffffffffffffffff1681526020019081526020015f205f875f016020810190612d949190613ae6565b73ffffffffffffffffffffffffffffffffffffffff1673ffffffffffffffffffffffffffffffffffffffff1681526020019081526020015f205f828254612ddb91906145da565b925050819055505f821115612ebb578160095f60045f9054906101000a900473ffffffffffffffffffffffffffffffffffffffff1673ffffffffffffffffffffffffffffffffffffffff1673ffffffffffffffffffffffffffffffffffffffff1681526020019081526020015f205f60055f9054906101000a900473ffffffffffffffffffffffffffffffffffffffff1673ffffffffffffffffffffffffffffffffffffffff1673ffffffffffffffffffffffffffffffffffffffff1681526020019081526020015f205f828254612eb391906145da565b925050819055505b505050505050565b5f61016773ffffffffffffffffffffffffffffffffffffffff1663eca36917896020016020810190612ef59190613ae6565b308b5f016020810190612f089190613ae6565b8a6040518563ffffffff1660e01b8152600401612f289493929190614704565b6020604051808303815f875af1158015612f44573d5f5f3e3d5ffd5b505050506040513d601f19601f82011682018060405250810190612f689190614771565b60070b90506016811480612f7b57505f81145b612fba576040517f08c379a0000000000000000000000000000000000000000000000000000000008152600401612fb19061509c565b60405180910390fd5b5f61016773ffffffffffffffffffffffffffffffffffffffff1663eca3691760045f9054906101000a900473ffffffffffffffffffffffffffffffffffffffff16308b5f01602081019061300e9190613ae6565b876040518563ffffffff1660e01b815260040161302e9493929190614704565b6020604051808303815f875af115801561304a573d5f5f3e3d5ffd5b505050506040513d601f19601f8201168201806040525081019061306e9190614771565b60070b9050601681148061308157505f81145b6130c0576040517f08c379a00000000000000000000000000000000000000000000000000000000081526004016130b790615104565b60405180910390fd5b5f8411156131e0575f61016773ffffffffffffffffffffffffffffffffffffffff1663eca3691760045f9054906101000a900473ffffffffffffffffffffffffffffffffffffffff163060055f9054906101000a900473ffffffffffffffffffffffffffffffffffffffff16896040518563ffffffff1660e01b815260040161314c9493929190614704565b6020604051808303815f875af1158015613168573d5f5f3e3d5ffd5b505050506040513d601f19601f8201168201806040525081019061318c9190614771565b60070b9050601681148061319f57505f81145b6131de576040517f08c379a00000000000000000000000000000000000000000000000000000000081526004016131d59061516c565b60405180910390fd5b505b8860200160208101906131f39190613ae6565b73ffffffffffffffffffffffffffffffffffffffff16885f01602081019061321b9190613ae6565b73ffffffffffffffffffffffffffffffffffffffff168a5f0160208101906132439190613ae6565b73ffffffffffffffffffffffffffffffffffffffff167fcff8dafdaf57fa17bf3f7f9afcda9c57abad86b9bf3a23f053299b317381c0918a8a8a8a60405161328e949392919061518a565b60405180910390a4505050505050505050565b5f33905090565b606060ff5f1b83146132c4576132bd8361345c565b905061334f565b8180546132d0906151fa565b80601f01602080910402602001604051908101604052809291908181526020018280546132fc906151fa565b80156133475780601f1061331e57610100808354040283529160200191613347565b820191905f5260205f20905b81548152906001019060200180831161332a57829003601f168201915b505050505090505b92915050565b5f6133c87f7c8e0ebacd44590996856b3b99d8a13f47c7f9283d758f50585580152ae5debc835f015184602001518560400151866060015187608001518860a001516040516020016133ad979695949392919061522a565b604051602081830303815290604052805190602001206134ce565b9050919050565b5f6134427f633c1d4e2255ebdd52de1e651f9b6c0fc81a96b36bd3920e942219566c5f8195835f015184602001518560400151866060015187608001518860a00151604051602001613427979695949392919061522a565b604051602081830303815290604052805190602001206134ce565b9050919050565b5f61345483836134e7565b905092915050565b60605f61346883613511565b90505f602067ffffffffffffffff81111561348657613485613d52565b5b6040519080825280601f01601f1916602001820160405280156134b85781602001600182028036833780820191505090505b5090508181528360208201528092505050919050565b5f6134e06134da61355f565b83613615565b9050919050565b5f5f5f5f6134f58686613655565b92509250925061350582826136aa565b82935050505092915050565b5f5f60ff835f1c169050601f811115613556576040517fb3512b0c00000000000000000000000000000000000000000000000000000000815260040160405180910390fd5b80915050919050565b5f7f000000000000000000000000000000000000000000000000000000000000000073ffffffffffffffffffffffffffffffffffffffff163073ffffffffffffffffffffffffffffffffffffffff161480156135da57507f000000000000000000000000000000000000000000000000000000000000000046145b15613607577f00000000000000000000000000000000000000000000000000000000000000009050613612565b61360f61380c565b90505b90565b5f6040517f190100000000000000000000000000000000000000000000000000000000000081528360028201528260228201526042812091505092915050565b5f5f5f6041845103613695575f5f5f602087015192506040870151915060608701515f1a9050613687888285856138a1565b9550955095505050506136a3565b5f600285515f1b9250925092505b9250925092565b5f60038111156136bd576136bc615297565b5b8260038111156136d0576136cf615297565b5b031561380857600160038111156136ea576136e9615297565b5b8260038111156136fd576136fc615297565b5b03613734576040517ff645eedf00000000000000000000000000000000000000000000000000000000815260040160405180910390fd5b6002600381111561374857613747615297565b5b82600381111561375b5761375a615297565b5b0361379f57805f1c6040517ffce698f70000000000000000000000000000000000000000000000000000000081526004016137969190613b94565b60405180910390fd5b6003808111156137b2576137b1615297565b5b8260038111156137c5576137c4615297565b5b0361380757806040517fd78bce0c0000000000000000000000000000000000000000000000000000000081526004016137fe9190613c90565b60405180910390fd5b5b5050565b5f7f8b73c3c69bb8fe3d512ecc4cf759cc79239f7b179b0ffacaa9a75d522b39400f7f00000000000000000000000000000000000000000000000000000000000000007f000000000000000000000000000000000000000000000000000000000000000046306040516020016138869594939291906152c4565b60405160208183030381529060405280519060200120905090565b5f5f5f7f7fffffffffffffffffffffffffffffff5d576e7357a4501ddfe92f46681b20a0845f1c11156138dd575f60038592509250925061397e565b5f6001888888886040515f81526020016040526040516139009493929190615330565b6020604051602081039080840390855afa158015613920573d5f5f3e3d5ffd5b5050506020604051035190505f73ffffffffffffffffffffffffffffffffffffffff168173ffffffffffffffffffffffffffffffffffffffff1603613971575f60015f5f1b9350935093505061397e565b805f5f5f1b935093509350505b9450945094915050565b5f73ffffffffffffffffffffffffffffffffffffffff82169050919050565b5f6139b182613988565b9050919050565b6139c1816139a7565b82525050565b5f6020820190506139da5f8301846139b8565b92915050565b5f604051905090565b5f5ffd5b5f5ffd5b6139fa816139a7565b8114613a04575f5ffd5b50565b5f81359050613a15816139f1565b92915050565b5f819050919050565b613a2d81613a1b565b8114613a37575f5ffd5b50565b5f81359050613a4881613a24565b92915050565b5f5f5f5f60808587031215613a6657613a656139e9565b5b5f613a7387828801613a07565b9450506020613a8487828801613a07565b9350506040613a9587828801613a07565b9250506060613aa687828801613a3a565b91505092959194509250565b5f8160070b9050919050565b613ac781613ab2565b82525050565b5f602082019050613ae05f830184613abe565b92915050565b5f60208284031215613afb57613afa6139e9565b5b5f613b0884828501613a07565b91505092915050565b5f819050919050565b5f613b34613b2f613b2a84613988565b613b11565b613988565b9050919050565b5f613b4582613b1a565b9050919050565b5f613b5682613b3b565b9050919050565b613b6681613b4c565b82525050565b5f602082019050613b7f5f830184613b5d565b92915050565b613b8e81613a1b565b82525050565b5f602082019050613ba75f830184613b85565b92915050565b5f67ffffffffffffffff82169050919050565b613bc981613bad565b8114613bd3575f5ffd5b50565b5f81359050613be481613bc0565b92915050565b5f5f5f60608486031215613c0157613c006139e9565b5b5f613c0e86828701613bd6565b9350506020613c1f86828701613a07565b9250506040613c3086828701613bd6565b9150509250925092565b5f5f60408385031215613c5057613c4f6139e9565b5b5f613c5d85828601613a07565b9250506020613c6e85828601613a3a565b9150509250929050565b5f819050919050565b613c8a81613c78565b82525050565b5f602082019050613ca35f830184613c81565b92915050565b5f60208284031215613cbe57613cbd6139e9565b5b5f613ccb84828501613bd6565b91505092915050565b5f5f60408385031215613cea57613ce96139e9565b5b5f613cf785828601613a07565b9250506020613d0885828601613bd6565b9150509250929050565b613d1b81613bad565b82525050565b5f602082019050613d345f830184613d12565b92915050565b5f5ffd5b5f5ffd5b5f601f19601f8301169050919050565b7f4e487b71000000000000000000000000000000000000000000000000000000005f52604160045260245ffd5b613d8882613d42565b810181811067ffffffffffffffff82111715613da757613da6613d52565b5b80604052505050565b5f613db96139e0565b9050613dc58282613d7f565b919050565b5f67ffffffffffffffff821115613de457613de3613d52565b5b613ded82613d42565b9050602081019050919050565b828183375f83830152505050565b5f613e1a613e1584613dca565b613db0565b905082815260208101848484011115613e3657613e35613d3e565b5b613e41848285613dfa565b509392505050565b5f82601f830112613e5d57613e5c613d3a565b5b8135613e6d848260208601613e08565b91505092915050565b5f5f60408385031215613e8c57613e8b6139e9565b5b5f613e9985828601613a07565b925050602083013567ffffffffffffffff811115613eba57613eb96139ed565b5b613ec685828601613e49565b9150509250929050565b5f819050919050565b613ee281613ed0565b82525050565b5f81519050919050565b5f82825260208201905092915050565b8281835e5f83830152505050565b5f613f1a82613ee8565b613f248185613ef2565b9350613f34818560208601613f02565b613f3d81613d42565b840191505092915050565b5f604082019050613f5b5f830185613ed9565b8181036020830152613f6d8184613f10565b90509392505050565b5f60208284031215613f8b57613f8a6139e9565b5b5f613f9884828501613a3a565b91505092915050565b5f5f60408385031215613fb757613fb66139e9565b5b5f613fc485828601613a07565b9250506020613fd585828601613a07565b9150509250929050565b5f7fff0000000000000000000000000000000000000000000000000000000000000082169050919050565b61401381613fdf565b82525050565b5f81519050919050565b5f82825260208201905092915050565b5f61403d82614019565b6140478185614023565b9350614057818560208601613f02565b61406081613d42565b840191505092915050565b5f81519050919050565b5f82825260208201905092915050565b5f819050602082019050919050565b61409d81613a1b565b82525050565b5f6140ae8383614094565b60208301905092915050565b5f602082019050919050565b5f6140d08261406b565b6140da8185614075565b93506140e583614085565b805f5b838110156141155781516140fc88826140a3565b9750614107836140ba565b9250506001810190506140e8565b5085935050505092915050565b5f60e0820190506141355f83018a61400a565b81810360208301526141478189614033565b9050818103604083015261415b8188614033565b905061416a6060830187613b85565b61417760808301866139b8565b61418460a0830185613c81565b81810360c083015261419681846140c6565b905098975050505050505050565b5f8115159050919050565b6141b8816141a4565b82525050565b5f6020820190506141d15f8301846141af565b92915050565b5f5ffd5b5f60c082840312156141f0576141ef6141d7565b5b81905092915050565b5f5ffd5b5f5ffd5b5f5f83601f84011261421657614215613d3a565b5b8235905067ffffffffffffffff811115614233576142326141f9565b5b60208301915083600182028301111561424f5761424e6141fd565b5b9250929050565b5f60c0828403121561426b5761426a6141d7565b5b81905092915050565b5f5f5f5f5f5f6101c0878903121561428f5761428e6139e9565b5b5f61429c89828a016141db565b96505060c087013567ffffffffffffffff8111156142bd576142bc6139ed565b5b6142c989828a01614201565b955095505060e06142dc89828a01614256565b9350506101a087013567ffffffffffffffff8111156142fe576142fd6139ed565b5b61430a89828a01614201565b92509250509295509295509295565b5f60808201905061432c5f8301876139b8565b61433960208301866139b8565b61434660408301856139b8565b6143536060830184613b85565b95945050505050565b5f81905092915050565b5f61437082613ee8565b61437a818561435c565b935061438a818560208601613f02565b80840191505092915050565b5f6143a18284614366565b915081905092915050565b5f8160030b9050919050565b6143c1816143ac565b81146143cb575f5ffd5b50565b5f815190506143dc816143b8565b92915050565b5f602082840312156143f7576143f66139e9565b5b5f614404848285016143ce565b91505092915050565b7f4173736f6369617465204661696c6564000000000000000000000000000000005f82015250565b5f614441601083614023565b915061444c8261440d565b602082019050919050565b5f6020820190508181035f83015261446e81614435565b9050919050565b7f7a65726f20616d6f756e740000000000000000000000000000000000000000005f82015250565b5f6144a9600b83614023565b91506144b482614475565b602082019050919050565b5f6020820190508181035f8301526144d68161449d565b9050919050565b7f616c726561647920696e697469616c697a6564000000000000000000000000005f82015250565b5f614511601383614023565b915061451c826144dd565b602082019050919050565b5f6020820190508181035f83015261453e81614505565b9050919050565b7f485453207472616e73666572206661696c6564000000000000000000000000005f82015250565b5f614579601383614023565b915061458482614545565b602082019050919050565b5f6020820190508181035f8301526145a68161456d565b9050919050565b7f4e487b71000000000000000000000000000000000000000000000000000000005f52601160045260245ffd5b5f6145e482613a1b565b91506145ef83613a1b565b9250828201905080821115614607576146066145ad565b5b92915050565b5f6040820190506146205f8301856139b8565b81810360208301526146328184613f10565b90509392505050565b5f60408201905061464e5f8301856141af565b81810360208301526146608184613f10565b90509392505050565b7f696e73756666696369656e7420657363726f772062616c616e636500000000005f82015250565b5f61469d601b83614023565b91506146a882614669565b602082019050919050565b5f6020820190508181035f8301526146ca81614691565b9050919050565b5f6146db82613a1b565b91506146e683613a1b565b92508282039050818111156146fe576146fd6145ad565b5b92915050565b5f6080820190506147175f8301876139b8565b61472460208301866139b8565b61473160408301856139b8565b61473e6060830184613abe565b95945050505050565b61475081613ab2565b811461475a575f5ffd5b50565b5f8151905061476b81614747565b92915050565b5f60208284031215614786576147856139e9565b5b5f6147938482850161475d565b91505092915050565b7f696e73756666696369656e74206465706f73697465642070726f7065727479205f8201527f746f6b656e730000000000000000000000000000000000000000000000000000602082015250565b5f6147f6602683614023565b91506148018261479c565b604082019050919050565b5f6020820190508181035f830152614823816147ea565b9050919050565b5f60408201905061483d5f8301856139b8565b61484a60208301846139b8565b9392505050565b7f70726f7065727479206d69736d617463680000000000000000000000000000005f82015250565b5f614885601183614023565b915061489082614851565b602082019050919050565b5f6020820190508181035f8301526148b281614879565b9050919050565b7f7072696365206d69736d617463680000000000000000000000000000000000005f82015250565b5f6148ed600e83614023565b91506148f8826148b9565b602082019050919050565b5f6020820190508181035f83015261491a816148e1565b9050919050565b7f6f726465722065787069726564000000000000000000000000000000000000005f82015250565b5f614955600d83614023565b915061496082614921565b602082019050919050565b5f6020820190508181035f83015261498281614949565b9050919050565b7f6f726465722063616e63656c6c656400000000000000000000000000000000005f82015250565b5f6149bd600f83614023565b91506149c882614989565b602082019050919050565b5f6020820190508181035f8301526149ea816149b1565b9050919050565b5f5ffd5b5f60c08284031215614a0a57614a096149f1565b5b614a1460c0613db0565b90505f614a2384828501613a07565b5f830152506020614a3684828501613a07565b6020830152506040614a4a84828501613bd6565b6040830152506060614a5e84828501613bd6565b6060830152506080614a7284828501613bd6565b60808301525060a0614a8684828501613bd6565b60a08301525092915050565b5f60c08284031215614aa757614aa66139e9565b5b5f614ab4848285016149f5565b91505092915050565b5f60c08284031215614ad257614ad16149f1565b5b614adc60c0613db0565b90505f614aeb84828501613a07565b5f830152506020614afe84828501613a07565b6020830152506040614b1284828501613bd6565b6040830152506060614b2684828501613bd6565b6060830152506080614b3a84828501613bd6565b60808301525060a0614b4e84828501613bd6565b60a08301525092915050565b5f60c08284031215614b6f57614b6e6139e9565b5b5f614b7c84828501614abd565b91505092915050565b7f696e76616c6964206275792073696700000000000000000000000000000000005f82015250565b5f614bb9600f83614023565b9150614bc482614b85565b602082019050919050565b5f6020820190508181035f830152614be681614bad565b9050919050565b7f696e76616c69642073656c6c20736967000000000000000000000000000000005f82015250565b5f614c21601083614023565b9150614c2c82614bed565b602082019050919050565b5f6020820190508181035f830152614c4e81614c15565b9050919050565b7f6f72646572206e6f7420696e697469616c697a6564206f7220616c72656164795f8201527f2066696c6c656400000000000000000000000000000000000000000000000000602082015250565b5f614caf602783614023565b9150614cba82614c55565b604082019050919050565b5f6020820190508181035f830152614cdc81614ca3565b9050919050565b7f6e6f7468696e6720746f2066696c6c00000000000000000000000000000000005f82015250565b5f614d17600f83614023565b9150614d2282614ce3565b602082019050919050565b5f6020820190508181035f830152614d4481614d0b565b9050919050565b614d54816141a4565b8114614d5e575f5ffd5b50565b5f81519050614d6f81614d4b565b92915050565b5f5f60408385031215614d8b57614d8a6139e9565b5b5f614d988582860161475d565b9250506020614da985828601614d61565b9150509250929050565b7f6275796572206e6f74206b7963000000000000000000000000000000000000005f82015250565b5f614de7600d83614023565b9150614df282614db3565b602082019050919050565b5f6020820190508181035f830152614e1481614ddb565b9050919050565b7f73656c6c6572206e6f74206b79630000000000000000000000000000000000005f82015250565b5f614e4f600e83614023565b9150614e5a82614e1b565b602082019050919050565b5f6020820190508181035f830152614e7c81614e43565b9050919050565b5f614e8d82613a1b565b9150614e9883613a1b565b9250828202614ea681613a1b565b91508282048414831517614ebd57614ebc6145ad565b5b5092915050565b7f4e487b71000000000000000000000000000000000000000000000000000000005f52601260045260245ffd5b5f614efb82613a1b565b9150614f0683613a1b565b925082614f1657614f15614ec4565b5b828204905092915050565b7f627579657220696e73756666696369656e74205553444320657363726f7700005f82015250565b5f614f55601e83614023565b9150614f6082614f21565b602082019050919050565b5f6020820190508181035f830152614f8281614f49565b9050919050565b7f73656c6c657220696e73756666696369656e742070726f7065727479206573635f8201527f726f770000000000000000000000000000000000000000000000000000000000602082015250565b5f614fe3602383614023565b9150614fee82614f89565b604082019050919050565b5f6020820190508181035f83015261501081614fd7565b9050919050565b5f61502182613bad565b915061502c83613bad565b9250828203905067ffffffffffffffff81111561504c5761504b6145ad565b5b92915050565b7f70726f7065727479207472616e73666572206661696c656400000000000000005f82015250565b5f615086601883614023565b915061509182615052565b602082019050919050565b5f6020820190508181035f8301526150b38161507a565b9050919050565b7f55534443207472616e7366657220746f2073656c6c6572206661696c656400005f82015250565b5f6150ee601e83614023565b91506150f9826150ba565b602082019050919050565b5f6020820190508181035f83015261511b816150e2565b9050919050565b7f666565207472616e73666572206661696c6564000000000000000000000000005f82015250565b5f615156601383614023565b915061516182615122565b602082019050919050565b5f6020820190508181035f8301526151838161514a565b9050919050565b5f60808201905061519d5f830187613d12565b6151aa6020830186613d12565b6151b76040830185613b85565b6151c46060830184613b85565b95945050505050565b7f4e487b71000000000000000000000000000000000000000000000000000000005f52602260045260245ffd5b5f600282049050600182168061521157607f821691505b602082108103615224576152236151cd565b5b50919050565b5f60e08201905061523d5f83018a613c81565b61524a60208301896139b8565b61525760408301886139b8565b6152646060830187613d12565b6152716080830186613d12565b61527e60a0830185613d12565b61528b60c0830184613d12565b98975050505050505050565b7f4e487b71000000000000000000000000000000000000000000000000000000005f52602160045260245ffd5b5f60a0820190506152d75f830188613c81565b6152e46020830187613c81565b6152f16040830186613c81565b6152fe6060830185613b85565b61530b60808301846139b8565b9695505050505050565b5f60ff82169050919050565b61532a81615315565b82525050565b5f6080820190506153435f830187613c81565b6153506020830186615321565b61535d6040830185613c81565b61536a6060830184613c81565b9594505050505056fea26469706673582212206507044aabe0c31741452d63a24d7105a7661adac7e66475ac37340f9d24b45464736f6c634300081c0033",
  "linkReferences": {},
  "deployedLinkReferences": {},
  "immutableReferences": {
    "3769": [
      {
        "length": 32,
        "start": 13793
      }
    ],
    "3771": [
      {
        "length": 32,
        "start": 13752
      }
    ],
    "3773": [
      {
        "length": 32,
        "start": 13666
      }
    ],
    "3775": [
      {
        "length": 32,
        "start": 14384
      }
    ],
    "3777": [
      {
        "length": 32,
        "start": 14417
      }
    ],
    "3780": [
      {
        "length": 32,
        "start": 7668
      }
    ],
    "3783": [
      {
        "length": 32,
        "start": 7727
      }
    ]
  },
  "inputSourceName": "project/contracts/MarketPlace.sol",
  "buildInfoId": "solc-0_8_28-8b4de6de5ce3206fba14a641991127c1f330e4be"
}