{
  "_format": "hh3-artifact-1",
  "contractName": "MarketPlace",
  "sourceName": "contracts/MarketPlace.sol",
  "abi": [
    {
      "inputs": [
        {
          "internalType": "address",
          "name": "_initialOwner",
          "type": "address"
        },
        {
          "internalType": "address",
          "name": "_usdcToken",
          "type": "address"
        },
        {
          "internalType": "address",
          "name": "_feeCollector",
          "type": "address"
        },
        {
          "internalType": "uint256",
          "name": "_feeBps",
          "type": "uint256"
        }
      ],
      "stateMutability": "nonpayable",
      "type": "constructor"
    },
    {
      "inputs": [],
      "name": "InvalidShortString",
      "type": "error"
    },
    {
      "inputs": [
        {
          "internalType": "address",
          "name": "owner",
          "type": "address"
        }
      ],
      "name": "OwnableInvalidOwner",
      "type": "error"
    },
    {
      "inputs": [
        {
          "internalType": "address",
          "name": "account",
          "type": "address"
        }
      ],
      "name": "OwnableUnauthorizedAccount",
      "type": "error"
    },
    {
      "inputs": [],
      "name": "ReentrancyGuardReentrantCall",
      "type": "error"
    },
    {
      "inputs": [
        {
          "internalType": "string",
          "name": "str",
          "type": "string"
        }
      ],
      "name": "StringTooLong",
      "type": "error"
    },
    {
      "anonymous": false,
      "inputs": [
        {
          "indexed": false,
          "internalType": "bool",
          "name": "",
          "type": "bool"
        },
        {
          "indexed": false,
          "internalType": "bytes",
          "name": "",
          "type": "bytes"
        }
      ],
      "name": "CallResponseEvent",
      "type": "event"
    },
    {
      "anonymous": false,
      "inputs": [
        {
          "indexed": true,
          "internalType": "address",
          "name": "account",
          "type": "address"
        },
        {
          "indexed": true,
          "internalType": "address",
          "name": "token",
          "type": "address"
        },
        {
          "indexed": false,
          "internalType": "uint256",
          "name": "amount",
          "type": "uint256"
        }
      ],
      "name": "Deposited",
      "type": "event"
    },
    {
      "anonymous": false,
      "inputs": [],
      "name": "EIP712DomainChanged",
      "type": "event"
    },
    {
      "anonymous": false,
      "inputs": [
        {
          "indexed": true,
          "internalType": "address",
          "name": "maker",
          "type": "address"
        },
        {
          "indexed": false,
          "internalType": "uint64",
          "name": "nonce",
          "type": "uint64"
        }
      ],
      "name": "OrderCancelled",
      "type": "event"
    },
    {
      "anonymous": false,
      "inputs": [
        {
          "indexed": true,
          "internalType": "address",
          "name": "previousOwner",
          "type": "address"
        },
        {
          "indexed": true,
          "internalType": "address",
          "name": "newOwner",
          "type": "address"
        }
      ],
      "name": "OwnershipTransferred",
      "type": "event"
    },
    {
      "anonymous": false,
      "inputs": [
        {
          "indexed": true,
          "internalType": "address",
          "name": "buyer",
          "type": "address"
        },
        {
          "indexed": true,
          "internalType": "address",
          "name": "seller",
          "type": "address"
        },
        {
          "indexed": true,
          "internalType": "address",
          "name": "propertyToken",
          "type": "address"
        },
        {
          "indexed": false,
          "internalType": "uint256",
          "name": "filled",
          "type": "uint256"
        },
        {
          "indexed": false,
          "internalType": "uint256",
          "name": "pricePerShare",
          "type": "uint256"
        },
        {
          "indexed": false,
          "internalType": "uint256",
          "name": "totalNotional",
          "type": "uint256"
        },
        {
          "indexed": false,
          "internalType": "uint256",
          "name": "fee",
          "type": "uint256"
        }
      ],
      "name": "TradeExecuted",
      "type": "event"
    },
    {
      "anonymous": false,
      "inputs": [
        {
          "indexed": true,
          "internalType": "address",
          "name": "account",
          "type": "address"
        },
        {
          "indexed": true,
          "internalType": "address",
          "name": "token",
          "type": "address"
        },
        {
          "indexed": false,
          "internalType": "uint256",
          "name": "amount",
          "type": "uint256"
        }
      ],
      "name": "Withdrawn",
      "type": "event"
    },
    {
      "inputs": [],
      "name": "BUY_ORDER_TYPEHASH",
      "outputs": [
        {
          "internalType": "bytes32",
          "name": "",
          "type": "bytes32"
        }
      ],
      "stateMutability": "view",
      "type": "function"
    },
    {
      "inputs": [],
      "name": "HTS",
      "outputs": [
        {
          "internalType": "contract IHederaTokenService",
          "name": "",
          "type": "address"
        }
      ],
      "stateMutability": "view",
      "type": "function"
    },
    {
      "inputs": [],
      "name": "SELL_ORDER_TYPEHASH",
      "outputs": [
        {
          "internalType": "bytes32",
          "name": "",
          "type": "bytes32"
        }
      ],
      "stateMutability": "view",
      "type": "function"
    },
    {
      "inputs": [
        {
          "internalType": "uint64",
          "name": "nonce",
          "type": "uint64"
        }
      ],
      "name": "cancelOrder",
      "outputs": [],
      "stateMutability": "nonpayable",
      "type": "function"
    },
    {
      "inputs": [
        {
          "internalType": "address",
          "name": "",
          "type": "address"
        },
        {
          "internalType": "uint256",
          "name": "",
          "type": "uint256"
        }
      ],
      "name": "cancelled",
      "outputs": [
        {
          "internalType": "bool",
          "name": "",
          "type": "bool"
        }
      ],
      "stateMutability": "view",
      "type": "function"
    },
    {
      "inputs": [
        {
          "internalType": "address",
          "name": "token",
          "type": "address"
        },
        {
          "internalType": "uint256",
          "name": "amount",
          "type": "uint256"
        }
      ],
      "name": "depositToken",
      "outputs": [],
      "stateMutability": "nonpayable",
      "type": "function"
    },
    {
      "inputs": [],
      "name": "eip712Domain",
      "outputs": [
        {
          "internalType": "bytes1",
          "name": "fields",
          "type": "bytes1"
        },
        {
          "internalType": "string",
          "name": "name",
          "type": "string"
        },
        {
          "internalType": "string",
          "name": "version",
          "type": "string"
        },
        {
          "internalType": "uint256",
          "name": "chainId",
          "type": "uint256"
        },
        {
          "internalType": "address",
          "name": "verifyingContract",
          "type": "address"
        },
        {
          "internalType": "bytes32",
          "name": "salt",
          "type": "bytes32"
        },
        {
          "internalType": "uint256[]",
          "name": "extensions",
          "type": "uint256[]"
        }
      ],
      "stateMutability": "view",
      "type": "function"
    },
    {
      "inputs": [
        {
          "internalType": "address",
          "name": "",
          "type": "address"
        },
        {
          "internalType": "address",
          "name": "",
          "type": "address"
        }
      ],
      "name": "escrowBalances",
      "outputs": [
        {
          "internalType": "uint256",
          "name": "",
          "type": "uint256"
        }
      ],
      "stateMutability": "view",
      "type": "function"
    },
    {
      "inputs": [],
      "name": "feeBps",
      "outputs": [
        {
          "internalType": "uint256",
          "name": "",
          "type": "uint256"
        }
      ],
      "stateMutability": "view",
      "type": "function"
    },
    {
      "inputs": [],
      "name": "feeCollector",
      "outputs": [
        {
          "internalType": "address",
          "name": "",
          "type": "address"
        }
      ],
      "stateMutability": "view",
      "type": "function"
    },
    {
      "inputs": [
        {
          "internalType": "address",
          "name": "token",
          "type": "address"
        },
        {
          "internalType": "address",
          "name": "account",
          "type": "address"
        }
      ],
      "name": "getEscrowBalance",
      "outputs": [
        {
          "internalType": "uint256",
          "name": "",
          "type": "uint256"
        }
      ],
      "stateMutability": "view",
      "type": "function"
    },
    {
      "inputs": [],
      "name": "getFeeBps",
      "outputs": [
        {
          "internalType": "uint256",
          "name": "",
          "type": "uint256"
        }
      ],
      "stateMutability": "view",
      "type": "function"
    },
    {
      "inputs": [],
      "name": "getFeeCollector",
      "outputs": [
        {
          "internalType": "address",
          "name": "",
          "type": "address"
        }
      ],
      "stateMutability": "view",
      "type": "function"
    },
    {
      "inputs": [
        {
          "internalType": "address",
          "name": "maker",
          "type": "address"
        },
        {
          "internalType": "uint64",
          "name": "nonce",
          "type": "uint64"
        }
      ],
      "name": "getRemaining",
      "outputs": [
        {
          "internalType": "uint256",
          "name": "",
          "type": "uint256"
        }
      ],
      "stateMutability": "view",
      "type": "function"
    },
    {
      "inputs": [],
      "name": "getUSDC",
      "outputs": [
        {
          "internalType": "address",
          "name": "",
          "type": "address"
        }
      ],
      "stateMutability": "view",
      "type": "function"
    },
    {
      "inputs": [
        {
          "internalType": "uint64",
          "name": "nonce",
          "type": "uint64"
        },
        {
          "internalType": "address",
          "name": "",
          "type": "address"
        },
        {
          "internalType": "uint64",
          "name": "amount",
          "type": "uint64"
        }
      ],
      "name": "initBuyOrder",
      "outputs": [],
      "stateMutability": "nonpayable",
      "type": "function"
    },
    {
      "inputs": [
        {
          "internalType": "uint64",
          "name": "nonce",
          "type": "uint64"
        },
        {
          "internalType": "address",
          "name": "propertyToken",
          "type": "address"
        },
        {
          "internalType": "uint64",
          "name": "amount",
          "type": "uint64"
        }
      ],
      "name": "initSellOrder",
      "outputs": [],
      "stateMutability": "nonpayable",
      "type": "function"
    },
    {
      "inputs": [
        {
          "internalType": "address",
          "name": "maker",
          "type": "address"
        },
        {
          "internalType": "uint64",
          "name": "nonce",
          "type": "uint64"
        }
      ],
      "name": "isCancelled",
      "outputs": [
        {
          "internalType": "bool",
          "name": "",
          "type": "bool"
        }
      ],
      "stateMutability": "view",
      "type": "function"
    },
    {
      "inputs": [],
      "name": "owner",
      "outputs": [
        {
          "internalType": "address",
          "name": "",
          "type": "address"
        }
      ],
      "stateMutability": "view",
      "type": "function"
    },
    {
      "inputs": [
        {
          "internalType": "address",
          "name": "token",
          "type": "address"
        },
        {
          "internalType": "bytes",
          "name": "encodedFunctionSelector",
          "type": "bytes"
        }
      ],
      "name": "redirectForToken",
      "outputs": [
        {
          "internalType": "int256",
          "name": "responseCode",
          "type": "int256"
        },
        {
          "internalType": "bytes",
          "name": "response",
          "type": "bytes"
        }
      ],
      "stateMutability": "nonpayable",
      "type": "function"
    },
    {
      "inputs": [
        {
          "internalType": "address",
          "name": "",
          "type": "address"
        },
        {
          "internalType": "uint256",
          "name": "",
          "type": "uint256"
        }
      ],
      "name": "remaining",
      "outputs": [
        {
          "internalType": "uint256",
          "name": "",
          "type": "uint256"
        }
      ],
      "stateMutability": "view",
      "type": "function"
    },
    {
      "inputs": [],
      "name": "renounceOwnership",
      "outputs": [],
      "stateMutability": "nonpayable",
      "type": "function"
    },
    {
      "inputs": [
        {
          "internalType": "uint256",
          "name": "bps",
          "type": "uint256"
        }
      ],
      "name": "setFeeBps",
      "outputs": [],
      "stateMutability": "nonpayable",
      "type": "function"
    },
    {
      "inputs": [
        {
          "internalType": "address",
          "name": "fc",
          "type": "address"
        }
      ],
      "name": "setFeeCollector",
      "outputs": [],
      "stateMutability": "nonpayable",
      "type": "function"
    },
    {
      "inputs": [
        {
          "internalType": "address",
          "name": "token",
          "type": "address"
        }
      ],
      "name": "setUSDC",
      "outputs": [],
      "stateMutability": "nonpayable",
      "type": "function"
    },
    {
      "inputs": [
        {
          "components": [
            {
              "internalType": "address",
              "name": "maker",
              "type": "address"
            },
            {
              "internalType": "address",
              "name": "propertyToken",
              "type": "address"
            },
            {
              "internalType": "uint256",
              "name": "remainingAmount",
              "type": "uint256"
            },
            {
              "internalType": "uint256",
              "name": "pricePerShare",
              "type": "uint256"
            },
            {
              "internalType": "uint256",
              "name": "expiry",
              "type": "uint256"
            },
            {
              "internalType": "uint256",
              "name": "nonce",
              "type": "uint256"
            }
          ],
          "internalType": "struct MarketPlace.BuyOrder",
          "name": "buy",
          "type": "tuple"
        },
        {
          "components": [
            {
              "internalType": "address",
              "name": "maker",
              "type": "address"
            },
            {
              "internalType": "address",
              "name": "propertyToken",
              "type": "address"
            },
            {
              "internalType": "uint256",
              "name": "remainingAmount",
              "type": "uint256"
            },
            {
              "internalType": "uint256",
              "name": "pricePerShare",
              "type": "uint256"
            },
            {
              "internalType": "uint256",
              "name": "expiry",
              "type": "uint256"
            },
            {
              "internalType": "uint256",
              "name": "nonce",
              "type": "uint256"
            }
          ],
          "internalType": "struct MarketPlace.SellOrder",
          "name": "sell",
          "type": "tuple"
        }
      ],
      "name": "settle",
      "outputs": [],
      "stateMutability": "nonpayable",
      "type": "function"
    },
    {
      "inputs": [
        {
          "internalType": "address",
          "name": "tokenId",
          "type": "address"
        }
      ],
      "name": "tokenAssociate",
      "outputs": [],
      "stateMutability": "nonpayable",
      "type": "function"
    },
    {
      "inputs": [
        {
          "internalType": "address",
          "name": "token",
          "type": "address"
        },
        {
          "internalType": "address",
          "name": "from",
          "type": "address"
        },
        {
          "internalType": "address",
          "name": "to",
          "type": "address"
        },
        {
          "internalType": "uint256",
          "name": "amount",
          "type": "uint256"
        }
      ],
      "name": "transferFrom",
      "outputs": [
        {
          "internalType": "int64",
          "name": "responseCode",
          "type": "int64"
        }
      ],
      "stateMutability": "nonpayable",
      "type": "function"
    },
    {
      "inputs": [
        {
          "internalType": "address",
          "name": "token",
          "type": "address"
        },
        {
          "internalType": "address",
          "name": "from",
          "type": "address"
        },
        {
          "internalType": "address",
          "name": "to",
          "type": "address"
        },
        {
          "internalType": "uint256",
          "name": "serialNumber",
          "type": "uint256"
        }
      ],
      "name": "transferFromNFT",
      "outputs": [
        {
          "internalType": "int64",
          "name": "responseCode",
          "type": "int64"
        }
      ],
      "stateMutability": "nonpayable",
      "type": "function"
    },
    {
      "inputs": [
        {
          "internalType": "address",
          "name": "newOwner",
          "type": "address"
        }
      ],
      "name": "transferOwnership",
      "outputs": [],
      "stateMutability": "nonpayable",
      "type": "function"
    },
    {
      "inputs": [],
      "name": "usdcToken",
      "outputs": [
        {
          "internalType": "address",
          "name": "",
          "type": "address"
        }
      ],
      "stateMutability": "view",
      "type": "function"
    },
    {
      "inputs": [
        {
          "internalType": "address",
          "name": "token",
          "type": "address"
        },
        {
          "internalType": "uint256",
          "name": "amount",
          "type": "uint256"
        }
      ],
      "name": "withdrawToken",
      "outputs": [],
      "stateMutability": "nonpayable",
      "type": "function"
    },
    {
      "stateMutability": "payable",
      "type": "receive"
    }
  ],
  "bytecode": "0x610160604052348015610010575f5ffd5b5060405161401238038061401283398181016040528101906100329190610658565b836040518060400160405280601081526020017f41747269614d61726b6574506c616365000000000000000000000000000000008152506040518060400160405280600581526020017f312e302e300000000000000000000000000000000000000000000000000000008152506100b25f836103ef60201b90919060201c565b61012081815250506100ce6001826103ef60201b90919060201c565b6101408181525050818051906020012060e08181525050808051906020012061010081815250504660a0818152505061010b61043c60201b60201c565b608081815250503073ffffffffffffffffffffffffffffffffffffffff1660c08173ffffffffffffffffffffffffffffffffffffffff168152505050505f73ffffffffffffffffffffffffffffffffffffffff168173ffffffffffffffffffffffffffffffffffffffff16036101b8575f6040517f1e4fbdf70000000000000000000000000000000000000000000000000000000081526004016101af91906106cb565b60405180910390fd5b6101c78161049660201b60201c565b5060016003819055505f73ffffffffffffffffffffffffffffffffffffffff168473ffffffffffffffffffffffffffffffffffffffff160361023e576040517f08c379a00000000000000000000000000000000000000000000000000000000081526004016102359061073e565b60405180910390fd5b5f73ffffffffffffffffffffffffffffffffffffffff168373ffffffffffffffffffffffffffffffffffffffff16036102ac576040517f08c379a00000000000000000000000000000000000000000000000000000000081526004016102a3906107a6565b60405180910390fd5b5f73ffffffffffffffffffffffffffffffffffffffff168273ffffffffffffffffffffffffffffffffffffffff160361031a576040517f08c379a00000000000000000000000000000000000000000000000000000000081526004016103119061080e565b60405180910390fd5b61271081111561035f576040517f08c379a000000000000000000000000000000000000000000000000000000000815260040161035690610876565b60405180910390fd5b8260045f6101000a81548173ffffffffffffffffffffffffffffffffffffffff021916908373ffffffffffffffffffffffffffffffffffffffff1602179055508160055f6101000a81548173ffffffffffffffffffffffffffffffffffffffff021916908373ffffffffffffffffffffffffffffffffffffffff1602179055508060068190555050505050610d18565b5f602083511015610410576104098361055960201b60201c565b9050610436565b82610420836105be60201b60201c565b5f01908161042e9190610ac8565b5060ff5f1b90505b92915050565b5f7f8b73c3c69bb8fe3d512ecc4cf759cc79239f7b179b0ffacaa9a75d522b39400f60e05161010051463060405160200161047b959493929190610bbe565b60405160208183030381529060405280519060200120905090565b5f60025f9054906101000a900473ffffffffffffffffffffffffffffffffffffffff1690508160025f6101000a81548173ffffffffffffffffffffffffffffffffffffffff021916908373ffffffffffffffffffffffffffffffffffffffff1602179055508173ffffffffffffffffffffffffffffffffffffffff168173ffffffffffffffffffffffffffffffffffffffff167f8be0079c531659141344cd1fd0a4f28419497f9722a3daafe3b4186f6b6457e060405160405180910390a35050565b5f5f829050601f815111156105a557826040517f305a27a900000000000000000000000000000000000000000000000000000000815260040161059c9190610c65565b60405180910390fd5b8051816105b190610cb2565b5f1c175f1b915050919050565b5f819050919050565b5f5ffd5b5f73ffffffffffffffffffffffffffffffffffffffff82169050919050565b5f6105f4826105cb565b9050919050565b610604816105ea565b811461060e575f5ffd5b50565b5f8151905061061f816105fb565b92915050565b5f819050919050565b61063781610625565b8114610641575f5ffd5b50565b5f815190506106528161062e565b92915050565b5f5f5f5f608085870312156106705761066f6105c7565b5b5f61067d87828801610611565b945050602061068e87828801610611565b935050604061069f87828801610611565b92505060606106b087828801610644565b91505092959194509250565b6106c5816105ea565b82525050565b5f6020820190506106de5f8301846106bc565b92915050565b5f82825260208201905092915050565b7f496e76616c696420696e697469616c206f776e657200000000000000000000005f82015250565b5f6107286015836106e4565b9150610733826106f4565b602082019050919050565b5f6020820190508181035f8301526107558161071c565b9050919050565b7f496e76616c6964205553444320746f6b656e00000000000000000000000000005f82015250565b5f6107906012836106e4565b915061079b8261075c565b602082019050919050565b5f6020820190508181035f8301526107bd81610784565b9050919050565b7f496e76616c69642066656520636f6c6c6563746f7200000000000000000000005f82015250565b5f6107f86015836106e4565b9150610803826107c4565b602082019050919050565b5f6020820190508181035f830152610825816107ec565b9050919050565b7f46656520626173697320706f696e747320746f6f2068696768000000000000005f82015250565b5f6108606019836106e4565b915061086b8261082c565b602082019050919050565b5f6020820190508181035f83015261088d81610854565b9050919050565b5f81519050919050565b7f4e487b71000000000000000000000000000000000000000000000000000000005f52604160045260245ffd5b7f4e487b71000000000000000000000000000000000000000000000000000000005f52602260045260245ffd5b5f600282049050600182168061090f57607f821691505b602082108103610922576109216108cb565b5b50919050565b5f819050815f5260205f209050919050565b5f6020601f8301049050919050565b5f82821b905092915050565b5f600883026109847fffffffffffffffffffffffffffffffffffffffffffffffffffffffffffffffff82610949565b61098e8683610949565b95508019841693508086168417925050509392505050565b5f819050919050565b5f6109c96109c46109bf84610625565b6109a6565b610625565b9050919050565b5f819050919050565b6109e2836109af565b6109f66109ee826109d0565b848454610955565b825550505050565b5f5f905090565b610a0d6109fe565b610a188184846109d9565b505050565b5b81811015610a3b57610a305f82610a05565b600181019050610a1e565b5050565b601f821115610a8057610a5181610928565b610a5a8461093a565b81016020851015610a69578190505b610a7d610a758561093a565b830182610a1d565b50505b505050565b5f82821c905092915050565b5f610aa05f1984600802610a85565b1980831691505092915050565b5f610ab88383610a91565b9150826002028217905092915050565b610ad182610894565b67ffffffffffffffff811115610aea57610ae961089e565b5b610af482546108f8565b610aff828285610a3f565b5f60209050601f831160018114610b30575f8415610b1e578287015190505b610b288582610aad565b865550610b8f565b601f198416610b3e86610928565b5f5b82811015610b6557848901518255600182019150602085019450602081019050610b40565b86831015610b825784890151610b7e601f891682610a91565b8355505b6001600288020188555050505b505050505050565b5f819050919050565b610ba981610b97565b82525050565b610bb881610625565b82525050565b5f60a082019050610bd15f830188610ba0565b610bde6020830187610ba0565b610beb6040830186610ba0565b610bf86060830185610baf565b610c0560808301846106bc565b9695505050505050565b8281835e5f83830152505050565b5f601f19601f8301169050919050565b5f610c3782610894565b610c4181856106e4565b9350610c51818560208601610c0f565b610c5a81610c1d565b840191505092915050565b5f6020820190508181035f830152610c7d8184610c2d565b905092915050565b5f81519050919050565b5f819050602082019050919050565b5f610ca98251610b97565b80915050919050565b5f610cbc82610c85565b82610cc684610c8f565b9050610cd181610c9e565b92506020821015610d1157610d0c7fffffffffffffffffffffffffffffffffffffffffffffffffffffffffffffffff83602003600802610949565b831692505b5050919050565b60805160a05160c05160e0516101005161012051610140516132b8610d5a5f395f611c9601525f611c5b01525f50505f50505f50505f50505f50506132b85ff3fe6080604052600436106101e6575f3560e01c806376f819ac11610101578063b3e089a211610094578063d595bee911610063578063d595bee9146106e6578063e1a977ec14610710578063f2fde38b1461074c578063f372111f14610774576101ed565b8063b3e089a214610630578063b544ccc014610658578063b874f69514610680578063c415b95c146106bc576101ed565b80639b23d3d9116100d05780639b23d3d91461057c5780639e281a98146105b8578063a34d60b4146105e0578063a42dce8014610608576101ed565b806376f819ac146104aa57806384b0196e146104e65780638da5cb5b1461051657806394dd683314610540576101ed565b80632c92809811610179578063618dc65e11610148578063618dc65e146103f357806368e1cbec14610430578063715018a61461046c57806372c27b6214610482576101ed565b80632c9280981461034f578063338b5dea146103795780634c2aa52b146103a1578063523eb537146103cb576101ed565b80631bc92162116101b55780631bc92162146102a95780631bf01e9b146102d357806324a9d853146102fd5780632747601414610327576101ed565b806311eac855146101f157806312fde4b71461021b57806315dacbea146102455780631a2a5e1514610281576101ed565b366101ed57005b5f5ffd5b3480156101fc575f5ffd5b506102056107b0565b6040516102129190612202565b60405180910390f35b348015610226575f5ffd5b5061022f6107d5565b60405161023c9190612202565b60405180910390f35b348015610250575f5ffd5b5061026b60048036038101906102669190612289565b6107fd565b6040516102789190612308565b60405180910390f35b34801561028c575f5ffd5b506102a760048036038101906102a29190612321565b610915565b005b3480156102b4575f5ffd5b506102bd61096c565b6040516102ca91906123a7565b60405180910390f35b3480156102de575f5ffd5b506102e7610972565b6040516102f49190612202565b60405180910390f35b348015610308575f5ffd5b5061031161099a565b60405161031e91906123cf565b60405180910390f35b348015610332575f5ffd5b5061034d60048036038101906103489190612425565b6109a0565b005b34801561035a575f5ffd5b50610363610aee565b60405161037091906123cf565b60405180910390f35b348015610384575f5ffd5b5061039f600480360381019061039a9190612475565b610af7565b005b3480156103ac575f5ffd5b506103b5610c96565b6040516103c291906124cb565b60405180910390f35b3480156103d6575f5ffd5b506103f160048036038101906103ec91906124e4565b610cba565b005b3480156103fe575f5ffd5b506104196004803603810190610414919061264b565b610d79565b60405161042792919061271d565b60405180910390f35b34801561043b575f5ffd5b506104566004803603810190610451919061274b565b610ece565b60405161046391906123cf565b60405180910390f35b348015610477575f5ffd5b50610480610f2e565b005b34801561048d575f5ffd5b506104a860048036038101906104a39190612789565b610f41565b005b3480156104b5575f5ffd5b506104d060048036038101906104cb91906127b4565b610f53565b6040516104dd91906123cf565b60405180910390f35b3480156104f1575f5ffd5b506104fa610f73565b60405161050d9796959493929190612935565b60405180910390f35b348015610521575f5ffd5b5061052a611018565b6040516105379190612202565b60405180910390f35b34801561054b575f5ffd5b506105666004803603810190610561919061274b565b611040565b60405161057391906129d1565b60405180910390f35b348015610587575f5ffd5b506105a2600480360381019061059d9190612289565b6110ac565b6040516105af9190612308565b60405180910390f35b3480156105c3575f5ffd5b506105de60048036038101906105d99190612475565b6111c4565b005b3480156105eb575f5ffd5b5061060660048036038101906106019190612425565b611425565b005b348015610613575f5ffd5b5061062e60048036038101906106299190612321565b611638565b005b34801561063b575f5ffd5b5061065660048036038101906106519190612321565b611683565b005b348015610663575f5ffd5b5061067e60048036038101906106799190612a2a565b6116ce565b005b34801561068b575f5ffd5b506106a660048036038101906106a19190612475565b6116f6565b6040516106b391906129d1565b60405180910390f35b3480156106c7575f5ffd5b506106d0611720565b6040516106dd9190612202565b60405180910390f35b3480156106f1575f5ffd5b506106fa611745565b60405161070791906124cb565b60405180910390f35b34801561071b575f5ffd5b5061073660048036038101906107319190612475565b611769565b60405161074391906123cf565b60405180910390f35b348015610757575f5ffd5b50610772600480360381019061076d9190612321565b611789565b005b34801561077f575f5ffd5b5061079a600480360381019061079591906127b4565b61180d565b6040516107a791906123cf565b60405180910390f35b60045f9054906101000a900473ffffffffffffffffffffffffffffffffffffffff1681565b5f60055f9054906101000a900473ffffffffffffffffffffffffffffffffffffffff16905090565b5f5f5f61016773ffffffffffffffffffffffffffffffffffffffff166315dacbea60e01b888888886040516024016108389493929190612a69565b604051602081830303815290604052907bffffffffffffffffffffffffffffffffffffffffffffffffffffffff19166020820180517bffffffffffffffffffffffffffffffffffffffffffffffffffffffff83818316178352505050506040516108a29190612ae6565b5f604051808303815f865af19150503d805f81146108db576040519150601f19603f3d011682016040523d82523d5f602084013e6108e0565b606091505b5091509150816108f1576015610906565b808060200190518101906109059190612b32565b5b60030b92505050949350505050565b5f610920308361188f565b9050601660030b8114610968576040517f08c379a000000000000000000000000000000000000000000000000000000000815260040161095f90612ba7565b60405180910390fd5b5050565b61016781565b5f60045f9054906101000a900473ffffffffffffffffffffffffffffffffffffffff16905090565b60065481565b5f8167ffffffffffffffff16116109ec576040517f08c379a00000000000000000000000000000000000000000000000000000000081526004016109e390612c0f565b60405180910390fd5b5f60075f3373ffffffffffffffffffffffffffffffffffffffff1673ffffffffffffffffffffffffffffffffffffffff1681526020019081526020015f205f8567ffffffffffffffff1681526020019081526020015f205414610a84576040517f08c379a0000000000000000000000000000000000000000000000000000000008152600401610a7b90612c77565b60405180910390fd5b8067ffffffffffffffff1660075f3373ffffffffffffffffffffffffffffffffffffffff1673ffffffffffffffffffffffffffffffffffffffff1681526020019081526020015f205f8567ffffffffffffffff1681526020019081526020015f2081905550505050565b5f600654905090565b610aff6119a1565b5f8111610b41576040517f08c379a0000000000000000000000000000000000000000000000000000000008152600401610b3890612c0f565b60405180910390fd5b5f610b4e833330856119e7565b9050601660030b8114610b96576040517f08c379a0000000000000000000000000000000000000000000000000000000008152600401610b8d90612cdf565b60405180910390fd5b8160095f8573ffffffffffffffffffffffffffffffffffffffff1673ffffffffffffffffffffffffffffffffffffffff1681526020019081526020015f205f3373ffffffffffffffffffffffffffffffffffffffff1673ffffffffffffffffffffffffffffffffffffffff1681526020019081526020015f205f828254610c1d9190612d2a565b925050819055508273ffffffffffffffffffffffffffffffffffffffff163373ffffffffffffffffffffffffffffffffffffffff167f8752a472e571a816aea92eec8dae9baf628e840f4929fbcc2d155e6233ff68a784604051610c8191906123cf565b60405180910390a350610c92611aff565b5050565b7f7f53fd9f97ad93f90ce525d722bfa8cec43e7127f9edb84a84e9a79f4d582f3481565b600160085f3373ffffffffffffffffffffffffffffffffffffffff1673ffffffffffffffffffffffffffffffffffffffff1681526020019081526020015f205f8367ffffffffffffffff1681526020019081526020015f205f6101000a81548160ff0219169083151502179055503373ffffffffffffffffffffffffffffffffffffffff167f54562025d61ffa081c7c7e1b98890e1c4333bbdf640cc5c7e01552908ccfeaf982604051610d6e9190612d6c565b60405180910390a250565b5f60605f5f61016773ffffffffffffffffffffffffffffffffffffffff1663618dc65e60e01b8787604051602401610db2929190612d85565b604051602081830303815290604052907bffffffffffffffffffffffffffffffffffffffffffffffffffffffff19166020820180517bffffffffffffffffffffffffffffffffffffffffffffffffffffffff8381831617835250505050604051610e1c9190612ae6565b5f604051808303815f865af19150503d805f8114610e55576040519150601f19603f3d011682016040523d82523d5f602084013e610e5a565b606091505b50915091507f4af4780e06fe8cb9df64b0794fa6f01399af979175bb988e35e0e57e594567bc8282604051610e90929190612db3565b60405180910390a181610eb357601560405180602001604052805f815250610eb7565b6016815b8160030b9150809450819550505050509250929050565b5f60075f8473ffffffffffffffffffffffffffffffffffffffff1673ffffffffffffffffffffffffffffffffffffffff1681526020019081526020015f205f8367ffffffffffffffff1681526020019081526020015f2054905092915050565b610f36611b09565b610f3f5f611b90565b565b610f49611b09565b8060068190555050565b6009602052815f5260405f20602052805f5260405f205f91509150505481565b5f6060805f5f5f6060610f84611c53565b610f8c611c8d565b46305f5f1b5f67ffffffffffffffff811115610fab57610faa612527565b5b604051908082528060200260200182016040528015610fd95781602001602082028036833780820191505090505b507f0f00000000000000000000000000000000000000000000000000000000000000959493929190965096509650965096509650965090919293949596565b5f60025f9054906101000a900473ffffffffffffffffffffffffffffffffffffffff16905090565b5f60085f8473ffffffffffffffffffffffffffffffffffffffff1673ffffffffffffffffffffffffffffffffffffffff1681526020019081526020015f205f8367ffffffffffffffff1681526020019081526020015f205f9054906101000a900460ff16905092915050565b5f5f5f61016773ffffffffffffffffffffffffffffffffffffffff16639b23d3d960e01b888888886040516024016110e79493929190612a69565b604051602081830303815290604052907bffffffffffffffffffffffffffffffffffffffffffffffffffffffff19166020820180517bffffffffffffffffffffffffffffffffffffffffffffffffffffffff83818316178352505050506040516111519190612ae6565b5f604051808303815f865af19150503d805f811461118a576040519150601f19603f3d011682016040523d82523d5f602084013e61118f565b606091505b5091509150816111a05760156111b5565b808060200190518101906111b49190612b32565b5b60030b92505050949350505050565b6111cc6119a1565b5f811161120e576040517f08c379a000000000000000000000000000000000000000000000000000000000815260040161120590612c0f565b60405180910390fd5b8060095f8473ffffffffffffffffffffffffffffffffffffffff1673ffffffffffffffffffffffffffffffffffffffff1681526020019081526020015f205f3373ffffffffffffffffffffffffffffffffffffffff1673ffffffffffffffffffffffffffffffffffffffff1681526020019081526020015f205410156112c9576040517f08c379a00000000000000000000000000000000000000000000000000000000081526004016112c090612e2b565b60405180910390fd5b8060095f8473ffffffffffffffffffffffffffffffffffffffff1673ffffffffffffffffffffffffffffffffffffffff1681526020019081526020015f205f3373ffffffffffffffffffffffffffffffffffffffff1673ffffffffffffffffffffffffffffffffffffffff1681526020019081526020015f205f8282546113509190612e49565b925050819055505f611364833033856119e7565b9050601681148061137457505f81145b6113b3576040517f08c379a00000000000000000000000000000000000000000000000000000000081526004016113aa90612cdf565b60405180910390fd5b8273ffffffffffffffffffffffffffffffffffffffff163373ffffffffffffffffffffffffffffffffffffffff167fd1c19fbcd4551a5edfb66d43d2e337c04837afda3482b42bdf569a8fccdae5fb8460405161141091906123cf565b60405180910390a350611421611aff565b5050565b5f8167ffffffffffffffff1611611471576040517f08c379a000000000000000000000000000000000000000000000000000000000815260040161146890612c0f565b60405180910390fd5b5f60075f3373ffffffffffffffffffffffffffffffffffffffff1673ffffffffffffffffffffffffffffffffffffffff1681526020019081526020015f205f8567ffffffffffffffff1681526020019081526020015f205414611509576040517f08c379a000000000000000000000000000000000000000000000000000000000815260040161150090612c77565b60405180910390fd5b8067ffffffffffffffff1660095f8473ffffffffffffffffffffffffffffffffffffffff1673ffffffffffffffffffffffffffffffffffffffff1681526020019081526020015f205f3373ffffffffffffffffffffffffffffffffffffffff1673ffffffffffffffffffffffffffffffffffffffff1681526020019081526020015f205410156115ce576040517f08c379a00000000000000000000000000000000000000000000000000000000081526004016115c590612eec565b60405180910390fd5b8067ffffffffffffffff1660075f3373ffffffffffffffffffffffffffffffffffffffff1673ffffffffffffffffffffffffffffffffffffffff1681526020019081526020015f205f8567ffffffffffffffff1681526020019081526020015f2081905550505050565b611640611b09565b8060055f6101000a81548173ffffffffffffffffffffffffffffffffffffffff021916908373ffffffffffffffffffffffffffffffffffffffff16021790555050565b61168b611b09565b8060045f6101000a81548173ffffffffffffffffffffffffffffffffffffffff021916908373ffffffffffffffffffffffffffffffffffffffff16021790555050565b6116d66119a1565b6116e08282611cc8565b6116ea8282611f25565b6116f2611aff565b5050565b6008602052815f5260405f20602052805f5260405f205f915091509054906101000a900460ff1681565b60055f9054906101000a900473ffffffffffffffffffffffffffffffffffffffff1681565b7f7db7299863e08eb07d3e4c1aad6eea546a141615f58076206ad77156d3c7bdbe81565b6007602052815f5260405f20602052805f5260405f205f91509150505481565b611791611b09565b5f73ffffffffffffffffffffffffffffffffffffffff168173ffffffffffffffffffffffffffffffffffffffff1603611801575f6040517f1e4fbdf70000000000000000000000000000000000000000000000000000000081526004016117f89190612202565b60405180910390fd5b61180a81611b90565b50565b5f60095f8473ffffffffffffffffffffffffffffffffffffffff1673ffffffffffffffffffffffffffffffffffffffff1681526020019081526020015f205f8373ffffffffffffffffffffffffffffffffffffffff1673ffffffffffffffffffffffffffffffffffffffff1681526020019081526020015f2054905092915050565b5f5f5f61016773ffffffffffffffffffffffffffffffffffffffff166349146bde60e01b86866040516024016118c6929190612f0a565b604051602081830303815290604052907bffffffffffffffffffffffffffffffffffffffffffffffffffffffff19166020820180517bffffffffffffffffffffffffffffffffffffffffffffffffffffffff83818316178352505050506040516119309190612ae6565b5f604051808303815f865af19150503d805f8114611969576040519150601f19603f3d011682016040523d82523d5f602084013e61196e565b606091505b50915091508161197f576015611994565b808060200190518101906119939190612b32565b5b60030b9250505092915050565b6002600354036119dd576040517f3ee5aeb500000000000000000000000000000000000000000000000000000000815260040160405180910390fd5b6002600381905550565b5f5f5f61016773ffffffffffffffffffffffffffffffffffffffff1663eca3691760e01b88888888604051602401611a229493929190612f31565b604051602081830303815290604052907bffffffffffffffffffffffffffffffffffffffffffffffffffffffff19166020820180517bffffffffffffffffffffffffffffffffffffffffffffffffffffffff8381831617835250505050604051611a8c9190612ae6565b5f604051808303815f865af19150503d805f8114611ac5576040519150601f19603f3d011682016040523d82523d5f602084013e611aca565b606091505b509150915081611adb576015611af0565b80806020019051810190611aef9190612b32565b5b60030b92505050949350505050565b6001600381905550565b611b1161204f565b73ffffffffffffffffffffffffffffffffffffffff16611b2f611018565b73ffffffffffffffffffffffffffffffffffffffff1614611b8e57611b5261204f565b6040517f118cdaa7000000000000000000000000000000000000000000000000000000008152600401611b859190612202565b60405180910390fd5b565b5f60025f9054906101000a900473ffffffffffffffffffffffffffffffffffffffff1690508160025f6101000a81548173ffffffffffffffffffffffffffffffffffffffff021916908373ffffffffffffffffffffffffffffffffffffffff1602179055508173ffffffffffffffffffffffffffffffffffffffff168173ffffffffffffffffffffffffffffffffffffffff167f8be0079c531659141344cd1fd0a4f28419497f9722a3daafe3b4186f6b6457e060405160405180910390a35050565b6060611c885f7f000000000000000000000000000000000000000000000000000000000000000061205690919063ffffffff16565b905090565b6060611cc360017f000000000000000000000000000000000000000000000000000000000000000061205690919063ffffffff16565b905090565b806020016020810190611cdb9190612321565b73ffffffffffffffffffffffffffffffffffffffff16826020016020810190611d049190612321565b73ffffffffffffffffffffffffffffffffffffffff1614611d5a576040517f08c379a0000000000000000000000000000000000000000000000000000000008152600401611d5190612fbe565b60405180910390fd5b806060013582606001351015611da5576040517f08c379a0000000000000000000000000000000000000000000000000000000008152600401611d9c90613026565b60405180910390fd5b81608001354211158015611dbd575080608001354211155b611dfc576040517f08c379a0000000000000000000000000000000000000000000000000000000008152600401611df39061308e565b60405180910390fd5b60085f835f016020810190611e119190612321565b73ffffffffffffffffffffffffffffffffffffffff1673ffffffffffffffffffffffffffffffffffffffff1681526020019081526020015f205f8360a0013581526020019081526020015f205f9054906101000a900460ff16158015611ee2575060085f825f016020810190611e879190612321565b73ffffffffffffffffffffffffffffffffffffffff1673ffffffffffffffffffffffffffffffffffffffff1681526020019081526020015f205f8260a0013581526020019081526020015f205f9054906101000a900460ff16155b611f21576040517f08c379a0000000000000000000000000000000000000000000000000000000008152600401611f18906130f6565b60405180910390fd5b5050565b5f611f59836020016020810190611f3c9190612321565b30855f016020810190611f4f9190612321565b86604001356119e7565b90506016811480611f6957505f81145b611fa8576040517f08c379a0000000000000000000000000000000000000000000000000000000008152600401611f9f9061315e565b60405180910390fd5b5f611ffa60045f9054906101000a900473ffffffffffffffffffffffffffffffffffffffff1630855f016020810190611fe19190612321565b86606001358760400135611ff5919061317c565b6119e7565b9050601681148061200a57505f81145b612049576040517f08c379a000000000000000000000000000000000000000000000000000000000815260040161204090613207565b60405180910390fd5b50505050565b5f33905090565b606060ff5f1b83146120725761206b83612103565b90506120fd565b81805461207e90613252565b80601f01602080910402602001604051908101604052809291908181526020018280546120aa90613252565b80156120f55780601f106120cc576101008083540402835291602001916120f5565b820191905f5260205f20905b8154815290600101906020018083116120d857829003601f168201915b505050505090505b92915050565b60605f61210f83612175565b90505f602067ffffffffffffffff81111561212d5761212c612527565b5b6040519080825280601f01601f19166020018201604052801561215f5781602001600182028036833780820191505090505b5090508181528360208201528092505050919050565b5f5f60ff835f1c169050601f8111156121ba576040517fb3512b0c00000000000000000000000000000000000000000000000000000000815260040160405180910390fd5b80915050919050565b5f73ffffffffffffffffffffffffffffffffffffffff82169050919050565b5f6121ec826121c3565b9050919050565b6121fc816121e2565b82525050565b5f6020820190506122155f8301846121f3565b92915050565b5f604051905090565b5f5ffd5b5f5ffd5b612235816121e2565b811461223f575f5ffd5b50565b5f813590506122508161222c565b92915050565b5f819050919050565b61226881612256565b8114612272575f5ffd5b50565b5f813590506122838161225f565b92915050565b5f5f5f5f608085870312156122a1576122a0612224565b5b5f6122ae87828801612242565b94505060206122bf87828801612242565b93505060406122d087828801612242565b92505060606122e187828801612275565b91505092959194509250565b5f8160070b9050919050565b612302816122ed565b82525050565b5f60208201905061231b5f8301846122f9565b92915050565b5f6020828403121561233657612335612224565b5b5f61234384828501612242565b91505092915050565b5f819050919050565b5f61236f61236a612365846121c3565b61234c565b6121c3565b9050919050565b5f61238082612355565b9050919050565b5f61239182612376565b9050919050565b6123a181612387565b82525050565b5f6020820190506123ba5f830184612398565b92915050565b6123c981612256565b82525050565b5f6020820190506123e25f8301846123c0565b92915050565b5f67ffffffffffffffff82169050919050565b612404816123e8565b811461240e575f5ffd5b50565b5f8135905061241f816123fb565b92915050565b5f5f5f6060848603121561243c5761243b612224565b5b5f61244986828701612411565b935050602061245a86828701612242565b925050604061246b86828701612411565b9150509250925092565b5f5f6040838503121561248b5761248a612224565b5b5f61249885828601612242565b92505060206124a985828601612275565b9150509250929050565b5f819050919050565b6124c5816124b3565b82525050565b5f6020820190506124de5f8301846124bc565b92915050565b5f602082840312156124f9576124f8612224565b5b5f61250684828501612411565b91505092915050565b5f5ffd5b5f5ffd5b5f601f19601f8301169050919050565b7f4e487b71000000000000000000000000000000000000000000000000000000005f52604160045260245ffd5b61255d82612517565b810181811067ffffffffffffffff8211171561257c5761257b612527565b5b80604052505050565b5f61258e61221b565b905061259a8282612554565b919050565b5f67ffffffffffffffff8211156125b9576125b8612527565b5b6125c282612517565b9050602081019050919050565b828183375f83830152505050565b5f6125ef6125ea8461259f565b612585565b90508281526020810184848401111561260b5761260a612513565b5b6126168482856125cf565b509392505050565b5f82601f8301126126325761263161250f565b5b81356126428482602086016125dd565b91505092915050565b5f5f6040838503121561266157612660612224565b5b5f61266e85828601612242565b925050602083013567ffffffffffffffff81111561268f5761268e612228565b5b61269b8582860161261e565b9150509250929050565b5f819050919050565b6126b7816126a5565b82525050565b5f81519050919050565b5f82825260208201905092915050565b8281835e5f83830152505050565b5f6126ef826126bd565b6126f981856126c7565b93506127098185602086016126d7565b61271281612517565b840191505092915050565b5f6040820190506127305f8301856126ae565b818103602083015261274281846126e5565b90509392505050565b5f5f6040838503121561276157612760612224565b5b5f61276e85828601612242565b925050602061277f85828601612411565b9150509250929050565b5f6020828403121561279e5761279d612224565b5b5f6127ab84828501612275565b91505092915050565b5f5f604083850312156127ca576127c9612224565b5b5f6127d785828601612242565b92505060206127e885828601612242565b9150509250929050565b5f7fff0000000000000000000000000000000000000000000000000000000000000082169050919050565b612826816127f2565b82525050565b5f81519050919050565b5f82825260208201905092915050565b5f6128508261282c565b61285a8185612836565b935061286a8185602086016126d7565b61287381612517565b840191505092915050565b5f81519050919050565b5f82825260208201905092915050565b5f819050602082019050919050565b6128b081612256565b82525050565b5f6128c183836128a7565b60208301905092915050565b5f602082019050919050565b5f6128e38261287e565b6128ed8185612888565b93506128f883612898565b805f5b8381101561292857815161290f88826128b6565b975061291a836128cd565b9250506001810190506128fb565b5085935050505092915050565b5f60e0820190506129485f83018a61281d565b818103602083015261295a8189612846565b9050818103604083015261296e8188612846565b905061297d60608301876123c0565b61298a60808301866121f3565b61299760a08301856124bc565b81810360c08301526129a981846128d9565b905098975050505050505050565b5f8115159050919050565b6129cb816129b7565b82525050565b5f6020820190506129e45f8301846129c2565b92915050565b5f5ffd5b5f60c08284031215612a0357612a026129ea565b5b81905092915050565b5f60c08284031215612a2157612a206129ea565b5b81905092915050565b5f5f6101808385031215612a4157612a40612224565b5b5f612a4e858286016129ee565b92505060c0612a5f85828601612a0c565b9150509250929050565b5f608082019050612a7c5f8301876121f3565b612a8960208301866121f3565b612a9660408301856121f3565b612aa360608301846123c0565b95945050505050565b5f81905092915050565b5f612ac0826126bd565b612aca8185612aac565b9350612ada8185602086016126d7565b80840191505092915050565b5f612af18284612ab6565b915081905092915050565b5f8160030b9050919050565b612b1181612afc565b8114612b1b575f5ffd5b50565b5f81519050612b2c81612b08565b92915050565b5f60208284031215612b4757612b46612224565b5b5f612b5484828501612b1e565b91505092915050565b7f4173736f6369617465204661696c6564000000000000000000000000000000005f82015250565b5f612b91601083612836565b9150612b9c82612b5d565b602082019050919050565b5f6020820190508181035f830152612bbe81612b85565b9050919050565b7f7a65726f20616d6f756e740000000000000000000000000000000000000000005f82015250565b5f612bf9600b83612836565b9150612c0482612bc5565b602082019050919050565b5f6020820190508181035f830152612c2681612bed565b9050919050565b7f616c726561647920696e697469616c697a6564000000000000000000000000005f82015250565b5f612c61601383612836565b9150612c6c82612c2d565b602082019050919050565b5f6020820190508181035f830152612c8e81612c55565b9050919050565b7f485453207472616e73666572206661696c6564000000000000000000000000005f82015250565b5f612cc9601383612836565b9150612cd482612c95565b602082019050919050565b5f6020820190508181035f830152612cf681612cbd565b9050919050565b7f4e487b71000000000000000000000000000000000000000000000000000000005f52601160045260245ffd5b5f612d3482612256565b9150612d3f83612256565b9250828201905080821115612d5757612d56612cfd565b5b92915050565b612d66816123e8565b82525050565b5f602082019050612d7f5f830184612d5d565b92915050565b5f604082019050612d985f8301856121f3565b8181036020830152612daa81846126e5565b90509392505050565b5f604082019050612dc65f8301856129c2565b8181036020830152612dd881846126e5565b90509392505050565b7f696e73756666696369656e7420657363726f772062616c616e636500000000005f82015250565b5f612e15601b83612836565b9150612e2082612de1565b602082019050919050565b5f6020820190508181035f830152612e4281612e09565b9050919050565b5f612e5382612256565b9150612e5e83612256565b9250828203905081811115612e7657612e75612cfd565b5b92915050565b7f696e73756666696369656e74206465706f73697465642070726f7065727479205f8201527f746f6b656e730000000000000000000000000000000000000000000000000000602082015250565b5f612ed6602683612836565b9150612ee182612e7c565b604082019050919050565b5f6020820190508181035f830152612f0381612eca565b9050919050565b5f604082019050612f1d5f8301856121f3565b612f2a60208301846121f3565b9392505050565b5f608082019050612f445f8301876121f3565b612f5160208301866121f3565b612f5e60408301856121f3565b612f6b60608301846122f9565b95945050505050565b7f70726f7065727479206d69736d617463680000000000000000000000000000005f82015250565b5f612fa8601183612836565b9150612fb382612f74565b602082019050919050565b5f6020820190508181035f830152612fd581612f9c565b9050919050565b7f7072696365206d69736d617463680000000000000000000000000000000000005f82015250565b5f613010600e83612836565b915061301b82612fdc565b602082019050919050565b5f6020820190508181035f83015261303d81613004565b9050919050565b7f6f726465722065787069726564000000000000000000000000000000000000005f82015250565b5f613078600d83612836565b915061308382613044565b602082019050919050565b5f6020820190508181035f8301526130a58161306c565b9050919050565b7f6f726465722063616e63656c6c656400000000000000000000000000000000005f82015250565b5f6130e0600f83612836565b91506130eb826130ac565b602082019050919050565b5f6020820190508181035f83015261310d816130d4565b9050919050565b7f70726f7065727479207472616e73666572206661696c656400000000000000005f82015250565b5f613148601883612836565b915061315382613114565b602082019050919050565b5f6020820190508181035f8301526131758161313c565b9050919050565b5f61318682612256565b915061319183612256565b925082820261319f81612256565b915082820484148315176131b6576131b5612cfd565b5b5092915050565b7f55534443207472616e7366657220746f2073656c6c6572206661696c656400005f82015250565b5f6131f1601e83612836565b91506131fc826131bd565b602082019050919050565b5f6020820190508181035f83015261321e816131e5565b9050919050565b7f4e487b71000000000000000000000000000000000000000000000000000000005f52602260045260245ffd5b5f600282049050600182168061326957607f821691505b60208210810361327c5761327b613225565b5b5091905056fea264697066735822122021b0866e60dafa48f5357f16baa3bbd7763ff5bb8791492c28bcd2c0a25589cb64736f6c634300081c0033",
  "linkReferences": {},
  "deployedLinkReferences": {},
  "immutableReferences": {
    "3780": [
      {
        "length": 32,
        "start": 7259
      }
    ],
    "3783": [
      {
        "length": 32,
        "start": 7318
      }
    ]
  },
  "inputSourceName": "project/contracts/MarketPlace.sol",
  "buildInfoId": "solc-0_8_28-5d8f22297fca17dd79fae1d48c3e18e192decc14"
}