{
  "_format": "hh3-artifact-1",
  "contractName": "MarketPlace",
  "sourceName": "contracts/MarketPlace.sol",
  "abi": [
    {
      "inputs": [
        {
          "internalType": "address",
          "name": "_initialOwner",
          "type": "address"
        },
        {
          "internalType": "address",
          "name": "_usdcToken",
          "type": "address"
        },
        {
          "internalType": "address",
          "name": "_feeCollector",
          "type": "address"
        },
        {
          "internalType": "uint256",
          "name": "_feeBps",
          "type": "uint256"
        }
      ],
      "stateMutability": "nonpayable",
      "type": "constructor"
    },
    {
      "inputs": [],
      "name": "InvalidShortString",
      "type": "error"
    },
    {
      "inputs": [
        {
          "internalType": "address",
          "name": "owner",
          "type": "address"
        }
      ],
      "name": "OwnableInvalidOwner",
      "type": "error"
    },
    {
      "inputs": [
        {
          "internalType": "address",
          "name": "account",
          "type": "address"
        }
      ],
      "name": "OwnableUnauthorizedAccount",
      "type": "error"
    },
    {
      "inputs": [],
      "name": "ReentrancyGuardReentrantCall",
      "type": "error"
    },
    {
      "inputs": [
        {
          "internalType": "string",
          "name": "str",
          "type": "string"
        }
      ],
      "name": "StringTooLong",
      "type": "error"
    },
    {
      "anonymous": false,
      "inputs": [
        {
          "indexed": false,
          "internalType": "bool",
          "name": "",
          "type": "bool"
        },
        {
          "indexed": false,
          "internalType": "bytes",
          "name": "",
          "type": "bytes"
        }
      ],
      "name": "CallResponseEvent",
      "type": "event"
    },
    {
      "anonymous": false,
      "inputs": [
        {
          "indexed": true,
          "internalType": "address",
          "name": "account",
          "type": "address"
        },
        {
          "indexed": true,
          "internalType": "address",
          "name": "token",
          "type": "address"
        },
        {
          "indexed": false,
          "internalType": "uint256",
          "name": "amount",
          "type": "uint256"
        }
      ],
      "name": "Deposited",
      "type": "event"
    },
    {
      "anonymous": false,
      "inputs": [],
      "name": "EIP712DomainChanged",
      "type": "event"
    },
    {
      "anonymous": false,
      "inputs": [
        {
          "indexed": true,
          "internalType": "address",
          "name": "maker",
          "type": "address"
        },
        {
          "indexed": false,
          "internalType": "uint64",
          "name": "nonce",
          "type": "uint64"
        }
      ],
      "name": "OrderCancelled",
      "type": "event"
    },
    {
      "anonymous": false,
      "inputs": [
        {
          "indexed": true,
          "internalType": "address",
          "name": "previousOwner",
          "type": "address"
        },
        {
          "indexed": true,
          "internalType": "address",
          "name": "newOwner",
          "type": "address"
        }
      ],
      "name": "OwnershipTransferred",
      "type": "event"
    },
    {
      "anonymous": false,
      "inputs": [
        {
          "indexed": true,
          "internalType": "address",
          "name": "buyer",
          "type": "address"
        },
        {
          "indexed": true,
          "internalType": "address",
          "name": "seller",
          "type": "address"
        },
        {
          "indexed": true,
          "internalType": "address",
          "name": "propertyToken",
          "type": "address"
        },
        {
          "indexed": false,
          "internalType": "uint256",
          "name": "filled",
          "type": "uint256"
        },
        {
          "indexed": false,
          "internalType": "uint256",
          "name": "pricePerShare",
          "type": "uint256"
        },
        {
          "indexed": false,
          "internalType": "uint256",
          "name": "totalNotional",
          "type": "uint256"
        },
        {
          "indexed": false,
          "internalType": "uint256",
          "name": "fee",
          "type": "uint256"
        }
      ],
      "name": "TradeExecuted",
      "type": "event"
    },
    {
      "anonymous": false,
      "inputs": [
        {
          "indexed": true,
          "internalType": "address",
          "name": "account",
          "type": "address"
        },
        {
          "indexed": true,
          "internalType": "address",
          "name": "token",
          "type": "address"
        },
        {
          "indexed": false,
          "internalType": "uint256",
          "name": "amount",
          "type": "uint256"
        }
      ],
      "name": "Withdrawn",
      "type": "event"
    },
    {
      "inputs": [],
      "name": "BUY_ORDER_TYPEHASH",
      "outputs": [
        {
          "internalType": "bytes32",
          "name": "",
          "type": "bytes32"
        }
      ],
      "stateMutability": "view",
      "type": "function"
    },
    {
      "inputs": [],
      "name": "HTS",
      "outputs": [
        {
          "internalType": "contract IHederaTokenService",
          "name": "",
          "type": "address"
        }
      ],
      "stateMutability": "view",
      "type": "function"
    },
    {
      "inputs": [],
      "name": "SELL_ORDER_TYPEHASH",
      "outputs": [
        {
          "internalType": "bytes32",
          "name": "",
          "type": "bytes32"
        }
      ],
      "stateMutability": "view",
      "type": "function"
    },
    {
      "inputs": [
        {
          "internalType": "uint64",
          "name": "nonce",
          "type": "uint64"
        }
      ],
      "name": "cancelOrder",
      "outputs": [],
      "stateMutability": "nonpayable",
      "type": "function"
    },
    {
      "inputs": [
        {
          "internalType": "address",
          "name": "",
          "type": "address"
        },
        {
          "internalType": "uint256",
          "name": "",
          "type": "uint256"
        }
      ],
      "name": "cancelled",
      "outputs": [
        {
          "internalType": "bool",
          "name": "",
          "type": "bool"
        }
      ],
      "stateMutability": "view",
      "type": "function"
    },
    {
      "inputs": [
        {
          "internalType": "address",
          "name": "token",
          "type": "address"
        },
        {
          "internalType": "uint256",
          "name": "amount",
          "type": "uint256"
        }
      ],
      "name": "depositToken",
      "outputs": [],
      "stateMutability": "nonpayable",
      "type": "function"
    },
    {
      "inputs": [],
      "name": "eip712Domain",
      "outputs": [
        {
          "internalType": "bytes1",
          "name": "fields",
          "type": "bytes1"
        },
        {
          "internalType": "string",
          "name": "name",
          "type": "string"
        },
        {
          "internalType": "string",
          "name": "version",
          "type": "string"
        },
        {
          "internalType": "uint256",
          "name": "chainId",
          "type": "uint256"
        },
        {
          "internalType": "address",
          "name": "verifyingContract",
          "type": "address"
        },
        {
          "internalType": "bytes32",
          "name": "salt",
          "type": "bytes32"
        },
        {
          "internalType": "uint256[]",
          "name": "extensions",
          "type": "uint256[]"
        }
      ],
      "stateMutability": "view",
      "type": "function"
    },
    {
      "inputs": [
        {
          "internalType": "address",
          "name": "",
          "type": "address"
        },
        {
          "internalType": "address",
          "name": "",
          "type": "address"
        }
      ],
      "name": "escrowBalances",
      "outputs": [
        {
          "internalType": "uint256",
          "name": "",
          "type": "uint256"
        }
      ],
      "stateMutability": "view",
      "type": "function"
    },
    {
      "inputs": [],
      "name": "feeBps",
      "outputs": [
        {
          "internalType": "uint256",
          "name": "",
          "type": "uint256"
        }
      ],
      "stateMutability": "view",
      "type": "function"
    },
    {
      "inputs": [],
      "name": "feeCollector",
      "outputs": [
        {
          "internalType": "address",
          "name": "",
          "type": "address"
        }
      ],
      "stateMutability": "view",
      "type": "function"
    },
    {
      "inputs": [
        {
          "internalType": "address",
          "name": "token",
          "type": "address"
        },
        {
          "internalType": "address",
          "name": "account",
          "type": "address"
        }
      ],
      "name": "getEscrowBalance",
      "outputs": [
        {
          "internalType": "uint256",
          "name": "",
          "type": "uint256"
        }
      ],
      "stateMutability": "view",
      "type": "function"
    },
    {
      "inputs": [],
      "name": "getFeeBps",
      "outputs": [
        {
          "internalType": "uint256",
          "name": "",
          "type": "uint256"
        }
      ],
      "stateMutability": "view",
      "type": "function"
    },
    {
      "inputs": [],
      "name": "getFeeCollector",
      "outputs": [
        {
          "internalType": "address",
          "name": "",
          "type": "address"
        }
      ],
      "stateMutability": "view",
      "type": "function"
    },
    {
      "inputs": [
        {
          "internalType": "address",
          "name": "maker",
          "type": "address"
        },
        {
          "internalType": "uint64",
          "name": "nonce",
          "type": "uint64"
        }
      ],
      "name": "getRemaining",
      "outputs": [
        {
          "internalType": "uint256",
          "name": "",
          "type": "uint256"
        }
      ],
      "stateMutability": "view",
      "type": "function"
    },
    {
      "inputs": [],
      "name": "getUSDC",
      "outputs": [
        {
          "internalType": "address",
          "name": "",
          "type": "address"
        }
      ],
      "stateMutability": "view",
      "type": "function"
    },
    {
      "inputs": [
        {
          "internalType": "uint64",
          "name": "nonce",
          "type": "uint64"
        },
        {
          "internalType": "address",
          "name": "",
          "type": "address"
        },
        {
          "internalType": "uint64",
          "name": "amount",
          "type": "uint64"
        }
      ],
      "name": "initBuyOrder",
      "outputs": [],
      "stateMutability": "nonpayable",
      "type": "function"
    },
    {
      "inputs": [
        {
          "internalType": "uint64",
          "name": "nonce",
          "type": "uint64"
        },
        {
          "internalType": "address",
          "name": "propertyToken",
          "type": "address"
        },
        {
          "internalType": "uint64",
          "name": "amount",
          "type": "uint64"
        }
      ],
      "name": "initSellOrder",
      "outputs": [],
      "stateMutability": "nonpayable",
      "type": "function"
    },
    {
      "inputs": [
        {
          "internalType": "address",
          "name": "maker",
          "type": "address"
        },
        {
          "internalType": "uint64",
          "name": "nonce",
          "type": "uint64"
        }
      ],
      "name": "isCancelled",
      "outputs": [
        {
          "internalType": "bool",
          "name": "",
          "type": "bool"
        }
      ],
      "stateMutability": "view",
      "type": "function"
    },
    {
      "inputs": [],
      "name": "owner",
      "outputs": [
        {
          "internalType": "address",
          "name": "",
          "type": "address"
        }
      ],
      "stateMutability": "view",
      "type": "function"
    },
    {
      "inputs": [
        {
          "internalType": "address",
          "name": "token",
          "type": "address"
        },
        {
          "internalType": "bytes",
          "name": "encodedFunctionSelector",
          "type": "bytes"
        }
      ],
      "name": "redirectForToken",
      "outputs": [
        {
          "internalType": "int256",
          "name": "responseCode",
          "type": "int256"
        },
        {
          "internalType": "bytes",
          "name": "response",
          "type": "bytes"
        }
      ],
      "stateMutability": "nonpayable",
      "type": "function"
    },
    {
      "inputs": [
        {
          "internalType": "address",
          "name": "",
          "type": "address"
        },
        {
          "internalType": "uint256",
          "name": "",
          "type": "uint256"
        }
      ],
      "name": "remaining",
      "outputs": [
        {
          "internalType": "uint256",
          "name": "",
          "type": "uint256"
        }
      ],
      "stateMutability": "view",
      "type": "function"
    },
    {
      "inputs": [],
      "name": "renounceOwnership",
      "outputs": [],
      "stateMutability": "nonpayable",
      "type": "function"
    },
    {
      "inputs": [
        {
          "internalType": "uint256",
          "name": "bps",
          "type": "uint256"
        }
      ],
      "name": "setFeeBps",
      "outputs": [],
      "stateMutability": "nonpayable",
      "type": "function"
    },
    {
      "inputs": [
        {
          "internalType": "address",
          "name": "fc",
          "type": "address"
        }
      ],
      "name": "setFeeCollector",
      "outputs": [],
      "stateMutability": "nonpayable",
      "type": "function"
    },
    {
      "inputs": [
        {
          "internalType": "address",
          "name": "token",
          "type": "address"
        }
      ],
      "name": "setUSDC",
      "outputs": [],
      "stateMutability": "nonpayable",
      "type": "function"
    },
    {
      "inputs": [
        {
          "components": [
            {
              "internalType": "address",
              "name": "maker",
              "type": "address"
            },
            {
              "internalType": "address",
              "name": "propertyToken",
              "type": "address"
            },
            {
              "internalType": "uint256",
              "name": "remainingAmount",
              "type": "uint256"
            },
            {
              "internalType": "uint256",
              "name": "pricePerShare",
              "type": "uint256"
            },
            {
              "internalType": "uint256",
              "name": "expiry",
              "type": "uint256"
            },
            {
              "internalType": "uint256",
              "name": "nonce",
              "type": "uint256"
            }
          ],
          "internalType": "struct MarketPlace.BuyOrder",
          "name": "buy",
          "type": "tuple"
        },
        {
          "components": [
            {
              "internalType": "address",
              "name": "maker",
              "type": "address"
            },
            {
              "internalType": "address",
              "name": "propertyToken",
              "type": "address"
            },
            {
              "internalType": "uint256",
              "name": "remainingAmount",
              "type": "uint256"
            },
            {
              "internalType": "uint256",
              "name": "pricePerShare",
              "type": "uint256"
            },
            {
              "internalType": "uint256",
              "name": "expiry",
              "type": "uint256"
            },
            {
              "internalType": "uint256",
              "name": "nonce",
              "type": "uint256"
            }
          ],
          "internalType": "struct MarketPlace.SellOrder",
          "name": "sell",
          "type": "tuple"
        }
      ],
      "name": "settle",
      "outputs": [],
      "stateMutability": "nonpayable",
      "type": "function"
    },
    {
      "inputs": [
        {
          "internalType": "address",
          "name": "tokenId",
          "type": "address"
        }
      ],
      "name": "tokenAssociate",
      "outputs": [],
      "stateMutability": "nonpayable",
      "type": "function"
    },
    {
      "inputs": [
        {
          "internalType": "address",
          "name": "token",
          "type": "address"
        },
        {
          "internalType": "address",
          "name": "from",
          "type": "address"
        },
        {
          "internalType": "address",
          "name": "to",
          "type": "address"
        },
        {
          "internalType": "uint256",
          "name": "amount",
          "type": "uint256"
        }
      ],
      "name": "transferFrom",
      "outputs": [
        {
          "internalType": "int64",
          "name": "responseCode",
          "type": "int64"
        }
      ],
      "stateMutability": "nonpayable",
      "type": "function"
    },
    {
      "inputs": [
        {
          "internalType": "address",
          "name": "token",
          "type": "address"
        },
        {
          "internalType": "address",
          "name": "from",
          "type": "address"
        },
        {
          "internalType": "address",
          "name": "to",
          "type": "address"
        },
        {
          "internalType": "uint256",
          "name": "serialNumber",
          "type": "uint256"
        }
      ],
      "name": "transferFromNFT",
      "outputs": [
        {
          "internalType": "int64",
          "name": "responseCode",
          "type": "int64"
        }
      ],
      "stateMutability": "nonpayable",
      "type": "function"
    },
    {
      "inputs": [
        {
          "internalType": "address",
          "name": "newOwner",
          "type": "address"
        }
      ],
      "name": "transferOwnership",
      "outputs": [],
      "stateMutability": "nonpayable",
      "type": "function"
    },
    {
      "inputs": [],
      "name": "usdcToken",
      "outputs": [
        {
          "internalType": "address",
          "name": "",
          "type": "address"
        }
      ],
      "stateMutability": "view",
      "type": "function"
    },
    {
      "inputs": [
        {
          "internalType": "address",
          "name": "token",
          "type": "address"
        },
        {
          "internalType": "uint256",
          "name": "amount",
          "type": "uint256"
        }
      ],
      "name": "withdrawToken",
      "outputs": [],
      "stateMutability": "nonpayable",
      "type": "function"
    },
    {
      "stateMutability": "payable",
      "type": "receive"
    }
  ],
  "bytecode": "0x610160604052348015610010575f5ffd5b50604051614cfc380380614cfc83398181016040528101906100329190610658565b836040518060400160405280601081526020017f41747269614d61726b6574506c616365000000000000000000000000000000008152506040518060400160405280600581526020017f312e302e300000000000000000000000000000000000000000000000000000008152506100b25f836103ef60201b90919060201c565b61012081815250506100ce6001826103ef60201b90919060201c565b6101408181525050818051906020012060e08181525050808051906020012061010081815250504660a0818152505061010b61043c60201b60201c565b608081815250503073ffffffffffffffffffffffffffffffffffffffff1660c08173ffffffffffffffffffffffffffffffffffffffff168152505050505f73ffffffffffffffffffffffffffffffffffffffff168173ffffffffffffffffffffffffffffffffffffffff16036101b8575f6040517f1e4fbdf70000000000000000000000000000000000000000000000000000000081526004016101af91906106cb565b60405180910390fd5b6101c78161049660201b60201c565b5060016003819055505f73ffffffffffffffffffffffffffffffffffffffff168473ffffffffffffffffffffffffffffffffffffffff160361023e576040517f08c379a00000000000000000000000000000000000000000000000000000000081526004016102359061073e565b60405180910390fd5b5f73ffffffffffffffffffffffffffffffffffffffff168373ffffffffffffffffffffffffffffffffffffffff16036102ac576040517f08c379a00000000000000000000000000000000000000000000000000000000081526004016102a3906107a6565b60405180910390fd5b5f73ffffffffffffffffffffffffffffffffffffffff168273ffffffffffffffffffffffffffffffffffffffff160361031a576040517f08c379a00000000000000000000000000000000000000000000000000000000081526004016103119061080e565b60405180910390fd5b61271081111561035f576040517f08c379a000000000000000000000000000000000000000000000000000000000815260040161035690610876565b60405180910390fd5b8260045f6101000a81548173ffffffffffffffffffffffffffffffffffffffff021916908373ffffffffffffffffffffffffffffffffffffffff1602179055508160055f6101000a81548173ffffffffffffffffffffffffffffffffffffffff021916908373ffffffffffffffffffffffffffffffffffffffff1602179055508060068190555050505050610d18565b5f602083511015610410576104098361055960201b60201c565b9050610436565b82610420836105be60201b60201c565b5f01908161042e9190610ac8565b5060ff5f1b90505b92915050565b5f7f8b73c3c69bb8fe3d512ecc4cf759cc79239f7b179b0ffacaa9a75d522b39400f60e05161010051463060405160200161047b959493929190610bbe565b60405160208183030381529060405280519060200120905090565b5f60025f9054906101000a900473ffffffffffffffffffffffffffffffffffffffff1690508160025f6101000a81548173ffffffffffffffffffffffffffffffffffffffff021916908373ffffffffffffffffffffffffffffffffffffffff1602179055508173ffffffffffffffffffffffffffffffffffffffff168173ffffffffffffffffffffffffffffffffffffffff167f8be0079c531659141344cd1fd0a4f28419497f9722a3daafe3b4186f6b6457e060405160405180910390a35050565b5f5f829050601f815111156105a557826040517f305a27a900000000000000000000000000000000000000000000000000000000815260040161059c9190610c65565b60405180910390fd5b8051816105b190610cb2565b5f1c175f1b915050919050565b5f819050919050565b5f5ffd5b5f73ffffffffffffffffffffffffffffffffffffffff82169050919050565b5f6105f4826105cb565b9050919050565b610604816105ea565b811461060e575f5ffd5b50565b5f8151905061061f816105fb565b92915050565b5f819050919050565b61063781610625565b8114610641575f5ffd5b50565b5f815190506106528161062e565b92915050565b5f5f5f5f608085870312156106705761066f6105c7565b5b5f61067d87828801610611565b945050602061068e87828801610611565b935050604061069f87828801610611565b92505060606106b087828801610644565b91505092959194509250565b6106c5816105ea565b82525050565b5f6020820190506106de5f8301846106bc565b92915050565b5f82825260208201905092915050565b7f496e76616c696420696e697469616c206f776e657200000000000000000000005f82015250565b5f6107286015836106e4565b9150610733826106f4565b602082019050919050565b5f6020820190508181035f8301526107558161071c565b9050919050565b7f496e76616c6964205553444320746f6b656e00000000000000000000000000005f82015250565b5f6107906012836106e4565b915061079b8261075c565b602082019050919050565b5f6020820190508181035f8301526107bd81610784565b9050919050565b7f496e76616c69642066656520636f6c6c6563746f7200000000000000000000005f82015250565b5f6107f86015836106e4565b9150610803826107c4565b602082019050919050565b5f6020820190508181035f830152610825816107ec565b9050919050565b7f46656520626173697320706f696e747320746f6f2068696768000000000000005f82015250565b5f6108606019836106e4565b915061086b8261082c565b602082019050919050565b5f6020820190508181035f83015261088d81610854565b9050919050565b5f81519050919050565b7f4e487b71000000000000000000000000000000000000000000000000000000005f52604160045260245ffd5b7f4e487b71000000000000000000000000000000000000000000000000000000005f52602260045260245ffd5b5f600282049050600182168061090f57607f821691505b602082108103610922576109216108cb565b5b50919050565b5f819050815f5260205f209050919050565b5f6020601f8301049050919050565b5f82821b905092915050565b5f600883026109847fffffffffffffffffffffffffffffffffffffffffffffffffffffffffffffffff82610949565b61098e8683610949565b95508019841693508086168417925050509392505050565b5f819050919050565b5f6109c96109c46109bf84610625565b6109a6565b610625565b9050919050565b5f819050919050565b6109e2836109af565b6109f66109ee826109d0565b848454610955565b825550505050565b5f5f905090565b610a0d6109fe565b610a188184846109d9565b505050565b5b81811015610a3b57610a305f82610a05565b600181019050610a1e565b5050565b601f821115610a8057610a5181610928565b610a5a8461093a565b81016020851015610a69578190505b610a7d610a758561093a565b830182610a1d565b50505b505050565b5f82821c905092915050565b5f610aa05f1984600802610a85565b1980831691505092915050565b5f610ab88383610a91565b9150826002028217905092915050565b610ad182610894565b67ffffffffffffffff811115610aea57610ae961089e565b5b610af482546108f8565b610aff828285610a3f565b5f60209050601f831160018114610b30575f8415610b1e578287015190505b610b288582610aad565b865550610b8f565b601f198416610b3e86610928565b5f5b82811015610b6557848901518255600182019150602085019450602081019050610b40565b86831015610b825784890151610b7e601f891682610a91565b8355505b6001600288020188555050505b505050505050565b5f819050919050565b610ba981610b97565b82525050565b610bb881610625565b82525050565b5f60a082019050610bd15f830188610ba0565b610bde6020830187610ba0565b610beb6040830186610ba0565b610bf86060830185610baf565b610c0560808301846106bc565b9695505050505050565b8281835e5f83830152505050565b5f601f19601f8301169050919050565b5f610c3782610894565b610c4181856106e4565b9350610c51818560208601610c0f565b610c5a81610c1d565b840191505092915050565b5f6020820190508181035f830152610c7d8184610c2d565b905092915050565b5f81519050919050565b5f819050602082019050919050565b5f610ca98251610b97565b80915050919050565b5f610cbc82610c85565b82610cc684610c8f565b9050610cd181610c9e565b92506020821015610d1157610d0c7fffffffffffffffffffffffffffffffffffffffffffffffffffffffffffffffff83602003600802610949565b831692505b5050919050565b60805160a05160c05160e051610100516101205161014051613fa2610d5a5f395f611cd301525f611c9801525f50505f50505f50505f50505f5050613fa25ff3fe6080604052600436106101e6575f3560e01c806376f819ac11610101578063b3e089a211610094578063d595bee911610063578063d595bee9146106e6578063e1a977ec14610710578063f2fde38b1461074c578063f372111f14610774576101ed565b8063b3e089a214610630578063b544ccc014610658578063b874f69514610680578063c415b95c146106bc576101ed565b80639b23d3d9116100d05780639b23d3d91461057c5780639e281a98146105b8578063a34d60b4146105e0578063a42dce8014610608576101ed565b806376f819ac146104aa57806384b0196e146104e65780638da5cb5b1461051657806394dd683314610540576101ed565b80632c92809811610179578063618dc65e11610148578063618dc65e146103f357806368e1cbec14610430578063715018a61461046c57806372c27b6214610482576101ed565b80632c9280981461034f578063338b5dea146103795780634c2aa52b146103a1578063523eb537146103cb576101ed565b80631bc92162116101b55780631bc92162146102a95780631bf01e9b146102d357806324a9d853146102fd5780632747601414610327576101ed565b806311eac855146101f157806312fde4b71461021b57806315dacbea146102455780631a2a5e1514610281576101ed565b366101ed57005b5f5ffd5b3480156101fc575f5ffd5b506102056107b0565b6040516102129190612bc8565b60405180910390f35b348015610226575f5ffd5b5061022f6107d5565b60405161023c9190612bc8565b60405180910390f35b348015610250575f5ffd5b5061026b60048036038101906102669190612c4f565b6107fd565b6040516102789190612cce565b60405180910390f35b34801561028c575f5ffd5b506102a760048036038101906102a29190612ce7565b610915565b005b3480156102b4575f5ffd5b506102bd61096c565b6040516102ca9190612d6d565b60405180910390f35b3480156102de575f5ffd5b506102e7610972565b6040516102f49190612bc8565b60405180910390f35b348015610308575f5ffd5b5061031161099a565b60405161031e9190612d95565b60405180910390f35b348015610332575f5ffd5b5061034d60048036038101906103489190612deb565b6109a0565b005b34801561035a575f5ffd5b50610363610aee565b6040516103709190612d95565b60405180910390f35b348015610384575f5ffd5b5061039f600480360381019061039a9190612e3b565b610af7565b005b3480156103ac575f5ffd5b506103b5610c96565b6040516103c29190612e91565b60405180910390f35b3480156103d6575f5ffd5b506103f160048036038101906103ec9190612eaa565b610cba565b005b3480156103fe575f5ffd5b5061041960048036038101906104149190613011565b610d79565b6040516104279291906130e3565b60405180910390f35b34801561043b575f5ffd5b5061045660048036038101906104519190613111565b610ece565b6040516104639190612d95565b60405180910390f35b348015610477575f5ffd5b50610480610f2e565b005b34801561048d575f5ffd5b506104a860048036038101906104a3919061314f565b610f41565b005b3480156104b5575f5ffd5b506104d060048036038101906104cb919061317a565b610f53565b6040516104dd9190612d95565b60405180910390f35b3480156104f1575f5ffd5b506104fa610f73565b60405161050d97969594939291906132fb565b60405180910390f35b348015610521575f5ffd5b5061052a611018565b6040516105379190612bc8565b60405180910390f35b34801561054b575f5ffd5b5061056660048036038101906105619190613111565b611040565b6040516105739190613397565b60405180910390f35b348015610587575f5ffd5b506105a2600480360381019061059d9190612c4f565b6110ac565b6040516105af9190612cce565b60405180910390f35b3480156105c3575f5ffd5b506105de60048036038101906105d99190612e3b565b6111c4565b005b3480156105eb575f5ffd5b5061060660048036038101906106019190612deb565b611425565b005b348015610613575f5ffd5b5061062e60048036038101906106299190612ce7565b611638565b005b34801561063b575f5ffd5b5061065660048036038101906106519190612ce7565b611683565b005b348015610663575f5ffd5b5061067e600480360381019061067991906133f0565b6116ce565b005b34801561068b575f5ffd5b506106a660048036038101906106a19190612e3b565b611733565b6040516106b39190613397565b60405180910390f35b3480156106c7575f5ffd5b506106d061175d565b6040516106dd9190612bc8565b60405180910390f35b3480156106f1575f5ffd5b506106fa611782565b6040516107079190612e91565b60405180910390f35b34801561071b575f5ffd5b5061073660048036038101906107319190612e3b565b6117a6565b6040516107439190612d95565b60405180910390f35b348015610757575f5ffd5b50610772600480360381019061076d9190612ce7565b6117c6565b005b34801561077f575f5ffd5b5061079a6004803603810190610795919061317a565b61184a565b6040516107a79190612d95565b60405180910390f35b60045f9054906101000a900473ffffffffffffffffffffffffffffffffffffffff1681565b5f60055f9054906101000a900473ffffffffffffffffffffffffffffffffffffffff16905090565b5f5f5f61016773ffffffffffffffffffffffffffffffffffffffff166315dacbea60e01b88888888604051602401610838949392919061342f565b604051602081830303815290604052907bffffffffffffffffffffffffffffffffffffffffffffffffffffffff19166020820180517bffffffffffffffffffffffffffffffffffffffffffffffffffffffff83818316178352505050506040516108a291906134ac565b5f604051808303815f865af19150503d805f81146108db576040519150601f19603f3d011682016040523d82523d5f602084013e6108e0565b606091505b5091509150816108f1576015610906565b8080602001905181019061090591906134f8565b5b60030b92505050949350505050565b5f61092030836118cc565b9050601660030b8114610968576040517f08c379a000000000000000000000000000000000000000000000000000000000815260040161095f9061356d565b60405180910390fd5b5050565b61016781565b5f60045f9054906101000a900473ffffffffffffffffffffffffffffffffffffffff16905090565b60065481565b5f8167ffffffffffffffff16116109ec576040517f08c379a00000000000000000000000000000000000000000000000000000000081526004016109e3906135d5565b60405180910390fd5b5f60075f3373ffffffffffffffffffffffffffffffffffffffff1673ffffffffffffffffffffffffffffffffffffffff1681526020019081526020015f205f8567ffffffffffffffff1681526020019081526020015f205414610a84576040517f08c379a0000000000000000000000000000000000000000000000000000000008152600401610a7b9061363d565b60405180910390fd5b8067ffffffffffffffff1660075f3373ffffffffffffffffffffffffffffffffffffffff1673ffffffffffffffffffffffffffffffffffffffff1681526020019081526020015f205f8567ffffffffffffffff1681526020019081526020015f2081905550505050565b5f600654905090565b610aff6119de565b5f8111610b41576040517f08c379a0000000000000000000000000000000000000000000000000000000008152600401610b38906135d5565b60405180910390fd5b5f610b4e83333085611a24565b9050601660030b8114610b96576040517f08c379a0000000000000000000000000000000000000000000000000000000008152600401610b8d906136a5565b60405180910390fd5b8160095f8573ffffffffffffffffffffffffffffffffffffffff1673ffffffffffffffffffffffffffffffffffffffff1681526020019081526020015f205f3373ffffffffffffffffffffffffffffffffffffffff1673ffffffffffffffffffffffffffffffffffffffff1681526020019081526020015f205f828254610c1d91906136f0565b925050819055508273ffffffffffffffffffffffffffffffffffffffff163373ffffffffffffffffffffffffffffffffffffffff167f8752a472e571a816aea92eec8dae9baf628e840f4929fbcc2d155e6233ff68a784604051610c819190612d95565b60405180910390a350610c92611b3c565b5050565b7f7f53fd9f97ad93f90ce525d722bfa8cec43e7127f9edb84a84e9a79f4d582f3481565b600160085f3373ffffffffffffffffffffffffffffffffffffffff1673ffffffffffffffffffffffffffffffffffffffff1681526020019081526020015f205f8367ffffffffffffffff1681526020019081526020015f205f6101000a81548160ff0219169083151502179055503373ffffffffffffffffffffffffffffffffffffffff167f54562025d61ffa081c7c7e1b98890e1c4333bbdf640cc5c7e01552908ccfeaf982604051610d6e9190613732565b60405180910390a250565b5f60605f5f61016773ffffffffffffffffffffffffffffffffffffffff1663618dc65e60e01b8787604051602401610db292919061374b565b604051602081830303815290604052907bffffffffffffffffffffffffffffffffffffffffffffffffffffffff19166020820180517bffffffffffffffffffffffffffffffffffffffffffffffffffffffff8381831617835250505050604051610e1c91906134ac565b5f604051808303815f865af19150503d805f8114610e55576040519150601f19603f3d011682016040523d82523d5f602084013e610e5a565b606091505b50915091507f4af4780e06fe8cb9df64b0794fa6f01399af979175bb988e35e0e57e594567bc8282604051610e90929190613779565b60405180910390a181610eb357601560405180602001604052805f815250610eb7565b6016815b8160030b9150809450819550505050509250929050565b5f60075f8473ffffffffffffffffffffffffffffffffffffffff1673ffffffffffffffffffffffffffffffffffffffff1681526020019081526020015f205f8367ffffffffffffffff1681526020019081526020015f2054905092915050565b610f36611b46565b610f3f5f611bcd565b565b610f49611b46565b8060068190555050565b6009602052815f5260405f20602052805f5260405f205f91509150505481565b5f6060805f5f5f6060610f84611c90565b610f8c611cca565b46305f5f1b5f67ffffffffffffffff811115610fab57610faa612eed565b5b604051908082528060200260200182016040528015610fd95781602001602082028036833780820191505090505b507f0f00000000000000000000000000000000000000000000000000000000000000959493929190965096509650965096509650965090919293949596565b5f60025f9054906101000a900473ffffffffffffffffffffffffffffffffffffffff16905090565b5f60085f8473ffffffffffffffffffffffffffffffffffffffff1673ffffffffffffffffffffffffffffffffffffffff1681526020019081526020015f205f8367ffffffffffffffff1681526020019081526020015f205f9054906101000a900460ff16905092915050565b5f5f5f61016773ffffffffffffffffffffffffffffffffffffffff16639b23d3d960e01b888888886040516024016110e7949392919061342f565b604051602081830303815290604052907bffffffffffffffffffffffffffffffffffffffffffffffffffffffff19166020820180517bffffffffffffffffffffffffffffffffffffffffffffffffffffffff838183161783525050505060405161115191906134ac565b5f604051808303815f865af19150503d805f811461118a576040519150601f19603f3d011682016040523d82523d5f602084013e61118f565b606091505b5091509150816111a05760156111b5565b808060200190518101906111b491906134f8565b5b60030b92505050949350505050565b6111cc6119de565b5f811161120e576040517f08c379a0000000000000000000000000000000000000000000000000000000008152600401611205906135d5565b60405180910390fd5b8060095f8473ffffffffffffffffffffffffffffffffffffffff1673ffffffffffffffffffffffffffffffffffffffff1681526020019081526020015f205f3373ffffffffffffffffffffffffffffffffffffffff1673ffffffffffffffffffffffffffffffffffffffff1681526020019081526020015f205410156112c9576040517f08c379a00000000000000000000000000000000000000000000000000000000081526004016112c0906137f1565b60405180910390fd5b8060095f8473ffffffffffffffffffffffffffffffffffffffff1673ffffffffffffffffffffffffffffffffffffffff1681526020019081526020015f205f3373ffffffffffffffffffffffffffffffffffffffff1673ffffffffffffffffffffffffffffffffffffffff1681526020019081526020015f205f828254611350919061380f565b925050819055505f61136483303385611a24565b9050601681148061137457505f81145b6113b3576040517f08c379a00000000000000000000000000000000000000000000000000000000081526004016113aa906136a5565b60405180910390fd5b8273ffffffffffffffffffffffffffffffffffffffff163373ffffffffffffffffffffffffffffffffffffffff167fd1c19fbcd4551a5edfb66d43d2e337c04837afda3482b42bdf569a8fccdae5fb846040516114109190612d95565b60405180910390a350611421611b3c565b5050565b5f8167ffffffffffffffff1611611471576040517f08c379a0000000000000000000000000000000000000000000000000000000008152600401611468906135d5565b60405180910390fd5b5f60075f3373ffffffffffffffffffffffffffffffffffffffff1673ffffffffffffffffffffffffffffffffffffffff1681526020019081526020015f205f8567ffffffffffffffff1681526020019081526020015f205414611509576040517f08c379a00000000000000000000000000000000000000000000000000000000081526004016115009061363d565b60405180910390fd5b8067ffffffffffffffff1660095f8473ffffffffffffffffffffffffffffffffffffffff1673ffffffffffffffffffffffffffffffffffffffff1681526020019081526020015f205f3373ffffffffffffffffffffffffffffffffffffffff1673ffffffffffffffffffffffffffffffffffffffff1681526020019081526020015f205410156115ce576040517f08c379a00000000000000000000000000000000000000000000000000000000081526004016115c5906138b2565b60405180910390fd5b8067ffffffffffffffff1660075f3373ffffffffffffffffffffffffffffffffffffffff1673ffffffffffffffffffffffffffffffffffffffff1681526020019081526020015f205f8567ffffffffffffffff1681526020019081526020015f2081905550505050565b611640611b46565b8060055f6101000a81548173ffffffffffffffffffffffffffffffffffffffff021916908373ffffffffffffffffffffffffffffffffffffffff16021790555050565b61168b611b46565b8060045f6101000a81548173ffffffffffffffffffffffffffffffffffffffff021916908373ffffffffffffffffffffffffffffffffffffffff16021790555050565b6116d66119de565b6116e08282611d05565b5f5f5f5f5f6116ef8787611f62565b945094509450945094506117058787878661211d565b6117138787878686866122ee565b6117228787878787878761279f565b505050505061172f611b3c565b5050565b6008602052815f5260405f20602052805f5260405f205f915091509054906101000a900460ff1681565b60055f9054906101000a900473ffffffffffffffffffffffffffffffffffffffff1681565b7f7db7299863e08eb07d3e4c1aad6eea546a141615f58076206ad77156d3c7bdbe81565b6007602052815f5260405f20602052805f5260405f205f91509150505481565b6117ce611b46565b5f73ffffffffffffffffffffffffffffffffffffffff168173ffffffffffffffffffffffffffffffffffffffff160361183e575f6040517f1e4fbdf70000000000000000000000000000000000000000000000000000000081526004016118359190612bc8565b60405180910390fd5b61184781611bcd565b50565b5f60095f8473ffffffffffffffffffffffffffffffffffffffff1673ffffffffffffffffffffffffffffffffffffffff1681526020019081526020015f205f8373ffffffffffffffffffffffffffffffffffffffff1673ffffffffffffffffffffffffffffffffffffffff1681526020019081526020015f2054905092915050565b5f5f5f61016773ffffffffffffffffffffffffffffffffffffffff166349146bde60e01b86866040516024016119039291906138d0565b604051602081830303815290604052907bffffffffffffffffffffffffffffffffffffffffffffffffffffffff19166020820180517bffffffffffffffffffffffffffffffffffffffffffffffffffffffff838183161783525050505060405161196d91906134ac565b5f604051808303815f865af19150503d805f81146119a6576040519150601f19603f3d011682016040523d82523d5f602084013e6119ab565b606091505b5091509150816119bc5760156119d1565b808060200190518101906119d091906134f8565b5b60030b9250505092915050565b600260035403611a1a576040517f3ee5aeb500000000000000000000000000000000000000000000000000000000815260040160405180910390fd5b6002600381905550565b5f5f5f61016773ffffffffffffffffffffffffffffffffffffffff1663eca3691760e01b88888888604051602401611a5f94939291906138f7565b604051602081830303815290604052907bffffffffffffffffffffffffffffffffffffffffffffffffffffffff19166020820180517bffffffffffffffffffffffffffffffffffffffffffffffffffffffff8381831617835250505050604051611ac991906134ac565b5f604051808303815f865af19150503d805f8114611b02576040519150601f19603f3d011682016040523d82523d5f602084013e611b07565b606091505b509150915081611b18576015611b2d565b80806020019051810190611b2c91906134f8565b5b60030b92505050949350505050565b6001600381905550565b611b4e612a15565b73ffffffffffffffffffffffffffffffffffffffff16611b6c611018565b73ffffffffffffffffffffffffffffffffffffffff1614611bcb57611b8f612a15565b6040517f118cdaa7000000000000000000000000000000000000000000000000000000008152600401611bc29190612bc8565b60405180910390fd5b565b5f60025f9054906101000a900473ffffffffffffffffffffffffffffffffffffffff1690508160025f6101000a81548173ffffffffffffffffffffffffffffffffffffffff021916908373ffffffffffffffffffffffffffffffffffffffff1602179055508173ffffffffffffffffffffffffffffffffffffffff168173ffffffffffffffffffffffffffffffffffffffff167f8be0079c531659141344cd1fd0a4f28419497f9722a3daafe3b4186f6b6457e060405160405180910390a35050565b6060611cc55f7f0000000000000000000000000000000000000000000000000000000000000000612a1c90919063ffffffff16565b905090565b6060611d0060017f0000000000000000000000000000000000000000000000000000000000000000612a1c90919063ffffffff16565b905090565b806020016020810190611d189190612ce7565b73ffffffffffffffffffffffffffffffffffffffff16826020016020810190611d419190612ce7565b73ffffffffffffffffffffffffffffffffffffffff1614611d97576040517f08c379a0000000000000000000000000000000000000000000000000000000008152600401611d8e90613984565b60405180910390fd5b806060013582606001351015611de2576040517f08c379a0000000000000000000000000000000000000000000000000000000008152600401611dd9906139ec565b60405180910390fd5b81608001354211158015611dfa575080608001354211155b611e39576040517f08c379a0000000000000000000000000000000000000000000000000000000008152600401611e3090613a54565b60405180910390fd5b60085f835f016020810190611e4e9190612ce7565b73ffffffffffffffffffffffffffffffffffffffff1673ffffffffffffffffffffffffffffffffffffffff1681526020019081526020015f205f8360a0013581526020019081526020015f205f9054906101000a900460ff16158015611f1f575060085f825f016020810190611ec49190612ce7565b73ffffffffffffffffffffffffffffffffffffffff1673ffffffffffffffffffffffffffffffffffffffff1681526020019081526020015f205f8260a0013581526020019081526020015f205f9054906101000a900460ff16155b611f5e576040517f08c379a0000000000000000000000000000000000000000000000000000000008152600401611f5590613abc565b60405180910390fd5b5050565b5f5f5f5f5f5f60075f895f016020810190611f7d9190612ce7565b73ffffffffffffffffffffffffffffffffffffffff1673ffffffffffffffffffffffffffffffffffffffff1681526020019081526020015f205f8960a0013581526020019081526020015f205490505f60075f895f016020810190611fe29190612ce7565b73ffffffffffffffffffffffffffffffffffffffff1673ffffffffffffffffffffffffffffffffffffffff1681526020019081526020015f205f8960a0013581526020019081526020015f205490505f8211801561203f57505f81115b61207e576040517f08c379a000000000000000000000000000000000000000000000000000000000815260040161207590613b4a565b60405180910390fd5b80821061208b578061208d565b815b96505f87116120d1576040517f08c379a00000000000000000000000000000000000000000000000000000000081526004016120c890613bb2565b60405180910390fd5b8760600135955085876120e49190613bd0565b9450612710600654866120f79190613bd0565b6121019190613c3e565b9350838561210f919061380f565b925050509295509295909350565b8060095f60045f9054906101000a900473ffffffffffffffffffffffffffffffffffffffff1673ffffffffffffffffffffffffffffffffffffffff1673ffffffffffffffffffffffffffffffffffffffff1681526020019081526020015f205f865f01602081019061218f9190612ce7565b73ffffffffffffffffffffffffffffffffffffffff1673ffffffffffffffffffffffffffffffffffffffff1681526020019081526020015f2054101561220a576040517f08c379a000000000000000000000000000000000000000000000000000000000815260040161220190613cb8565b60405180910390fd5b8160095f8660200160208101906122219190612ce7565b73ffffffffffffffffffffffffffffffffffffffff1673ffffffffffffffffffffffffffffffffffffffff1681526020019081526020015f205f855f01602081019061226d9190612ce7565b73ffffffffffffffffffffffffffffffffffffffff1673ffffffffffffffffffffffffffffffffffffffff1681526020019081526020015f205410156122e8576040517f08c379a00000000000000000000000000000000000000000000000000000000081526004016122df90613d46565b60405180910390fd5b50505050565b8360075f885f0160208101906123049190612ce7565b73ffffffffffffffffffffffffffffffffffffffff1673ffffffffffffffffffffffffffffffffffffffff1681526020019081526020015f205f8860a0013581526020019081526020015f205f82825461235e919061380f565b925050819055508360075f875f01602081019061237b9190612ce7565b73ffffffffffffffffffffffffffffffffffffffff1673ffffffffffffffffffffffffffffffffffffffff1681526020019081526020015f205f8760a0013581526020019081526020015f205f8282546123d5919061380f565b925050819055508360095f8860200160208101906123f39190612ce7565b73ffffffffffffffffffffffffffffffffffffffff1673ffffffffffffffffffffffffffffffffffffffff1681526020019081526020015f205f875f01602081019061243f9190612ce7565b73ffffffffffffffffffffffffffffffffffffffff1673ffffffffffffffffffffffffffffffffffffffff1681526020019081526020015f205f828254612486919061380f565b925050819055508360095f8860200160208101906124a49190612ce7565b73ffffffffffffffffffffffffffffffffffffffff1673ffffffffffffffffffffffffffffffffffffffff1681526020019081526020015f205f885f0160208101906124f09190612ce7565b73ffffffffffffffffffffffffffffffffffffffff1673ffffffffffffffffffffffffffffffffffffffff1681526020019081526020015f205f82825461253791906136f0565b925050819055508260095f60045f9054906101000a900473ffffffffffffffffffffffffffffffffffffffff1673ffffffffffffffffffffffffffffffffffffffff1673ffffffffffffffffffffffffffffffffffffffff1681526020019081526020015f205f885f0160208101906125b09190612ce7565b73ffffffffffffffffffffffffffffffffffffffff1673ffffffffffffffffffffffffffffffffffffffff1681526020019081526020015f205f8282546125f7919061380f565b925050819055508060095f60045f9054906101000a900473ffffffffffffffffffffffffffffffffffffffff1673ffffffffffffffffffffffffffffffffffffffff1673ffffffffffffffffffffffffffffffffffffffff1681526020019081526020015f205f875f0160208101906126709190612ce7565b73ffffffffffffffffffffffffffffffffffffffff1673ffffffffffffffffffffffffffffffffffffffff1681526020019081526020015f205f8282546126b791906136f0565b925050819055505f821115612797578160095f60045f9054906101000a900473ffffffffffffffffffffffffffffffffffffffff1673ffffffffffffffffffffffffffffffffffffffff1673ffffffffffffffffffffffffffffffffffffffff1681526020019081526020015f205f60055f9054906101000a900473ffffffffffffffffffffffffffffffffffffffff1673ffffffffffffffffffffffffffffffffffffffff1673ffffffffffffffffffffffffffffffffffffffff1681526020019081526020015f205f82825461278f91906136f0565b925050819055505b505050505050565b5f6127cf8860200160208101906127b69190612ce7565b308a5f0160208101906127c99190612ce7565b89611a24565b905060168114806127df57505f81145b61281e576040517f08c379a000000000000000000000000000000000000000000000000000000000815260040161281590613dae565b60405180910390fd5b5f61285d60045f9054906101000a900473ffffffffffffffffffffffffffffffffffffffff16308a5f0160208101906128579190612ce7565b86611a24565b9050601681148061286d57505f81145b6128ac576040517f08c379a00000000000000000000000000000000000000000000000000000000081526004016128a390613e16565b60405180910390fd5b5f841115612954575f61290360045f9054906101000a900473ffffffffffffffffffffffffffffffffffffffff163060055f9054906101000a900473ffffffffffffffffffffffffffffffffffffffff1688611a24565b9050601681148061291357505f81145b612952576040517f08c379a000000000000000000000000000000000000000000000000000000000815260040161294990613e7e565b60405180910390fd5b505b8860200160208101906129679190612ce7565b73ffffffffffffffffffffffffffffffffffffffff16885f01602081019061298f9190612ce7565b73ffffffffffffffffffffffffffffffffffffffff168a5f0160208101906129b79190612ce7565b73ffffffffffffffffffffffffffffffffffffffff167f714ced76bb176c3b89253dc61d57c4a58a2c2ff280cb04c6620cc520ae99295f8a8a8a8a604051612a029493929190613ecc565b60405180910390a4505050505050505050565b5f33905090565b606060ff5f1b8314612a3857612a3183612ac9565b9050612ac3565b818054612a4490613f3c565b80601f0160208091040260200160405190810160405280929190818152602001828054612a7090613f3c565b8015612abb5780601f10612a9257610100808354040283529160200191612abb565b820191905f5260205f20905b815481529060010190602001808311612a9e57829003601f168201915b505050505090505b92915050565b60605f612ad583612b3b565b90505f602067ffffffffffffffff811115612af357612af2612eed565b5b6040519080825280601f01601f191660200182016040528015612b255781602001600182028036833780820191505090505b5090508181528360208201528092505050919050565b5f5f60ff835f1c169050601f811115612b80576040517fb3512b0c00000000000000000000000000000000000000000000000000000000815260040160405180910390fd5b80915050919050565b5f73ffffffffffffffffffffffffffffffffffffffff82169050919050565b5f612bb282612b89565b9050919050565b612bc281612ba8565b82525050565b5f602082019050612bdb5f830184612bb9565b92915050565b5f604051905090565b5f5ffd5b5f5ffd5b612bfb81612ba8565b8114612c05575f5ffd5b50565b5f81359050612c1681612bf2565b92915050565b5f819050919050565b612c2e81612c1c565b8114612c38575f5ffd5b50565b5f81359050612c4981612c25565b92915050565b5f5f5f5f60808587031215612c6757612c66612bea565b5b5f612c7487828801612c08565b9450506020612c8587828801612c08565b9350506040612c9687828801612c08565b9250506060612ca787828801612c3b565b91505092959194509250565b5f8160070b9050919050565b612cc881612cb3565b82525050565b5f602082019050612ce15f830184612cbf565b92915050565b5f60208284031215612cfc57612cfb612bea565b5b5f612d0984828501612c08565b91505092915050565b5f819050919050565b5f612d35612d30612d2b84612b89565b612d12565b612b89565b9050919050565b5f612d4682612d1b565b9050919050565b5f612d5782612d3c565b9050919050565b612d6781612d4d565b82525050565b5f602082019050612d805f830184612d5e565b92915050565b612d8f81612c1c565b82525050565b5f602082019050612da85f830184612d86565b92915050565b5f67ffffffffffffffff82169050919050565b612dca81612dae565b8114612dd4575f5ffd5b50565b5f81359050612de581612dc1565b92915050565b5f5f5f60608486031215612e0257612e01612bea565b5b5f612e0f86828701612dd7565b9350506020612e2086828701612c08565b9250506040612e3186828701612dd7565b9150509250925092565b5f5f60408385031215612e5157612e50612bea565b5b5f612e5e85828601612c08565b9250506020612e6f85828601612c3b565b9150509250929050565b5f819050919050565b612e8b81612e79565b82525050565b5f602082019050612ea45f830184612e82565b92915050565b5f60208284031215612ebf57612ebe612bea565b5b5f612ecc84828501612dd7565b91505092915050565b5f5ffd5b5f5ffd5b5f601f19601f8301169050919050565b7f4e487b71000000000000000000000000000000000000000000000000000000005f52604160045260245ffd5b612f2382612edd565b810181811067ffffffffffffffff82111715612f4257612f41612eed565b5b80604052505050565b5f612f54612be1565b9050612f608282612f1a565b919050565b5f67ffffffffffffffff821115612f7f57612f7e612eed565b5b612f8882612edd565b9050602081019050919050565b828183375f83830152505050565b5f612fb5612fb084612f65565b612f4b565b905082815260208101848484011115612fd157612fd0612ed9565b5b612fdc848285612f95565b509392505050565b5f82601f830112612ff857612ff7612ed5565b5b8135613008848260208601612fa3565b91505092915050565b5f5f6040838503121561302757613026612bea565b5b5f61303485828601612c08565b925050602083013567ffffffffffffffff81111561305557613054612bee565b5b61306185828601612fe4565b9150509250929050565b5f819050919050565b61307d8161306b565b82525050565b5f81519050919050565b5f82825260208201905092915050565b8281835e5f83830152505050565b5f6130b582613083565b6130bf818561308d565b93506130cf81856020860161309d565b6130d881612edd565b840191505092915050565b5f6040820190506130f65f830185613074565b818103602083015261310881846130ab565b90509392505050565b5f5f6040838503121561312757613126612bea565b5b5f61313485828601612c08565b925050602061314585828601612dd7565b9150509250929050565b5f6020828403121561316457613163612bea565b5b5f61317184828501612c3b565b91505092915050565b5f5f604083850312156131905761318f612bea565b5b5f61319d85828601612c08565b92505060206131ae85828601612c08565b9150509250929050565b5f7fff0000000000000000000000000000000000000000000000000000000000000082169050919050565b6131ec816131b8565b82525050565b5f81519050919050565b5f82825260208201905092915050565b5f613216826131f2565b61322081856131fc565b935061323081856020860161309d565b61323981612edd565b840191505092915050565b5f81519050919050565b5f82825260208201905092915050565b5f819050602082019050919050565b61327681612c1c565b82525050565b5f613287838361326d565b60208301905092915050565b5f602082019050919050565b5f6132a982613244565b6132b3818561324e565b93506132be8361325e565b805f5b838110156132ee5781516132d5888261327c565b97506132e083613293565b9250506001810190506132c1565b5085935050505092915050565b5f60e08201905061330e5f83018a6131e3565b8181036020830152613320818961320c565b90508181036040830152613334818861320c565b90506133436060830187612d86565b6133506080830186612bb9565b61335d60a0830185612e82565b81810360c083015261336f818461329f565b905098975050505050505050565b5f8115159050919050565b6133918161337d565b82525050565b5f6020820190506133aa5f830184613388565b92915050565b5f5ffd5b5f60c082840312156133c9576133c86133b0565b5b81905092915050565b5f60c082840312156133e7576133e66133b0565b5b81905092915050565b5f5f610180838503121561340757613406612bea565b5b5f613414858286016133b4565b92505060c0613425858286016133d2565b9150509250929050565b5f6080820190506134425f830187612bb9565b61344f6020830186612bb9565b61345c6040830185612bb9565b6134696060830184612d86565b95945050505050565b5f81905092915050565b5f61348682613083565b6134908185613472565b93506134a081856020860161309d565b80840191505092915050565b5f6134b7828461347c565b915081905092915050565b5f8160030b9050919050565b6134d7816134c2565b81146134e1575f5ffd5b50565b5f815190506134f2816134ce565b92915050565b5f6020828403121561350d5761350c612bea565b5b5f61351a848285016134e4565b91505092915050565b7f4173736f6369617465204661696c6564000000000000000000000000000000005f82015250565b5f6135576010836131fc565b915061356282613523565b602082019050919050565b5f6020820190508181035f8301526135848161354b565b9050919050565b7f7a65726f20616d6f756e740000000000000000000000000000000000000000005f82015250565b5f6135bf600b836131fc565b91506135ca8261358b565b602082019050919050565b5f6020820190508181035f8301526135ec816135b3565b9050919050565b7f616c726561647920696e697469616c697a6564000000000000000000000000005f82015250565b5f6136276013836131fc565b9150613632826135f3565b602082019050919050565b5f6020820190508181035f8301526136548161361b565b9050919050565b7f485453207472616e73666572206661696c6564000000000000000000000000005f82015250565b5f61368f6013836131fc565b915061369a8261365b565b602082019050919050565b5f6020820190508181035f8301526136bc81613683565b9050919050565b7f4e487b71000000000000000000000000000000000000000000000000000000005f52601160045260245ffd5b5f6136fa82612c1c565b915061370583612c1c565b925082820190508082111561371d5761371c6136c3565b5b92915050565b61372c81612dae565b82525050565b5f6020820190506137455f830184613723565b92915050565b5f60408201905061375e5f830185612bb9565b818103602083015261377081846130ab565b90509392505050565b5f60408201905061378c5f830185613388565b818103602083015261379e81846130ab565b90509392505050565b7f696e73756666696369656e7420657363726f772062616c616e636500000000005f82015250565b5f6137db601b836131fc565b91506137e6826137a7565b602082019050919050565b5f6020820190508181035f830152613808816137cf565b9050919050565b5f61381982612c1c565b915061382483612c1c565b925082820390508181111561383c5761383b6136c3565b5b92915050565b7f696e73756666696369656e74206465706f73697465642070726f7065727479205f8201527f746f6b656e730000000000000000000000000000000000000000000000000000602082015250565b5f61389c6026836131fc565b91506138a782613842565b604082019050919050565b5f6020820190508181035f8301526138c981613890565b9050919050565b5f6040820190506138e35f830185612bb9565b6138f06020830184612bb9565b9392505050565b5f60808201905061390a5f830187612bb9565b6139176020830186612bb9565b6139246040830185612bb9565b6139316060830184612cbf565b95945050505050565b7f70726f7065727479206d69736d617463680000000000000000000000000000005f82015250565b5f61396e6011836131fc565b91506139798261393a565b602082019050919050565b5f6020820190508181035f83015261399b81613962565b9050919050565b7f7072696365206d69736d617463680000000000000000000000000000000000005f82015250565b5f6139d6600e836131fc565b91506139e1826139a2565b602082019050919050565b5f6020820190508181035f830152613a03816139ca565b9050919050565b7f6f726465722065787069726564000000000000000000000000000000000000005f82015250565b5f613a3e600d836131fc565b9150613a4982613a0a565b602082019050919050565b5f6020820190508181035f830152613a6b81613a32565b9050919050565b7f6f726465722063616e63656c6c656400000000000000000000000000000000005f82015250565b5f613aa6600f836131fc565b9150613ab182613a72565b602082019050919050565b5f6020820190508181035f830152613ad381613a9a565b9050919050565b7f6f72646572206e6f7420696e697469616c697a6564206f7220616c72656164795f8201527f2066696c6c656400000000000000000000000000000000000000000000000000602082015250565b5f613b346027836131fc565b9150613b3f82613ada565b604082019050919050565b5f6020820190508181035f830152613b6181613b28565b9050919050565b7f6e6f7468696e6720746f2066696c6c00000000000000000000000000000000005f82015250565b5f613b9c600f836131fc565b9150613ba782613b68565b602082019050919050565b5f6020820190508181035f830152613bc981613b90565b9050919050565b5f613bda82612c1c565b9150613be583612c1c565b9250828202613bf381612c1c565b91508282048414831517613c0a57613c096136c3565b5b5092915050565b7f4e487b71000000000000000000000000000000000000000000000000000000005f52601260045260245ffd5b5f613c4882612c1c565b9150613c5383612c1c565b925082613c6357613c62613c11565b5b828204905092915050565b7f627579657220696e73756666696369656e74205553444320657363726f7700005f82015250565b5f613ca2601e836131fc565b9150613cad82613c6e565b602082019050919050565b5f6020820190508181035f830152613ccf81613c96565b9050919050565b7f73656c6c657220696e73756666696369656e742070726f7065727479206573635f8201527f726f770000000000000000000000000000000000000000000000000000000000602082015250565b5f613d306023836131fc565b9150613d3b82613cd6565b604082019050919050565b5f6020820190508181035f830152613d5d81613d24565b9050919050565b7f70726f7065727479207472616e73666572206661696c656400000000000000005f82015250565b5f613d986018836131fc565b9150613da382613d64565b602082019050919050565b5f6020820190508181035f830152613dc581613d8c565b9050919050565b7f55534443207472616e7366657220746f2073656c6c6572206661696c656400005f82015250565b5f613e00601e836131fc565b9150613e0b82613dcc565b602082019050919050565b5f6020820190508181035f830152613e2d81613df4565b9050919050565b7f666565207472616e73666572206661696c6564000000000000000000000000005f82015250565b5f613e686013836131fc565b9150613e7382613e34565b602082019050919050565b5f6020820190508181035f830152613e9581613e5c565b9050919050565b5f613eb6613eb1613eac84612dae565b612d12565b612c1c565b9050919050565b613ec681613e9c565b82525050565b5f608082019050613edf5f830187612d86565b613eec6020830186613ebd565b613ef96040830185612d86565b613f066060830184612d86565b95945050505050565b7f4e487b71000000000000000000000000000000000000000000000000000000005f52602260045260245ffd5b5f6002820490506001821680613f5357607f821691505b602082108103613f6657613f65613f0f565b5b5091905056fea2646970667358221220626abf2567c8ffbd4c0e78d6fe2938f635f785dde7fde2c6f736e815c2e7f68f64736f6c634300081c0033",
  "linkReferences": {},
  "deployedLinkReferences": {},
  "immutableReferences": {
    "3780": [
      {
        "length": 32,
        "start": 7320
      }
    ],
    "3783": [
      {
        "length": 32,
        "start": 7379
      }
    ]
  },
  "inputSourceName": "project/contracts/MarketPlace.sol",
  "buildInfoId": "solc-0_8_28-c7f14957ea87ecd5a53a1b4d9912876125983999"
}